:020000040800F2
:1060000000C00020296D0008716700087367000850
:1060100075670008776700087967000800000000CE
:106020000000000000000000000000007B67000886
:106030007D670008000000007F6700088167000896
:10604000716D0008716D0008716D0008716D0008B8
:10605000716D0008716D000889670008936700087A
:106060009D670008716D0008716D0008716D000872
:10607000716D0008716D0008716D0008716D000888
:10608000716D0008716D0008716D0008716D000878
:10609000716D0008716D0008716D0008716D000868
:1060A000716D0008A9670008716D0008716D000826
:1060B000B9670008C9670008D9670008716D000852
:1060C000716D0008716D0008716D0008716D000838
:1060D000716D0008716D0008716D0008716D000828
:1060E000716D0008716D0008716D0008716D000818
:1060F000716D0008716D0008716D0008716D000808
:10610000716D0008716D0008E9670008716D000885
:10611000716D0008716D0008716D0008716D0008E7
:10612000716D0008716D0008716D0008716D0008D7
:10613000000000000000000000000000000000005F
:10614000000000000000000000000000000000004F
:10615000000000000000000000000000000000003F
:10616000000000000000000000000000000000002F
:10617000000000000000000000000000000000001F
:10618000000000000000000000000000000000000F
:1061900000000000000000000000000000000000FF
:1061A00000000000000000000000000000000000EF
:1061B00000000000000000000000000000000000DF
:1061C00000000000000000000000000000000000CF
:1061D00000000000000000000000000000000000BF
:0461E0005FF8E0F193
:1061E4000348044B834202D0034B03B11847704762
:1061F4001000002010000020000000000548064B9D
:106204001B1AD90F01EBA301491002D0034B03B1B0
:106214001847704710000020100000200000000004
:1062240010B5064C237843B9FFF7DAFF044B13B1DA
:106234000448AFF300800123237010BD1000002038
:10624400000000003C8C000808B5054B1BB1054953
:106254000548AFF30080BDE80840FFF7CFBF00BF9B
:1062640000000000140000203C8C000808B50E4813
:106274000E490160012383834FF400728286002358
:106284004362C1640221A0F86810A0F8802003676B
:1062940002F0A6FB08B1012008BD054802F0A0FBEE
:1062A4000028F9D00120F7E72C000020C4000020CA
:1062B4007800002008B5064802F0B2FB08B10120BE
:1062C40008BD044802F0ACFB0028F9D00120F7E730
:1062D4002C0000207800002000B583B0054B00930B
:1062E400F0231A460021084602F068FA03B05DF86C
:1062F40004FB00BF548C000800B58BB01B481C4B3A
:1063040003600423436000238360C3604FF4C0220E
:1063140002614361037643768376C37603774377DA
:1063240000F084FDC0B9002305930693012207926F
:106334000093019302930393049308920E23099309
:1063440069460A4800F018FE48B9084800F09AFE69
:1063540040B90BB05DF804FB00F022F9E3E700F06C
:106364001FF9F2E700F01CF9F3E700BFC4000020B6
:106374000064004010B586B0002302930393049395
:10638400059302681A4B9A4201D006B010BD03F57A
:10639400D633DA6942F00072DA61DA6902F0007227
:1063A4000092009A9A6942F004029A619B6903F090
:1063B40004030193019B4FF4807302930D4C02A9D3
:1063C400204600F07BFF4FF40073029302230393F3
:1063D4000323059302A9204600F070FF064A536880
:1063E40023F4C04343F0E06343F480435360CCE7B9
:1063F40000640040000C0140000001402DE9F0431E
:1064040089B000240494059406940794374B9A6940
:1064140042F010029A619A6902F010020092009A06
:106424009A6942F020029A619A6902F0200201926C
:10643400019A9A6942F004029A619A6902F004028C
:106444000292029A9A6942F008029A619B6903F0E7
:1064540008030393039BDFF89890224612214846D1
:1064640001F048F8234E22464FF48071304601F083
:1064740041F807250495204B0593069404A91F4869
:1064840000F01CFF122304934FF00108CDF8148090
:1064940006940227079704A9484600F00FFF4FF41B
:1064A40080730493CDF814800694079704A93046AA
:1064B40000F004FF22462146062000F0CDFE06200F
:1064C40000F0DAFE22462146284600F0C5FE2846A2
:1064D40000F0D2FE22462146082000F0BDFE08202E
:1064E40000F0CAFE09B0BDE8F08300BF001002400E
:1064F400000C014000080140000011100010014090
:1065040008B50B480B4B03600B4B436000238360BF
:10651400C3604FF48042026143618361C3610362DB
:1065240001F006F800B908BD00F03AF8FBE700BF37
:10653400EC00002000580040A086010010B586B091
:10654400002302930393049305930268114B9A4228
:1065540001D006B010BD104CA36943F00803A36139
:10656400A36903F008030093009B4FF44063029374
:10657400122303930323059302A9084800F09EFE07
:10658400E36943F48003E361E36903F48003019363
:10659400019BDEE70058004000100240000C01405F
:1065A40072B6FEE700B591B02822002106A802F0D9
:1065B40063FA002301930293039304930593012246
:1065C40006924FF4803307930A9202220D920E939F
:1065D4004FF4E0130F9306A801F09EF880B90F233F
:1065E400019302210291002303934FF480620492E9
:1065F400059301A801F0C2FA20B911B05DF804FBBB
:10660400FFF7CEFFFFF7CCFF08B500F0D7FBFFF78D
:10661400C9FFFFF7F3FEFFF773FF00F059F900F02D
:10662400E3FA00F021F900F089F900F0BDF900F077
:10663400E3F800F025F800F0F1FAFFF75DFE02F050
:10664400F7F8002002F086F8FFF746FE0A48FFF745
:106654000DFE0121094800F053FF07484FF07E5317
:1066640043620367FFF726FE642000F0CBFB4FF480
:10667400FA7000F0C7FBECE72C000020000C01408E
:1066840008B50E480E4B03604FF482734360002339
:106694008360C36002220261012242614FF40072EE
:1066A4008261C3610362436283620A23C36201F0AD
:1066B400B7FB00B908BDFFF773FFFBE740010020FB
:1066C4000038004000B587B000230293039304937D
:1066D40005930268124B9A4202D007B05DF804FB9E
:1066E40003F5EC33DA6942F48042DA61DA6902F4E0
:1066F40080420092009A9A6942F008029A619B696A
:1067040003F008030193019B4FF4204302930223F7
:1067140003930323059302A9024800F0CFFDDCE7AD
:1067240000380040000C014082B00E4B9A6942F0E0
:1067340001029A619A6902F001020092009ADA69F0
:1067440042F08052DA61DB6903F080530193019BCC
:10675400054A536823F0E06343F00073536002B0CA
:10676400704700BF0010024000000140FEE7FEE752
:10677400FEE7FEE7FEE770477047704708B500F094
:106784002FFB08BD08B5012000F0C4FE08BD08B504
:10679400022000F0BFFE08BD08B5042000F0BAFED8
:1067A40008BD000008B5024801F0A3FC08BD00BF05
:1067B400B802002008B5024801F09BFC08BD00BFE8
:1067C4007002002008B5024801F093FC08BD00BF28
:1067D4002802002008B5024801F08BFC08BD00BF68
:1067E400E001002008B5024801F083FC08BD00BFA9
:1067F400980100207047000000B587B00023029381
:10680400039304930593009301931548154A02607A
:1068140047224260836040F2E732C2600361436111
:10682400836101F06FFD90B94FF48053029302A984
:106834000B4801F0FAFD68B90023009301936946FF
:10684400074801F071FE40B907B05DF804FBFFF79B
:10685400A7FEE9E7FFF7A4FEEEE7FFF7A1FEF3E7E3
:10686400B8020020002C014000B58DB02422002184
:1068740003A802F001F900230193029313484FF097
:1068840080420260436083604FF6FF72C26003611E
:10689400836103230393012205920A230793099238
:1068A4000B9303A901F05AFD50B9002301930293FD
:1068B40001A9064801F038FE28B90DB05DF804FBC3
:1068C400FFF76EFEF1E7FFF76BFEF6E770020020BC
:1068D40000B58DB02422002103A802F0CDF80023D6
:1068E400019302931348144A0260436083604FF695
:1068F400FF72C26003618361032303930122059243
:106904000A23079309920B9303A901F027FD50B9B9
:1069140000230193029301A9064801F005FE28B95A
:106924000DB05DF804FBFFF73BFEF1E7FFF738FE1F
:10693400F6E700BF280200200004004000B58DB037
:106944002422002103A802F097F800230193029364
:106954001348144A0260436083604FF6FF72C260BA
:106964000361836103230393012205920A2307939E
:1069740009920B9303A901F0F1FC50B90023019390
:10698400029301A9064801F0CFFD28B90DB05DF8C6
:1069940004FBFFF705FEF1E7FFF702FEF6E700BF91
:1069A400E00100200008004000B58DB02422002141
:1069B40003A802F061F80023019302931348144AD8
:1069C4000260436083604FF6FF72C26003618361BB
:1069D40003230393012205920A23079309920B933D
:1069E40003A901F0BBFC50B900230193029301A950
:1069F400064801F099FD28B90DB05DF804FBFFF7D6
:106A0400CFFDF1E7FFF7CCFDF6E700BF98010020CA
:106A1400000C004002680E4B9A4200D0704700B54B
:106A240083B003F564439A6942F400629A619B69F6
:106A340003F400630193019B00221146192000F026
:106A44000BFC192000F018FC03B05DF804FB00BF38
:106A5400002C014010B58EB000230A930B930C93C5
:106A64000D930368B3F1804F0BD0584A934247D03B
:106A7400574A934266D0574A934200F085800EB03D
:106A840010BD03F50433DA6942F00102DA61DA6910
:106A940002F001020192019A9A6942F004029A6199
:106AA4009A6902F004020292029A9A6942F0080278
:106AB4009A619B6903F008030393039B4FF400431B
:106AC4000A930AA9444800F0F9FB08230A93002416
:106AD4000B940C940AA9414800F0F0FB404A536817
:106AE40023F4407343F0E06343F48073536022461D
:106AF40021461C2000F0B0FB1C2000F0BDFBBEE7CB
:106B0400384BDA6942F00202DA61DA6902F0020211
:106B14000492049A9A6942F004029A619B6903F010
:106B240004030593059BC0230A930AA92A4800F08D
:106B3400C5FB002211461D2000F08EFB1D2000F035
:106B44009BFB9CE7274BDA6942F00402DA61DA69BD
:106B540002F004020692069A9A6942F008029A61C7
:106B64009B6903F008030793079BC0230A930AA9B0
:106B74001A4800F0A3FB002211461E2000F06CFB13
:106B84001E2000F079FB7AE7164BDA6942F008021E
:106B9400DA61DA6902F008020892089A9A6942F006
:106BA40004029A619B6903F004030993099B03237C
:106BB4000A930AA9084800F081FB002211463220FA
:106BC40000F04AFB322000F057FB58E70004004075
:106BD40000080040000C004000080140000C014087
:106BE400000001400010024008B50A480A4B036047
:106BF4004FF4E133436000238360C36003610C22DC
:106C040042618361C36101F019FD00B908BDFFF75A
:106C1400C7FCFBE7480300200038014008B50A48D8
:106C24000A4B03604FF4E133436000238360C36085
:106C340003610C2242618361C36101F0FFFC00B96E
:106C440008BDFFF7ADFCFBE7000300200044004053
:106C540010B588B000230493059306930793036843
:106C64002C4A934204D02C4A93422BD008B010BD36
:106C74002A4B9A6942F480429A619A6902F48042EA
:106C84000092009A9A6942F004029A619B6903F0A7
:106C940004030193019B4FF40073049302230593AF
:106CA400032307931E4C04A9204600F007FB4FF46E
:106CB4008063049300230593069304A9204600F0FF
:106CC400FDFAD3E7154BDA6942F40032DA61DA6986
:106CD40002F400320292029A9A6942F004029A6122
:106CE4009B6903F004030393039B0423049302238B
:106CF4000593032307930A4C04A9204600F0DEFA07
:106D04000823049300230593069304A9204600F066
:106D1400D5FAABE7003801400044004000100240BF
:106D240000080140FFF766FD0B480C490C4A00239C
:106D340002E0D458C4500433C4188C42F9D3094A2D
:106D4400094C002301E013600432A242FBD301F09A
:106D5400E3FEFFF759FC70470000002010000020FC
:106D6400A04E020810000020AC090020FEE700003D
:106D740010B504460E4B1A784FF47A73B3FBF2F352
:106D84000C4A1068B0FBF3F000F084FA68B90F2CD9
:106D940001D901200AE0002221464FF0FF3000F023
:106DA4005BFA054B1C60002000E0012010BD00BF11
:106DB40004000020000000200800002008B5074A55
:106DC400136843F010031360032000F033FA0F201C
:106DD400FFF7CEFFFFF7A8FC002008BD002002400B
:106DE400034A1168034B1B780B441360704700BFC0
:106DF4009003002004000020014B1868704700BF76
:106E04009003002038B50446FFF7F6FF0546B4F1B9
:106E1400FF3F02D0044B1B781C44FFF7EDFF401BDF
:106E2400A042FAD338BD00BF04000020002800F0BF
:106E3400A18038B5044690F82030D3B12268136895
:106E440043F001031360FFF7D7FF054623685A6830
:106E540012F0010F10D1FFF7CFFF401B0A28F5D91C
:106E6400636A43F400336362052384F8203001200D
:106E740038BDFFF77FFAE1E71A6822F002021A60D0
:106E8400FFF7BAFF054623685A6812F0020F0DD0C7
:106E9400FFF7B2FF401B0A28F5D9636A43F40033B5
:106EA4006362052384F820300120E1E7227E012A71
:106EB4003DD01A6822F080021A60637E012B3BD019
:106EC4002268136823F040031360A37E012B39D09A
:106ED4002268136823F020031360E37E012B37D06C
:106EE4002268136843F010031360237F012B35D00D
:106EF4002268136823F008031360637F012B33D0E7
:106F04002268136823F004031360A368E268134340
:106F140022691343626913436268013A2168134387
:106F2400CB6100206062012384F82030A0E71A6856
:106F340042F080021A60C0E72268136843F04003FD
:106F44001360C2E72268136843F020031360C4E7A8
:106F54002268136823F010031360C6E722681368DD
:106F640043F008031360C8E72268136843F004037E
:106F74001360CAE701207047026890F82030013B93
:106F8400DBB2012B05D9436A43F480234362012019
:106F9400704710B5D2F8003243F00103C2F8003252
:106FA4004B6903F01F03012000FA03F3D2F81C021B
:106FB4006FEA030C20EA0300C2F81C02C869C0B9D6
:106FC400D2F80C020CEA0000C2F80C028C88486962
:106FD400D1F80CE044EA0E44483042F830400C88C2
:106FE4004869D1F808E044EA0E44483002EBC00096
:106FF4004460C86901281AD0886988BBD2F80402A1
:107004000CEA0000C2F80402086978BBD2F8140242
:107014000CEA0000C2F81402096A01292CD0D2F843
:10702400003223F00103C2F80032002010BDD2F870
:107034000C021843C2F80C028C884869D1F800E0AD
:1070440044EA0E44483042F830408C894869D1F80B
:1070540008E044EA0E44483002EBC0004460CBE749
:10706400D2F804021843C2F80402CDE7D2F814029D
:107074001843C2F81402CFE7D2F81C120B43C2F82B
:107084001C32CCE770B5044690F82050EDB2012DC7
:1070940006D0436A43F4002343620125284670BDA9
:1070A400022380F820300268136823F00103136080
:1070B400FFF7A2FE064623685B6813F0010F0CD0AD
:1070C400FFF79AFE831B0A2BF5D9636A43F4003356
:1070D4006362052384F82030E0E700256562DDE77C
:1070E40030B590F820C00468A4680CF1FF3C5FFA46
:1070F4008CFCBCF1010F62D814F0E05F59D0C4F3EA
:10710400016C012404FA0CF41C608B68002B3DD143
:107114000D68CB68046843EA45550CF118031B015C
:10712400E55003680C690CF1180E03EB0E135C6058
:107134000B7D012B35D0D17993791B0443EA01638C
:10714400517943EA012314790168234301EB0C11BB
:10715400C1F88C31D17893781B0443EA01635178E8
:1071640043EA0123117802680B4302EB0C12C2F8C4
:10717400883102680CF1180C4FEA0C1C52F80C30E0
:1071840043F0010342F80C3000201DE04C6843EA50
:10719400C403CC6823430CF11804240105682B5163
:1071A400BFE7036803EB0E13596841F4807159601B
:1071B400C1E7436A43F400134362012004E0436AD5
:1071C40043F480234362012030BD0000002808DB23
:1071D4000901C9B200F1604000F5614080F8001374
:1071E400704700F00F000901C9B2014B19547047F0
:1071F40014ED00E000B500F00700C0F1070CBCF18D
:10720400040F28BF4FF0040C031D062B0FD9C31E17
:107214004FF0FF3E0EFA0CF021EA000199400EFAFD
:1072240003FE22EA0E0241EA02005DF804FB002399
:10723400EEE70000074AD36823F4E0631B041B0C49
:10724400000200F4E060034343F0BF6343F40033FF
:10725400D360704700ED00E010B50446054BD868D4
:10726400C0F30220FFF7C6FF01462046FFF7AEFF3A
:1072740010BD00BF00ED00E0002807DB00F01F0296
:10728400400901239340024A42F82030704700BF6E
:1072940000E100E00138B0F1807F0BD24FF0E02331
:1072A4005861054AF02182F82310002098610722D2
:1072B4001A6170470120704700ED00E070B582B09C
:1072C4000024A446ABE0854DAB4214D00CD8A5F500
:1072D4008015AB420FD005F57025AB420BD0A5F558
:1072E4008015AB4210D106E07D4DAB4203D005F5CD
:1072F4008035AB4208D18B68002B5AD0012B53D078
:107304004261082400E0CC68BEF1FF0F53D8064662
:107314004FEA8C0233680F25954023EA050304FAEB
:1073240002F2134333604B6813F0805F75D06D4BEA
:107334009A6942F001029A619B6903F00103019387
:10734400019B4FEA9C02951C674B53F825600CF097
:107354000305AD000F23AB4026EA0306634B9842B6
:1073640030D003F58063984200F0968003F5806383
:10737400984200F0938003F58063984200F0908077
:1073840003F58063984200F08D8003F58063984292
:1073940016D0062317E0CC680434B5E7CC6808346B
:1073A400B2E7CC680C34AFE702610824ACE70024F0
:1073B400AAE70424A8E7061DACF108029200A9E795
:1073C400052300E00023AB4033430232464D45F829
:1073D40022304B6813F4801F66D0454A936843EA11
:1073E4000E0393604B6813F4001F63D0404AD368C4
:1073F40043EA0E03D3604B6813F4003F60D03C4A69
:10740400536843EA0E0353604B6813F4803F5DD026
:10741400374A136843EA0E0313600CF1010C0B683E
:1074240033FA0CF258D0012202FA0CF203EA020EEB
:1074340032EA0303F1D14B68122B3FF644AF122B0F
:107444003FF662AF01A555F823F000BFFB720008B8
:107454000B730008A1730008B37300080D730008D0
:107464000D7300080D7300080D7300080D730008F8
:107474000D7300080D7300080D7300080D730008E8
:107484000D7300080D7300080D7300080D730008D8
:107494009B730008A7730008012394E7022392E773
:1074A400032390E704238EE7114A936823EA0E032B
:1074B400936097E70E4AD36823EA0E03D3609AE7F2
:1074C4000B4A536823EA0E0353609DE7084A136886
:1074D40023EA0E031360A0E702B070BD000022107F
:1074E400000031100010024000000140000801407B
:1074F400000401400AB10161704709040161704749
:10750400C36801EA030221EA030141EA024101617D
:107514007047704708B5054B5B69034200D108BD4D
:10752400024B5861FFF7F5FFF9E700BF0004014083
:10753400002800F0CC8070B5044690F83D30002B54
:1075440077D0242384F83D302268136823F00103A4
:1075540013602268136843F40043136022681368BD
:1075640023F40043136000F0C5FB62685A4B9A424F
:1075740064D85A4B98428CBF00230123002B40F05F
:10758400A8805749A1FB00318B0C25686A6822F05A
:107594003F0242EA91426A6021680A6A22F03F028D
:1075A40066684D4DAE424FD8013313430B622168D8
:1075B400CA6922F44F4222F0FF026568464B9D429D
:1075C4004CD8431E6D00B3FBF5F3013340F6FC7059
:1075D400034278D0C3F30B031A43CA6121680B68D2
:1075E40023F0C003E269206A024313430B6021685D
:1075F4008B6823F4034323F0FF032269E06802430A
:1076040013438B602168CB6823F0FF036269A06990
:1076140002431343CB602268136843F001031360F1
:1076240000202064202384F83D30206384F83E0049
:1076340070BD80F83C30FEF781FF82E7294B984209
:107644008CBF0023012399E74FF4967505FB03F3E0
:10765400254DA5FB03539B090133A6E7A668BEB9D4
:10766400431E05EB450CB3FBFCF30133C3F30B03DF
:10767400B3FA83F35B0943BBC6B9431E05EB450567
:10768400B3FBF5F30133C3F30B0343F40043A3E764
:10769400431E05EB850C0CEB8C0CB3FBFCF30133A4
:1076A400C3F30B03B3FA83F35B09E4E7431E05EB6F
:1076B400850505EB8505B3FBF5F30133C3F30B0334
:1076C40043F4404388E7042386E7012384E7012049
:1076D40070470120ACE700BFA08601007F841E0034
:1076E40083DE1B43FF083D00D34D621082B0084B7C
:1076F4001B68084AA2FB03235B0A00FB03F3019304
:1077040000BF019B5A1E0192002BF9D102B07047B1
:1077140000000020D34D6210002800F0F18170B504
:1077240082B00446036813F0010F2CD0994B5B68B8
:1077340003F00C03042B1DD0964B5B6803F00C0381
:10774400082B12D06368B3F5803F41D0002B55D18C
:1077540003F1804303F504331A6822F480321A607B
:107764001A6822F480221A6037E08A4B5B6813F4AB
:10777400803FE7D0874B1B6813F4003F03D0636856
:10778400002B00F0BF81236813F0020F75D0814BEA
:107794005B6813F00C0F5FD07E4B5B6803F00C0347
:1077A400082B54D02369002B00F08A807A4B0122E5
:1077B4001A60FFF721FB0546764B1B6813F0020F96
:1077C40075D1FFF719FB401B0228F5D903209EE170
:1077D400704A136843F480331360636843B3FFF75C
:1077E4000BFB05466B4B1B6813F4003FCBD1FFF733
:1077F40003FB401B6428F5D9032088E1B3F5A02FCF
:1078040009D0644B1A6822F480321A601A6822F490
:1078140080221A60E1E703F18043A3F53C331A6840
:1078240042F480221A601A6842F480321A60D4E763
:10783400FFF7E2FA0546574B1B6813F4003FA2D04A
:10784400FFF7DAFA401B6428F5D903205FE1514BB6
:107854005B6813F4803FA5D14E4B1B6813F0020FF5
:1078640003D02369012B40F04F814A4A136823F067
:10787400F803616943EAC1031360236813F0080F36
:1078840033D0A369002B5CD0434B0122C3F880247E
:10789400FFF7B2FA05463F4B5B6A13F0020F21D1A2
:1078A400FFF7AAFA401B0228F5D903202FE1394A31
:1078B400136823F0F803616943EAC1031360DCE74A
:1078C400354B00221A60FFF797FA0546314B1B68C7
:1078D40013F0020FD1D0FFF78FFA401B0228F5D91D
:1078E400032014E10120FFF701FF236813F0040FC4
:1078F40000F09680274BDB6913F0805F34D1254B71
:10790400DA6942F08052DA61DB6903F08053019353
:10791400019B0125214B1B6813F4807F26D0E3686B
:10792400012B3DD0002B53D103F1804303F50433E5
:107934001A6A22F001021A621A6A22F004021A6216
:1079440033E0154B0022C3F88024FFF755FA0546AF
:10795400104B5B6A13F0020FC7D0FFF74DFA401BC0
:107964000228F5D90320D2E00025D3E70B4A136897
:1079740043F480731360FFF73FFA0646074B1B6816
:1079840013F4807FCBD1FFF737FA801B6428F5D935
:107994000320BCE00010024000004242007000409E
:1079A4005F4A136A43F001031362E36833B3FFF7DA
:1079B40023FA06465A4B1B6A13F0020F2FD1FFF726
:1079C4001BFA801B41F288339842F3D903209EE0CE
:1079D400052B09D0524B1A6A22F001021A621A6A64
:1079E40022F004021A62E0E74D4B1A6A42F00402E4
:1079F4001A621A6A42F001021A62D6E7FFF7FCF92A
:107A04000646474B1B6A13F0020F08D0FFF7F4F940
:107A1400801B41F288339842F3D9032077E0E5B91B
:107A2400E369002B72D03E4A526802F00C02082A25
:107A340056D0022B17D03B4B00221A66FFF7DCF915
:107A44000446374B1B6813F0007F47D0FFF7D4F987
:107A5400001B0228F5D9032059E0314AD36923F0E9
:107A64008053D361DCE72F4B00221A66FFF7C4F979
:107A740005462B4B1B6813F0007F06D0FFF7BCF9BB
:107A8400401B0228F5D9032041E0236AB3F5803F67
:107A94001AD023494B6823F47413226A606A0243A0
:107AA40013434B601F4B01221A66FFF7A5F90446E6
:107AB4001B4B1B6813F0007F0ED1FFF79DF9001BD1
:107AC4000228F5D9032022E0154A536823F4003331
:107AD400A1680B435360DCE7002018E0002016E0A7
:107AE400012B16D00E4B5B6803F48031226A91425D
:107AF40011D103F47013626A93420ED1002006E0A0
:107B040001207047012002E0012000E0002002B0C3
:107B140070BD0120FBE70120F9E70120F7E700BF72
:107B240000100240000042420F4B5B6803F00C025D
:107B3400082A01D00D487047C3F383420C49885C7E
:107B440013F4803F0BD0084B5B68C3F34043094AEE
:107B5400D35C064A02FB00F0B0FBF3F07047064B1F
:107B640003FB00F0704700BF0010024000127A00CF
:107B7400784E0208744E020800093D00002800F007
:107B8400A08070B50D460446524B1B6803F00703F2
:107B94008B420BD24F4A136823F007030B43136045
:107BA400136803F007038B4240F08D80236813F0C1
:107BB400020F17D013F0040F04D0474A536843F45C
:107BC400E0635360236813F0080F04D0424A5368FB
:107BD40043F460535360404A536823F0F003A168B0
:107BE4000B435360236813F0010F31D06368012BFA
:107BF40020D0022B25D0384A126812F0020F64D02C
:107C040035494A6822F0030213434B60FFF7F4F846
:107C14000646314B5B6803F00C036268B3EB820FDA
:107C240016D0FFF7E9F8801B41F288339842F0D967
:107C3400032045E0284A126812F4003FE0D10120F5
:107C44003EE0254A126812F0007FD9D1012037E0C6
:107C5400204B1B6803F00703AB420AD91D4A136883
:107C640023F007032B431360136803F00703AB42AD
:107C74002DD1236813F0040F06D0174A536823F458
:107C8400E063E1680B435360236813F0080F07D0E7
:107C9400114A536823F46053216943EAC1035360D2
:107CA400FFF742FF0C4B5B68C3F303130B4AD35C2F
:107CB400D8400B4B18600B4B1868FFF759F800209D
:107CC40070BD012070470120FAE70120F8E7012088
:107CD400F6E700BF0020024000100240644E020894
:107CE4000000002008000020014B1868704700BF06
:107CF4000000002008B5FFF7F7FF044B5B68C3F3EF
:107D04000223034AD35CD84008BD00BF00100240E0
:107D14005C4E020808B5FFF7E7FF044B5B68C3F34A
:107D2400C223034AD35CD84008BD00BF0010024000
:107D34005C4E02082DE9F04782B005468846174696
:107D44001E46FFF759F80A9B1B1A03EB0609FFF7B7
:107D540053F88246284B1B68C3F3CB3309FB03F368
:107D640001932B689C6838EA04040CBF01230023A8
:107D7400BB423DD0B6F1FF3FF3D0FFF73DF8A0EB97
:107D84000A00484507D2019A02B14A46019B013BC9
:107D940001939146E5E72A68536823F0E0035360B2
:107DA4006B68B3F5827F0BD0AB6AB3F5005F14D078
:107DB400012385F85130002385F85030032018E062
:107DC400AB68B3F5004F02D0B3F5806FECD12A68ED
:107DD400136823F040031360E6E72A68136823F46A
:107DE400005313602A68136843F400531360DFE7F9
:107DF400002002B0BDE8F0870000002010B582B07A
:107E040004460B46009200228021FFF793FF08B935
:107E140002B010BD636D43F0200363650320F7E7F0
:107E2400002856D010B50446436A33B94368B3F505
:107E3400827F05D00023C36102E000230361436114
:107E44000023A36294F85130002B3CD0022384F821
:107E540051302268136823F040031360636803F40D
:107E64008273A26802F404421343E26802F40062DB
:107E74001343226902F002021343626902F0010211
:107E84001343A26902F400721343E26902F0380258
:107E94001343226A02F080021343A26A02F40052DE
:107EA400216813430B60638B226803F0040353605F
:107EB4002268D36923F40063D36100206065012341
:107EC40084F8513010BD84F850302046FEF7FAFB98
:107ED400BCE7012070472DE9F04383B01D4690F8BC
:107EE4005030012B00F0D18004468846914601238E
:107EF40080F85030FEF780FF074694F85160F6B2E0
:107F0400012E40F0BA80B8F1000F00F0B780B9F14B
:107F1400000F00F0B380032384F85130002363651D
:107F2400C4F83080A4F83490A4F83690A363A387EF
:107F3400E38763642364A368B3F5004F1ED023680A
:107F44001A6812F0400F03D11A6842F040021A6016
:107F5400E368B3F5006F1CD0636813B1B9F1010F86
:107F640055D1226B236812781A73236B0133236370
:107F7400E38E9BB2013B9BB2E38648E02268136820
:107F840023F0400313602268136843F480431360B2
:107F9400D5E7636813B1B9F1010F15D1226B2368DA
:107FA4001288DA60236B02332363E38E9BB2013BB6
:107FB4009BB2E38608E0FEF71FFFC01BA84202D372
:107FC400B5F1FF3F15D1A5B1E38E9BB2002B3CD098
:107FD40023689A6812F0020FEDD0226B1288DA60DF
:107FE400236B02332363E38E9BB2013B9BB2E38694
:107FF400EAE7012384F8513003263FE0FEF7FCFE54
:10800400C01BA84202D3B5F1FF3F19D1C5B1E38E1D
:108014009BB2D3B123689A6812F0020FEED0226BA0
:1080240012781A73236B01332363B4F836C01FFA32
:108034008CFC0CF1FF3C1FFA8CFCA4F836C0E6E77C
:10804400012384F85130032618E03A462946204695
:10805400FFF7D4FE08B120236365A36833B9019305
:108064002368DA6801929B680193019B636D2BB9C5
:10807400012384F85130002600E00226002384F80E
:108084005030304603B0BDE8F0830226F9E710B45F
:10809400036A046A24F001040462846924F0F00C85
:1080A4004CEA021223F00A030B438261036210BC00
:1080B400704710B4036A046A24F0100404628469EB
:1080C40024F4704C4CEA023223F0A00343EA011377
:1080D4008261036210BC7047836823F070030B4312
:1080E40043F00703836070477047704770477047D9
:1080F400704710B5044603681A6912F0020F11D0D4
:10810400DA6812F0020F0DD06FF002021A61012337
:10811400037703689B6913F0030F70D0FFF7E6FF42
:108124000023237723681A6912F0040F12D0DA6847
:1081340012F0040F0ED06FF004021A6102232377A9
:1081440023689B6913F4407F5FD02046FFF7CEFF7E
:108154000023237723681A6912F0080F12D0DA6813
:1081640012F0080F0ED06FF008021A61042323776F
:108174002368DB6913F0030F4ED02046FFF7B6FFE8
:108184000023237723681A6912F0100F12D0DA68DB
:1081940012F0100F0ED06FF010021A61082323772B
:1081A4002368DB6913F4407F3DD02046FFF79EFF30
:1081B4000023237723681A6912F0010F03D0DA68C9
:1081C40012F0010F36D123681A6912F0800F03D020
:1081D400DA6812F0800F34D123681A6912F0400F64
:1081E40003D0DA6812F0400F32D123681A6912F012
:1081F400200F03D0DA6812F0200F30D110BDFFF742
:1082040074FF2046FFF773FF8AE72046FFF76DFFF0
:108214002046FFF76CFF9BE72046FFF766FF2046EA
:10822400FFF765FFACE72046FFF75FFF2046FFF747
:108234005EFFBDE76FF001021A612046FFF754FFAD
:10824400C1E76FF080021A61204600F0ACF9C3E781
:108254006FF040021A612046FFF74AFFC5E76FF04E
:1082640020021A61204600F09DF9C7E70368244AFA
:10827400904212D002F5006290420ED0B0F1804FCD
:108284000BD0A2F59832904207D002F5806290425A
:1082940003D002F58062904203D123F070034A6850
:1082A4001343174A904212D002F5006290420ED056
:1082B400B0F1804F0BD0A2F59832904207D002F56E
:1082C4008062904203D002F58062904203D123F48D
:1082D4004073CA68134323F080034A69134303605D
:1082E4008B68C3620B688362054B984203D003F525
:1082F4000063984201D10B69036301234361704712
:10830400002C014040B310B5044690F83D30F3B161
:10831400022384F83D30214651F8040BFFF7A6FFF1
:10832400012384F8463084F83E3084F83F3084F8E2
:10833400403084F8413084F8423084F8433084F883
:10834400443084F8453084F83D30002010BD80F876
:108354003C30FEF75FFBDBE701207047002856D076
:1083640070B50D46044690F83D30002B4AD00223E8
:1083740084F83D302268936823F4804323F0070394
:108384009360214651F8040BFFF770FF21688B6856
:108394008A690E6A2868184322F4407222F00302A4
:1083A400AB68D5F818C043EA0C23134323F47C4389
:1083B40023F0FC03EA68D5F81CC042EA0C221A43F5
:1083C4002B6A1B03D5F810C043EA0C13134326F0A1
:1083D40022066A686D6942EA0512324388602168A0
:1083E4008B6123681A62012384F8463084F83E3096
:1083F40084F83F3084F8423084F8433084F83D30C8
:10840400002070BD80F83C30FEF724FBAFE701206C
:10841400704710B4846824F47F4C42EA03220A4370
:1084240042EA0C02826010BC704790F83C30012B89
:1084340078D010B50446012380F83C30022380F83C
:108444003D300268936823F47F4323F077039360FD
:108454000B68602B4CD023D8402B54D011D8202B40
:1084640003D00AD80BB1102B05D119462068FFF7A9
:1084740033FE002028E0012026E0302BF5D0012037
:1084840022E0502B0AD1CA6849680068FFF7FFFD53
:1084940050212068FFF720FE002015E0012013E0A2
:1084A400B3F5805F3AD0B3F5005F14D0702B37D1A9
:1084B400CB684A6889680068FFF7ABFF2268936855
:1084C40043F0770393600020012384F83D300023B8
:1084D40084F83C3010BDCB684A6889680068FFF7AF
:1084E40098FF2268936843F4804393600020EBE78D
:1084F400CA6849680068FFF7DCFD60212068FFF75F
:10850400EBFD0020E0E7CA6849680068FFF7BFFD9B
:1085140040212068FFF7E0FD0020D5E70020D3E7E5
:108524000120D1E70220704790F83C20012A34D082
:1085340010B40346012280F83C20022280F83D203A
:1085440002685068946820F0700C086840EA0C00D7
:1085540050601A681248824212D000F500608242CC
:108564000ED0B2F1804F0BD0A0F59830824207D0E4
:1085740000F58060824203D000F58060824204D11D
:1085840024F08004496821439160012283F83D204E
:10859400002083F83C0010BC70470220704700BFE5
:1085A400002C01407047704710B5044602681369F7
:1085B40023F44053C1680B43136183680269134376
:1085C40042691A430168CB6823F4B05323F00C03C7
:1085D4001343CB600268536923F4407381690B43EE
:1085E40053610268134B9A4220D0FFF783FB024683
:1085F40002EB820202EB820263689B00B2FBF3F29D
:108604000D48A0FB02314909642303FB11231B011C
:108614003233A0FB03035B0903F0F00202EB011207
:1086240003F00F03216813448B6010BDFFF772FB46
:108634000246DDE7003801401F85EB5160B310B5F9
:10864400044690F8413013B3242384F8413022685F
:10865400D36823F40053D3602046FFF7A5FF2268B4
:10866400136923F4904313612268536923F02A03A6
:1086740053612268D36843F40053D36000206064DC
:10868400202384F8413084F84230606310BD80F8C0
:108694004030FEF7DDFAD7E70120704708B50A46F7
:1086A4004FF47A7301460248FFF715FC08BD00BF7A
:1086B4004001002000B583B08DF80700012202219B
:1086C4000548FEF717FF01210DF10700FFF7E6FF4C
:1086D40003B05DF804FB00BF000C014000B583B09B
:1086E4008DF80700002202210548FEF703FF01214F
:1086F4000DF10700FFF7D2FF03B05DF804FB00BFE4
:10870400000C0140F8B507460D4616461C462A20C3
:10871400FFF7E4FF380AFFF7CDFFF8B2FFF7CAFF0F
:10872400300AFFF7C7FFF0B2FFF7C4FF2B20FFF7B3
:10873400D5FF280AFFF7BEFFE8B2FFF7BBFF200A08
:10874400FFF7B8FFE0B2FFF7B5FF2C20FFF7C6FF35
:10875400F8BD000070B582B00024ADF80440060AEC
:108764008DF80460C5B28DF80550EF231A462146F2
:108774002046FFF7C7FF214607E04B000D4A02F8E9
:1087840011600133D554013189B2B1F5107FF4D3AE
:10879400012202210848FEF7ADFE002406E04FF452
:1087A40090610448FFF77AFF0134A4B2632CF6D930
:1087B40002B070BD94030020000C014038B51D4682
:1087C4008318F02B03DC14464B19F02B00DD38BD65
:1087D400821892B29BB2013B013A9BB292B2FFF76C
:1087E40091FF012202211148FEF784FE05FB04F3E8
:1087F4005B00B3F5803F10DB4FF6FF710498FFF781
:108804004DFF05FB04F14900013189B2049B03F5D6
:108814007F40FF30FFF742FFD9E705FB04F1490031
:1088240089B20498FFF73AFFD1E700BF000C01407A
:1088340010B56A4C00224FF480712046FEF75AFEB0
:108844000C20FEF7DFFA01224FF480712046FEF778
:1088540051FE0C20FEF7D6FA1120FFF73FFF0C2043
:10886400FEF7D0FA3620FFF739FF0020FFF722FF8A
:108874003A20FFF733FF6520FFF71CFFB220FFF714
:108884002DFF0C20FFF716FF0C20FFF713FF00202D
:10889400FFF710FF3320FFF70DFF3320FFF70AFF28
:1088A400B720FFF71BFF7220FFF704FFBB20FFF781
:1088B40015FF3D20FFF7FEFEC020FFF70FFF2C2021
:1088C400FFF7F8FEC220FFF709FF0120FFF7F2FED1
:1088D400C320FFF703FF1920FFF7ECFEC420FFF7C6
:1088E400FDFE2020FFF7E6FEC620FFF7F7FE0F206F
:1088F400FFF7E0FED020FFF7F1FEA420FFF7DAFE39
:10890400A120FFF7D7FEE020FFF7E8FED020FFF715
:10891400D1FE0420FFF7CEFE0D20FFF7CBFE112081
:10892400FFF7C8FE1320FFF7C5FE2B20FFF7C2FE9A
:108934003F20FFF7BFFE5420FFF7BCFE4C20FFF79B
:10894400B9FE1820FFF7B6FE0D20FFF7B3FE0B208B
:10895400FFF7B0FE1F20FFF7ADFE2320FFF7AAFEAE
:10896400E120FFF7BBFED020FFF7A4FE0420FFF7B1
:10897400A1FE0C20FFF79EFE1120FFF79BFE1320A3
:10898400FFF798FE2C20FFF795FE3F20FFF792FE9D
:108994004420FFF78FFE5120FFF78CFE2F20FFF7B6
:1089A40089FE1F20FFF786FE1F20FFF783FE20208D
:1089B400FFF780FE2320FFF77DFE2120FFF78EFEC8
:1089C4002920FFF78BFEEF231A4600210846FFF704
:1089D40099FE4FF6FF70FFF7BDFE10BD0008014081
:1089E40000B585B003460D4901AA03C982E8030016
:1089F400998B988E0144596000211961D96008202F
:108A040058611976194651F8040B03ABFEF768FB5D
:108A140000B1012005B05DF804FB00BF884E0208D8
:108A2400838EB3F5007F01D00120704700B585B077
:108A340090F824208DF8042090F825208DF8052046
:108A440090F826208DF8062090F827208DF807202E
:108A5400828B13444360002383600361C360042258
:108A640042610376014651F8040B03AB6A44FEF7F6
:108A740037FB05B05DF804FB70B5860747D0541E7C
:108A8400002A3ED00346CAB201E0013C39D303F8C0
:108A9400012B9D07F9D1032C2CD9CDB205EB05256B
:108AA4000F2C1A4605EB054534D9A4F1100C2CF013
:108AB4000F0603F1100EB6444FEA1C1CC2E9005520
:108AC400C2E9025510327245F8D10CF1010214F0DA
:108AD4000C0F03EB021204F00F0C13D0ACF10403DF
:108AE40023F003030433134442F8045B9342FBD1A1
:108AF4000CF003042CB1C9B21C4403F8011BA342BB
:108B0400FBD170BD64461346002CF4D1F9E703464B
:108B14001446C0E7A446E1E770B50F4B0F4DAB42D6
:108B2400A3EB050607D00024B61055F8043B013426
:108B34009847A642F9D800F07FF8094D094B5E1B0F
:108B4400AB424FEAA60606D0002455F8043B013494
:108B54009847A642F9D870BD944E0208944E020874
:108B6400944E02089C4E0208704700BF704700BF35
:108B7400024B13B1024800F005B870470000000032
:108B8400958B0008002301461A46184600F014B8D5
:108B940038B5074D074C2C1BA41005D0013C55F8E3
:108BA400043D9847002CF9D1BDE8384000F04AB89C
:108BB400A04E02089C4E02082DE9F8431B4D0646C0
:108BC400286898460F469146FFF7CEFF184B1C685D
:108BD4001CB3286865681F2D22DC4EB96B1C023556
:108BE400636044F82570FFF7C1FF0020BDE8F883F7
:108BF400012304EB8501C1F88890D4F88821AB40A7
:108C04001A43022EC4F88821C1F80881E6D1D4F8A9
:108C14008C211A43C4F88C21E0E7064C1C60D8E789
:108C2400FFF7A4FF4FF0FF30E0E700BF0C00002087
:108C3400180800201C080020F8B500BFF8BC08BCC8
:108C44009E467047F8B500BFF8BC08BC9E46704706
:108C5400101000F000F0011BFFFFFFFFFFFFFFFFFC
:108C6400FFFFFFFFFFFFFFFFFFFFFFFFFFFFFFFF10
:108C7400FFFFFFFFFFFFFFFFFFFFFFFFFFFFFFFF00
:108C8400FFFFFFFFFFFFFFFFFFFFFFFFFFFFFFFFF0
:108C9400FFFFFFFFFFFFFFFFFFFFFFFFFFFFFFFFE0
:10901400FFFFFFFFFFFFFFFF9DFC9DFC9DFC9DFCF0
:109024009DFC9DFC9DFC9DFC9DFC9DFC9DFC9DFC74
:109034009DFC9DFC9DFC9DFC9DFC9DFC9DFC9DFC64
:109044009DFC9DFC9DFC9DFC9DFC9DFC9DFC9DFC54
:109054009DBB959B959B959A959B959A959A959A68
:10906400959A959A959A959A959A959A8D178412A8
:10907400A535DEBAE6FBE6FBE6FBE6FBE6FBE6FB34
:10908400E6FBDEFBDEFBDEDBDEDBDEDBDEDBDEDBAC
:10909400E6FBEF5DFFDFFFDFFFDFFFDFFFDFFFDF6B
:1090A400FFDFFFDFFFDFFFDFFFDFFFDFFFDFFFDFCC
:1090B400FFDFFFDFFFDFFFDFFFDFFFDFFFDFFFDFBC
:1090C400FFDFFFDFFFDFFFDFFFDFFFDFFFDFFFDFAC
:1090D400FFDFFFDFFFDFFFDFFFDFFFDFFFDFFFDF9C
:1090E400FFDFFFDFFFDFFFDFFFDFFFDFFFDFFFDF8C
:1090F400FFDFFFDFFFDFFFDFFFDFFFDFFFDFFFDF7C
:10910400FFDFFFDFFFDFFFDFFFDFFFDFFFDFFFDF6B
:10911400FFDFFFDFFFDFFFDFFFDFFFDFFFDFFFDF5B
:10912400FFDFFFDFFFDFFFDFFFDFFFDFFFDFFFDF4B
:10913400FFDFFFDFFFDFFFDFFFDFFFDFFFDFFFDF3B
:10914400FFDFFFDFFFDFFFDFFFDFFFDFFFDFFFDF2B
:10915400FFDFFFDFFFDFFFDFFFDFFFDFFFDFFFDF1B
:10916400FFDFFFDFFFDFFFDFFFDFFFDFFFDFFFDF0B
:10917400FFDFFFDFFFDFFFDFFFDFF79E8C7284740A
:109184009DFBA65EA63EA63EA65EA63EA63E9E3ECF
:109194009E3E9E3E9E3E9E3E9E3E9E3E9E3E9E3EEB
:1091A4009E3E9E3E9E3E9E3E9E3E9E3E9E3E9E3EDB
:1091B4009E3E9E3E9E3E9E3E9E3E9E3E9E3E9E3ECB
:1091C4009E3E9E3E9E3E9E3E9E3E9E3E9E3E9E3EBB
:1091D4009E3E9E3E9E3E9E3E9E3E9E3E9E3E9E3EAB
:1091E4009E3E9E3E9E3E9E3E9E3E9E3E9E3E9E3E9B
:1091F4009E3E9E3E9E3E9E3E3BF93BF93BF93BF92B
:109204003BF93BF93BF93BF93BF93BF93BF93BF9BA
:109214003BF93BF93BF93BF93BF93BF93BF93BF9AA
:109224003BF93C193C193C193C193C193C193BF9D4
:1092340033982B572B362B362B362B352B352B359A
:109244002B352B352B352B352B352B1422D108C739
:1092540010A39C91C5F7C5F7C5F7C5F7C5F7C5F7C2
:10926400C5F7C5D7BDD7BDD6BDB6BDB6BD96BD96EF
:10927400BDB6D699F7BEF7BEF7BEF7BEF7BEF7BECA
:10928400F7BEF7BEF7BEF7BEF7BEF7BEF7BEF7BE32
:10929400F7BEF7BEF7BEF7BEF7BEF7BEF7BEF7BE22
:1092A400F7BEF7BEF7BEF7BEF7BEF7BEF7BEF7BE12
:1092B400F7BEF7BEF7BEF7BEF7BEF7BEF7BEF7BE02
:1092C400F7BEF7BEF7BEF7BEF7BEF7BEF7BEF7BEF2
:1092D400F7BEF7BEF7BEF7BEF7BEF7BEF7BEF7BEE2
:1092E400F7BEF7BEF7BEF7BEF7BEF7BEF7BEF7BED2
:1092F400F7BEF7BEF7BEF7BEF7BEF7BEF7BEF7BEC2
:10930400F7BEF7BEF7BEF7BEF7BEF7BEF7BEF7BEB1
:10931400F7BEF7BEF7BEF7BEF7BEF7BEF7BEF7BEA1
:10932400F7BEF7BEF7BEF7BEF7BEF7BEF7BEF7BE91
:10933400F7BEF7BEF7BEF7BEF7BEF7BEF7BEF7BE81
:10934400F7BEF7BEF7BEF7BEF7BEF7BEF7BEF7BE71
:10935400F7BEF7BEF7BEF79EF79D94D3004319EC12
:109364004458449C449D449D449D449D449C447C59
:109374003C7C3C7C3C7D3C7D3C7D3C7D3C7C3C7C25
:109384003C7C3C7C3C7C3C7C3C7C3C7C3C7C3C7C19
:109394003C7C3C7C3C7C3C7C3C7C3C7C3C7C3C7C09
:1093A4003C7C3C7C3C7C3C7C3C7C3C7C3C7C3C7CF9
:1093B4003C7C3C7C3C7C3C7C3C7C3C7C3C7C3C7CE9
:1093C4003C7C3C7C3C7C3C7C3C7C3C7C3C7C3C7CD9
:1093D4003C7C3C7C3C7D3C7C3BF93BF93BF93BF9D8
:1093E4003BF93BF93BF93BF93BF93BF93BF93BF9D9
:1093F4003BF93BF93BF93BF93BF93BF93BF93BF9C9
:109404003BF93C193C193C193C193C193C193BF9F2
:109414003BD933982B562B362B362B352B352B3506
:109424002B352B352B352B352B352B352B14226F28
:1094340000852966B576BDF8C5F8C5F7C5F7C5F743
:10944400C5F7C5F7BDD7C5D7C5D6BDB6BDB6BDB67C
:10945400BD96CE18F77DF7BEF7BEF7BEF7BEF7BED2
:10946400F7BEF7BEF7BEF7BEF7BEF7BEF7BEF7BE50
:10947400F7BEF7BEF7BEF7BEF7BEF7BEF7BEF7BE40
:10948400F7BEF7BEF7BEF7BEF7BEF7BEF7BEF7BE30
:10949400F7BEF7BEF7BEF7BEF7BEF7BEF7BEF7BE20
:1094A400F7BEF7BEF7BEF7BEF7BEF7BEF7BEF7BE10
:1094B400F7BEF7BEF7BEF7BEF7BEF7BEF7BEF7BE00
:1094C400F7BEF7BEF7BEF7BEF7BEF7BEF7BEF7BEF0
:1094D400F7BEF7BEF7BEF7BEF7BEF7BEF7BEF7BEE0
:1094E400F7BEF7BEF7BEF7BEF7BEF7BEF7BEF7BED0
:1094F400F7BEF7BEF7BEF7BEF7BEF7BEF7BEF7BEC0
:10950400F7BEF7BEF7BEF7BEF7BEF7BEF7BEF7BEAF
:10951400F7BEF7BEF7BEF7BEF7BEF7BEF7BEF7BE9F
:10952400F7BEF7BEF7BEF7BEF7BEF7BEF7BEF7BE8F
:10953400F7BEF7BEF7BEF79EDEFB298700653394BE
:10954400447A449C449D449D449D449D449C447C55
:109554003C7C3C7C3C7C3C7C3C7C3C7C3C7C3C7C47
:109564003C7C3C7C3C7C3C7C3C7C3C7C3C7C3C7C37
:109574003C7C3C7C3C7C3C7C3C7C3C7C3C7C3C7C27
:109584003C7C3C7C3C7C3C7C3C7C3C7C3C7C3C7C17
:109594003C7C3C7C3C7C3C7C3C7C3C7C3C7C3C7C07
:1095A4003C7C3C7C3C7C3C7C3C7C3C7C3C7C3C7CF7
:1095B4003C7C3C7C3C7D3C7C3BF93BF93BF93BF9F6
:1095C4003BF93BF93BF93BF93BF93BF93BF93BF9F7
:1095D4003BF93BF93BF93BF93BF93BF93BF93BF9E7
:1095E4003BF93C193C193C193C193C193C193C19F0
:1095F4003BF93BD933772B362B362B352B352B3593
:109604002B352B352B352B362B362B552B3533342D
:1096140019AB0063528BBDD7C5F8C5F8C5F8C5F8BA
:10962400C5F8C5F7C5D7C5D7C5D7C5D7BDB6BDB667
:10963400BD96BDB6E73CF7BEF7BEF7BEF7BEF7BEB4
:10964400F7BEF7BEF7BEF7BEF7BEF7BEF7BEF7BE6E
:10965400F7BEF7BEF7BEF7BEF7BEF7BEF7BEF7BE5E
:10966400F7BEF7BEF7BEF7BEF7BEF7BEF7BEF7BE4E
:10967400F7BEF7BEF7BEF7BEF7BEF7BEF7BEF7BE3E
:10968400F7BEF7BEF7BEF7BEF7BEF7BEF7BEF7BE2E
:10969400F7BEF7BEF7BEF7BEF7BEF7BEF7BEF7BE1E
:1096A400F7BEF7BEF7BEF7BEF7BEF7BEF7BEF7BE0E
:1096B400F7BEF7BEF7BEF7BEF7BEF7BEF7BEF7BEFE
:1096C400F7BEF7BEF7BEF7BEF7BEF7BEF7BEF7BEEE
:1096D400F7BEF7BEF7BEF7BEF7BEF7BEF7BEF7BEDE
:1096E400F7BEF7BEF7BEF7BEF7BEF7BEF7BEF7BECE
:1096F400F7BEF7BEF7BEF7BEF7BEF7BEF7BEF7BEBE
:10970400F7BEF7BEF7BEF7BEF7BEF7BEF7BEF7BEAD
:10971400F7BEF7BEFFBEF7BE7BEF004319ED4479F9
:10972400449C449C449D449D449D449D449C447C51
:109734003C7C3C7C3C7C3C7C3C7C3C7C3C7C3C7C65
:109744003C7C3C7C3C7C3C7C3C7C3C7C3C7C3C7C55
:109754003C7C3C7C3C7C3C7C3C7C3C7C3C7C3C7C45
:109764003C7C3C7C3C7C3C7C3C7C3C7C3C7C3C7C35
:109774003C7C3C7C3C7C3C7C3C7C3C7C3C7C3C7C25
:109784003C7C3C7C3C7C3C7C3C7C3C7C3C7C3C7C15
:109794003C7C3C7C3C7D3C7C3BF93BF93BF93BF914
:1097A4003BF93BF93BF93BF93BF93BF93BF93BF915
:1097B4003BF93BF93BF93BF93BF93BF93BF93BF905
:1097C4003BF93C193C193C193C193C193C193C190E
:1097D4003BF93BF933B833772B362B362B352B3506
:1097E4002B352B352B352B362B362B562B562B3531
:1097F4002AF2112908646B6EC5D7C5F7C5F7C618D8
:10980400C5F8C5F7C5D7C5D7C5D7C5D7BDD6BDB665
:10981400BDB6BD96D699F77DF79EF7BEF7BEF7BEE7
:10982400F7BEF7BEF7BEF7DEF7BEF7BEF7BEF7BE6C
:10983400F7BEF7BEF7BEF7BEF7BEF7BEF7BEF7BE7C
:10984400F7BEF7BEF7BEF7BEF7BEF7BEF7BEF7BE6C
:10985400F7BEF7BEF7BEF7BEF7BEF7BEF7BEF7BE5C
:10986400F7BEF7BEF7BEF7BEF7BEF7BEF7BEF7BE4C
:10987400F7BEF7BEF7BEF7BEF7BEF7BEF7BEF7BE3C
:10988400F7BEF7BEF7BEF7BEF7BEF7BEF7BEF7BE2C
:10989400F7BEF7BEF7BEF7BEF7BEF7BEF7BEF7BE1C
:1098A400F7BEF7BEF7BEF7BEF7BEF7BEF7BEF7BE0C
:1098B400F7BEF7BEF7BEF7BEF7BEF7BEF7BEF7BEFC
:1098C400F7BEF7BEF7BEF7BEF7BEF7BEF7BEF7BEEC
:1098D400F7BEF7BEF7BEF7BEF7BEF7BEF7BEF7BEDC
:1098E400F7BEF7BEF7BEF7BEF7BEF7BEF7BEF7BECC
:1098F400F7BEF7BEF7BECE3918E508A64416449C59
:10990400449C449C449D449D449D449C447C447C90
:109914003C7C3C7C3C7C3C7C3C7C3C7C3C7C3C7C83
:109924003C7C3C7C3C7C3C7C3C7C3C7C3C7C3C7C73
:109934003C7C3C7C3C7C3C7C3C7C3C7C3C7C3C7C63
:109944003C7C3C7C3C7C3C7C3C7C3C7C3C7C3C7C53
:109954003C7C3C7C3C7C3C7C3C7C3C7C3C7C3C7C43
:109964003C7C3C7C3C7C3C7C3C7C3C7C3C7C3C7C33
:109974003C7C3C7C3C7C3C7C3BF93BF93BF93BF933
:109984003BF93BF93BF93BF93BF93BF93BF93BF933
:109994003BF93BF93BF93BF93BF93BF93BF93C1902
:1099A4003C193C193C193C193C193C193C193C190B
:1099B4003BF93BF93BF933B82B562B362B352B357A
:1099C4002B352B362B362B362B362B562B562B562C
:1099D4002B352AB108A710A49451CDF7C5F7C5F8C3
:1099E400C617C5F7BDF7BDF7C5D7C5D7BDD6BDB634
:1099F400BDB6B595BDB6F75DFF9EFFBEF7BEF7BE1B
:109A0400F7BEF7BEF7DEF7DEF7DEF7BFF7BFF7BE48
:109A1400F7BEF7BEF7BEF7BEF7BEF7BEF7BEF7BE9A
:109A2400F7BEF7BEF7BEF7BEF7BEF7BEF7BEF7BE8A
:109A3400F7BEF7BEF7BEF7BEF7BEF7BEF7BEF7BE7A
:109A4400F7BEF7BEF7BEF7BEF7BEF7BEF7BEF7BE6A
:109A5400F7BEF7BEF7BEF7BEF7BEF7BEF7BEF7BE5A
:109A6400F7BEF7BEF7BEF7BEF7BEF7BEF7BEF7BE4A
:109A7400F7BEF7BEF7BEF7BEF7BEF7BEF7BEF7BE3A
:109A8400F7BEF7BEF7BEF7BEF7BEF7BEF7BEF7BE2A
:109A9400F7BEF7BEF7BEF7BEF7BEF7BEF7BEF7BE1A
:109AA400F7BEF7BEF7BEF7BEF7BEF7BEF7BEF7BE0A
:109AB400F7BEF7BEF7BEF7BEF7BEF7BEF7BEF7BEFA
:109AC400F7BEF7BEF7BEF7BEF7BEF7BEF7BEF7BEEA
:109AD400F7DEF7BEEF5C52AB00642A6F447944BCF6
:109AE400449D449D449D449D449D447C447C3C7CD5
:109AF4003C7C3C7C3C7C3C7C3C7C3C7C3C7C3C7CA2
:109B04003C7C3C7C3C7C3C7C3C7C3C7C3C7C3C7C91
:109B14003C7C3C7C3C7C3C7C3C7C3C7C3C7C3C7C81
:109B24003C7C3C7C3C7C3C7C3C7C3C7C3C7C3C7C71
:109B34003C7C3C7C3C7C3C7C3C7C3C7C3C7C3C7C61
:109B44003C7C3C7C3C7C3C7C3C7C3C7C3C7C3C7C51
:109B54003C7C3C7C3C7C3C7C3BF93BF93BF93BF951
:109B64003BF93BF93BF93BF93BF93BF93BF93BF951
:109B74003BF93BF93BF93BF93BF93BF93BF93C1920
:109B84003C193C193C193C193C193C193C193C1929
:109B94003BF93BF93BF93BD833972B362B352B3527
:109BA4002B352B362B362B362B362B562B562B564A
:109BB4002B362B14222E00652105B575C5F7C5F883
:109BC400C617C5F7C5F7BDF7C5D7BDD7BDD6BDB652
:109BD400BDB6B595BD95DE9AFFBEFFBEFFBEF7BE0E
:109BE400F7BEF7BEF7DEF7DFF7DEF7BFF7BFF7BE66
:109BF400F7BEF7BEF7BEF7BEF7BEF7BEF7BEF7BEB9
:109C0400F7BEF7BEF7BEF7BEF7BEF7BEF7BEF7BEA8
:109C1400F7BEF7BEF7BEF7BEF7BEF7BEF7BEF7BE98
:109C2400F7BEF7BEF7BEF7BEF7BEF7BEF7BEF7BE88
:109C3400F7BEF7BEF7BEF7BEF7BEF7BEF7BEF7BE78
:109C4400F7BEF7BEF7BEF7BEF7BEF7BEF7BEF7BE68
:109C5400F7BEF7BEF7BEF7BEF7BEF7BEF7BEF7BE58
:109C6400F7BEF7BEF7BEF7BEF7BEF7BEF7BEF7BE48
:109C7400F7BEF7BEF7BEF7BEF7BEF7BEF7BEF7BE38
:109C8400F7BEF7BEF7BEF7BEF7BEF7BEF7BEF7BE28
:109C9400F7BEF7BEF7BEF7BEF7BEF7BEF7BEF7BE18
:109CA400F7BEF7BEF7BEF7BEF7BEF7BEF7BEF7BE08
:109CB400F7BEF79EA5340884118B43F7447B449C7C
:109CC400449D449D449D449D447C447C447C3C7C14
:109CD4003C7C3C7C3C7C3C7C3C7C3C7C3C7C3C7CC0
:109CE4003C7C3C7C3C7C3C7C3C7C3C7C3C7C3C7CB0
:109CF4003C7C3C7C3C7C3C7C3C7C3C7C3C7C3C7CA0
:109D04003C7C3C7C3C7C3C7C3C7C3C7C3C7C3C7C8F
:109D14003C7C3C7C3C7C3C7C3C7C3C7C3C7C3C7C7F
:109D24003C7C3C7C3C7C3C7C3C7C3C7C3C7C3C7C6F
:109D34003C7C3C7C3C7C3C7C3BF93BF93BF93BF96F
:109D44003BF93BF93BF93BF93BF93BF93BF93BF96F
:109D54003BF93BF93BF93BF93BF93BF93BF93C193E
:109D64003C193C193C193C193C193C193C193C1947
:109D74003BF93BF93C193C193BD833772B362B364E
:109D84002B362B362B362B362B562B562B562B5647
:109D94002B562B553333222D00844208BDB7C618E9
:109DA400C617C617C5F7C5F7C5F7BDF7BDD7BDD6E6
:109DB400BDB6BDB6BDB6C5F7F79DFF9EFF9EF7BE07
:109DC400F7BEF7BEF7BFF7DFF7BFF7BFF7BFF7BEC2
:109DD400F7BEF7BEF7BEF7BEF7BEF7BEF7BEF7BED7
:109DE400F7BEF7BEF7BEF7BEF7BEF7BEF7BEF7BEC7
:109DF400F7BEF7BEF7BEF7BEF7BEF7BEF7BEF7BEB7
:109E0400F7BEF7BEF7BEF7BEF7BEF7BEF7BEF7BEA6
:109E1400F7BEF7BEF7BEF7BEF7BEF7BEF7BEF7BE96
:109E2400F7BEF7BEF7BEF7BEF7BEF7BEF7BEF7BE86
:109E3400F7BEF7BEF7BEF7BEF7BEF7BEF7BEF7BE76
:109E4400F7BEF7BEF7BEF7BEF7BEF7BEF7BEF7BE66
:109E5400F7BEF7BEF7BEF7BEF7BEF7BEF7BEF7BE56
:109E6400F7BEF7BEF7BEF7BEF7BEF7BEF7BEF7BE46
:109E7400F7BEF7BEF7BEF7BEF7BEF7BEF7BEF7BE36
:109E8400F7BEF7BEF7BEF7BEF7BEF7BEF7BEF7BE26
:109E9400F7BED6BA214508C63333445A449C449C81
:109EA400449D449D449D449D447C447C447C3C7C32
:109EB4003C7C3C7C3C7C3C7C3C7C3C7C3C7C3C7CDE
:109EC4003C7C3C7C3C7C3C7C3C7C3C7C3C7C3C7CCE
:109ED4003C7C3C7C3C7C3C7C3C7C3C7C3C7C3C7CBE
:109EE4003C7C3C7C3C7C3C7C3C7C3C7C3C7C3C7CAE
:109EF4003C7C3C7C3C7C3C7C3C7C3C7C3C7C3C7C9E
:109F04003C7C3C7C3C7C3C7C3C7C3C7C3C7C3C7C8D
:109F14003C7C3C7C3C7C3C7C3BF93BF93BF93BF98D
:109F24003BF93BF93BF93BF93BF93BF93BF93BF98D
:109F34003BF93BF93BF93BF93BF93BF93BF93C195C
:109F44003C193C193C193C193C193C193C193C1965
:109F54003BF93BF93C193C193C193BD82B772B3680
:109F64002B362B362B362B362B562B562B362B5685
:109F74002B562B762B542AF2118A0884630CC5F7CE
:109F8400C5F7C617C617C5F7C5F7C5F7C5D7BDD7F3
:109F9400BDB6BDB6BD96BDB6EF3CF79DF7BEF7BEE8
:109FA400F7BEFFBEF7BFFFDFF7BFF7BFF7BFF7BED0
:109FB400F7BEF7BEF7BEF7BEF7BEF7BEF7BEF7BEF5
:109FC400F7BEF7BEF7BEF7BEF7BEF7BEF7BEF7BEE5
:109FD400F7BEF7BEF7BEF7BEF7BEF7BEF7BEF7BED5
:109FE400F7BEF7BEF7BEF7BEF7BEF7BEF7BEF7BEC5
:109FF400F7BEF7BEF7BEF7BEF7BEF7BEF7BEF7BEB5
:10A00400F7BEF7BEF7BEF7BEF7BEF7BEF7BEF7BEA4
:10A01400F7BEF7BEF7BEF7BEF7BEF7BEF7BEF7BE94
:10A02400F7BEF7BEF7BEF7BEF7BEF7BEF7BEF7BE84
:10A03400F7BEF7BEF7BEF7BEF7BEF7BEF7BEF7BE74
:10A04400F7BEF7BEF7BEF7BEF7BEF7BEF7BEF7BE64
:10A05400F7BEF7BEF7BEF7BEF7BEF7BEF7BEF7BE54
:10A06400F7BEF7BEF7BEF7BEF7BEF7BEF7BEF7BE44
:10A07400F77D5AAB0064226F4439449C449C449C51
:10A08400449D449D449D449C447C447C447C3C7C51
:10A094003C7C3C7C3C7C3C7C3C7C3C7C3C7C3C7CFC
:10A0A4003C7C3C7C3C7C3C7C3C7C3C7C3C7C3C7CEC
:10A0B4003C7C3C7C3C7C3C7C3C7C3C7C3C7C3C7CDC
:10A0C4003C7C3C7C3C7C3C7C3C7C3C7C3C7C3C7CCC
:10A0D4003C7C3C7C3C7C3C7C3C7C3C7C3C7C3C7CBC
:10A0E4003C7C3C7C3C7C3C7C3C7C3C7C3C7C3C7CAC
:10A0F4003C7C3C7C3C7C3C7C3BF93BF93BF93BF9AC
:10A104003BF93BF93BF93BF93BF93BF93BF93BF9AB
:10A114003BF93BF93BF93BF93BF93BF93BF93BF99B
:10A124003BF93C193C193C193C193C193C193C19A4
:10A134003C193C193C193C193C193C193BD82B7768
:10A144002B362B362B362B562B562B562B362B5683
:10A154002B562B562B552B342AD1112908637BCF30
:10A16400C617C5F7C617C617C5F7C5F7C5D7BDD7F0
:10A17400BDD6BDB6BDB6BDB6DEBAF79DFFBEFFBE49
:10A18400FFBEFFBFFFBFFFBFFFBFF7BFF7BFF7BEF5
:10A19400F7BEF7BEF7BEF7BEF7BEF7BEF7BEF7BE13
:10A1A400F7BEF7BEF7BEF7BEF7BEF7BEF7BEF7BE03
:10A1B400F7BEF7BEF7BEF7BEF7BEF7BEF7BEF7BEF3
:10A1C400F7BEF7BEF7BEF7BEF7BEF7BEF7BEF7BEE3
:10A1D400F7BEF7BEF7BEF7BEF7BEF7BEF7BEF7BED3
:10A1E400F7BEF7BEF7BEF7BEF7BEF7BEF7BEF7BEC3
:10A1F400F7BEF7BEF7BEF7BEF7BEF7BEF7BEF7BEB3
:10A20400F7BEF7BEF7BEF7BEF7BEF7BEF7BEF7BEA2
:10A21400F7BEF7BEF7BEF7BEF7BEF7BEF7BEF7BE92
:10A22400F7BEF7BEF7BEF7BEF7BEF7BEF7BEF7BE82
:10A23400F7BEF7BEF7BEF7BEF7BEF7BEF7BEF7BE72
:10A24400F7BEF7BEF7BEF7BEF7BEF7BEF7BEF79D83
:10A254009CB20863116A4418447B449D449C449C0A
:10A26400449D449D449C449C447C447C3C7C3C7C78
:10A274003C7C3C7C3C7C3C7C3C7C3C7C3C7C3C7C1A
:10A284003C7C3C7C3C7C3C7C3C7C3C7C3C7C3C7C0A
:10A294003C7C3C7C3C7C3C7C3C7C3C7C3C7C3C7CFA
:10A2A4003C7C3C7C3C7C3C7C3C7C3C7C3C7C3C7CEA
:10A2B4003C7C3C7C3C7C3C7C3C7C3C7C3C7C3C7CDA
:10A2C4003C7C3C7C3C7C3C7C3C7C3C7C3C7C3C7CCA
:10A2D4003C7C3C7C3C7C3C7C3BF93BF93BF93BF9CA
:10A2E4003BF93BF93BF93BF93BF93BF93BF93BF9CA
:10A2F4003BF93BF93BF93BF93BF93BF93BF93BF9BA
:10A304003BF93BF93BF93BF93C193C193C193C1925
:10A314003C193C193C193C193C193C193BF933983C
:10A324002B562B362B562B562B562B562B362B5661
:10A334002B562B562B352B352B14229008A618C4DC
:10A344008C71BDF7C618C618C5F7C5F7C5D7C5D7EC
:10A35400BDD6BDB6B596B596C617EF5DFFBEFFBEBA
:10A36400FFBEFFBFFFBFFFBFFFBFF7BFF7BFF7BE13
:10A37400F7BEF7BEF7BEF7BEF7BEF7BEF7BEF7BE31
:10A38400F7BEF7BEF7BEF7BEF7BEF7BEF7BEF7BE21
:10A39400F7BEF7BEF7BEF7BEF7BEF7BEF7BEF7BE11
:10A3A400F7BEF7BEF7BEF7BEF7BEF7BEF7BEF7BE01
:10A3B400F7BEF7BEF7BEF7BEF7BEF7BEF7BEF7BEF1
:10A3C400F7BEF7BEF7BEF7BEF7BEF7BEF7BEF7BEE1
:10A3D400F7BEF7BEF7BEF7BEF7BEF7BEF7BEF7BED1
:10A3E400F7BEF7BEF7BEF7BEF7BEF7BEF7BEF7BEC1
:10A3F400F7BEF7BEF7BEF7BEF7BEF7BEF7BEF7BEB1
:10A40400F7BEF7BEF7BEF7BEF7BEF7BEF7BEF7BEA0
:10A41400F7BEF7BEF7BEF7BEF7BEF7BEF7BEF7BE90
:10A42400F7BEF7BEF7BEF7BEF7BEF7BEF79EC63857
:10A4340018E408C63B94447B447C449D449D449D5D
:10A44400449D449D449C449C447C3C7C3C7C3C7C9E
:10A454003C7C3C7C3C7C3C7C3C7C3C7C3C7C3C7C38
:10A464003C7C3C7C3C7C3C7C3C7C3C7C3C7C3C7C28
:10A474003C7C3C7C3C7C3C7C3C7C3C7C3C7C3C7C18
:10A484003C7C3C7C3C7C3C7C3C7C3C7C3C7C3C7C08
:10A494003C7C3C7C3C7C3C7C3C7C3C7C3C7C3C7CF8
:10A4A4003C7C3C7C3C7C3C7C3C7C3C7C3C7C3C7CE8
:10A4B4003C7C3C7C3C7C3C7C3BF93BF93BF93BF9E8
:10A4C4003BF93BF93BF93BF93BF93BF93BF93BF9E8
:10A4D4003BF93BF93BF93BF93BF93BF93BF93BF9D8
:10A4E4003BF93BF93BF93BF93C193C193C193C1944
:10A4F4003C193C193C193C193C193C193C193BF9D1
:10A5040033772B562B562B562B562B562B562B5616
:10A514002B562B362B352B352B352B14224F008401
:10A5240021259CF4C638C5F8C5F7C5F7C5F7C5F7A6
:10A53400BDD6BDD6B5B6B5B5BDB6E6FBFFBEFFBE4E
:10A54400FFBEFFBEFFBFFFBFFFBFF7BEF7BEF7BE34
:10A55400F7BEF7BEF7BEF7BEF7BEF7BEF7BEF7BE4F
:10A56400F7BEF7BEF7BEF7BEF7BEF7BEF7BEF7BE3F
:10A57400F7BEF7BEF7BEF7BEF7BEF7BEF7BEF7BE2F
:10A58400F7BEF7BEF7BEF7BEF7BEF7BEF7BEF7BE1F
:10A59400F7BEF7BEF7BEF7BEF7BEF7BEF7BEF7BE0F
:10A5A400F7BEF7BEF7BEF7BEF7BEF7BEF7BEF7BEFF
:10A5B400F7BEF7BEF7BEF7BEF7BEF7BEF7BEF7BEEF
:10A5C400F7BEF7BEF7BEF7BEF7BEF7BEF7BEF7BEDF
:10A5D400F7BEF7BEF7BEF7BEF7BEF7BEF7BEF7BECF
:10A5E400F7BEF7BEF7BEF7BEF7BEF7BEF7BEF7BEBF
:10A5F400F7BEF7BEF7BEF7BEF7BEF7BEF7BEF7BEAF
:10A60400F7BEF7BEF7BEF7BEF79EF79EDEDB39E76F
:10A6140000432AB0447A447D447D449D449D449C37
:10A62400449C449C449C447C447C447C3C7C3C7CD6
:10A634003C7C3C7C3C7C3C7C3C7C3C7C3C7C3C7C56
:10A644003C7C3C7C3C7C3C7C3C7C3C7C3C7C3C7C46
:10A654003C7C3C7C3C7C3C7C3C7C3C7C3C7C3C7C36
:10A664003C7C3C7C3C7C3C7C3C7C3C7C3C7C3C7C26
:10A674003C7C3C7C3C7C3C7C3C7C3C7C3C7C3C7C16
:10A684003C7C3C7C3C7C3C7C3C7C3C7C3C7C3C7C06
:10A694003C7C3C7C3C7C3C7C3BF93BF93BF93BF906
:10A6A4003BF93BF93BF93BF93BF93BF93BF93BF906
:10A6B4003BF93BF93BF93BF93BF93BF93BF93BF9F6
:10A6C4003BF93BF93BF93BF93C193C193C193C1962
:10A6D4003C193C193C193C193C193C193C193C19CE
:10A6E40033B833772B562B562B562B562B562B56CB
:10A6F4002B562B562B362B362B562B36331419CB85
:10A70400004231A7B5B6C5F8C5F7C5F7C5F7C5F713
:10A71400BDF6BDD6BDD6BDB6B5B6CE58F79DFFBE07
:10A72400FFBEFFBEFFBFFFBFFFBFF7BEF7BEF7BE52
:10A73400F7BEF7BEF7BEF7BEF7BEF7BEF7BEF7BE6D
:10A74400F7BEF7BEF7BEF7BEF7BEF7BEF7BEF7BE5D
:10A75400F7BEF7BEF7BEF7BEF7BEF7BEF7BEF7BE4D
:10A76400F7BEF7BEF7BEF7BEF7BEF7BEF7BEF7BE3D
:10A77400F7BEF7BEF7BEF7BEF7BEF7BEF7BEF7BE2D
:10A78400F7BEF7BEF7BEF7BEF7BEF7BEF7BEF7BE1D
:10A79400F7BEF7BEF7BEF7BEF7BEF7BEF7BEF7BE0D
:10A7A400F7BEF7BEF7BEF7BEF7BEF7BEF7BEF7BEFD
:10A7B400F7BEF7BEF7BEF7BEF7BEF7BEF7BEF7BEED
:10A7C400F7BEF7BEF7BEF7BEF7BEF7BEF7BEF7BEDD
:10A7D400F7BEF7BEF7BEF7BEF7BEF7BEF7BEF7BECD
:10A7E400F7BEF7BEF7BEF7BEF79EEF5D634D0041BF
:10A7F40021CA43F7447C449E447D449D449D449C2B
:10A80400449C447C447C447C447C447C3C7C3C7C34
:10A814003C7C3C7C3C7C3C7C3C7C3C7C3C7C3C7C74
:10A824003C7C3C7C3C7C3C7C3C7C3C7C3C7C3C7C64
:10A834003C7C3C7C3C7C3C7C3C7C3C7C3C7C3C7C54
:10A844003C7C3C7C3C7C3C7C3C7C3C7C3C7C3C7C44
:10A854003C7C3C7C3C7C3C7C3C7C3C7C3C7C3C7C34
:10A864003C7C3C7C3C7C3C7C3C7C3C7C3C7C3C7C24
:10A874003C7C3C7C3C7C3C7C3BF93BF93BF93BF924
:10A884003BF93BF93BF93BF93BF93BF93BF93BF924
:10A894003BF93BF93BF93BF93BF93BF93BF93BF914
:10A8A4003C193C193C193C193C193C193C193C19FC
:10A8B4003C193C193C193C193C193C193C193C19EC
:10A8C4003BF933B833772B562B562B562B562B5636
:10A8D4002B562B562B562B562B562B562B5632F2C9
:10A8E400112700424A49BDF7C5F7C5F7C5F7C5F7B3
:10A8F400BDF6BDD6BDD6BDD6BDB6BDD6E71BFFBE23
:10A90400FFBEFFBEFFBEF7BEF7BEF7BEF7BEF7BE83
:10A91400F7BEF7BEF7BEF7BEF7BEF7BEF7BEF7BE8B
:10A92400F7BEF7BEF7BEF7BEF7BEF7BEF7BEF7BE7B
:10A93400F7BEF7BEF7BEF7BEF7BEF7BEF7BEF7BE6B
:10A94400F7BEF7BEF7BEF7BEF7BEF7BEF7BEF7BE5B
:10A95400F7BEF7BEF7BEF7BEF7BEF7BEF7BEF7BE4B
:10A96400F7BEF7BEF7BEF7BEF7BEF7BEF7BEF7BE3B
:10A97400F7BEF7BEF7BEF7BEF7BEF7BEF7BEF7BE2B
:10A98400F7BEF7BEF7BEF7BEF7BEF7BEF7BEF7BE1B
:10A99400F7BEF7BEF7BEF7BEF7BEF7BEF7BEF7BE0B
:10A9A400F7BEF7BEF7BEF7BEF7BEF7BEF7BEF7BEFB
:10A9B400F7BEF7BEF7BEF7BEF7BEF7BEF7BEF7BEEB
:10A9C400F7BEF7BEF79EF7BEF7BE94D3086209063A
:10A9D40043B4445B447C447D449D449C449C449CDB
:10A9E400449C447C449C447C447C447C3C7C3C7C33
:10A9F4003C7C3C7C3C7C3C7C3C7C3C7C3C7C3C7C93
:10AA04003C7C3C7C3C7C3C7C3C7C3C7C3C7C3C7C82
:10AA14003C7C3C7C3C7C3C7C3C7C3C7C3C7C3C7C72
:10AA24003C7C3C7C3C5C3C5C3C5C3C5C3C7C3C7CE2
:10AA34003C7C3C7C3C7C3C7C3C7C3C7C3C7C3C7C52
:10AA44003C7C3C7C3C7C3C7C3C7C3C7C3C7C3C7C42
:10AA54003C7C3C7C3C7C3C7C3BF93BF93BF93BF942
:10AA64003BF93BF93BF93BF93BF93BF93BF93BF942
:10AA74003BF93BF93BF93BF93BF93BF93BF93C1911
:10AA84003C193C193C193C193C193C193BFA3BFA5A
:10AA94003C1A3C1A3C193C193C193C193C193C1908
:10AAA4003C193BF833972B562B562B362B362B560B
:10AAB4002B562B562B562B562B562B362B362B35EB
:10AAC4002AB108C6002162EBC5F7C5F7C5F7C5F77B
:10AAD400C5F7BDF6BDD6BDD6BDD6BDB6C617F75DA6
:10AAE400FFDEFFBEF7BEF7BEF7BEF7BEF7BEF7BE8A
:10AAF400F7BEF7BEF7BEF7BEF7BEF7BEF7BEF7BEAA
:10AB0400F7BEF7BEF7BEF7BEF7BEF7BEF7BEF7BE99
:10AB1400F7BEF7BEF7BEF7BEF7BEF7BEF7BEF7BE89
:10AB2400F7BEF7BEF7BEF7BEF7BEF7BEF7BEF7BE79
:10AB3400F7BEF7BEF7BEF7BEF7BEF7BEF7BEF7BE69
:10AB4400F7BEF7BEF7BEF7BEF7BEF7BEF7BEF7BE59
:10AB5400F7BEF7BEF7BEF7BEF7BEF7BEF7BEF7BE49
:10AB6400F7BEF7BEF7BEF7BEF7BEF7BEF7BEF7BE39
:10AB7400F7BEF7BEF7BEF7BEF7BEF7BEF7BEF7BE29
:10AB8400F7BEF7BEF7BEF7BEF7BEF7BEF7BEF7BE19
:10AB9400F7BEF7BEF7BEF7BEF7BEF7BEF7BEF7BE09
:10ABA400F7BEF7BEF7BEF7BEAD9610A300A63B7482
:10ABB400445A447C447C447D449C449C449C449C32
:10ABC400449C447C449C447C447C3C7C3C7C3C7C59
:10ABD4003C7C3C7C3C7C3C7C3C7C3C7C3C7C3C7CB1
:10ABE4003C7C3C7C3C7C3C7C3C7C3C7C3C7C3C7CA1
:10ABF4003C7C3C7C3C7C3C7C3C7C3C7C3C7C3C7C91
:10AC04003C7C3C5C3C5C3C5C3C5C3C5C3C7C3C7C20
:10AC14003C7C3C7C3C7C3C7C3C7C3C7C3C7C3C7C70
:10AC24003C7C3C7C3C7C3C7C3C7C3C7C3C7C3C7C60
:10AC34003C7C3C7C3C7C3C7C3BF93BF93BF93BF960
:10AC44003BF93BF93BF93BF93BF93BF93BF93BF960
:10AC54003BF93BF93BF93BF93BF93BF93BF93C192F
:10AC64003C193C193C193C193C193C193C193C1938
:10AC74003C1A3C1A3C193C193C193C193C193C1926
:10AC840044193C193BF933972B562B562B362B562C
:10AC94002B552B562B562B562B362B362B362B5609
:10ACA4002B14224F006310618C30C5F7C5F7C5F72C
:10ACB400C5F7C5F6BDD6BDD6BDD6BDB6BDB6DEDAC2
:10ACC400FFBEF7BEF7BEF7BEF7BEF7BEF7BEF7BED0
:10ACD400F7BEF7BEF7BEF7BEF7BEF7BEF7BEF7BEC8
:10ACE400F7BEF7BEF7BEF7BEF7BEF7BEF7BEF7BEB8
:10ACF400F7BEF7BEF7BEF7BEF7BEF7BEF7BEF7BEA8
:10AD0400F7BEF7BEF7BEF7BEF7BEF7BEF7BEF7BE97
:10AD1400F7BEF7BEF7BEF7BEF7BEF7BEF7BEF7BE87
:10AD2400F7BEF7BEF7BEF7BEF7BEF7BEF7BEF7BE77
:10AD3400F7BEF7BEF7BEF7BEF7BEF7BEF7BEF7BE67
:10AD4400F7BEF7BEF7BEF7BEF7BEF7BEF7BEF7BE57
:10AD5400F7BEF7BEF7BEF7BEF7BEF7BEF7BEF7BE47
:10AD6400F7BEF7BEF7BEF7BEF7BEF7BEF7BEF7BE37
:10AD7400F7BEF7BEF7BEF7BEF7BEF7BEF7BEF7BE27
:10AD8400F7BEF7BEF79EC6182965008432F1445A0F
:10AD9400447C447C447C449C449C449C449C447C2F
:10ADA400447C447C449C447C3C7C3C7C3C7C3C7C9F
:10ADB4003C7C3C7C3C7C3C7C3C7C3C7C3C7C3C7CCF
:10ADC4003C7C3C7C3C7C3C7C3C7C3C7C3C7C3C7CBF
:10ADD4003C7C3C7C3C7C3C7C3C7C3C7C3C7C3C7CAF
:10ADE4003C7C3C5C3C5C3C5C3C5C3C5C3C7C3C7C3F
:10ADF4003C7C3C7C3C7C3C7C3C7C3C7C3C7C3C7C8F
:10AE04003C7C3C7C3C7C3C7C3C7C3C7C3C7C3C7C7E
:10AE14003C7C3C7C3C7C3C7C3BF83BF93BF93BF97F
:10AE24003BF93BF93BF93BF93BF93BF93BF93BF97E
:10AE34003BF93BF93BF93BF93BF93BF93BF93C194D
:10AE44003C193C193C193C193C193C193C193C1956
:10AE54003C193C193C193C193C193C193C193C1946
:10AE64003C193C193C193BD82B772B562B562B56A7
:10AE74002B562B562B562B562B362B362B362B3646
:10AE84002B362AF321EC002220E3B575C617C5F74B
:10AE9400C5F7C5F7BDD6BDD6BDD6BDD6BDB6C6179A
:10AEA400F77DF79EF7BEF7BEF7BEF7BEF7BEF7BE57
:10AEB400F7BEF7BEF7BEF7BEF7BEF7BEF7BEF7BEE6
:10AEC400F7BEF7BEF7BEF7BEF7BEF7BEF7BEF7BED6
:10AED400F7BEF7BEF7BEF7BEF7BEF7BEF7BEF7BEC6
:10AEE400F7BEF7BEF7BEF7BEF7BEF7BEF7BEF7BEB6
:10AEF400F7BEF7BEF7BEF7BEF7BEF7BEF7BEF7BEA6
:10AF0400F7BEF7BEF7BEF7BEF7BEF7BEF7BEF7BE95
:10AF1400F7BEF7BEF7BEF7BEF7BEF7BEF7BEF7BE85
:10AF2400F7BEF7BEF7BEF7BEF7BEF7BEF7BEF7BE75
:10AF3400F7BEF7BEF7BEF7BEF7BEF7BEF7BEF7BE65
:10AF4400F7BEF7BEF7BEF7BEF7BEF7BEF7BEF7BE55
:10AF5400F7BEF7BEF7BEF7BEF7BEF7BEF7BEF7BE45
:10AF6400F7BEF7BECE7939C700A4226E4439445CDB
:10AF7400447D447C447C449C449C449C449C447C4C
:10AF8400447C449C449C447C3C7C3C7C3C7C3C7C9D
:10AF94003C7C3C7C3C7C3C7C3C7C3C7C3C7C3C7CED
:10AFA4003C7C3C7C3C7C3C7C3C7C3C7C3C7C3C7CDD
:10AFB4003C7C3C7C3C7C3C7C3C7C3C7C3C7C3C7CCD
:10AFC4003C7C3C5C3C5C3C5C3C5C3C5C3C7C3C7C5D
:10AFD4003C7C3C7C3C7C3C7C3C7C3C7C3C7C3C7CAD
:10AFE4003C7C3C7C3C7C3C7C3C7C3C7C3C7C3C7C9D
:10AFF4003C7C3C7C3C7C3C7C3BF83BF93BF93BF99E
:10B004003BF93BF93BF93BF93BF93BF93BF93BF99C
:10B014003BF93BF93BF93BF93BF93BF93BF93C196B
:10B024003C193C193C193C193C193C193C193C1974
:10B034003C193C193C193C193C193C193C193C1964
:10B044003C193C193C193BF933972B562B562B369C
:10B054002B562B562B562B362B362B362B362B3684
:10B064002B362B352AF2114900415AAAC5F6C5F7E9
:10B07400C5F7C5F7C5F6BDD6BDD6BDD6BDB6BDD6DA
:10B08400DEDBF79DF79DF7BEF7BEF7BEF7BEF7BE52
:10B09400F7BEF7BEF7BEF7BEF7BEF7BEF7BEF7BE04
:10B0A400F7BEF7BEF7BEF7BEF7BEF7BEF7BEF7BEF4
:10B0B400F7BEF7BEF7BEF7BEF7BEF7BEF7BEF7BEE4
:10B0C400F7BEF7BEF7BEF7BEF7BEF7BEF7BEF7BED4
:10B0D400F7BEF7BEF7BEF7BEF7BEF7BEF7BEF7BEC4
:10B0E400F7BEF7BEF7BEF7BEF7BEF7BEF7BEF7BEB4
:10B0F400F7BEF7BEF7BEF7BEF7BEF7BEF7BEF7BEA4
:10B10400F7BEF7BEF7BEF7BEF7BEF7BEF7BEF7BE93
:10B11400F7BEF7BEF7BEF7BEF7BEF7BEF7BEF7BE83
:10B12400F7BEF7BEF7BEF7BEF7BEF7BEF7BEF7BE73
:10B13400F7BEF7BEF7BEF7BEF7BEF7BEF7BEF7BE63
:10B14400F7BED67939E70084222D4438445C447C28
:10B15400447C447C449C449C449C449C449C447C4B
:10B16400447C449C449C447C3C7C3C7C3C7C3C7CBB
:10B174003C7C3C7C3C7C3C7C3C7C3C7C3C7C3C7C0B
:10B184003C7C3C7C3C7C3C7C3C7C3C7C3C7C3C7CFB
:10B194003C7C3C7C3C7C3C7C3C7C3C7C3C7C3C7CEB
:10B1A4003C5C3C5C3C5C3C5C3C5C3C5C3C5C3C5CDB
:10B1B4003C7C3C7C3C7C3C7C3C7C3C7C3C7C3C7CCB
:10B1C4003C7C3C7C3C7C3C7C3C7C3C7C3C7C3C7CBB
:10B1D4003C7C3C7C3C7C3C7C3BF83BF83BF83BF8BF
:10B1E4003BF93BF93BF93BF93BF93BF93BF93BF9BB
:10B1F4003BF93BF93BF93BF93BF93BF93BF93C198A
:10B204003C193C193C193C193C193C193C193C1992
:10B214003C193C193C193C193C193C193C193C1982
:10B224003C193BF93BF93BD833972B562B562B361D
:10B234002B362B362B362B362B362B362B352B3504
:10B244002B362B362B352AD2090608618C30C5F7EC
:10B25400C617C5F7C5F7C5D7BDD6BDD6BDB6BDB6ED
:10B26400C617EF3CFFBEF7BEF7BEF7BEF7BEF7BE8C
:10B27400F7BEF7BEF7BEF7BEF7BEF7BEF7BEF7BE22
:10B28400F7BEF7BEF7BEF7BEF7BEF7BEF7BEF7BE12
:10B29400F7BEF7BEF7BEF7BEF7BEF7BEF7BEF7BE02
:10B2A400F7BEF7BEF7BEF7BEF7BEF7BEF7BEF7BEF2
:10B2B400F7BEF7BEF7BEF7BEF7BEF7BEF7BEF7BEE2
:10B2C400F7BEF7BEF7BEF7BEF7BEF7BEF7BEF7BED2
:10B2D400F7BEF7BEF7BEF7BEF7BEF7BEF7BEF7BEC2
:10B2E400F7BEF7BEF7BEF7BEF7BEF7BEF7BEF7BEB2
:10B2F400F7BEF7BEF7BEF7BEF7BEF7BEF7BEF7BEA2
:10B30400F7BEF7BEF7BEF7BEF7BEF7BEF7BEF7BE91
:10B31400F7BEF7BEF7BEF7BEF7BEF7BEF7BEF7BE81
:10B32400DEFB4228004319CC4418447B447C447C13
:10B33400449C449C449C449C449C449C449C447C29
:10B34400447C449C449C447C3C7C3C7C3C7C3C7CD9
:10B354003C7C3C7C3C7C3C7C3C7C3C7C3C7C3C7C29
:10B364003C7C3C7C3C7C3C7C3C7C3C7C3C7C3C7C19
:10B374003C7C3C7C3C7C3C7C3C7C3C7C3C7C3C5C29
:10B384003C5C3C5C3C7C3C7C3C7C3C5C3C5C3C5C99
:10B394003C5C3C7C3C7C3C7C3C7C3C7C3C7C3C7C09
:10B3A4003C7C3C7C3C7C3C7C3C7C3C7C3C7C3C7CD9
:10B3B4003C7C3C7C3C7C3C7C3BF83BF83BF83BF8DD
:10B3C4003BF93BF93BF93BF93BF93BF93BF93BF9D9
:10B3D4003BF93BF93BF93BF93BF93BF93BF93C19A8
:10B3E4003C193C193C193C193C193C193C193C19B1
:10B3F4003C193C193C193C193C193BF93BF83BD826
:10B4040033D833B733972B562B362B362B362B3674
:10B414002B362B362B362B362B362B362B362B3620
:10B424002B362B352B152B342A6E00832924AD554E
:10B43400CE38CE18C5F7C5D7C5D7BDD6BDB6B595D8
:10B44400B596D69AFFBEF7BEF79EF7BEF7BEF7BE17
:10B45400F7BEF7BEF7BEF7BEF7BEF7BEF7BEF7BE40
:10B46400F7BEF7BEF7BEF7BEF7BEF7BEF7BEF7BE30
:10B47400F7BEF7BEF7BEF7BEF7BEF7BEF7BEF7BE20
:10B48400F7BEF7BEF7BEF7BEF7BEF7BEF7BEF7BE10
:10B49400F7BEF7BEF7BEF7BEF7BEF7BEF7BEF7BE00
:10B4A400F7BEF7BEF7BEF7BEF7BEF7BEF7BEF7BEF0
:10B4B400F7BEF7BEF7BEF7BEF7BEF7BEF7BEF7BEE0
:10B4C400F7BEF7BEF7BEF7BEF7BEF7BEF7BEF7BED0
:10B4D400F7BEF7BEF7BEF7BEF7BEF7BEF7BEF7BEC0
:10B4E400F7BEF7BEF7BEF7BEF7BEF7BEF7BEF7BEB0
:10B4F400F7BEF7BEF7BEF7BEF7BEF7BEF7BEE71B53
:10B504004A490042118B3BD7447B447C447C449C95
:10B51400449C449C449C449D449D449C449C447C45
:10B52400447C449C449C447C3C7C3C7C3C7C3C7CF7
:10B534003C7C3C7C3C7C3C7C3C7C3C7C3C7C3C7C47
:10B544003C7C3C7C3C7C3C7C3C7C3C7C3C7C3C7C37
:10B554003C7C3C7C3C7C3C7C3C7C3C7C3C7C3C5C47
:10B564003C5C3C5C3C7C3C7C3C7C3C5C3C5C3C5CB7
:10B574003C5C3C7C3C7C3C7C3C7C3C7C3C7C3C7C27
:10B584003C7C3C7C3C7C3C7C3C7C3C7C3C7C3C7CF7
:10B594003C7C3C7C3C7C3C7C3BF83BF83BF83BF8FB
:10B5A4003BF93BF93BF93BF93BF93BF93BF93BF9F7
:10B5B4003BF93BF93BF93BF93BF93BF93C193C19A5
:10B5C4003C193C193C193C193C193C193BF93C19F0
:10B5D4003C193C193C193BF933B833972B772B565C
:10B5E4002B562B362B362B362B362B362B362B362F
:10B5F4002B362B362B362B352B352B352B352B3544
:10B604002B352B152B152B352AF2118A0042422992
:10B61400BDF8CE18CE18C5D7C5D7C5D7BDD6BDB6CB
:10B62400B595BDD6EF3CF7BEF7BEF7BEF7BEF7BE85
:10B63400F7BEF7BEF7BEF7BEF7BEF7BEF7BEF7BE5E
:10B64400F7BEF7BEF7BEF7BEF7BEF7BEF7BEF7BE4E
:10B65400F7BEF7BEF7BEF7BEF7BEF7BEF7BEF7BE3E
:10B66400F7BEF7BEF7BEF7BEF7BEF7BEF7BEF7BE2E
:10B67400F7BEF7BEF7BEF7BEF7BEF7BEF7BEF7BE1E
:10B68400F7BEF7BEF7BEF7BEF7BEF7BEF7BEF7BE0E
:10B69400F7BEF7BEF7BEF7BEF7BEF7BEF7BEF7BEFE
:10B6A400F7BEF7BEF7BEF7BEF7BEF7BEF7BEF7BEEE
:10B6B400F7BEF7BEF7BEF7BEF7BEF7BEF7BEF7BEDE
:10B6C400F7BEF7BEF7BEF7BEF7BEF7BEF7BEF7BECE
:10B6D400F7BEF7BEF7BEF7BEF7BEF7BEDEFB39E72F
:10B6E4000022118B43D7445B447C447C447C447CDF
:10B6F400449C449C449C449D449D449C449C447C64
:10B70400447C449C449C447C3C7C3C7C3C7C3C7C15
:10B714003C7C3C7C3C7C3C7C3C7C3C7C3C7C3C7C65
:10B724003C7C3C7C3C7C3C7C3C7C3C7C3C7C3C7C55
:10B734003C7C3C7C3C7C3C7C3C7C3C7C3C7C3C5C65
:10B744003C5C3C5C3C7C3C7C3C7C3C5C3C5C3C5CD5
:10B754003C5C3C7C3C7C3C7C3C7C3C7C3C7C3C7C45
:10B764003C7C3C7C3C7C3C7C3C7C3C7C3C7C3C7C15
:10B774003C7C3C7C3C7C3C7C3BF83BF83BF83BF819
:10B784003BF93BF93BF93BF93BF93BF93BF93BF915
:10B794003BF93BF93BF93BF93BF93BF93C193C19C3
:10B7A4003C193C193C193C193C193C193C193C19ED
:10B7B4003BF93BF933B82B772B562B362B362B36EC
:10B7C4002B362B362B362B362B362B362B362B366D
:10B7D4002B362B362B362B352B352B352B352B3562
:10B7E4002B352B152B362B152B342AD008E7086262
:10B7F4008C51C618CE18C618C5F7C5F7C5F7BDD6FF
:10B80400BDB6B596C5D7EF3CF7BEF7BEF7BEF7BEDB
:10B81400F7BEF7BEF7BEF7BEF7BEF7BEF7BEF7BE7C
:10B82400F7BEF7BEF7BEF7BEF7BEF7BEF7BEF7BE6C
:10B83400F7BEF7BEF7BEF7BEF7BEF7BEF7BEF7BE5C
:10B84400F7BEF7BEF7BEF7BEF7BEF7BEF7BEF7BE4C
:10B85400F7BEF7BEF7BEF7BEF7BEF7BEF7BEF7BE3C
:10B86400F7BEF7BEF7BEF7BEF7BEF7BEF7BEF7BE2C
:10B87400F7BEF7BEF7BEF7BEF7BEF7BEF7BEF7BE1C
:10B88400F7BEF7BEF7BEF7BEF7BEF7BEF7BEF7BE0C
:10B89400F7BEF7BEF7BEF7BEF7BEF7BEF7BEF7BEFC
:10B8A400F7BEF7BEF7BEF7BEF7BEF7BEF7BEF7BEEC
:10B8B400F7BEF7BEF7BEF79EF7BECE5831A60042DC
:10B8C400116B3BB6445A447B447C447C447C447CAA
:10B8D400449C449C449C449D449D449C449C447C82
:10B8E400447C447C449C447C3C7C3C7C3C7C3C7C54
:10B8F4003C7C3C7C3C7C3C7C3C7C3C7C3C7C3C7C84
:10B904003C7C3C7C3C7C3C7C3C7C3C7C3C7C3C7C73
:10B914003C7C3C7C3C7C3C7C3C7C3C7C3C7C3C5C83
:10B924003C5C3C5C3C7C3C7C3C7C3C5C3C5C3C5CF3
:10B934003C5C3C7C3C7C3C7C3C7C3C7C3C7C3C7C63
:10B944003C7C3C7C3C7C3C7C3C7C3C7C3C7C3C7C33
:10B954003C7C3C7C3C7C3C7C3BF83BF83BF93BF935
:10B964003BF93BF93BF93BF93BF93BF93BF93BF933
:10B974003BF93BF93BF93BF93BF93BF93BF93BF923
:10B984003BF93BF93BF93BF93BF93BF93BF93BD834
:10B9940033972B562B362B152B152B352B352B3557
:10B9A4002B352B352B352B352B352B352B352B3593
:10B9B4002B352B352B352B352B352B352B352B3583
:10B9C4002B152B152B152B152B143313224E00641A
:10B9D4002125B575CE38CE18C5F7C5F7C5F7C5F717
:10B9E400C5F7BDB6B595C638EF5DF7BEF7BEF7BE71
:10B9F400F7BEF7BEF7BEF7BEF7BEF7BEF7BEF7BE9B
:10BA0400F7BEF7BEF7BEF7BEF7BEF7BEF7BEF7BE8A
:10BA1400F7BEF7BEF7BEF7BEF7BEF7BEF7BEF7BE7A
:10BA2400F7BEF7BEF7BEF7BEF7BEF7BEF7BEF7BE6A
:10BA3400F7BEF7BEF7BEF7BEF7BEF7BEF7BEF7BE5A
:10BA4400F7BEF7BEF7BEF7BEF7BEF7BEF7BEF7BE4A
:10BA5400F7BEF7BEF7BEF7BEF7BEF7BEF7BEF7BE3A
:10BA6400F7BEF7BEF7BEF7BEF7BEF7BEF7BEF7BE2A
:10BA7400F7BEF7BEF7BEF7BEF7BEF7BEF7BEF7BE1A
:10BA8400F7BEF7BEF7BEF7BEF7BEF7BEF7BEF7BE0A
:10BA9400F7BEF7BEF7BEF79EAD962986006219CAB7
:10BAA4004418445B447C447B447B447C447C447C19
:10BAB400449C449C449C449D449D449C449C447CA0
:10BAC400447C447C3C7C3C7C3C7C3C7C3C7C3C7CA2
:10BAD4003C7C3C7C3C7C3C7C3C7C3C7C3C7C3C7CA2
:10BAE4003C7C3C7C3C7C3C7C3C7C3C7C3C5C3C5CD2
:10BAF4003C5C3C5C3C5C3C5C3C5C3C5C3C5C3C5C82
:10BB04003C5C3C7C3C7C3C7C3C7C3C7C3C5C3C5CD1
:10BB14003C5C3C5C3C5C3C5C3C5C3C5C3C5C3C5C61
:10BB24003C5C3C7C3C7C3C7C3C7C3C7C3C7C3C7C71
:10BB34003C7C3C7C3C7C3C7C3BF83BF83BF93BF953
:10BB44003BF93BF93BF93BF93BF93BF93BF93BF951
:10BB54003BF93BF93BF93BF93BF93BF93BF93BF941
:10BB64003BF93BF93BF93BF93BF93BD833972B566F
:10BB74002B362B362B152B152B152B152B352B353F
:10BB84002B352B352B352B352B152B352B352B35D1
:10BB94002B352B352B352B352B352B352B352B35A1
:10BBA4002B152B152B152B152B352B342B1211691B
:10BBB400004252AACE18CE38C5F7BDF7C5F7C5F76F
:10BBC400C5F7BDD6B596BDB6CE59F77EF79EF7BE7E
:10BBD400F7BEF7BEF7BEF7BEF7BEF7BEF7BEF7BEB9
:10BBE400F7BEF7BEF7BEF7BEF7BEF7BEF7BEF7BEA9
:10BBF400F7BEF7BEF7BEF7BEF7BEF7BEF7BEF7BE99
:10BC0400F7BEF7BEF7BEF7BEF7BEF7BEF7BEF7BE88
:10BC1400F7BEF7BEF7BEF7BEF7BEF7BEF7BEF7BE78
:10BC2400F7BEF7BEF7BEF7BEF7BEF7BEF7BEF7BE68
:10BC3400F7BEF7BEF7BEF7BEF7BEF7BEF7BEF7BE58
:10BC4400F7BEF7BEF7BEF7BEF7BEF7BEF7BEF7BE48
:10BC5400F7BEF7BEF7BEF7BEF7BEF7BEF7BEF7BE38
:10BC6400F7BEF7BEF7BEF7BEF7BEF7BEF7BEF7BE28
:10BC7400F7BEF79EEF7D9492190400841A0C4417C2
:10BC8400447B447C447C447C447C447C447C447CB1
:10BC9400449C449C449C449D449D449C449C447CBE
:10BCA400447C447C3C7C3C7C3C7C3C7C3C7C3C7CC0
:10BCB4003C7C3C7C3C7C3C7C3C7C3C7C3C7C3C7CC0
:10BCC4003C7C3C7C3C7C3C7C3C7C3C7C3C5C3C5CF0
:10BCD4003C5C3C5C3C5C3C5C3C5C3C5C3C5C3C5CA0
:10BCE4003C7C3C7C3C7C3C7C3C7C3C7C3C7C3C7C90
:10BCF4003C5C3C5C3C5C3C5C3C5C3C5C3C5C3C5C80
:10BD04003C5C3C7C3C7C3C7C3C7C3C7C3C7C3C7C8F
:10BD14003C7C3C7C3C7C3C7C3BF83BF83BF93BF971
:10BD24003BF93BF93BF93BF93BF93BF93BF93BF96F
:10BD34003BF93BF93BF93BF93BF93BF93BF93BF95F
:10BD44003BF93C193C193BD833972B562B362B36F1
:10BD54002B362B362B152B152B152B152B152B357D
:10BD64002B352B152B352B352B152B352B352B350F
:10BD74002B352B352B352B352B352B352B352B15DF
:10BD84002B152B152B152B152B352B352B132A6D1A
:10BD940008A308618C30AD54AD34A534AD34A5345A
:10BDA400A514A514A514AD75BDD7DEFBF7BEF79E8B
:10BDB400F7BEF7BEF7BEF7BEF7BEF7BEF7BEF7BED7
:10BDC400F7BEF7BEF7BEF7BEF7BEF7BEF7BEF7BEC7
:10BDD400F7BEF7BEF7BEF7BEF7BEF7BEF7BEF7BEB7
:10BDE400F7BEF7BEF7BEF7BEF7BEF7BEF7BEF7BEA7
:10BDF400F7BEF7BEF7BEF7BEF7BEF7BEF7BEF7BE97
:10BE0400F7BEF7BEF7BEF7BEF7BEF7BEF7BEF7BE86
:10BE1400F7BEF7BEF7BEF7BEF7BEF7BEF7BEF7BE76
:10BE2400F7BEF7BEF7BEF7BEF7BEF7BEF7BEF7BE66
:10BE3400F7BEF7BEF7BEF7BEF7BEF7BEF7BEF7BE56
