:020000040800F2
:1060000000C00020497F00089179000893790008BA
:106010009579000897790008997900080000000038
:106020000000000000000000000000009B79000854
:106030009D790008000000009F790008A179000800
:10604000917F0008917F0008917F0008917F0008F0
:10605000917F0008917F0008A9790008B3790008B2
:10606000BD790008917F0008917F0008917F0008AA
:10607000917F0008917F0008917F0008917F0008C0
:10608000917F0008917F0008917F0008917F0008B0
:10609000917F0008917F0008917F0008917F0008A0
:1060A000917F0008C9790008917F0008917F00085E
:1060B000D9790008E9790008F9790008917F00088A
:1060C000917F0008917F0008917F0008917F000870
:1060D000917F0008917F0008917F0008917F000860
:1060E000917F0008917F0008917F0008917F000850
:1060F000917F0008917F0008917F0008917F000840
:10610000917F0008917F0008097A0008917F0008BC
:10611000917F0008917F0008917F0008917F00081F
:10612000917F0008917F0008917F0008917F00080F
:10613000000000000000000000000000000000005F
:10614000000000000000000000000000000000004F
:10615000000000000000000000000000000000003F
:10616000000000000000000000000000000000002F
:10617000000000000000000000000000000000001F
:10618000000000000000000000000000000000000F
:1061900000000000000000000000000000000000FF
:1061A00000000000000000000000000000000000EF
:1061B00000000000000000000000000000000000DF
:1061C00000000000000000000000000000000000CF
:1061D00000000000000000000000000000000000BF
:0461E0005FF8E0F193
:1061E80081F0004102E000BF83F0004330B54FEA80
:1061F80041044FEA430594EA050F08BF90EA020FED
:106208001FBF54EA000C55EA020C7FEA645C7FEA7F
:10621800655C00F0E2804FEA5454D4EB5555B8BFA2
:106228006D420CDD2C4480EA020281EA030382EA13
:10623800000083EA010180EA020281EA0303362DA5
:1062480088BF30BD11F0004F4FEA01314FF4801C78
:106258004CEA113102D0404261EB410113F0004F8A
:106268004FEA03334CEA133302D0524263EB430341
:1062780094EA050F00F0A780A4F10104D5F1200EDF
:106288000DDB02FA0EFC22FA05F2801841F100013A
:1062980003FA0EF2801843FA05F359410EE0A5F10E
:1062A80020050EF1200E012A03FA0EFC28BF4CF03F
:1062B800020C43FA05F3C01851EBE37101F00045F5
:1062C80007D54FF0000EDCF1000C7EEB00006EEB02
:1062D8000101B1F5801F1BD3B1F5001F0CD349088C
:1062E8005FEA30004FEA3C0C04F101044FEA4452E3
:1062F80012F5800F80F09A80BCF1004F08BF5FEA6A
:10630800500C50F1000041EB045141EA050130BD49
:106318005FEA4C0C404141EB0101013C28BFB1F55B
:10632800801FE9D291F0000F04BF01460020B1FAA6
:1063380081F308BF2033A3F10B03B3F120020CDA79
:106348000C3208DD02F1140CC2F10C0201FA0CF057
:1063580021FA02F10CE002F11402D8BFC2F1200CBC
:1063680001FA02F120FA0CFCDCBF41EA0C01904072
:10637800E41AA2BF01EB0451294330BD6FEA0404BB
:106388001F3C1CDA0C340EDC04F11404C4F12002A6
:1063980020FA04F001FA02F340EA030021FA04F3B8
:1063A80045EA030130BDC4F10C04C4F1200220FA0F
:1063B80002F001FA04F340EA0300294630BD21FA4D
:1063C80004F0294630BD94F0000F83F4801306BF13
:1063D80081F480110134013D4EE77FEA645C18BF07
:1063E8007FEA655C29D094EA050F08BF90EA020F9E
:1063F80005D054EA000C04BF1946104630BD91EA96
:10640800030F1EBF0021002030BD5FEA545C05D198
:106418004000494128BF41F0004130BD14F58004D7
:106428003CBF01F5801130BD01F0004545F0FE414B
:1064380041F470014FF0000030BD7FEA645C1ABF80
:10644800194610467FEA655C1CBF0B46024650EAB7
:10645800013406BF52EA033591EA030F41F40021E3
:1064680030BD00BF90F0000F04BF0021704730B569
:106478004FF4806404F132044FF000054FF000013E
:1064880050E700BF90F0000F04BF0021704730B5FF
:106498004FF4806404F1320410F0004548BF4042D4
:1064A8004FF000013EE700BF42004FEAE2014FEA29
:1064B80031014FEA02701FBF12F07F4393F07F4F04
:1064C80081F06051704732F07F4208BF704793F007
:1064D8007F4F04BF41F40021704730B54FF460741A
:1064E80001F0004521F000411CE700BF50EA01021D
:1064F80008BF704730B54FF000050AE050EA0102C6
:1065080008BF704730B511F0004502D5404261EB35
:1065180041014FF4806404F132045FEA915C3FF476
:10652800D8AE4FF003025FEADC0C18BF03325FEA13
:10653800DC0C18BF033202EBDC02C2F1200300FAC4
:1065480003FC20FA02F001FA03FE40EA0E0021FAE9
:1065580002F11444BDE600BF4FEA4102B2F1E04344
:1065680024BFB3F5001CDCF1FE5C0DD901F0004C32
:106578004FEAC0024CEA5070B2F1004F40EB830082
:1065880008BF20F00100704711F0804F21D113F1AE
:106598003872BCBF01F00040704741F480114FEAE7
:1065A8005252C2F11802C2F1200C10FA0CF320FA70
:1065B80002F018BF40F001004FEAC1234FEAD3238D
:1065C80003FA0CFC40EA0C0023FA02F34FEA4303F7
:1065D800CCE77FEA625307D150EA01331EBF4FF080
:1065E800FE4040F44000704701F0004040F0FE409B
:1065F80040F40000704700BF80F0004002E000BF98
:1066080081F0004142001FBF5FEA410392EA030F95
:106618007FEA226C7FEA236C6AD04FEA1262D2EBDF
:106628001363C1BFD218414048404140B8BF5B42E4
:10663800192B88BF704710F0004F40F4000020F07D
:106648007F4018BF404211F0004F41F4000121F093
:106658007F4118BF494292EA030F3FD0A2F10102DD
:1066680041FA03FC10EB0C00C3F1200301FA03F11B
:1066780000F0004302D5494260EB4000B0F5000F3E
:1066880013D3B0F1807F06D340084FEA310102F1FD
:106698000102FE2A51D2B1F1004F40EBC25008BFAF
:1066A80020F0010040EA03007047490040EB000079
:1066B800013A28BFB0F5000FEDD2B0FA80FCACF17A
:1066C800080CB2EB0C0200FA0CF0AABF00EBC250A7
:1066D80052421843BCBFD0401843704792F0000F95
:1066E80081F4000106BF80F400000132013BB5E7E8
:1066F8004FEA41037FEA226C18BF7FEA236C21D05E
:1067080092EA030F04D092F0000F08BF08467047C2
:1067180090EA010F1CBF0020704712F07F4F04D190
:10672800400028BF40F00040704712F100723CBFA3
:1067380000F50000704700F0004343F0FE4040F4CD
:10674800000070477FEA226216BF08467FEA23638B
:106758000146420206BF5FEA412390EA010F40F476
:10676800800070474FF0000304E000BF10F00043C2
:1067780048BF40425FEA000C08BF704743F09643A9
:1067880001464FF000001CE050EA010208BF7047C4
:106798004FF000030AE000BF50EA010208BF70474B
:1067A80011F0004302D5404261EB41015FEA010C60
:1067B80002BF84460146002043F0B64308BFA3F158
:1067C8008053A3F50003BCFA8CF2083AA3EBC2533A
:1067D80010DB01FA02FC634400FA02FCC2F1200259
:1067E800BCF1004F20FA02F243EB020008BF20F090
:1067F8000100704702F1200201FA02FCC2F12002F6
:1068080050EA4C0021FA02F243EB020008BF20EAEA
:10681800DC7070474FF0FF0C1CEAD0521EBF1CEA18
:10682800D15392EA0C0F93EA0C0F6FD01A4480EA06
:10683800010C400218BF5FEA41211ED04FF00063EF
:1068480043EA501043EA5111A0FB01310CF000401B
:10685800B1F5000F3EBF490041EAD3715B0040EA41
:10686800010062F17F02FD2A1DD8B3F1004F40EB11
:10687800C25008BF20F00100704790F0000F0CF0E4
:10688800004C08BF49024CEA502040EA51207F3AA8
:10689800C2BFD2F1FF0340EAC250704740F4000083
:1068A8004FF00003013A5DDC12F1190FDCBF00F074
:1068B80000407047C2F10002410021FA02F1C2F122
:1068C800200200FA02FC5FEA310040F1000053EABE
:1068D8004C0308BF20EADC70704792F0000F00F00C
:1068E800004C02BF400010F4000F013AF9D040EA12
:1068F8000C0093F0000F01F0004C02BF490011F4A6
:10690800000F013BF9D041EA0C018FE70CEAD153A3
:1069180092EA0C0F18BF93EA0C0F0AD030F0004C23
:1069280018BF31F0004CD8D180EA010000F00040D7
:10693800704790F0000F17BF90F0004F084691F095
:10694800000F91F0004F14D092EA0C0F01D14202CF
:106958000FD193EA0C0F03D14B0218BF084608D198
:1069680080EA010000F0004040F0FE4040F40000E2
:10697800704740F0FE4040F4400070474FF0FF0C75
:106988001CEAD0521EBF1CEAD15392EA0C0F93EABC
:106998000C0F69D0A2EB030280EA010C49024FEA0E
:1069A800402037D04FF0805343EA111143EA1013C7
:1069B8000CF000408B4238BF5B0042F17D024FF47F
:1069C800000C8B4224BF5B1A40EA0C00B3EB510F5A
:1069D80024BFA3EB510340EA5C00B3EB910F24BF43
:1069E800A3EB910340EA9C00B3EBD10F24BFA3EBC8
:1069F800D10340EADC001B0118BF5FEA1C1CE0D190
:106A0800FD2A3FF650AF8B4240EBC25008BF20F042
:106A1800010070470CF0004C4CEA50207F32C2BF96
:106A2800D2F1FF0340EAC250704740F400004FF033
:106A38000003013A37E792F0000F00F0004C02BF64
:106A4800400010F4000F013AF9D040EA0C0093F02E
:106A5800000F01F0004C02BF490011F4000F013B88
:106A6800F9D041EA0C0195E70CEAD15392EA0C0FF0
:106A780008D142027FF47DAF93EA0C0F7FF470AF28
:106A8800084676E793EA0C0F04D14B023FF44CAF6B
:106A980008466EE730F0004C18BF31F0004CCAD100
:106AA80030F000427FF45CAF31F000437FF43CAF3C
:106AB8005FE700BF4FF0FF3C06E000BF4FF0010C5E
:106AC80002E000BF4FF0010C4DF804CD4FEA400240
:106AD8004FEA41037FEA226C18BF7FEA236C11D08A
:106AE80001B052EA530C18BF90EA010F58BFB2EB3D
:106AF800030088BFC81738BF6FEAE17018BF40F0BD
:106B0800010070477FEA226C02D15FEA402C05D170
:106B18007FEA236CE4D15FEA412CE1D05DF8040BF5
:106B2800704700BF844608466146FFE70FB5FFF788
:106B3800C9FF002848BF10F1000F0FBD4DF808ED40
:106B4800FFF7F4FF0CBF012000205DF808FB00BF31
:106B58004DF808EDFFF7EAFF34BF012000205DF88B
:106B680008FB00BF4DF808EDFFF7E0FF94BF0120D8
:106B780000205DF808FB00BF4DF808EDFFF7D2FFD5
:106B880094BF012000205DF808FB00BF4DF808ED18
:106B9800FFF7C8FF34BF012000205DF808FB00BFE5
:106BA80042000ED2B2F1FE4F0BD34FF09E03B3EB6F
:106BB800126209D44FEA002343F0004323FA02F09B
:106BC80070474FF00000704712F1610F01D1420287
:106BD80002D14FF0FF3070474FF00000704700BF00
:106BE80070B54FF0FF0C4CF4E06C1CEA11541DBF5B
:106BF8001CEA135594EA0C0F95EA0C0F00F0DEF826
:106C08002C4481EA030621EA4C5123EA4C5350EA0A
:106C1800013518BF52EA033541F4801143F480135B
:106C280038D0A0FB02CE4FF00005E1FB02E506F0EC
:106C38000042E0FB03E54FF00006E1FB03569CF041
:106C4800000F18BF4EF0010EA4F1FF04B6F5007F47
:106C580064F5407404D25FEA4E0E6D4146EB0606B9
:106C680042EAC62141EA55514FEAC52040EA5E5042
:106C78004FEACE2EB4F1FD0C88BFBCF5E06F1ED8EC
:106C8800BEF1004F08BF5FEA500E50F1000041EB23
:106C9800045170BD06F0004646EA010140EA0200D0
:106CA80081EA0301B4EB5C04C2BFD4EB0C0541EAF2
:106CB800045170BD41F480114FF0000E013C00F307
:106CC800AB8014F1360FDEBF002001F0004170BD2B
:106CD800C4F10004203C35DA0C341BDC04F1140444
:106CE800C4F1200500FA05F320FA04F001FA05F2D0
:106CF80040EA020001F0004221F0004110EBD3709D
:106D080021FA04F642EB06015EEA430E08BF20EAC8
:106D1800D37070BDC4F10C04C4F1200500FA04F36B
:106D280020FA05F001FA04F240EA020001F00041FD
:106D380010EBD37041F100015EEA430E08BF20EA70
:106D4800D37070BDC4F1200500FA05F24EEA020EB8
:106D580020FA04F301FA05F243EA020321FA04F0E7
:106D680001F0004121FA04F220EA020000EBD3709E
:106D78005EEA430E08BF20EAD37070BD94F0000F9E
:106D88000FD101F00046400041EB010111F4801FD2
:106D980008BF013CF7D041EA060195F0000F18BF83
:106DA800704703F00046520043EB030313F4801FBF
:106DB80008BF013DF7D043EA0603704794EA0C0F79
:106DC8000CEA135518BF95EA0C0F0CD050EA41068F
:106DD80018BF52EA4306D1D181EA030101F000410C
:106DE8004FF0000070BD50EA410606BF1046194634
:106DF80052EA430619D094EA0C0F02D150EA013640
:106E080013D195EA0C0F05D152EA03361CBF104680
:106E180019460AD181EA030101F0004141F0FE411F
:106E280041F470014FF0000070BD41F0FE4141F4A3
:106E3800780170BD70B54FF0FF0C4CF4E06C1CEAA3
:106E480011541DBF1CEA135594EA0C0F95EA0C0F58
:106E580000F0A7F8A4EB050481EA030E52EA033513
:106E68004FEA013100F088804FEA03334FF0805534
:106E780045EA131343EA12634FEA022245EA111561
:106E880045EA10654FEA00260EF000419D4208BF12
:106E9800964244F1FD0404F5407402D25B084FEABF
:106EA8003202B61A65EB03055B084FEA32024FF46B
:106EB80080104FF4002CB6EB020E75EB030E22BFC8
:106EC800B61A754640EA0C005B084FEA3202B6EB88
:106ED800020E75EB030E22BFB61A754640EA5C0037
:106EE8005B084FEA3202B6EB020E75EB030E22BFC7
:106EF800B61A754640EA9C005B084FEA3202B6EBC8
:106F0800020E75EB030E22BFB61A754640EADC0086
:106F180055EA060E18D04FEA051545EA16754FEAE8
:106F280006164FEAC30343EA52734FEAC2025FEA06
:106F38001C1CC0D111F4801F0BD141EA00014FF095
:106F480000004FF0004CB6E711F4801F04BF014366
:106F58000020B4F1FD0C88BFBCF5E06F3FF6AFAE82
:106F6800B5EB030C04BFB6EB020C5FEA500C50F112
:106F7800000041EB045170BD0EF0004E4EEA113195
:106F880014EB5C04C2BFD4EB0C0541EA045170BD9C
:106F980041F480114FF0000E013C90E645EA060EE0
:106FA8008DE60CEA135594EA0C0F08BF95EA0C0F0E
:106FB8003FF43BAF94EA0C0F0AD150EA01347FF456
:106FC80034AF95EA0C0F7FF425AF104619462CE72D
:106FD80095EA0C0F06D152EA03353FF4FDAE104690
:106FE800194622E750EA410618BF52EA43067FF4E1
:106FF800C5AE50EA41047FF40DAF52EA43057FF471
:10700800EBAE12E70348044B834202D0034B03B1B3
:1070180018477047140000201400002000000000EA
:107028000548064B1B1AD90F01EBA301491002D0E2
:10703800034B03B1184770471400002014000020C8
:107048000000000010B5064C237843B9FFF7DAFFBB
:10705800044B13B10448AFF300800123237010BD23
:10706800140000200000000060AB000808B5054BC4
:107078001BB105490548AFF30080BDE80840FFF79C
:10708800CFBF00BF000000001800002060AB000860
:1070980030B583B004465149C068FFF7BBFBFFF722
:1070A8007FFD02461825009506230A21084603F0AD
:1070B80003FA4A496068FFF7ADFBFFF771FD024626
:1070C8000095062328210A2003F0F6F94349206B8E
:1070D800FFF7A0FBFFF764FD024600950623462153
:1070E8000A2003F0E9F93D49206CFFF793FBFFF70D
:1070F80057FD0246009506230A218C2003F0DCF98F
:107108003649A06BFFF786FBFFF74AFD024600955C
:10711800062328218C2003F0CFF93049606EFFF751
:1071280079FBFFF73DFD02460095062346218C209A
:1071380003F0C2F92949606FFFF76CFBFFF730FDD8
:1071480002460095062396210A2003F0B5F9234943
:10715800E06EFFF75FFBFFF723FD0246009506236D
:10716800B4210A2003F0A8F91C49D4F89800FFF7C5
:1071780051FBFFF715FD024600950623D2210A2090
:1071880003F09AF91549D4F8A800FFF743FBFFF775
:1071980007FD02460095062396218C2003F08CF902
:1071A8000E49D4F8A000FFF735FBFFF7F9FC0246BB
:1071B80000950623B4218C2003F07EF90749D4F802
:1071C800CC00FFF727FBFFF7EBFC024600950623F0
:1071D800D2218C2003F070F903B030BD0000C84202
:1071E80030B58BB005460023ADF8043006E04FF00B
:1071F800FF33012201A9214802F062FF9DF8043003
:10720800232BF4D1002409E04FF0FF33012202A917
:1072180021441A4802F054FF0134E4B21D2CF3D97A
:107228004FF0010C00231C461A460AE00CFB03F33E
:10723800611C25F81430CCB24FF0010C0023013248
:10724800D2B202F12801694411F8201C23290FD079
:107258005F29EBD003EB83035B0098B21BB22D29A7
:1072680003D00844303803B2E9E74FF0FF3CE6E7C3
:107278000CFB03F325F814300BB030BD600200207E
:107288007047F8B504464768C1683846FFF7B8F94B
:10729800E169FFF7BFFA0646A062E56A216AFFF7CF
:1072A800B9FA01462846FFF7ADF90546E0623146CE
:1072B8003846FFF7A7F901462846FFF7A3F92063E8
:1072C8000020F8BDF8B50446056B00212846FFF7F5
:1072D8005DFCA0B10026144F33463246617838462B
:1072E80003F09EFA24782846FFF7CAFF20F00042F0
:1072F80033462146384603F093FA0020F8BD0026AD
:10730800094F334632462178384603F089FA6478C3
:107318002846FFF7B5FF20F000423346214638469D
:1073280003F07EFAE9E700BF3000002000B587B01F
:107338008DF817204FF47A730293012301930DF10E
:10734800170200920A460146024801F097FB07B06F
:107358005DF804FB4000002000B585B04FF47A7357
:1073680002930123019300920A460146024801F064
:1073780037FC05B05DF804FB4000002010B504465A
:10738800184621706270A360002102F036FD0421C6
:10739800A06802F032FD0020E0820023E3600122B1
:1073A8002276A26812685062A2681168CA6842F020
:1073B8000102CA60E3606360A362E3624FF07C523B
:1073C800E2612362636210BD2DE9F04704468368D9
:1073D8001B684FF00008C3F8248083681B685D6A47
:1073E8002DB2404600F01CFED4F80890D9F80030C1
:1073F8005B6A1BB25B1B94F9185003FB05F51FFA77
:1074080085FA2DB22069FFF74FF806460F461E4B46
:1074180083FB05232B44E817C0EBE32000B2FFF7FA
:1074280031F817A3D3E90023FFF7DAFB02460B462E
:1074380030463946FEF7DAFEFFF78EF82061284617
:10744800FFF794F91149FFF799FA1149FFF7E2F9A3
:10745800FFF72AF80AA3D3E90023FFF7C1FBFFF7D8
:107468007BF8E060A38A5344A382A4F816A0D9F855
:107478000030C3F824804046BDE8F087AFF30080B1
:10748800C3F5285C8FC2C53FE1000EE0004092447E
:107498000000B44310B50446FFF714FF2046FFF779
:1074A80093FF2046FFF7EDFE002010BD70B504469F
:1074B80016461D460B460E220F21FFF75FFF334687
:1074C8000D220C2104F16800FFF758FF2B4601221A
:1074D800022104F13400FFF751FF049B0322042129
:1074E80004F19C00FFF74AFFFF2384F88030002353
:1074F800C4F8D430C4F8D0300F48802303700F4B41
:1075080043600F4BC3600F4B836003F0F1F868B919
:10751800094C0D49204603F035F900234FF07E52FF
:107528000021204603F07CF9002070BD00210248AC
:1075380003F0F6F8ECE700BF3000002040787D014A
:1075480061730008357300080080BB444160002067
:10755800704710B50446FFF79DFF04F16800FFF778
:1075680099FF04F13400FFF795FF04F19C00FFF741
:1075780091FF002010BDF8B5044615460846FEF7F1
:1075880081FF00224FF07E53FFF72AFBFEF7E4FF4E
:1075980006462846FEF776FF00224FF07E53FFF797
:1075A8001FFBFEF7D9FF07463146FFF729F80546C6
:1075B80001462046FFF7CAFF39463046FFF722F852
:1075C8000646014604F16800FFF7C0FF314604F1A2
:1075D8003400FFF7BBFF294604F19C00FFF7B6FF14
:1075E8002046FFF7B6FFF8BD2DE9F04389B0002427
:1075F8000494059406940794374B9A6942F0100254
:107608009A619A6902F010020092009A9A6942F00F
:1076180020029A619A6902F020020192019A9A69FD
:1076280042F004029A619A6902F004020292029AF4
:107638009A6942F008029A619B6903F00803039370
:10764800039BDFF8989022461221484600F090FEEE
:10765800234E22464FF48071304600F089FE0725FC
:107668000495204B0593069404A91F4800F064FD77
:10767800122304934FF00108CDF8148006940227D2
:10768800079704A9484600F057FD4FF48073049308
:10769800CDF814800694079704A9304600F04CFDF5
:1076A80022462146062000F015FD062000F022FDA6
:1076B80022462146284600F00DFD284600F01AFD16
:1076C80022462146082000F005FD082000F012FDA2
:1076D80009B0BDE8F08300BF00100240000C014073
:1076E80000080140000011100010014008B50B48C7
:1076F8000B4B03600B4B436000238360C3604FF464
:107708008042026143618361C361036201F0D8F87A
:1077180000B908BD00F03AF8FBE700BF40000020C0
:1077280000580040A086010010B586B000230293DF
:107738000393049305930268114B9A4201D006B053
:1077480010BD104CA36943F00803A361A36903F0BB
:1077580008030093009B4FF44063029312230393A2
:107768000323059302A9084800F0E6FCE36943F403
:107778008003E361E36903F480030193019BDEE77F
:107788000058004000100240000C014072B6FEE7AD
:1077980000B591B02822002106A803F0FDF80023C7
:1077A80001930293039304930593012206924FF4E5
:1077B800803307930A9202220D920E934FF4E0133E
:1077C8000F9306A801F0C6FB80B90F23019302218D
:1077D8000291002303934FF480620492059301A859
:1077E80001F0EAFD20B911B05DF804FBFFF7CEFF08
:1077F800FFF7CCFF00B5B9B000F0EEFBFFF7C8FF0C
:10780800FFF7F2FEFFF772FF00F070F900F0FAFAE6
:1078180000F038F900F0A0F900F0D4F900F0FAF817
:1078280000F03CF800F008FB02F08AFE002002F0AD
:107838002BFD134B0093134B134A144902A8FFF76F
:1078480035FE134802F06EF80121124800F096FD4B
:107858000022114602A8FFF78EFE0A2000F0E0FB86
:107868000D4C2046FFF7BCFCB4F90220B4F9001017
:1078780002A8FFF780FE02A8FFF70AFCE4E700BFB2
:10788800F8000020D00100208801002040010020DD
:1078980018020020000C01409400002008B50E4892
:1078A8000E4B03604FF48273436000238360C36010
:1078B80002220261012242614FF400728261C361B7
:1078C8000362436283620A23C36201F0C7FE00B900
:1078D80008BDFFF75BFFFBE7A00000200038004071
:1078E80000B587B0002302930393049305930268BD
:1078F800124B9A4202D007B05DF804FB03F5EC3353
:10790800DA6942F48042DA61DA6902F4804200926C
:10791800009A9A6942F008029A619B6903F0080389
:107928000193019B4FF42043029302230393032303
:10793800059302A9024800F0FFFBDCE7003800408D
:10794800000C014082B00E4B9A6942F001029A6124
:107958009A6902F001020092009ADA6942F08052B4
:10796800DA61DB6903F080530193019B054A536890
:1079780023F0E06343F00073536002B0704700BF28
:107988000010024000000140FEE7FEE7FEE7FEE7C8
:10799800FEE770477047704708B500F02FFB08BD39
:1079A80008B5012000F0F4FC08BD08B5022000F07D
:1079B800EFFC08BD08B5042000F0EAFC08BD000093
:1079C80008B5024801F0EFFF08BD00BF180200200B
:1079D80008B5024801F0E7FF08BD00BFD00100204C
:1079E80008B5024801F0DFFF08BD00BF880100208C
:1079F80008B5024801F0D7FF08BD00BF40010020CC
:107A080008B5024801F0CFFF08BD00BFF80000200C
:107A18007047000000B587B00023029303930493D6
:107A28000593009301931548154A02604722426066
:107A3800836040F2E732C26003614361836102F010
:107A4800BBF890B94FF48053029302A90B4802F097
:107A580046F968B90023009301936946074802F084
:107A680033FA40B907B05DF804FBFFF78FFEE9E78A
:107A7800FFF78CFEEEE7FFF789FEF3E71802002018
:107A8800002C014000B58DB02422002103A802F08B
:107A980083FF00230193029313484FF08042026052
:107AA800436083604FF6FF72C26003618361032302
:107AB8000393012205920A23079309920B9303A9C2
:107AC80002F0A6F850B900230193029301A90648D1
:107AD80002F0FAF928B90DB05DF804FBFFF756FE7D
:107AE800F1E7FFF753FEF6E7D001002000B58DB0AF
:107AF8002422002103A802F04FFF002301930293E0
:107B08001348144A0260436083604FF6FF72C260F4
:107B18000361836103230393012205920A230793D8
:107B280009920B9303A902F073F850B9002301934B
:107B3800029301A9064802F0C7F928B90DB05DF80B
:107B480004FBFFF723FEF1E7FFF720FEF6E700BF8F
:107B5800880100200004004000B58DB024220021D7
:107B680003A802F019FF0023019302931348144A53
:107B78000260436083604FF6FF72C26003618361F5
:107B880003230393012205920A23079309920B9377
:107B980003A902F03DF850B900230193029301A90B
:107BA800064802F091F928B90DB05DF804FBFFF71B
:107BB800EDFDF1E7FFF7EAFDF6E700BF4001002021
:107BC8000008004000B58DB02422002103A802F06F
:107BD800E3FE0023019302931348144A02604360B2
:107BE80083604FF6FF72C2600361836103230393CE
:107BF800012205920A23079309920B9303A902F025
:107C080007F850B900230193029301A9064802F02E
:107C18005BF928B90DB05DF804FBFFF7B7FDF1E794
:107C2800FFF7B4FDF6E700BFF8000020000C0040A5
:107C380002680E4B9A4200D0704700B583B003F536
:107C480064439A6942F400629A619B6903F4006391
:107C58000193019B00221146192000F03BFA1920DC
:107C680000F048FA03B05DF804FB00BF002C0140A7
:107C780010B58EB000230A930B930C930D930368F1
:107C8800B3F1804F0BD0584A934247D0574A93429A
:107C980066D0574A934200F085800EB010BD03F5B8
:107CA8000433DA6942F00102DA61DA6902F00102AA
:107CB8000192019A9A6942F004029A619A6902F063
:107CC80004020292029A9A6942F008029A619B6938
:107CD80003F008030393039B4FF400430A930AA994
:107CE800444800F029FA08230A9300240B940C94C2
:107CF8000AA9414800F020FA404A536823F4407327
:107D080043F0E06343F480735360224621461C200D
:107D180000F0E0F91C2000F0EDF9BEE7384BDA6915
:107D280042F00202DA61DA6902F002020492049A6D
:107D38009A6942F004029A619B6903F0040305936F
:107D4800059BC0230A930AA92A4800F0F5F90022E6
:107D580011461D2000F0BEF91D2000F0CBF99CE76C
:107D6800274BDA6942F00402DA61DA6902F00402A8
:107D78000692069A9A6942F008029A619B6903F092
:107D880008030793079BC0230A930AA91A4800F01F
:107D9800D3F9002211461E2000F09CF91E2000F0A5
:107DA800A9F97AE7164BDA6942F00802DA61DA696A
:107DB80002F008020892089A9A6942F004029A614D
:107DC8009B6903F004030993099B03230A930AA9F7
:107DD800084800F0B1F900221146322000F07AF983
:107DE800322000F087F958E70004004000080040FE
:107DF800000C004000080140000C01400000014058
:107E08000010024008B50A480A4B03604FF4E133FA
:107E1800436000238360C36003610C224261836175
:107E2800C36102F01DF900B908BDFFF7AFFCFBE71D
:107E3800A80200200038014008B50A480A4B036030
:107E48004FF4E133436000238360C36003610C2275
:107E580042618361C36102F003F900B908BDFFF70D
:107E680095FCFBE7600200200044004010B588B094
:107E78000023049305930693079303682C4A9342BF
:107E880004D02C4A93422BD008B010BD2A4B9A69D3
:107E980042F480429A619A6902F480420092009A00
:107EA8009A6942F004029A619B6903F00403019302
:107EB800019B4FF400730493022305930323079354
:107EC8001E4C04A9204600F037F94FF48063049350
:107ED80000230593069304A9204600F02DF9D3E763
:107EE800154BDA6942F40032DA61DA6902F40032D9
:107EF8000292029A9A6942F004029A619B6903F01D
:107F080004030393039B042304930223059303238D
:107F180007930A4C04A9204600F00EF9082304939D
:107F280000230593069304A9204600F005F9ABE762
:107F380000380140004400400010024000080140A1
:107F4800FFF766FD0B480C490C4A002302E0D458A1
:107F5800C4500433C4188C42F9D3094A094C00238D
:107F680001E013600432A242FBD302F065FDFFF783
:107F780041FC7047000000201400002064F700084E
:107F88001400002010090020FEE7000010B5044688
:107F98000E4B1A784FF47A73B3FBF2F30C4A10685D
:107FA800B0FBF3F000F0B4F868B90F2C01D9012048
:107FB8000AE0002221464FF0FF3000F08BF8054B15
:107FC8001C60002000E0012010BD00BF040000205C
:107FD800000000200800002008B5074A136843F095
:107FE80010031360032000F063F80F20FFF7CEFFA3
:107FF800FFF7A8FC002008BD00200240034A1168D2
:10800800034B1B780B441360704700BFF00200203D
:1080180004000020014B1868704700BFF0020020E0
:1080280038B50446FFF7F6FF0546B4F1FF3F02D026
:10803800044B1B781C44FFF7EDFF401BA042FAD30A
:1080480038BD00BF04000020002808DB0901C9B2C0
:1080580000F1604000F5614080F80013704700F0BF
:108068000F000901C9B2014B1954704714ED00E023
:1080780000B500F00700C0F1070CBCF1040F28BFE1
:108088004FF0040C031D062B0FD9C31E4FF0FF3E03
:108098000EFA0CF021EA000199400EFA03FE22EADA
:1080A8000E0241EA02005DF804FB0023EEE700003F
:1080B800074AD36823F4E0631B041B0C000200F496
:1080C800E060034343F0BF6343F40033D360704779
:1080D80000ED00E010B50446054BD868C0F3022057
:1080E800FFF7C6FF01462046FFF7AEFF10BD00BFF1
:1080F80000ED00E0002807DB00F01F024009012323
:108108009340024A42F82030704700BF00E100E087
:108118000138B0F1807F0BD24FF0E0235861054A57
:10812800F02182F823100020986107221A61704715
:108138000120704700ED00E070B582B00024A4462D
:10814800ABE0854DAB4214D00CD8A5F58015AB42F9
:108158000FD005F57025AB420BD0A5F58015AB42C5
:1081680010D106E07D4DAB4203D005F58035AB421A
:1081780008D18B68002B5AD0012B53D042610824B8
:1081880000E0CC68BEF1FF0F53D806464FEA8C02D8
:1081980033680F25954023EA050304FA02F21343D6
:1081A80033604B6813F0805F75D06D4B9A6942F06D
:1081B80001029A619B6903F001030193019B4FEA55
:1081C8009C02951C674B53F825600CF00305AD0025
:1081D8000F23AB4026EA0306634B984230D003F5E1
:1081E8008063984200F0968003F58063984200F01F
:1081F800938003F58063984200F0908003F58063D4
:10820800984200F08D8003F58063984216D00623CB
:1082180017E0CC680434B5E7CC680834B2E7CC681A
:108228000C34AFE702610824ACE70024AAE7042471
:10823800A8E7061DACF108029200A9E7052300E0B3
:108248000023AB4033430232464D45F822304B6899
:1082580013F4801F66D0454A936843EA0E0393607F
:108268004B6813F4001F63D0404AD36843EA0E03F7
:10827800D3604B6813F4003F60D03C4A536843EA2C
:108288000E0353604B6813F4803F5DD0374A136880
:1082980043EA0E0313600CF1010C0B6833FA0CF27D
:1082A80058D0012202FA0CF203EA020E32EA030362
:1082B800F1D14B68122B3FF644AF122B3FF662AF59
:1082C80001A555F823F000BF7B8100088B810008C9
:1082D80021820008338200088D8100088D81000802
:1082E8008D8100088D8100088D8100088D8100082E
:1082F8008D8100088D8100088D8100088D8100081E
:108308008D8100088D8100088D8100081B8200087E
:1083180027820008012394E7022392E7032390E7CA
:1083280004238EE7114A936823EA0E03936097E7C4
:108338000E4AD36823EA0E03D3609AE70B4A5368C0
:1083480023EA0E0353609DE7084A136823EA0E03E5
:108358001360A0E702B070BD0000221000003110C9
:1083680000100240000001400008014000040140E4
:108378000AB101617047090401617047C36801EAE5
:10838800030221EA030141EA024101617047704793
:1083980008B5054B5B69034200D108BD024B586123
:1083A800FFF7F5FFF9E700BF0004014003685A69C9
:1083B80012F4806F01D1002070476FF480625A6117
:1083C80000230363202280F83D2080F83E30026CB1
:1083D80042F00402026480F83C30012070472DE925
:1083E800F04106460C46174698463BE0FFF712FE5A
:1083F800069BC01A404502D8B8F1000F32D1012DB2
:1084080018D033689B6924EA03039BB2B3FA83F359
:108418005B099F4226D100233363202286F83D2042
:1084280086F83E30326C42F02002326486F83C30E6
:10843800012027E033685B6924EA03039BB2B3FA9F
:1084480083F35B09E5E733685B6924EA030C1FFAE9
:108458008CFCBCFA8CFC4FEA5C1C674511D1B8F166
:10846800FF3FC3D1C4F30745012DECD033689B69A6
:1084780024EA030C1FFA8CFCBCFA8CFC4FEA5C1C47
:10848800EBE70020BDE8F0812DE9F84305460E46EC
:108498009046994653E01A6842F400721A602B68B5
:1084A8006FF480625A6100232B63202285F83D20F7
:1084B80085F83E302A6C42F004022A6485F83C3084
:1084C80001204AE0FFF7A6FDA0EB0900404502D8CD
:1084D800B8F1000F33D1012F17D02B689B6926EA1A
:1084E80003039BB2003B18BF012343B300232B6354
:1084F800202285F83D2085F83E302A6C42F0200283
:108508002A6485F83C30012027E02B685B6926EA5D
:1085180003039BB2003B18BF0123E6E72B689C6965
:1085280026EA0404A4B2003C18BF0124A4B12B68B5
:108538005A6912F4806FAED1B8F1FF3FC2D1C6F3C9
:108548000747012FEAD12B685C6926EA0404A4B224
:10855800003C18BF0124E9E70020BDE8F88370B5A6
:1085680004460D46164623685B6913F0800F21D137
:108578002046FFF71BFFF8B9B5F1FF3FF3D0FFF72F
:1085880049FD801BA84201D8002DECD123685B6906
:1085980013F0800FE7D100232363202284F83D20C5
:1085A80084F83E30226C42F02002226484F83C3089
:1085B800012000E0002070BD0120FCE72DE9F04318
:1085C80085B004460D4691461F46DDF830800D9E65
:1085D8000368196841F480711960009643460022C7
:1085E8004FF00111FFF7FBFE60B9236805F0FE05A7
:1085F8001D613346424626492046FFF745FF68B1CC
:10860800012008E023681B6813F4807F02D04FF430
:1086180000732364032005B0BDE8F08300230393AF
:1086280023685A6903929B690393039B3246414628
:108638002046FFF794FF30B9012F0FD123685FFA66
:1086480089F61E61E7E7236C042B01D00120E2E7DD
:108658002268136843F400731360F7E723684FEA4E
:1086680019221A61324641462046FFF778FF20B9A1
:1086780023685FFA89F61E61CDE7236C042B01D0CD
:108688000120C8E72268136843F400731360F7E712
:10869800020001002DE9F04784B004460D46164655
:1086A80099460C9FDDF834800268136843F48063B0
:1086B80013600368196841F480711960CDF800806F
:1086C8003B4600224FF00111FFF789FE70B95FFAAF
:1086D80085FA236805F0FE051D6143463A4641497F
:1086E8002046FFF7D1FE68B1012008E023681B6827
:1086F80013F4807F02D04FF400732364032004B086
:10870800BDE8F0870023039323685A6903929B69A5
:108718000393039B424639462046FFF720FF80B962
:10872800B9F1010F18D12368F6B21E6142463946E5
:108738002046FFF714FF68B3236C042B24D00120D4
:10874800DDE7236C042B01D00120D8E722681368E9
:1087580043F400731360F7E72368320A1A6142464C
:1087680039462046FFF7FBFE18B92368F6B21E61AA
:10877800DCE7236C042B01D00120C0E722681368D2
:1087880043F400731360F7E72268136843F4007337
:108798001360D4E72268136843F480731360CDF83C
:1087A80000803B4600224FF001112046FFF717FEDC
:1087B80068B922684AF00103136143463A460949F9
:1087C8002046FFF761FE002899D0012097E723682B
:1087D8001B6813F4807F02D04FF4007323640320D6
:1087E8008DE700BF0200010070B504460D4616462D
:1087F80023685B6913F0040F21D12046FFF7D6FDEB
:10880800F8B9B5F1FF3FF3D0FFF704FC801BA8428D
:1088180001D8002DECD123685B6913F0040FE7D170
:1088280000232363202284F83D2084F83E30226C04
:1088380042F02002226484F83C30012000E000204D
:1088480070BD0120FCE770B504460D46164614E0DD
:108858006FF010025A6100232363202284F83D2020
:1088680084F83E30226C226484F83C30012025E0F4
:1088780023685B6913F0400F10D02368586910F023
:10888800400F1AD1586910F0100FE1D1FFF7C2FB61
:10889800801BA842ECD8002DEFD1E9E70023236321
:1088A800202284F83D2084F83E30226C42F02002D9
:1088B800226484F83C30012000E0002070BD0000F4
:1088C800002800F0CC8070B5044690F83D30002BAD
:1088D80077D0242384F83D302268136823F00103FD
:1088E80013602268136843F4004313602268136816
:1088F80023F40043136000F01BFE62685A4B9A424F
:1089080064D85A4B98428CBF00230123002B40F0B7
:10891800A8805749A1FB00318B0C25686A6822F0B2
:108928003F0242EA91426A6021680A6A22F03F02E5
:1089380066684D4DAE424FD8013313430B62216830
:10894800CA6922F44F4222F0FF026568464B9D42F5
:108958004CD8431E6D00B3FBF5F3013340F6FC70B1
:10896800034278D0C3F30B031A43CA6121680B682A
:1089780023F0C003E269206A024313430B602168B5
:108988008B6823F4034323F0FF032269E068024362
:1089980013438B602168CB6823F0FF036269A069E9
:1089A80002431343CB602268136843F0010313604A
:1089B80000202064202384F83D30206384F83E00A2
:1089C80070BD80F83C30FEF7AFFE82E7294B984235
:1089D8008CBF0023012399E74FF4967505FB03F339
:1089E800254DA5FB03539B090133A6E7A668BEB92D
:1089F800431E05EB450CB3FBFCF30133C3F30B0338
:108A0800B3FA83F35B0943BBC6B9431E05EB4505BF
:108A1800B3FBF5F30133C3F30B0343F40043A3E7BC
:108A2800431E05EB850C0CEB8C0CB3FBFCF30133FC
:108A3800C3F30B03B3FA83F35B09E4E7431E05EBC7
:108A4800850505EB8505B3FBF5F30133C3F30B038C
:108A580043F4404388E7042386E7012384E70120A1
:108A680070470120ACE700BFA08601007F841E008C
:108A780083DE1B43FF083D00D34D62102DE9F04310
:108A880083B004460F46904699460C9EFFF7C2FAFB
:108A9800054694F83D00C0B2202803D0022003B058
:108AA800BDE8F0830095192301224B492046FFF7C2
:108AB80096FC002840F0898094F83C30012B00F0A7
:108AC8008680012384F83C3023681A6812F0010F6D
:108AD80003D11A6842F001021A602268136823F46D
:108AE80000631360212384F83D30402384F83E302E
:108AF800002323640A9B6362BDF82C306385638D71
:108B08002385364BE362019500964B46424639462B
:108B18002046FFF753FD00285BD1238D002B35D06D
:108B28002A4631462046FFF71AFD20BB626A2368B1
:108B380012781A61626A531C6362218D013989B205
:108B48002185638D9BB2013B9BB26385236858697D
:108B580010F0040FE1D00029DFD052781A61636A5F
:108B680001336362238D013B2385638D9BB2013BF7
:108B78009BB26385D1E7236C042B01D001208EE7DB
:108B88002268136843F400731360F7E72A463146F6
:108B98002046FFF729FE50B1236C042B01D0012099
:108BA8007DE72268136843F400731360F7E72268CF
:108BB800136843F400731360202384F83D300023C6
:108BC80084F83E3084F83C3069E7022067E70220E9
:108BD80065E7012063E700BF020010000000FFFF07
:108BE8002DE9F04389B004460F4690469946129EF7
:108BF80000230793FFF70EFA054694F83D00C0B22C
:108C0800202804D00227384609B0BDE8F083009533
:108C18001923012281492046FFF7E1FB002840F093
:108C2800728194F83C30012B00F06F81012384F8A5
:108C38003C3023681A6812F0010F03D11A6842F019
:108C480001021A602268136823F400631360222368
:108C580084F83D30402384F83E3000232364109B81
:108C68006362BDF844306385638D23856C4BE36292
:108C7800019500964B46424639462046FFF70AFDC5
:108C88000746002840F04381238D5BB9039323688E
:108C98005A6903929A690392039A1A6842F4007215
:108CA8001A60EDE0012B0FD0022B21D02268136847
:108CB80043F4806313600023069323685A6906927D
:108CC8009B690693069BDBE02268136823F48063A4
:108CD800136072B60023049323685A6904929A6950
:108CE8000492049A1A6842F400721A6062B6C7E0E5
:108CF8002268136843F40063136072B60023059377
:108D080023685A6905929A690592059A1A6822F4A5
:108D180080621A6062B6B3E02A4631462046FFF701
:108D280092FD002840F0F58023681A69636A1A707A
:108D3800636A01336362238D013B2385638D9BB294
:108D4800013B9BB263859BE0009533460022354981
:108D58002046FFF744FB002840F0DF8022681368B4
:108D680023F48063136072B623681A69636A1A7001
:108D7800636A01336362238D013B2385638D9BB254
:108D8800013B9BB26385284B1B68DB08274AA2FB83
:108D980003231B0A03EB8303C3EBC3030793079B5C
:108DA800013B0793079B002B28D023685A6912F0D0
:108DB800040FF4D01A6842F400721A6023681A6922
:108DC800636A1A70636A01336362238D013B2385EA
:108DD800638D9BB2013B9BB2638562B623681A69B7
:108DE800636A1A70636A01336362238D013B2385CA
:108DF800638D9BB2013B9BB2638541E023632022D4
:108E080084F83D2084F83E30226C42F0200222642F
:108E180062B684F83C300127F5E600BF0200100076
:108E28000000FFFF040001000000002089B5F814CD
:108E38002A4631462046FFF706FD00286FD12368F1
:108E48001A69636A1A70626A531C6362238D013B54
:108E58002385638D9BB2013B9BB263852368596967
:108E680011F0040F0CD01B695370636A01336362FD
:108E7800238D013B2385638D9BB2013B9BB26385A8
:108E8800238D002B36D0032BD2D8012B3FF444AFCF
:108E9800022B7FF459AF0095334600222149204622
:108EA800FFF79DFA002836D172B62268136843F49A
:108EB8000073136023681A69636A1A70636A01335E
:108EC8006362238D013B2385638D9BB2013B9BB27B
:108ED800638562B623681A69636A1A70636A013324
:108EE8006362238D013B2385638D9BB2013B9BB25B
:108EF8006385C5E7202384F83D30002384F83E309D
:108F080084F83C307FE602277DE602277BE60127CE
:108F180079E6012777E6012775E6012773E6012739
:108F280071E600BF0400010082B0084B1B68084AC4
:108F3800A2FB03235B0A00FB03F3019300BF019B21
:108F48005A1E0192002BF9D102B070470000002090
:108F5800D34D6210002800F0F18170B582B004464C
:108F6800036813F0010F2CD0994B5B6803F00C03D6
:108F7800042B1DD0964B5B6803F00C03082B12D012
:108F88006368B3F5803F41D0002B55D103F180438E
:108F980003F504331A6822F480321A601A6822F43E
:108FA80080221A6037E08A4B5B6813F4803FE7D071
:108FB800874B1B6813F4003F03D06368002B00F055
:108FC800BF81236813F0020F75D0814B5B6813F0E3
:108FD8000C0F5FD07E4B5B6803F00C03082B54D05A
:108FE8002369002B00F08A807A4B01221A60FFF770
:108FF80011F80546764B1B6813F0020F75D1FFF781
:1090080009F8401B0228F5D903209EE1704A13682D
:1090180043F480331360636843B3FEF7FBFF0546F0
:109028006B4B1B6813F4003FCBD1FEF7F3FF401BDB
:109038006428F5D9032088E1B3F5A02F09D0644B43
:109048001A6822F480321A601A6822F480221A60A0
:10905800E1E703F18043A3F53C331A6842F4802228
:109068001A601A6842F480321A60D4E7FEF7D2FF19
:109078000546574B1B6813F4003FA2D0FEF7CAFF02
:10908800401B6428F5D903205FE1514B5B6813F45A
:10909800803FA5D14E4B1B6813F0020F03D0236904
:1090A800012B40F04F814A4A136823F0F8036169A5
:1090B80043EAC1031360236813F0080F33D0A36990
:1090C800002B5CD0434B0122C3F88024FEF7A2FF9B
:1090D80005463F4B5B6A13F0020F21D1FEF79AFF5A
:1090E800401B0228F5D903202FE1394A136823F0E1
:1090F800F803616943EAC1031360DCE7354B0022DA
:109108001A60FEF787FF0546314B1B6813F0020F04
:10911800D1D0FEF77FFF401B0228F5D9032014E1C8
:109128000120FFF701FF236813F0040F00F0968079
:10913800274BDB6913F0805F34D1254BDA6942F0A5
:109148008052DA61DB6903F080530193019B0125AA
:10915800214B1B6813F4807F26D0E368012B3DD098
:10916800002B53D103F1804303F504331A6A22F02C
:1091780001021A621A6A22F004021A6233E0154BDD
:109188000022C3F88024FEF745FF0546104B5B6AB2
:1091980013F0020FC7D0FEF73DFF401B0228F5D998
:1091A8000320D2E00025D3E70B4A136843F4807309
:1091B8001360FEF72FFF0646074B1B6813F4807FEA
:1091C800CBD1FEF727FF801B6428F5D90320BCE02C
:1091D8000010024000004242007000405F4A136ADB
:1091E80043F001031362E36833B3FEF713FF064647
:1091F8005A4B1B6A13F0020F2FD1FEF70BFF801B8F
:1092080041F288339842F3D903209EE0052B09D018
:10921800524B1A6A22F001021A621A6A22F00402F8
:109228001A62E0E74D4B1A6A42F004021A621A6A9F
:1092380042F001021A62D6E7FEF7ECFE0646474BFB
:109248001B6A13F0020F08D0FEF7E4FE801B41F200
:1092580088339842F3D9032077E0E5B9E369002B16
:1092680072D03E4A526802F00C02082A56D0022BED
:1092780017D03B4B00221A66FEF7CCFE0446374B4C
:109288001B6813F0007F47D0FEF7C4FE001B0228BE
:10929800F5D9032059E0314AD36923F08053D361CB
:1092A800DCE72F4B00221A66FEF7B4FE05462B4B6F
:1092B8001B6813F0007F06D0FEF7ACFE401B0228A7
:1092C800F5D9032041E0236AB3F5803F1AD023493A
:1092D8004B6823F47413226A606A024313434B6099
:1092E8001F4B01221A66FEF795FE04461B4B1B68AE
:1092F80013F0007F0ED1FEF78DFE001B0228F5D972
:10930800032022E0154A536823F40033A1680B4375
:109318005360DCE7002018E0002016E0012B16D08F
:109328000E4B5B6803F48031226A914211D103F439
:109338007013626A93420ED1002006E00120704744
:10934800012002E0012000E0002002B070BD0120F1
:10935800FBE70120F9E70120F7E700BF0010024012
:10936800000042420F4B5B6803F00C02082A01D050
:109378000D487047C3F383420C49885C13F4803F5F
:109388000BD0084B5B68C3F34043094AD35C064AD9
:1093980002FB00F0B0FBF3F07047064B03FB00F054
:1093A800704700BF0010024000127A0094AB00081A
:1093B80090AB000800093D00002800F0A08070B5BF
:1093C8000D460446524B1B6803F007038B420BD231
:1093D8004F4A136823F007030B431360136803F025
:1093E80007038B4240F08D80236813F0020F17D0DB
:1093F80013F0040F04D0474A536843F4E063536002
:10940800236813F0080F04D0424A536843F46053AA
:109418005360404A536823F0F003A1680B4353603C
:10942800236813F0010F31D06368012B20D0022B81
:1094380025D0384A126812F0020F64D035494A68BC
:1094480022F0030213434B60FEF7E4FD0646314B5E
:109458005B6803F00C036268B3EB820F16D0FEF76B
:10946800D9FD801B41F288339842F0D9032045E0AA
:10947800284A126812F4003FE0D101203EE0254A54
:10948800126812F0007FD9D1012037E0204B1B6809
:1094980003F00703AB420AD91D4A136823F00703F8
:1094A8002B431360136803F00703AB422DD12368E5
:1094B80013F0040F06D0174A536823F4E063E168F9
:1094C8000B435360236813F0080F07D0114A536801
:1094D80023F46053216943EAC1035360FFF742FF55
:1094E8000C4B5B68C3F303130B4AD35CD8400B4B9C
:1094F80018600B4B1868FEF749FD002070BD01206D
:1095080070470120FAE70120F8E70120F6E700BFDD
:10951800002002400010024080AB0008000000203C
:1095280008000020014B1868704700BF00000020A9
:1095380008B5FFF7F7FF044B5B68C3F30223034A40
:10954800D35CD84008BD00BF0010024078AB0008CB
:1095580008B5FFF7E7FF044B5B68C3F3C223034A70
:10956800D35CD84008BD00BF0010024078AB0008AB
:109578002DE9F04782B00546884617461E46FEF795
:1095880049FD0A9B1B1A03EB0609FEF743FD8246B9
:10959800284B1B68C3F3CB3309FB03F301932B68F8
:1095A8009C6838EA04040CBF01230023BB423DD069
:1095B800B6F1FF3FF3D0FEF72DFDA0EB0A004845BA
:1095C80007D2019A02B14A46019B013B0193914699
:1095D800E5E72A68536823F0E00353606B68B3F546
:1095E800827F0BD0AB6AB3F5005F14D0012385F8F6
:1095F8005130002385F85030032018E0AB68B3F5EC
:10960800004F02D0B3F5806FECD12A68136823F0BD
:1096180040031360E6E72A68136823F400531360D5
:109628002A68136843F400531360DFE7002002B090
:10963800BDE8F0870000002010B582B004460B4654
:10964800009200228021FFF793FF08B902B010BDF5
:10965800636D43F0200363650320F7E7002856D0C5
:1096680010B50446436A33B94368B3F5827F05D021
:109678000023C36102E00023036143610023A36266
:1096880094F85130002B3CD0022384F851302268E2
:10969800136823F040031360636803F48273A268BD
:1096A80002F404421343E26802F40062134322699D
:1096B80002F002021343626902F001021343A26935
:1096C80002F400721343E26902F038021343226A7B
:1096D80002F080021343A26A02F400522168134385
:1096E8000B60638B226803F0040353602268D3691C
:1096F80023F40063D36100206065012384F85130AE
:1097080010BD84F850302046FEF7EAF8BCE7012087
:1097180070472DE9F04383B01D4690F85030012B77
:1097280000F0D180044688469146012380F85030E5
:10973800FEF770FC074694F85160F6B2012E40F02F
:10974800BA80B8F1000F00F0B780B9F1000F00F04F
:10975800B380032384F8513000236365C4F8308054
:10976800A4F83490A4F83690A363A387E3876364CE
:109778002364A368B3F5004F1ED023681A6812F05B
:10978800400F03D11A6842F040021A60E368B3F54B
:10979800006F1CD0636813B1B9F1010F55D1226B6A
:1097A800236812781A73236B01332363E38E9BB209
:1097B800013B9BB2E38648E02268136823F040032C
:1097C80013602268136843F480431360D5E7636825
:1097D80013B1B9F1010F15D1226B23681288DA6031
:1097E800236B02332363E38E9BB2013B9BB2E38678
:1097F80008E0FEF70FFCC01BA84202D3B5F1FF3FFB
:1098080015D1A5B1E38E9BB2002B3CD023689A6892
:1098180012F0020FEDD0226B1288DA60236B02334C
:109828002363E38E9BB2013B9BB2E386EAE7012305
:1098380084F8513003263FE0FEF7ECFBC01BA8423A
:1098480002D3B5F1FF3F19D1C5B1E38E9BB2D3B1B5
:1098580023689A6812F0020FEED0226B12781A73FE
:10986800236B01332363B4F836C01FFA8CFC0CF168
:10987800FF3C1FFA8CFCA4F836C0E6E7012384F805
:109888005130032618E03A4629462046FFF7D4FE11
:1098980008B120236365A36833B901932368DA68A4
:1098A80001929B680193019B636D2BB9012384F896
:1098B8005130002600E00226002384F8503030465C
:1098C80003B0BDE8F0830226F9E710B4036A046A1E
:1098D80024F001040462846924F0F00C4CEA0212BA
:1098E80023F00A030B438261036210BC704710B473
:1098F800036A046A24F010040462846924F4704C36
:109908004CEA023223F0A00343EA011382610362A6
:1099180010BC7047836823F070030B4343F00703C0
:109928008360704790F83D30DBB2012B2FD10223C2
:1099380080F83D300268D36843F00103D3600368C0
:10994800154A934218D002F50062934214D0B3F13D
:10995800804F11D0A2F5983293420DD002F5806263
:10996800934209D002F58062934205D01A6842F00A
:1099780001021A60002070479A6802F00702062A5E
:1099880007D01A6842F001021A60002070470120CF
:1099980070470020704700BF002C01407047704797
:1099A80070477047704710B5044603681A6912F08B
:1099B800020F11D0DA6812F0020F0DD06FF0020218
:1099C8001A610123037703689B6913F0030F70D0B2
:1099D800FFF7E6FF0023237723681A6912F0040FC4
:1099E80012D0DA6812F0040F0ED06FF004021A6178
:1099F8000223237723689B6913F4407F5FD02046B6
:109A0800FFF7CEFF0023237723681A6912F0080FA7
:109A180012D0DA6812F0080F0ED06FF008021A613F
:109A2800042323772368DB6913F0030F4ED0204605
:109A3800FFF7B6FF0023237723681A6912F0100F87
:109A480012D0DA6812F0100F0ED06FF010021A61FF
:109A5800082323772368DB6913F4407F3DD0204631
:109A6800FFF79EFF0023237723681A6912F0010F7E
:109A780003D0DA6812F0010F36D123681A6912F0A0
:109A8800800F03D0DA6812F0800F34D123681A6986
:109A980012F0400F03D0DA6812F0400F32D1236879
:109AA8001A6912F0200F03D0DA6812F0200F30D1B3
:109AB80010BDFFF774FF2046FFF773FF8AE72046C3
:109AC800FFF76DFF2046FFF76CFF9BE72046FFF787
:109AD80066FF2046FFF765FFACE72046FFF75FFF0C
:109AE8002046FFF75EFFBDE76FF001021A612046CE
:109AF800FFF754FFC1E76FF080021A61204600F0BB
:109B080022FAC3E76FF040021A612046FFF74AFFC6
:109B1800C5E76FF020021A61204600F013FAC7E784
:109B28000368244A904212D002F5006290420ED097
:109B3800B0F1804F0BD0A2F59832904207D002F5D1
:109B48008062904203D002F58062904203D123F0F4
:109B580070034A681343174A904212D002F5006214
:109B680090420ED0B0F1804F0BD0A2F598329042BF
:109B780007D002F58062904203D002F580629042DD
:109B880003D123F44073CA68134323F080034A695E
:109B9800134303608B68C3620B688362054B98426A
:109BA80003D003F50063984201D10B6903630123D5
:109BB80043617047002C014040B310B5044690F84B
:109BC8003D30F3B1022384F83D30214651F8040BAF
:109BD800FFF7A6FF012384F8463084F83E3084F866
:109BE8003F3084F8403084F8413084F8423084F8BB
:109BF800433084F8443084F8453084F83D30002000
:109C080010BD80F83C30FEF713F8DBE70120704701
:109C1800002856D070B50D46044690F83D30002B0C
:109C28004AD0022384F83D302268936823F48043A5
:109C380023F007039360214651F8040BFFF770FFE8
:109C480021688B688A690E6A2868184322F4407272
:109C580022F00302AB68D5F818C043EA0C2313437B
:109C680023F47C4323F0FC03EA68D5F81CC042EADD
:109C78000C221A432B6A1B03D5F810C043EA0C13B5
:109C8800134326F022066A686D6942EA05123243D8
:109C9800886021688B6123681A62012384F8463042
:109CA80084F83E3084F83F3084F8423084F84330FA
:109CB80084F83D30002070BD80F83C30FDF7D8FFB7
:109CC800AFE70120704710B4846824F47F4C42EA5F
:109CD80003220A4342EA0C02826010BC704790F8E3
:109CE8003C30012B78D010B50446012380F83C3075
:109CF800022380F83D300268936823F47F4323F001
:109D0800770393600B68602B4CD023D8402B54D03A
:109D180011D8202B03D00AD80BB1102B05D1194626
:109D28002068FFF7F7FD002028E0012026E0302B0F
:109D3800F5D0012022E0502B0AD1CA684968006892
:109D4800FFF7C3FD50212068FFF7E4FD002015E070
:109D5800012013E0B3F5805F3AD0B3F5005F14D06B
:109D6800702B37D1CB684A6889680068FFF7ABFF6A
:109D78002268936843F0770393600020012384F8F6
:109D88003D30002384F83C3010BDCB684A688968B0
:109D98000068FFF798FF2268936843F48043936054
:109DA8000020EBE7CA6849680068FFF7A0FD60215A
:109DB8002068FFF7AFFD0020E0E7CA68496800683F
:109DC800FFF783FD40212068FFF7A4FD0020D5E7B9
:109DD8000020D3E70120D1E70220704701F01F01DE
:109DE8004FF0010C0CFA01FC036A23EA0C0303622E
:109DF800036A8A4013430362704738B5044690F8F3
:109E08003E00C0B294F83F3094F84220D2B294F8A1
:109E180043C00D46B1B9012849D1012A48D10223CE
:109E280084F83E3084F842307DB3042D39D00122C5
:109E380000212068FFF7D2FF012204212068FFF7E4
:109E4800CDFF27E0DBB25FFA8CFC042912D0012891
:109E580033D1012B2CD1012A31D1BCF1010F30D1E2
:109E6800022384F83E3084F83F3084F8423084F886
:109E78004330D9E7012B1CD1BCF1010F1BD10223C0
:109E880084F83F3084F84330CEE70122002120686F
:109E9800FFF7A4FF2268136843F001031360002052
:109EA80006E0012204212068FFF798FFF2E701206D
:109EB80038BD0120FCE71846FAE70120F8E7184604
:109EC800F6E71046F4E7000090F83C20012A34D069
:109ED80010B40346012280F83C20022280F83D207D
:109EE80002685068946820F0700C086840EA0C001A
:109EF80050601A681248824212D000F5006082420F
:109F08000ED0B2F1804F0BD0A0F59830824207D026
:109F180000F58060824203D000F58060824204D15F
:109F280024F08004496821439160012283F83D2090
:109F3800002083F83C0010BC70470220704700BF27
:109F4800002C01407047704710B504460268136939
:109F580023F44053C1680B431361836802691343B8
:109F680042691A430168CB6823F4B05323F00C0309
:109F78001343CB600268536923F4407381690B4330
:109F880053610268134B9A4220D0FFF7D1FA024678
:109F980002EB820202EB820263689B00B2FBF3F2DF
:109FA8000D48A0FB02314909642303FB11231B015F
:109FB8003233A0FB03035B0903F0F00202EB01124A
:109FC80003F00F03216813448B6010BDFFF7C0FA3C
:109FD8000246DDE7003801401F85EB512DE9F843C3
:109FE80005460F4616469946DDF820802B681C6802
:109FF80037EA04040CBF01240024B4422DD1B8F17F
:10A00800FF3FF3D0B8F1000F05D0FEF703F8A0EB3F
:10A0180009004045EAD92A6802F10C0353E8003FD9
:10A0280023F4D0730C3242E800310029F3D12A68B6
:10A0380002F1140353E8003F23F00103143242E80D
:10A0480000310029F3D1202385F8413085F84230CA
:10A05800002385F84030032000E00020BDE8F883A5
:10A0680060B310B5044690F8413013B3242384F844
:10A0780041302268D36823F40053D3602046FFF7A9
:10A0880063FF2268136923F49043136122685369BC
:10A0980023F02A0353612268D36843F40053D36042
:10A0A80000206064202384F8413084F842306063E3
:10A0B80010BD80F84030FDF7D9FED7E70120704782
:10A0C8002DE9F04182B01E4690F84230DBB2202BD9
:10A0D80053D104460D469046002952D00AB90120B2
:10A0E8004CE000234364222280F842200363FDF7FA
:10A0F80091FF0746A4F82C80A4F82E80A368B3F536
:10A10800805F02D04FF0000817E0236913B14FF0C9
:10A11800000812E0A84600250FE023685B68C3F337
:10A12800080328F8023B03E023685B682B700135BD
:10A13800E28D92B2013A92B2E285E38D9BB2BBB155
:10A1480000963B46002220212046FFF747FFD0B962
:10A15800002DE2D0A368B3F5805FE5D013B9236979
:10A16800002BE1D023685B6803F07F032B70DEE7E8
:10A17800202384F84230002000E0022002B0BDE82D
:10A18800F0810120FAE70320F8E70246012002E007
:10A1980002FB00F019464B1EDBB20029F8D17047CC
:10A1A80008B50A464FF47A7301460248FFF7B1FA38
:10A1B80008BD00BFA000002000B583B08DF80700DF
:10A1C800012202210548FEF7D3F801210DF107000D
:10A1D800FFF7E6FF03B05DF804FB00BF000C014089
:10A1E80000B583B08DF80700002202210548FEF76C
:10A1F800BFF801210DF10700FFF7D2FF03B05DF8AA
:10A2080004FB00BF000C014000B583B00023ADF88B
:10A218000430030A8DF804308DF80500012202216C
:10A228000448FEF7A5F8022101A8FFF7B9FF03B01B
:10A238005DF804FB000C0140F8B507460D461646CC
:10A248001C462A20FFF7CCFF380AFFF7B5FFF8B203
:10A25800FFF7B2FF300AFFF7AFFFF0B2FFF7ACFF2E
:10A268002B20FFF7BDFF280AFFF7A6FFE8B2FFF78C
:10A27800A3FF200AFFF7A0FFE0B2FFF79DFF2C2005
:10A28800FFF7AEFFF8BD000070B582B00024ADF84E
:10A298000440060A8DF80460C5B28DF80550EF2316
:10A2A8001A4621462046FFF7C7FF214607E04B0024
:10A2B8000D4A02F811600133D554013189B2B1F564
:10A2C800107FF4D3012202210848FEF751F8002438
:10A2D80006E04FF490610448FFF762FF0134A4B22E
:10A2E800632CF6D902B070BDF8020020000C0140C2
:10A2F8002DE9F8431F464FEA5308C8F1F003984286
:10A3080005DC203AD6B2C7F1F003994201DDBDE879
:10A31800F88308EB000292B27B189BB2013B013A2A
:10A328009BB292B2FFF788FFA7F10C03142BEED86B
:10A3380001A252F823F000BFFDA3000817A30008EC
:10A3480017A3000817A3000895A3000817A300087F
:10A3580017A3000817A3000817A3000817A30008ED
:10A3680017A3000817A300084FA4000817A30008A4
:10A3780017A3000817A3000817A3000817A30008CD
:10A3880017A3000817A3000895A3000817F00703F0
:10A3980018BF012303EBD70909FB08F95FFA89F90C
:10A3A8004FF0000819E03E4B03EB061313F8085072
:10A3B8001EE03C4B1888FFF727FF6D00EDB2013413
:10A3C800E4B2072C05D815F0800FF2D0364B188868
:10A3D800F1E708F101085FFA88F8C84597D2102F0D
:10A3E800E1D0202F93D1314B03EBC61313F808505B
:10A3F8000024E6E717F0070318BF012303EBD70390
:10A4080003FB08F85FFA88F8002711E0264B188844
:10A41800FFF7FAFE6D00EDB20134E4B2052C05D861
:10A4280015F0800FF2D11F4B1888F1E70137FFB202
:10A438004745BFF46CAF06EB46021D4B03EB8203A6
:10A44800DD5D0024EAE77F005FFA87F84FF0000936
:10A4580015E0042721E0144B1888FFF7D5FE6D009E
:10A46800EDB20134E4B2BC4205D215F0800FF2D14E
:10A478000C4B1888F1E709F101095FFA89F9C14520
:10A48800BFF445AF06EB46020A4B03EB021313F881
:10A49800095019F0010FDCD108270024E3E700BFB9
:10A4A800F4EC0008F40200200C000020A4AB000823
:10A4B800E4F2000824DB00082DE9F04782468946CB
:10A4C80090461D469DF8206000273C4615E0700820
:10A4D80000FB04A033462022494680B2FFF708FF5C
:10A4E80009E07008303200FB04A03346D2B2494676
:10A4F80080B2FFF7FDFE0134E4B2AC421CD2291B46
:10A50800C9B20139C9B20A20FFF73FFEB8FBF0F023
:10A518000A4BA3FB003C4FEADC0C0CEB8C0CA0EBC9
:10A528004C0C5FFA8CF2002FDBD16B1E9C42D8DA00
:10A53800002ACCD00127D4E7BDE8F087CDCCCCCC1D
:10A5480010B56A4C00224FF480712046FDF710FFC9
:10A558000C20FDF765FD01224FF480712046FDF7C0
:10A5680007FF0C20FDF75CFD1120FFF739FE0C20DA
:10A57800FDF756FD3620FFF733FE0020FFF71CFEDF
:10A588003A20FFF72DFE6520FFF716FEB220FFF7F1
:10A5980027FE0C20FFF710FE0C20FFF70DFE002011
:10A5A800FFF70AFE3320FFF707FE3320FFF704FE0C
:10A5B800B720FFF715FE7220FFF7FEFDBB20FFF75F
:10A5C8000FFE3D20FFF7F8FDC020FFF709FE2C2005
:10A5D800FFF7F2FDC220FFF703FE0120FFF7ECFDB5
:10A5E800C320FFF7FDFD1920FFF7E6FDC420FFF7A4
:10A5F800F7FD2020FFF7E0FDC620FFF7F1FD0F2053
:10A60800FFF7DAFDD020FFF7EBFDA420FFF7D4FD1C
:10A61800A120FFF7D1FDE020FFF7E2FDD020FFF7F2
:10A62800CBFD0420FFF7C8FD0D20FFF7C5FD112065
:10A63800FFF7C2FD1320FFF7BFFD2B20FFF7BCFD7E
:10A648003F20FFF7B9FD5420FFF7B6FD4C20FFF778
:10A65800B3FD1820FFF7B0FD0D20FFF7ADFD0B206F
:10A66800FFF7AAFD1F20FFF7A7FD2320FFF7A4FD92
:10A67800E120FFF7B5FDD020FFF79EFD0420FFF78E
:10A688009BFD0C20FFF798FD1120FFF795FD132087
:10A69800FFF792FD2C20FFF78FFD3F20FFF78CFD81
:10A6A8004420FFF789FD5120FFF786FD2F20FFF793
:10A6B80083FD1F20FFF780FD1F20FFF77DFD202071
:10A6C800FFF77AFD2320FFF777FD2120FFF788FDAC
:10A6D8002920FFF785FDEF231A4600210846FFF7DA
:10A6E800ABFD4FF6FF70FFF7CFFD10BD000801402E
:10A6F800C3688BB100B583B00DF107020021007863
:10A70800984758B99DF8070000F010008DF8070029
:10A71800000903B05DF804FB012070470120F8E749
:10A7280070B582B0C36833B304460E46826832B34C
:10A738000DF107020021007898470546E0B99EB15F
:10A748009DF8073043F010038DF80730A3689DF893
:10A758000720002120789847054668B966B14FF46C
:10A76800FA70FDF75DFC07E09DF8073023F0100351
:10A778008DF80730EAE70125284602B070BD0125AB
:10A78800FAE7000070B504460D46FFF7B1FF002850
:10A7980039D1A368002B38D0E368002B37D0606824
:10A7A800FBF7E0FF06464FF08B412846FCF732F8EE
:10A7B80001463046FCF7E2F84FF07E51FBF720FFE8
:10A7C80005461549FCF7C4F918BB14492846FCF797
:10A7D800DDF908B1012017E001212046FFF7A0FFAD
:10A7E80090B9A6684FF07C512846FBF70BFFFCF7A1
:10A7F800D7F9C2B2FE212078B04728B900212046F7
:10A80800FFF78EFF00E0042070BD0120FCE7012067
:10A81800FAE70120F8E700BF0000404000007F434E
:10A828002DE9F04106460F4614461D460021104604
:10A83800FCF78EF9002840F0A0804FF07E512046AA
:10A84800FCF7A4F9002840F09A8000212846FCF77C
:10A858007FF9002840F096804FF07E512846FCF79B
:10A8680095F9002840F09080B368002B00F08E80A6
:10A87800F368002B00F08C803046FFF739FF002882
:10A8880040F088804FF07E512046FCF757F90028A9
:10A8980047D100212046FCF751F9002868D1294604
:10A8A8002046FBF7AFFE04464FF07E51FCF75AF9FD
:10A8B800E8B94FF08B412846FBF7ACFF4FF07C51CD
:10A8C800FBF7A0FEFCF76CF91FFA80F84FF07E51F9
:10A8D8002046FBF795FE4FF08B41FBF79BFF4FF0AF
:10A8E8007C51FBF78FFEFCF75BF985B21CE04FF05B
:10A8F8008B412846FBF78EFF4FF07C51FBF782FE19
:10A90800FCF74EF91FFA80F84FF08B412046FBF711
:10A9180081FF4FF07C51FBF775FEFCF741F985B2DA
:10A9280002E000254FF48058B368BC00E4B2A11DD2
:10A938005FFA88F201F0FE013078984700BBB368EF
:10A94800E11D4FEA1822C9B230789847C0B9B368F8
:10A95800B91C8900EAB201F0FC013078984778B94F
:10A96800B36804F109012A0AC9B23078984707E0A8
:10A978004FF480554FF00008D6E7012000E0012091
:10A98800BDE8F0810120FBE70120F9E70120F7E7A6
:10A998000120F5E70420F3E770B5860747D0541E79
:10A9A800002A3ED00346CAB201E0013C39D303F87D
:10A9B800012B9D07F9D1032C2CD9CDB205EB052528
:10A9C8000F2C1A4605EB054534D9A4F1100C2CF0D0
:10A9D8000F0603F1100EB6444FEA1C1CC2E90055DD
:10A9E800C2E9025510327245F8D10CF1010214F097
:10A9F8000C0F03EB021204F00F0C13D0ACF104039C
:10AA080023F003030433134442F8045B9342FBD15D
:10AA18000CF003042CB1C9B21C4403F8011BA34277
:10AA2800FBD170BD64461346002CF4D1F9E7034608
:10AA38001446C0E7A446E1E770B50F4B0F4DAB4293
:10AA4800A3EB050607D00024B61055F8043B0134E3
:10AA58009847A642F9D800F07FF8094D094B5E1BCC
:10AA6800AB424FEAA60606D0002455F8043B013451
:10AA78009847A642F9D870BD58F7000858F700085B
:10AA880058F7000860F70008704700BF704700BF1C
:10AA9800024B13B1024800F005B8704700000000EF
:10AAA800B9AA0008002301461A46184600F014B84F
:10AAB80038B5074D074C2C1BA41005D0013C55F8A0
:10AAC800043D9847002CF9D1BDE8384000F04AB859
:10AAD80064F7000860F700082DE9F8431B4D0646A7
:10AAE800286898460F469146FFF7CEFF184B1C681A
:10AAF8001CB3286865681F2D22DC4EB96B1C023513
:10AB0800636044F82570FFF7C1FF0020BDE8F883B3
:10AB1800012304EB8501C1F88890D4F88821AB4063
:10AB28001A43022EC4F88821C1F80881E6D1D4F866
:10AB38008C211A43C4F88C21E0E7064C1C60D8E746
:10AB4800FFF7A4FF4FF0FF30E0E700BF1000002040
:10AB58007C07002080070020F8B500BFF8BC08BCBF
:10AB68009E467047F8B500BFF8BC08BC9E467047C3
:10AB780000000000010203040000000000000000C3
:10AB88000102030406070809010200000203040584
:10AB9800060708090A0B0C0D0E0F10100000000024
:10ABA800000000000000000000000000000000009D
:10ABB800000000000000000000000000000000008D
:10ABC800000000000000000000000000000000007D
:10ABD800000000000000000000000000000000006D
:10ABE800000000000000000000000000000000005D
:10ABF800000000000000000000000000000000004D
:10AC0800000000000000000000000000000000003C
:10AC1800000000000000000000000000000000002C
:10AC2800000000000000000003C003C003C003C010
:10AC380003C003C001C00180018001800180018040
:10AC4800018001800180000000000000018003C035
:10AC580003C00180000000000000000000000000A8
:10AC680000000000000000000000000000000000DC
:10AC780000000000000000000000000000000000CC
:10AC880000000000000000000000000000000000BC
:10AC980000000000000000000000000000000000AC
:10ACA8000318073807380E700C6018C0318021006F
:10ACB800000000000000000000000000000000008C
:10ACC800000000000000000000000000000000007C
:10ACD800000000000000000000000000000000006C
:10ACE800000000000000000000000000000000005C
:10ACF800000000000000000000000000000000004C
:10AD0800000000000000000000000000000000003B
:10AD1800000000000000000000000000000000002B
:10AD280000000000000000000408040804080408EB
:10AD380004087FFE7FFE7FFE081008100810081028
:10AD4800081008107FFE7FFE7FFE183010201020AC
:10AD5800102010200000000000000000000000008B
:10AD680000000000000000000000000000000000DB
:10AD780000000000000000000000000000000000CB
:10AD880000000000000000000000000000000000BB
:10AD980000000000000000000000000000000000AB
:10ADA800000000000100010003C00D300918191847
:10ADB800193819381D000D000F00070003C001E005
:10ADC80001F00130013801183918391831183130BB
:10ADD800196007C001000100010000000000000028
:10ADE800000000000000000000000000000000005B
:10ADF800000000000000000000000000000000004B
:10AE0800000000000000000000000000000000003A
:10AE1800000000000000000000000000000000002A
:10AE2800000000000000000038106C104420C6200C
:10AE3800C640C640C640C680C68044806D38396C5E
:10AE4800024402C602C604C604C608C608C60844A8
:10AE5800106C103800000000000000000000000026
:10AE680000000000000000000000000000000000DA
:10AE780000000000000000000000000000000000CA
:10AE880000000000000000000000000000000000BA
:10AE980000000000000000000000000000000000AA
:10AEA80000000000000000000F0019003180318010
:10AEB80031803180310033003A001C00387C3C106E
:10AEC8004C10CE10C620C720C320C1C0C1C260E646
:10AED800317C1E3800000000000000000000000067
:10AEE800000000000000000000000000000000005A
:10AEF800000000000000000000000000000000004A
:10AF08000000000000000000000000000000000039
:10AF18000000000000000000000000000000000029
:10AF280038003C003C000C000C00080030006000B9
:10AF38000000000000000000000000000000000009
:10AF480000000000000000000000000000000000F9
:10AF580000000000000000000000000000000000E9
:10AF680000000000000000000000000000000000D9
:10AF780000000000000000000000000000000000C9
:10AF880000000000000000000000000000000000B9
:10AF980000000000000000000000000000000000A9
:10AFA8000002000400080018003000200060004083
:10AFB80000C000C001800180018001800180018003
:10AFC80001800180018000C000C0004000600020B6
:10AFD8000030001800080004000200000000000013
:10AFE8000000000000000000000000000000000059
:10AFF8000000000000000000000000000000000049
:10B008000000000000000000000000000000000038
:10B018000000000000000000000000000000000028
:10B0280040002000100018000C0004000600020078
:10B0380003000300018001800180018001800180FC
:10B048000180018001800300030003000600040062
:10B058000C00180010002000400000000000000054
:10B0680000000000000000000000000000000000D8
:10B0780000000000000000000000000000000000C8
:10B0880000000000000000000000000000000000B8
:10B0980000000000000000000000000000000000A8
:10B0A80000000000000000000000000000C001C017
:10B0B80001C030C6388E1C9C06B001C001C006B065
:10B0C8001C9C388E318601C001C001C00000000000
:10B0D8000000000000000000000000000000000068
:10B0E8000000000000000000000000000000000058
:10B0F8000000000000000000000000000000000048
:10B108000000000000000000000000000000000037
:10B118000000000000000000000000000000000027
:10B128000000000000000000000000000000008097
:10B138000080008000800080008000803FFE00804A
:10B1480000800080008000800080008000000000F7
:10B1580000000000000000000000000000000000E7
:10B1680000000000000000000000000000000000D7
:10B1780000000000000000000000000000000000C7
:10B1880000000000000000000000000000000000B7
:10B1980000000000000000000000000000000000A7
:10B1A8000000000000000000000000000000000097
:10B1B8000000000000000000000000000000000087
:10B1C80000000000000000000000000038003C0003
:10B1D8003C000C000C00080030006000000000007B
:10B1E8000000000000000000000000000000000057
:10B1F8000000000000000000000000000000000047
:10B208000000000000000000000000000000000036
:10B218000000000000000000000000000000000026
:10B228000000000000000000000000000000000016
:10B238000000000000000000000000007FFE000089
:10B2480000000000000000000000000000000000F6
:10B2580000000000000000000000000000000000E6
:10B2680000000000000000000000000000000000D6
:10B2780000000000000000000000000000000000C6
:10B2880000000000000000000000000000000000B6
:10B2980000000000000000000000000000000000A6
:10B2A8000000000000000000000000000000000096
:10B2B8000000000000000000000000000000000086
:10B2C80000000000000000000000000018003C0022
:10B2D8003C00180000000000000000000000000012
:10B2E8000000000000000000000000000000000056
:10B2F8000000000000000000000000000000000046
:10B308000000000000000000000000000000000035
:10B318000000000000000000000000000000000025
:10B328000000000200060004000C000800180010CD
:10B33800003000200060004000C000800180010053
:10B3480003000200060004000C00080018001000AA
:10B3580030002000600040000000000000000000F5
:10B3680000000000000000000000000000000000D5
:10B3780000000000000000000000000000000000C5
:10B3880000000000000000000000000000000000B5
:10B3980000000000000000000000000000000000A5
:10B3A800000000000000000003C006200C30181840
:10B3B80018181808300C300C300C300C300C300CCD
:10B3C800300C300C300C300C1808181818180C30C9
:10B3D800062003C00000000000000000000000007C
:10B3E8000000000000000000000000000000000055
:10B3F8000000000000000000000000000000000045
:10B408000000000000000000000000000000000034
:10B418000000000000000000000000000000000024
:10B428000000000000000000008001801F800180F3
:10B4380001800180018001800180018001800180FC
:10B4480001800180018001800180018001800180EC
:10B4580003C01FF80000000000000000000000000A
:10B4680000000000000000000000000000000000D4
:10B4780000000000000000000000000000000000C4
:10B4880000000000000000000000000000000000B4
:10B4980000000000000000000000000000000000A4
:10B4A800000000000000000007E008381018200C19
:10B4B800200C300C300C000C001800180030006014
:10B4C80000C0018003000200040408041004200CDA
:10B4D8003FF83FF8000000000000000000000000F6
:10B4E8000000000000000000000000000000000054
:10B4F8000000000000000000000000000000000044
:10B508000000000000000000000000000000000033
:10B518000000000000000000000000000000000023
:10B52800000000000000000007C01860303030182C
:10B5380030183018001800180030006003C0007080
:10B5480000180008000C000C300C300C30083018C3
:10B55800183007C0000000000000000000000000D4
:10B5680000000000000000000000000000000000D3
:10B5780000000000000000000000000000000000C3
:10B5880000000000000000000000000000000000B3
:10B5980000000000000000000000000000000000A3
:10B5A80000000000000000000060006000E000E013
:10B5B8000160016002600460046008600860106057
:10B5C8003060206040607FFC0060006000600060C8
:10B5D800006003FC00000000000000000000000004
:10B5E8000000000000000000000000000000000053
:10B5F8000000000000000000000000000000000043
:10B608000000000000000000000000000000000032
:10B618000000000000000000000000000000000022
:10B6280000000000000000000FFC0FFC10001000DC
:10B63800100010001000100013E014301818100843
:10B64800000C000C000C000C300C300C20182018DA
:10B65800183007C0000000000000000000000000D3
:10B6680000000000000000000000000000000000D2
:10B6780000000000000000000000000000000000C2
:10B6880000000000000000000000000000000000B2
:10B6980000000000000000000000000000000000A2
:10B6A800000000000000000001E006180C1808184F
:10B6B800180010001000300033E036303818380811
:10B6C800300C300C300C300C300C180C18080C18DE
:10B6D8000E3003E000000000000000000000000041
:10B6E8000000000000000000000000000000000052
:10B6F8000000000000000000000000000000000042
:10B708000000000000000000000000000000000031
:10B718000000000000000000000000000000000021
:10B7280000000000000000001FFC1FFC1008301083
:10B7380020102020002000400040004000800080B1
:10B7480001000100010001000300030003000300E1
:10B7580003000300000000000000000000000000DB
:10B7680000000000000000000000000000000000D1
:10B7780000000000000000000000000000000000C1
:10B7880000000000000000000000000000000000B1
:10B7980000000000000000000000000000000000A1
:10B7A800000000000000000007E00C301818300C02
:10B7B800300C300C380C38081E180F2007C018F051
:10B7C80030783038601C600C600C600C600C3018ED
:10B7D800183007C000000000000000000000000052
:10B7E8000000000000000000000000000000000051
:10B7F8000000000000000000000000000000000041
:10B808000000000000000000000000000000000030
:10B818000000000000000000000000000000000020
:10B82800000000000000000007C018203010301889
:10B838006008600C600C600C600C600C701C302C94
:10B84800186C0F8C000C0018001800103030306095
:10B8580030C00F8000000000000000000000000061
:10B8680000000000000000000000000000000000D0
:10B8780000000000000000000000000000000000C0
:10B8880000000000000000000000000000000000B0
:10B8980000000000000000000000000000000000A0
:10B8A8000000000000000000000000000000000090
:10B8B800000000000000018003C003C001800000F8
:10B8C800000000000000000000000000018003C02C
:10B8D80003C001800000000000000000000000001C
:10B8E8000000000000000000000000000000000050
:10B8F8000000000000000000000000000000000040
:10B90800000000000000000000000000000000002F
:10B91800000000000000000000000000000000001F
:10B92800000000000000000000000000000000000F
:10B938000000000000000000038003800380000076
:10B94800000000000000000000000000000003806C
:10B958000380038001800300030000000000000052
:10B9680000000000000000000000000000000000CF
:10B9780000000000000000000000000000000000BF
:10B9880000000000000000000000000000000000AF
:10B99800000000000000000000000000000000009F
:10B9A8000000000000000000000400080010002053
:10B9B8000040008001000200040008001000100090
:10B9C8000800040002000100008000400020001070
:10B9D8000008000400000000000000000000000053
:10B9E800000000000000000000000000000000004F
:10B9F800000000000000000000000000000000003F
:10BA0800000000000000000000000000000000002E
:10BA1800000000000000000000000000000000001E
:10BA2800000000000000000000000000000000000E
:10BA38000000000000007FFE000000000000000081
:10BA480000007FFE00000000000000000000000071
:10BA580000000000000000000000000000000000DE
:10BA680000000000000000000000000000000000CE
:10BA780000000000000000000000000000000000BE
:10BA880000000000000000000000000000000000AE
:10BA9800000000000000000000000000000000009E
:10BAA8000000000000000000200010000800040052
:10BAB800020001000080004000200010000800087B
:10BAC800001000200040008001000200040008006F
