:020000040800F2
:1000000000500020594500086502000867020008FA
:10001000690200086B0200086D0200080000000081
:100020000000000000000000000000006F02000857
:100030007102000800000000730200087502000849
:10004000A1450008A1450008A1450008A1450008F8
:10005000A1450008A1450008A1450008A1450008E8
:10006000A1450008A1450008A1450008A1450008D8
:10007000A1450008A1450008A1450008A1450008C8
:10008000A1450008A1450008A1450008A1450008B8
:100090007D020008A1450008A1450008A14500080F
:1000A000A1450008A1450008A1450008A145000898
:1000B000A1450008A1450008A1450008A145000888
:1000C000A1450008A1450008A1450008A145000878
:1000D000A1450008A1450008A1450008A145000868
:1000E000A1450008A1450008A14500080000000046
:1000F0000000000000000000000000000000000000
:0C01000000000000000000005FF808F1A3
:10010C000348044B834202D0034B03B1184770479A
:10011C00DC000020DC000020000000000548064B3D
:10012C001B1AD90F01EBA301491002D0034B03B1E9
:10013C0018477047DC000020DC00002000000000A5
:10014C0010B5064C237843B9FFF7DAFF044B13B113
:10015C000448AFF300800123237010BDE0000020A1
:10016C0000000000FC45000808B5054B1BB1054913
:10017C000548AFF30080BDE80840FFF7CFBF00BFD4
:10018C0000000000E4000020FC45000872B6FEE709
:10019C0000B595B0282200210DEB020004F0FBF90C
:1001AC0000230593069307930893099301930293F5
:1001BC000393049301220A924FF480330B930E9213
:1001CC000222119212934FF4E01313930AA802F037
:1001DC00ABF9C0B90F2305930221069100230793B5
:1001EC004FF480620892099305A802F0CFFB60B926
:1001FC00102301930023049301A802F0A3FC30B94F
:10020C0015B05DF804FBFFF7C1FFFFF7BFFFFFF769
:10021C00BDFF000008B502F039F9FFF7B9FF04F093
:10022C00E7F804F031F900F04DF8094C00220121F7
:10023C00204602F021FE4FF4FA6002F04BF9012245
:10024C001146204602F018FE024804F073F9FEE74E
:10025C00000C014000600008FEE7FEE7FEE7FEE749
:10026C00FEE770477047704708B502F021F908BDEA
:10027C0008B5024801F051F808BD00BFE0090020A4
:10028C0082B00E4B9A6942F001029A619A6902F0AF
:10029C0001020092009ADA6942F08052DA61DB695D
:1002AC0003F080530193019B054A536823F0E063EC
:1002BC0043F00073536002B0704700BF001002405F
:1002CC000000014008B500220F49104803F031F836
:1002DC0070B90F490D4803F043F860B90D490B484C
:1002EC0004F080F850B9094803F041F848B908BD4A
:1002FC00FFF74CFFEDE7FFF749FFEFE7FFF746FF8E
:10030C00F1E7FFF743FFF2E734000020FC00002088
:10031C00A00000205000002012230B8000487047E2
:10032C002000002004230B80004870471C00002094
:10033C00002393421ED200B510E00CF1370C01F8EB
:10034C0013C000014FEA430C0CF1010C4FF0000EEE
:10035C0001F80CE00133DBB2934209D24FEA107C76
:10036C00B0F1204FE9D20CF1300C01F813C0E8E7E2
:10037C005DF804FB7047000038B50B4BD3F8E80769
:10038C00D3F8EC47D3F8F037C01800D138BD074D7F
:10039C0008222946FFF7CCFF042205F11001204664
:1003AC00FFF7C6FFF2E700BF00F0FF1F02000020BE
:1003BC0008B51A230B80FFF7DFFF014808BD00BF0B
:1003CC000000002008B50A4628B90549054803F085
:1003DC003AFC034808BD0249024803F034FCF8E734
:1003EC00C00300201446000810B50A46034C2146F1
:1003FC00034803F028FC204610BD00BFC0030020BA
:10040C003446000808B50A4628B90549054803F0E2
:10041C001AFC034808BD0249024803F014FCF8E733
:10042C00C00300204846000808B50A4628B905490B
:10043C00054803F008FC034808BD0249024803F0D4
:10044C0002FCF8E7C00300205446000803460846A7
:10045C004FF0000C94450AD200B513F801EB00F8EC
:10046C000CE00CF1010C9445F7D35DF804FB7047DC
:10047C00012906D03223537000239370D3700020CF
:10048C0070473223537000239370D370F7E7F8B59D
:10049C0006460D461746002400E00434BC420CD23C
:1004AC00325900232919022002F002FE38B93159C1
:1004BC002B599942F1D0022000E00020F8BD022017
:1004CC00FCE700B587B0002301930390332304931A
:1004DC0005A901A802F060FE10B907B05DF804FB95
:1004EC000220FAE708B502F0A5FD002008BD08B50A
:1004FC0002F086FD002008BD022805D8DFE800F0D8
:10050C0005040200012070470220704702680E4B60
:10051C009A4200D0704700B583B003F5DA33DA693C
:10052C0042F40002DA61DB6903F400030193019BDE
:10053C0000221146142002F0EBFC142002F0F8FC0F
:10054C0003B05DF804FB00BF005C004008B500F58B
:10055C002C71D0F8EC0202F02EFF08BD08B501EBAF
:10056C00810300EBC303D3F87C21D0F8EC0202F03A
:10057C004FFF08BD08B501EB810300EBC303DA6B39
:10058C00D0F8EC0202F08AFF08BD08B5D0F8EC02F6
:10059C0003F02BF808BD10B504468368022B09D173
:1005AC000121D4F8EC0203F009F8D4F8EC0202F0C3
:1005BC00DDFF10BDFFF7EAFDF2E7000010B50446C1
:1005CC00D0F8EC0202F0FDFFA36923B1024A1369D3
:1005DC0043F00603136110BD00ED00E008B5D0F840
:1005EC00EC0202F0F7FF08BD10B504461248C0F843
:1005FC00EC42C4F8C002114B036008234360022391
:10060C00836000238361C361036200F007F978B94A
:10061C00182300221146D4F8C00201F04AF85823DE
:10062C0000228021D4F8C00201F043F8002010BD54
:10063C00FFF7ACFDECE700BFE0090020005C0040D8
:10064C0008B5D0F8C00200F071F9FFF755FF08BDEE
:10065C0008B5D0F8C00200F082F9FFF74DFF08BDD5
:10066C0008B594461A466346D0F8C00200F02DFF38
:10067C00FFF742FF08BD08B5D0F8C00200F0A2FF9A
:10068C00FFF73AFF08BD08B5D0F8C00200F0D6FF5E
:10069C00FFF732FF08BDD0F8C03211F0800F08D13F
:1006AC0001F07F0101EB810103EBC10393F86A01B7
:1006BC00704701F07F01013101EB810103EBC103B4
:1006CC009878704708B5D0F8C00200F012FEFFF71A
:1006DC0013FF08BD08B5D0F8C00200F051FFFFF7BA
:1006EC000BFF08BD08B5D0F8C00200F02CFFFFF7D7
:1006FC0003FF08BD00487047C005002070477047D5
:10070C0038B512F4804F44D00468B4F850309BB222
:10071C0091F800C003EBCC03023304EB4304B4F8B0
:10072C000044C4F309048B69A34228D31B1B8B61BF
:10073C008B697BB9056835F82C309BB223F4804368
:10074C0023F0700383F4005343F4004343F080031D
:10075C0025F82C3012F0400F0ED002680D7832F8CC
:10076C0025309BB223F4E04323F0700343F40043A1
:10077C0043F0C00322F8253024B9204638BD0023AD
:10078C008B61D5E723460A894969006801F03FFE71
:10079C00F3E70468B4F850309BB291F800C003EB57
:1007AC00CC03063304EB4304B4F80044C4F309044B
:1007BC008B69A3422FD31B1B8B618B697BB905689B
:1007CC0035F82C309BB223F4804323F0700383F470
:1007DC00005343F4004343F0800325F82C3012F00F
:1007EC00400F0FD1026891F800C032F82C309BB248
:1007FC0023F4E04323F0700343F4004343F0C003BD
:10080C0022F82C30002CB8D023464A89496900685C
:10081C0001F0FDFDB1E700238B61CEE770B586B02A
:10082C00002800F08180044690F8A932EBB1032334
:10083C0084F8A932206800F068FF254655F8106B43
:10084C00EC460FCDACE80F002B68CCF80030231D24
:10085C000ECB304600F049FF054658B1022384F810
:10086C00A9320125284606B070BD80F8A832FFF7E2
:10087C004DFEDCE70021206800F051FF2B4616E00E
:10088C005A1C02EB820104EBC1010120487002EBFF
:10089C00820104F8313004EBC1000021C17003EB7C
:1008AC00830004EBC0008163C1630164D3B261684F
:1008BC008B42E5D316E005EB850304EBC303002262
:1008CC0083F8692183F8685183F86B21C3F8782188
:1008DC00C3F87C2105EB850304EBC303C3F880212B
:1008EC000135EDB2A942E6D8254655F8106BEC4619
:1008FC000FCDACE80F002B68CCF80030231D0ECBCD
:10090C00304600F00EFF054620B1022384F8A932D0
:10091C000125A7E7002384F82430012384F8A932A9
:10092C00206801F072F99DE701259BE738B590F836
:10093C00A832012B11D00446012580F8A85200687A
:10094C0000F0DAFE29462046FFF7D9FE206801F0B8
:10095C005AF9002084F8A80238BD0220FCE790F870
:10096C00A832012B12D010B50446012380F8A8320E
:10097C00006800F0CAFE00212046FFF7C0FE206888
:10098C0001F043F9002084F8A80210BD0220704742
:10099C0070B505460C46164612F0400F00F00E815D
:1009AC000268B2F850309BB2097803EBC1030233F2
:1009BC0002EB4302B2F80024C2F30902A36993428A
:1009CC004ED99B1AA361A369002B66D16378002BC7
:1009DC0049D12B68B3F8502092B2134403EB0113A6
:1009EC00B3F80424C2F30902A3F80424B3F80424D2
:1009FC006FEA42426FEA524292B2A3F804242B6887
:100A0C006278002A3CD1B3F8502092B21344227879
:100A1C0003EB0213B3F80C24C2F30902A3F80C2461
:100A2C00B3F80C246FEA42426FEA524292B2A3F836
:100A3C000C2421782846FFF79DFD16F4804F41D0F9
:100A4C002A68217832F821309BB223F4E04323F05A
:100A5C00700343F4404343F0800322F8213031E02B
:100A6C000023A361AFE7012BC9D12B68B3F8502049
:100A7C0092B2134403EB01130022A3F80424BEE743
:100A8C00012AD6D1B3F8502092B21344227803EB4A
:100A9C0002130022A3F80C24CBE716F4804F0DD0E0
:100AAC00286830F821309BB223F4E04323F0700324
:100ABC0043F4404343F0800320F8213094F8243071
:100ACC00012B12D02A68217832F821309BB223F402
:100ADC00E04323F0400383F0300343F4004343F03E
:100AEC00800322F82130002070BD636913446361D8
:100AFC00E3691344E361216A2369994224D3C91A37
:100B0C0021626278002A44D12A68B2F8501089B266
:100B1C000A44217802EB0112B2F80414C1F3090162
:100B2C00A2F804143E2B1BD9580913F01F0F00D147
:100B3C000138B2F8041489B2800280B2014341F446
:100B4C000041A2F8041426E021B9002384F82430D3
:100B5C001346D6E7002384F8243023620B46D0E7F3
:100B6C004BB9B2F804146FEA41416FEA514189B2B2
:100B7C00A2F804140FE0590813F0010F00D0013152
:100B8C00B2F8040480B2890289B20143A2F80414B9
:100B9C0001E0012A06D09BB222896169286801F024
:100BAC003CF88FE72A68B2F8501089B20A442178D1
:100BBC0002EB011299B2A2F80414ECE70268B2F845
:100BCC0050309BB2097803EBC103063302EB4302AE
:100BDC00B2F80024C2F30902A36993424FD39B1AC3
:100BEC00A361A369002B67D16378002B4AD12B68D2
:100BFC00B3F8502092B2134403EB0113B3F804245E
:100C0C00C2F30902A3F80424B3F804246FEA4242A5
:100C1C006FEA524292B2A3F804242B686278002A3D
:100C2C003DD1B3F8502092B21344227803EB021357
:100C3C00B3F80C24C2F30902A3F80C24B3F80C2467
:100C4C006FEA42426FEA524292B2A3F80C24217826
:100C5C002846FFF78FFC16F4804F7FF433AF2A68D9
:100C6C00217832F821309BB223F4E04323F0700357
:100C7C0043F4404343F0800322F8213022E7002361
:100C8C00A361AEE7012BC8D12B68B3F8502092B208
:100C9C00134403EB01130022A3F80424BDE7012A3B
:100CAC00D5D1B3F8502092B21344227803EB02133F
:100CBC000022A3F80C24CAE716F4804F0DD1286843
:100CCC0030F821309BB223F4E04323F0700343F45B
:100CDC00404343F0800320F8213094F82430012B5A
:100CEC007FF4F0AE636913446361E3691344E36119
:100CFC00216A2369994224D3C91A21622A6861782E
:100D0C00002943D1B2F8501089B20A44217802EB81
:100D1C000112B2F80C14C1F30901A2F80C143E2B09
:100D2C001BD9580913F01F0F00D10138B2F80C145D
:100D3C0089B2800280B2014341F40041A2F80C1444
:100D4C0026E021B9002384F824301346D6E700238B
:100D5C00236284F824300B46D0E74BB9B2F80C145C
:100D6C006FEA41416FEA514189B2A2F80C140FE0CD
:100D7C00590813F0010F00D00131B2F80C0480B205
:100D8C00890289B20143A2F80C1401E0012906D0B2
:100D9C009BB262896169286800F03FFF92E6B2F865
:100DAC00501089B20A44217802EB011299B2A2F8D0
:100DBC000C14EDE72DE9F04105462868B0F84430F5
:100DCC0013F4004F00F09282B0F84440A3B214F038
:100DDC000F0440F0E28013F0100F6BD003889AB22E
:100DEC0013F4006F40F09D8012F4004FE5D003889F
:100DFC0023F070031B051B0D43F080030380286850
:100E0C00B0F850309BB295F8682103EBC20306335F
:100E1C0000EB4303B3F80034C3F30903C5F8843182
:100E2C008BB1D5F87C1171B1B5F86E2101F0EFFAE8
:100E3C00D5F87C31D5F884211344C5F87C310021D8
:100E4C002846FFF78BFB2A68138899B213F4006FBE
:100E5C00B3D101F44051B1F5405FAED0B2F850308F
:100E6C009BB21A44B2F80C34C3F30903A2F80C3445
:100E7C00D5F878313E2B77D9590913F01F0F00D1D3
:100E8C000139B2F80C349BB2890289B20B4343F49A
:100E9C000043A2F80C342A6813889BB223F48043D5
:100EAC0023F0700383F4405343F4004343F0800376
:100EBC00138082E703889BB223F4E14323F0700391
:100ECC006FEA43436FEA53439BB203802A68B2F83C
:100EDC0050309BB295F8281003EBC103023302EBA0
:100EEC004302B2F80034C3F309036B64EA6B1A448F
:100EFC00EA6300212846FFF73DFB95F82430002BD0
:100F0C003FF45BAF2B6C002B7FF457AF95F824307C
:100F1C002A6843F08003A2F84C30002385F8243073
:100F2C004BE7B0F850309BB295F8682103EBC20345
:100F3C00063300EB4303B3F80034C3F30903C5F8DD
:100F4C008431B5F86E2105F52C7101F060FA2A6830
:100F5C00138823F070031B051B0D43F080031380D3
:100F6C002846FFF7F3FA28E74BB9B2F80C346FEACE
:100F7C0043436FEA53439BB2A2F80C348BE75908F6
:100F8C0013F0010F00D00131B2F80C3498B28B027F
:100F9C009BB20343A2F80C347DE730F824309EB2A8
:100FAC0013F4004F4CD116F0800F3FF406AF621CC7
:100FBC0002EB820105EBC101286830F824309BB2AA
:100FCC0023F4E14323F070036FEA43436FEA534386
:100FDC009BB220F82430CB78012B00F0F28016F471
:100FEC00807F40F07E812868B0F850309BB2621C44
:100FFC0002EB820215F8326003EBC603023300EBFE
:10100C004303B3F80034C3F3090304EB840205EB88
:10101C00C202126C9A4240F24C8104EB840705EB3D
:10102C00C707D21A3A6404EB840205EBC202126CB5
:10103C00002A40F0458131462846FFF79BFABCE672
:10104C0030F8243023F070031B051B0D43F0800394
:10105C0020F8243004EB8401C90001F5B47105EBD0
:10106C00010804EB840305EBC30393F87431002BE4
:10107C0042D12868B0F850309BB204EB840205EBE7
:10108C00C20292F8682103EBC203063300EB430360
:10109C00B3F80074C7F3090717BB04EB840305EB23
:1010AC00C303D3F884213A44C3F88421D3F87C21B8
:1010BC003A44C3F87C21D3F880313BB104EB840370
:1010CC0005EBC303D3F878319F4275D204EB84034C
:1010DC0005EBC30393F868112846FFF73FFA62E764
:1010EC0004EB840105EBC1013B46B1F86E21D1F84C
:1010FC007C1101F08CF9D0E704EB840305EBC303FE
:10110C0093F86B31022B35D0296804EB840205EB84
:10111C00C20292F8680131F820309BB223F4E0430C
:10112C0023F0700343F4004343F0C00321F8203054
:10113C00286892F8682130F8223013F4804F20D0C0
:10114C00B0F850309BB203EBC203023300EB430305
:10115C00B3F80074C7F30907002F9ED004EB840189
:10116C0005EBC1013B46B1F87021D1F87C1101F0BF
:10117C004EF992E7324641462846FFF7C1FA074638
:10118C008BE7B0F850309BB203EBC203063300EB95
:10119C004303B3F80074C7F30907002F3FF47DAF86
:1011AC0004EB840105EBC1013B46B1F87221D1F887
:1011BC007C1101F02CF970E74146286800F040FDE5
:1011CC00F1E604EB840305EBC30300221A6493F8E5
:1011DC003430FBB116F0400F37D04B781BBB2B686B
:1011EC00B3F8502092B21344621C02EB820215F841
:1011FC00322003EB0213B3F80424C2F30902A3F860
:10120C000424B3F804246FEA42426FEA524292B2C9
:10121C00A3F80424013404EB840415F83410284694
:10122C00FFF7A8F9C9E5012BF4D12B68B3F85020CE
:10123C0092B21344621C02EB820215F8322003EBCB
:10124C0002130022A3F80424E4E72A68631C03EBCE
:10125C00830305EBC3035B78D3B9B2F850309BB270
:10126C001344621C02EB820215F8322003EB0213CA
:10127C00B3F80C24C2F30902A3F80C24B3F80C2421
:10128C006FEA42426FEA524292B2A3F80C24C1E7D1
:10129C00012BBFD1B2F850309BB21344621C02EB4D
:1012AC00820215F8322003EB02130022A3F80C245F
:1012BC00B0E704EB840205EBC20200271764B2E628
:1012CC0004EB840205EBC202D66B1E44D663526C4F
:1012DC0004EB840405EBC4041344636400F0B0FC19
:1012EC006BE532462846FFF753FB66E50020BDE868
:1012FC00F08190F8A832012B0DD010B504460123D3
:10130C0080F8A83280F82410006800F076FC0020E9
:10131C0084F8A80210BD0220704710B584B00446B2
:10132C00006800F074FC10F4004F20D110F4806FB2
:10133C0021D110F4804F2FD110F4005F37D110F46D
:10134C00805F3ED110F4006F40F0878010F4007F76
:10135C0040F0AE8010F4807F27D02268B2F8443081
:10136C009BB223F480739BB2A2F844301DE020465C
:10137C00FFF720FD19E02268B2F844309BB223F449
:10138C0080639BB2A2F844302046FFF704F9002199
:10139C002046FFF7AEFF08E02268B2F844309BB25B
:1013AC0023F480439BB2A2F8443004B010BD2268F1
:1013BC00B2F844309BB223F400539BB2A2F84430F1
:1013CC00F3E72268B2F840309BB223F004039BB2DF
:1013DC00A2F840302268B2F840309BB223F00803E8
:1013EC009BB2A2F840302046FFF7F8F82268B2F81A
:1013FC0044309BB223F480539BB2A2F84430D4E720
:10140C00226832F8231004AA02EB430222F8101CC3
:10141C000133DBB2072BF3D92268B2F840309BB210
:10142C0043F00103A2F840302268B2F840309BB27E
:10143C0023F001039BB2A2F840302368B3F8442098
:10144C0012F4806FF9D0B3F8442092B222F4806287
:10145C0092B2A3F8442000230BE00023DAE72268C1
:10146C0004A901EB430131F8101C22F823100133BD
:10147C00DBB2072BF3D92268B2F840309BB243F0B1
:10148C000803A2F840302268B2F844309BB223F42F
:10149C0000639BB2A2F844302268B2F840309BB291
:1014AC0043F00403A2F840302046FFF787F87CE7AE
:1014BC002268B2F844309BB223F400739BB2A2F8BA
:1014CC0044302046FFF761F86FE710B50446084634
:1014DC0011F0800F25D101F0070C0CEB8C01C90029
:1014EC0001F5B47E04EB0E010CEB8C0C04EBCC0C74
:1014FC004FF0000E8CF869E100F0070008700A61EB
:10150C00CB70022B1AD094F8A832012B19D00123DE
:10151C0084F8A832206800F015F9002084F8A8029D
:10152C0010BD01F0070C0CF1010C0CEB8C0104EB61
:10153C00C1014FF0010E81F801E0DDE700230B71D2
:10154C00E1E70220ECE710B501F0070C0CEB8C0185
:10155C00C90001F5B4710CEB8C0E00EBCE0ECEF87D
:10156C007C21CEF880310024CEF884418EF869417C
:10157C008EF868C10144006800F062FB204610BD83
:10158C0038B501F0070404F1010C0CEB8C0104EBF1
:10159C00840E00EBCE0ECEF83C20CEF8403001226B
:1015AC008EF84C20CEF848300025CEF8445000EB95
:1015BC00C1035A7000F831401946006800F040FB36
:1015CC00284638BD38B501F007054268954231D838
:1015DC0004460B4611F0800F1ED101EB8101C900AE
:1015EC0001F5B471014403EB830300EBC303002248
:1015FC0083F8692101238B700D7094F8A832012BAC
:10160C001AD0012384F8A832206800F080FA5DB16A
:10161C00002084F8A80238BD6B1C03EB830100EB9F
:10162C00C10101224A70E5E704F52C71206800F035
:10163C00F2FAEDE70120EEE70220ECE70B4601F0B1
:10164C000F014268914230D810B5044613F0800F58
:10165C0021D103F0070202EB8201C90001F5B4713C
:10166C00014402EB820200EBC202002082F8690105
:10167C0000228A7003F007030B7094F8A832012B38
:10168C0015D0012384F8A832206800F065FA0020F8
:10169C0084F8A80210BD03F00702013202EB8201AC
:1016AC0000EBC10101204870E2E7012070470220E5
:1016BC00F0E711F0800F0BD001F00701013101EBC5
:1016CC00810100EBC10052B90273C3800020704746
:1016DC0001EB8101C90001F5B4710844F3E7012263
:1016EC00027303811B0C4381F0E784B001A880E8EE
:1016FC000E00002004B0704703460020A3F84400FD
:10170C004FF43F42A3F840207047B0F8403023F428
:10171C007C535B045B0CA0F8403000207047002029
:10172C00704784B0844601A880E80E000123ACF811
:10173C0040300020ACF84000ACF84400ACF850004D
:10174C0004B0704710B5034691F800C030F82C2057
:10175C0092B222F4EC4222F0700292B2C8780328C2
:10176C0061D8DFE800F0555C0258002048F2800E8A
:10177C0042EA0E0223F82C2091F800C033F82C20FA
:10178C0092B222F4E04222F0700242EA0C0242EAE7
:10179C000E0223F82C200A7B002A40F0DC804A78C9
:1017AC00002A51D0B3F8502092B21A440C7802EBB4
:1017BC000412B1F806C04FEA5C0C4FEA4C0CA2F8CC
:1017CC0000C40C7833F8242012F0400F0CD033F8FE
:1017DC00242092B222F4E04222F0700242F4004241
:1017EC0042F0C00223F82420CA78012A1DD00978BF
:1017FC0033F8212092B222F4E04222F0400282F02F
:10180C00200242F4004242F0800223F8212017E12A
:10181C0042F40072AAE742F4C0620020A6E742F448
:10182C0080620020A2E70120A0E7097833F821208C
:10183C0092B222F4E04222F0400242F4004242F022
:10184C00800223F82120FBE0B3F8502092B21A4416
:10185C000C7802EB0412B1F806C04FEA5C0C4FEAAC
:10186C004C0CA2F808C4B3F8502092B21A440C786D
:10187C0002EB0412B2F80CC4CCF3090CA2F80CC4A1
:10188C000C693E2C39D94FEA541E14F01F0F01D1AC
:10189C000EF1FF3EB2F80CC41FFA8CFC4FEA8E2EF0
:1018AC001FFA8EFE4CEA0E0C4CF4004CA2F80CC441
:1018BC000C7833F8242012F4804F0CD033F8242009
:1018CC0092B222F4E04222F0700242F4404242F022
:1018DC00800223F82420097869BB33F8212092B2C6
:1018EC0022F4804222F0700282F4405242F4004210
:1018FC0042F0800223F82120A2E04CB9B2F80C444B
:10190C006FEA44446FEA5444A4B2A2F80C44CFE703
:10191C004FEA540C14F0010F01D00CF1010CB2F889
:10192C000C44A4B24FEA8C2C1FFA8CFC44EA0C0435
:10193C00A2F80C44BCE733F8212092B222F4804286
:10194C0022F0700282F4005242F4004242F0800213
:10195C0023F8212074E0CA78022A72D00C7833F86C
:10196C00242092B222F4E24222F0700242F40042AD
:10197C0042F0800223F82420B3F8502092B21A448B
:10198C0091F800C002EB0C12B1F808C04FEA5C0CE5
:10199C004FEA4C0CA2F800C4B3F8502092B21A448F
:1019AC0091F800C002EB0C12B1F80AC04FEA5C0CC3
:1019BC004FEA4C0CA2F808C44A78002A50D10C7893
:1019CC0033F8242012F4804F0CD033F8242092B238
:1019DC0022F4E04222F0700242F4404242F08002D3
:1019EC0023F824200C7833F8242012F0400F0CD06C
:1019FC0033F8242092B222F4E04222F0700242F436
:101A0C00004242F0C00223F8242091F800C033F8C1
:101A1C002C2092B222F4804222F0700282F44052C6
:101A2C0048F28004224323F82C20097833F8212033
:101A3C0092B222F4E04222F04002224323F8212009
:101A4C0010BD0C7833F8242092B222F4E04222F03C
:101A5C00700242F4014242F0800223F824208BE70A
:101A6C000C7833F8242012F4804F0CD033F8242057
:101A7C0092B222F4E04222F0700242F4404242F070
:101A8C00800223F824200C7833F8242012F0400F25
:101A9C000CD033F8242092B222F4E04222F07002EF
:101AAC0042F4004242F0C00223F82420CA78012AF2
:101ABC001ED00C7833F8242092B222F4E04222F0AB
:101ACC00400282F0200242F4004242F0800223F8ED
:101ADC002420097833F8212092B222F4804222F09B
:101AEC00700242F4004242F0800223F82120A7E762
:101AFC000C7833F8242092B222F4E04222F0400217
:101B0C0042F4004242F0800223F82420E1E74B78B3
:101B1C008BB10A7830F822309BB223F4E04323F0E7
:101B2C00400383F0100343F4004343F0800320F898
:101B3C002230002070470A7830F822309BB223F410
:101B4C00804323F0700383F4805343F4004343F049
:101B5C00800320F82230ECE70B7B002B4BD14B7829
:101B6C0033B30A7830F8223013F0400F0CD030F831
:101B7C0022309BB223F4E04323F0700343F4004380
:101B8C0043F0C00320F82230CB78012B33D00A78F5
:101B9C0030F822309BB223F4E04323F0400383F06F
:101BAC00200343F4004343F0800320F8223022E06A
:101BBC000A7830F8223013F4804F0CD030F82230F1
:101BCC009BB223F4E04323F0700343F4404343F00F
:101BDC00800320F822300A7830F822309BB223F4AC
:101BEC00804323F0700383F4405343F4004343F0E9
:101BFC00800320F822300020704711B98023A0F810
:101C0C004C30002070470020704700207047B0F81F
:101C1C00440080B270470020704701335B0800EB32
:101C2C00420000F5806008E00A7891F801C042EAB1
:101C3C000C2220F8042B0231013B002BF4D170470D
:101C4C0070B505460C464A78012A3BD00B7B002B1D
:101C5C0040F0A6828B690A69934240F284829B1AF7
:101C6C008B61B5F850309BB22B44217803EB0113F8
:101C7C00B3F80C14C1F30901A3F80C143E2A40F27A
:101C8C007682510912F01F0F00D10139B3F80C24E0
:101C9C0092B2890289B20A4342F40042A3F80C249E
:101CAC00227835F822309BB223F4804323F0700362
:101CBC0083F4405343F4004343F0800325F822306F
:101CCC00002070BD8E6909698E4200D90E46237BB7
:101CDC0073B3E378022B4DD0236A9B1B23622178CC
:101CEC0035F8213013F0400F00F0F581002A40F058
:101CFC00E281B5F850309BB22B4403EB0113B3F8DF
:101D0C000C24C2F30902A3F80C243E2E40F2BA8133
:101D1C00710916F01F0F00D10139B3F80C2492B2DF
:101D2C00890289B20A4342F40042A3F80C24CBE1A5
:101D3C00B6B23346E28861692846FFF76EFFB5F804
:101D4C0050309BB22B44227803EB0213A3F80464AB
:101D5C00227835F822309BB223F4E04323F0400381
:101D6C0083F0300343F4004343F0800325F8223022
:101D7C000020A6E7236A994280F06681227835F824
:101D8C0022309BB223F4E04323F0700343F401436D
:101D9C0043F0800325F82230236A9B1B23622278B0
:101DAC0035F8223013F0400F00F0A7806378B3BBF6
:101DBC00B5F850309BB22B4403EB0213B3F80C2450
:101DCC00C2F30902A3F80C243E2E0FD9710916F0A8
:101DDC001F0F00D10139B3F80C2492B2890289B2D9
:101DEC000A4342F40042A3F80C241AE04EB9B3F8AB
:101DFC000C246FEA42426FEA524292B2A3F80C24CE
:101E0C000FE0720816F0010F00D00132B3F80C1479
:101E1C0089B2920292B20A43A3F80C2401E0012B7E
:101E2C0030D0B3B2628961692846FFF7F6FE636968
:101E3C0033446361236A226993422DD99B1B23622D
:101E4C006378002B45D1B5F850309BB22B442278E7
:101E5C0003EB0213B3F80424C2F30902A3F804241D
:101E6C003E2E1DD9710916F01F0F00D10139B3F8A0
:101E7C00042492B2890289B20A4342F40042A3F8C4
:101E8C00042428E0B5F850309BB22B4403EB02132A
:101E9C00B2B2A3F80C24C4E7002222621E46CFE79C
:101EAC004EB9B3F804246FEA42426FEA524292B23E
:101EBC00A3F804240FE0720816F0010F00D00132D1
:101ECC00B3F8041489B2920292B20A43A3F8042420
:101EDC0001E0012B06D0B3B2228961692846FFF7D5
:101EEC009CFE35E7B5F850309BB22B44227803EBBF
:101EFC000213B2B2A3F80424EDE76378B3BBB5F8D0
:101F0C0050309BB22B4403EB0213B3F80424C2F3FE
:101F1C000902A3F804243E2E0FD9710916F01F0FE5
:101F2C0000D10139B3F8042492B2890289B20A4370
:101F3C0042F40042A3F804241AE04EB9B3F8042486
:101F4C006FEA42426FEA524292B2A3F804240FE0C5
:101F5C00720816F0010F00D00132B3F8041489B2E4
:101F6C00920292B20A43A3F8042401E0012B30D070
:101F7C00B3B2228961692846FFF74FFE6369334487
:101F8C006361236A226993422DD99B1B2362637878
:101F9C00002B45D1B5F850309BB22B44227803EB83
:101FAC000213B3F80C24C2F30902A3F80C243E2E3E
:101FBC001DD9710916F01F0F00D10139B3F80C248B
:101FCC0092B2890289B20A4342F40042A3F80C246B
:101FDC0028E0B5F850309BB22B4403EB0213B2B29D
:101FEC00A3F80424C4E7002222621E46CFE74EB9B0
:101FFC00B3F80C246FEA42426FEA524292B2A3F851
:10200C000C240FE0720816F0010F00D00132B3F867
:10201C000C1489B2920292B20A43A3F80C2401E088
:10202C00012B06D0B3B2628961692846FFF7F5FD32
:10203C008EE6B5F850309BB22B44227803EB02139A
:10204C00B2B2A3F80C24EDE7217835F8212092B236
:10205C0022F4E24222F0700242F4004242F080028A
:10206C0025F82120B5F8502092B22A44217802EBB1
:10207C0001129BB2A2F80434228961692846FFF749
:10208C00CCFD65E64EB9B3F80C246FEA42426FEA18
:10209C00524292B2A3F80C2416E0720816F0010F0B
:1020AC0000D00132B3F80C1489B2920292B20A43F6
:1020BC00A3F80C2408E0B5F850309BB22B4403EB8A
:1020CC000113B2B2A3F80C24B3B262896169284639
:1020DC00FFF7A3FD3CE6B2BBB5F850309BB22B44E6
:1020EC0003EB0113B3F80424C2F30902A3F804248C
:1020FC003E2E0FD9710916F01F0F00D10139B3F81C
:10210C00042492B2890289B20A4342F40042A3F831
:10211C00042421E04EB9B3F804246FEA42426FEA7A
:10212C00524292B2A3F8042416E0720816F0010F82
:10213C0000D00132B3F8041489B2920292B20A436D
:10214C00A3F8042408E0B5F850309BB22B4403EB01
:10215C000113B2B2A3F80424B3B2228961692846F0
:10216C00FFF75BFDF4E500228A611A4679E54AB96E
:10217C00B3F80C246FEA42426FEA524292B2A3F8CF
:10218C000C248DE5510812F0010F00D00131B3F889
:10219C000C2492B2890289B20A43A3F80C247FE57D
:1021AC00CB78022B4DD0012B40F02F81896923690C
:1021BC00994240F2E680C91AA161F2B9B5F85020F3
:1021CC0092B22A44217802EB0112B2F80414C1F342
:1021DC000901A2F804143E2B40F2D780580913F0E1
:1021EC001F0F00D10138B2F8041489B2800280B2FA
:1021FC00014341F40041A2F804146278002A40F033
:10220C00F680B5F8502092B22A44217802EB0112E4
:10221C00B2F80C14C1F30901A2F80C143E2B40F2D5
:10222C00CD80590913F01F0F00D10139B2F80C34CD
:10223C009BB2890289B20B4343F40043A2F80C34DD
:10224C002EE5F2B9B0F850309BB203440A7803EB98
:10225C000213B3F80424C2F30902A3F804240A6994
:10226C003E2A31D9510912F01F0F00D10139B3F8B0
:10227C00042492B2890289B20A4342F40042A3F8C0
:10228C0004246378002B51D1B5F850309BB22B4409
:10229C00227803EB0213B3F80C24C2F30902A3F85F
:1022AC000C2422693E2A28D9510912F01F0F00D1A3
:1022BC000139B3F80C2492B2890289B20A4342F470
:1022CC000042A3F80C2433E04AB9B3F804246FEAB3
:1022DC0042426FEA524292B2A3F80424D1E7510869
:1022EC0012F0010F00D00131B3F8042490B28A022D
:1022FC0092B20243A3F80424C3E74AB9B3F80C24FE
:10230C006FEA42426FEA524292B2A3F80C240FE0F9
:10231C00510812F0010F00D00131B3F80C2490B227
:10232C008A0292B20243A3F80C2401E0012B1DD0C7
:10233C00E369002B3FF4B4AC227835F8221044F258
:10234C00400303EA01008B4302D000287FF4A8ACC1
:10235C0035F822309BB223F4E04323F0700343F4AE
:10236C00004343F0C00325F8223099E4B5F850300F
:10237C009BB22B44227803EB0213228AA3F80C2481
:10238C00D6E70023A3610B4617E74BB9B2F8041448
:10239C006FEA41416FEA514189B2A2F804142CE76B
:1023AC00590813F0010F00D00131B2F8040480B2C7
:1023BC00890289B20143A2F804141EE74BB9B2F8A2
:1023CC000C346FEA43436FEA53439BB2A2F80C34CC
:1023DC0066E4590813F0010F00D00131B2F80C3447
:1023EC0098B28B029BB20343A2F80C3458E4012A36
:1023FC007FF456ACB5F8502092B22A44217802EB07
:10240C0001129BB2A2F80C344AE4012059E410B436
:10241C005C0800EB420000F5806007E030F8042B0C
:10242C000A70C2F307224A700231013C002CF5D12C
:10243C0013F0010F01D003880B7010BC7047000023
:10244C0010B504460E4B1A784FF47A73B3FBF2F3C3
:10245C000C4A1068B0FBF3F000F078FD68B90F2C53
:10246C0001D901200AE0002221464FF0FF3000F094
:10247C004FFD054B1C60002000E0012010BD00BF8B
:10248C006C000020740000207000002008B5074A82
:10249C00136843F010031360032000F027FD0F2096
:1024AC00FFF7CEFFFDF7ECFE002008BD0020024038
:1024BC00034A1168034B1B780B441360704700BF31
:1024CC00D00C00206C000020014B1868704700BF36
:1024DC00D00C002038B50446FFF7F6FF0546B4F1E2
:1024EC00FF3F02D0044B1B781C44FFF7EDFF401B51
:1024FC00A042FAD338BD00BF6C00002082B0084B5C
:10250C001B68084AA2FB03235B0A00FB03F301933D
:10251C0000BF019B5A1E0192002BF9D102B07047EB
:10252C0074000020D34D6210002800F0F18170B5CA
:10253C0082B00446036813F0010F2CD0994B5B68F2
:10254C0003F00C03042B1DD0964B5B6803F00C03BB
:10255C00082B12D06368B3F5803F41D0002B55D1C6
:10256C0003F1804303F504331A6822F480321A60B5
:10257C001A6822F480221A6037E08A4B5B6813F4E5
:10258C00803FE7D0874B1B6813F4003F03D0636890
:10259C00002B00F0BF81236813F0020F75D0814B24
:1025AC005B6813F00C0F5FD07E4B5B6803F00C0381
:1025BC00082B54D02369002B00F08A807A4B01221F
:1025CC001A60FFF781FF0546764B1B6813F0020F6C
:1025DC0075D1FFF779FF401B0228F5D903209EE146
:1025EC00704A136843F480331360636843B3FFF796
:1025FC006BFF05466B4B1B6813F4003FCBD1FFF709
:10260C0063FF401B6428F5D9032088E1B3F5A02FA4
:10261C0009D0644B1A6822F480321A601A6822F4CA
:10262C0080221A60E1E703F18043A3F53C331A687A
:10263C0042F480221A601A6842F480321A60D4E79D
:10264C00FFF742FF0546574B1B6813F4003FA2D01F
:10265C00FFF73AFF401B6428F5D903205FE1514B8B
:10266C005B6813F4803FA5D14E4B1B6813F0020F2F
:10267C0003D02369012B40F04F814A4A136823F0A1
:10268C00F803616943EAC1031360236813F0080F70
:10269C0033D0A369002B5CD0434B0122C3F88024B8
:1026AC00FFF712FF05463F4B5B6A13F0020F21D177
:1026BC00FFF70AFF401B0228F5D903202FE1394A06
:1026CC00136823F0F803616943EAC1031360DCE784
:1026DC00354B00221A60FFF7F7FE0546314B1B689D
:1026EC0013F0020FD1D0FFF7EFFE401B0228F5D9F3
:1026FC00032014E10120FFF701FF236813F0040FFE
:10270C0000F09680274BDB6913F0805F34D1254BAA
:10271C00DA6942F08052DA61DB6903F0805301938D
:10272C00019B0125214B1B6813F4807F26D0E368A5
:10273C00012B3DD0002B53D103F1804303F504331F
:10274C001A6A22F001021A621A6A22F004021A6250
:10275C0033E0154B0022C3F88024FFF7B5FE054685
:10276C00104B5B6A13F0020FC7D0FFF7ADFE401B96
:10277C000228F5D90320D2E00025D3E70B4A1368D1
:10278C0043F480731360FFF79FFE0646074B1B68EC
:10279C0013F4807FCBD1FFF797FE801B6428F5D90B
:1027AC000320BCE0001002400000424200700040D8
:1027BC005F4A136A43F001031362E36833B3FFF714
:1027CC0083FE06465A4B1B6A13F0020F2FD1FFF7FC
:1027DC007BFE801B41F288339842F3D903209EE0A4
:1027EC00052B09D0524B1A6A22F001021A621A6A9E
:1027FC0022F004021A62E0E74D4B1A6A42F004021E
:10280C001A621A6A42F001021A62D6E7FFF75CFEFE
:10281C000646474B1B6A13F0020F08D0FFF754FE15
:10282C00801B41F288339842F3D9032077E0E5B955
:10283C00E369002B72D03E4A526802F00C02082A5F
:10284C0056D0022B17D03B4B00221A66FFF73CFEEA
:10285C000446374B1B6813F0007F47D0FFF734FE5C
:10286C00001B0228F5D9032059E0314AD36923F023
:10287C008053D361DCE72F4B00221A66FFF724FE4E
:10288C0005462B4B1B6813F0007F06D0FFF71CFE90
:10289C00401B0228F5D9032041E0236AB3F5803FA1
:1028AC001AD023494B6823F47413226A606A0243DA
:1028BC0013434B601F4B01221A66FFF705FE0446BB
:1028CC001B4B1B6813F0007F0ED1FFF7FDFD001BA7
:1028DC000228F5D9032022E0154A536823F400336B
:1028EC00A1680B435360DCE7002018E0002016E0E1
:1028FC00012B16D00E4B5B6803F48031226A914297
:10290C0011D103F47013626A93420ED1002006E0D9
:10291C0001207047012002E0012000E0002002B0FD
:10292C0070BD0120FBE70120F9E70120F7E700BFAC
:10293C0000100240000042420F4B5B6803F00C0297
:10294C00082A01D00D487047C3F383420C49885CB8
:10295C0013F4803F0BD0084B5B68C3F34043094A28
:10296C00D35C064A02FB00F0B0FBF3F07047064B59
:10297C0003FB00F0704700BF0010024000127A0009
:10298C00C8460008C446000800093D00002800F0B5
:10299C00A08070B50D460446524B1B6803F007032C
:1029AC008B420BD24F4A136823F007030B4313607F
:1029BC00136803F007038B4240F08D80236813F0FB
:1029CC00020F17D013F0040F04D0474A536843F496
:1029DC00E0635360236813F0080F04D0424A536835
:1029EC0043F460535360404A536823F0F003A168EA
:1029FC000B435360236813F0010F31D06368012B34
:102A0C0020D0022B25D0384A126812F0020F64D065
:102A1C0035494A6822F0030213434B60FFF754FD1B
:102A2C000646314B5B6803F00C036268B3EB820F14
:102A3C0016D0FFF749FD801B41F288339842F0D93C
:102A4C00032045E0284A126812F4003FE0D101202F
:102A5C003EE0254A126812F0007FD9D1012037E000
:102A6C00204B1B6803F00703AB420AD91D4A1368BD
:102A7C0023F007032B431360136803F00703AB42E7
:102A8C002DD1236813F0040F06D0174A536823F492
:102A9C00E063E1680B435360236813F0080F07D021
:102AAC00114A536823F46053216943EAC10353600C
:102ABC00FFF742FF0C4B5B68C3F303130B4AD35C69
:102ACC00D8400B4B18600B4B1868FFF7B9FC002073
:102ADC0070BD012070470120FAE70120F8E70120C2
:102AEC00F6E700BF0020024000100240E04600085C
:102AFC007400002070000020014B1868704700BF64
:102B0C007400002008B5FFF7F7FF044B5B68C3F3B4
:102B1C000223034AD35CD84008BD00BF001002401A
:102B2C00D846000808B5FFF7E7FF044B5B68C3F312
:102B3C00C223034AD35CD84008BD00BF001002403A
:102B4C00D846000870B582B00446036813F0010F34
:102B5C0036D03F4BDB6913F0805F49D13C4BDA69CF
:102B6C0042F08052DA61DB6903F080530193019BE0
:102B7C000125384B1B6813F4807F3BD0344B1B6A08
:102B8C0013F4407313D0626802F440729A420ED070
:102B9C002F4A136A23F440702F490126C1F8406470
:102BAC000026C1F84064106213F0010F36D1284A98
:102BBC00136A23F4407361680B431362002D3ED1FA
:102BCC00236813F0020F06D0214A536823F44043C4
:102BDC00A1680B435360236813F0100F34D01C4AC8
:102BEC00536823F48003E1680B43536000202CE00E
:102BFC000025BEE7174A136843F480731360FFF790
:102C0C0063FC0646134B1B6813F4807FB6D1FFF7A9
:102C1C005BFC801B6428F5D9032016E0FFF754FCFD
:102C2C0006460B4B1B6A13F0020FC0D1FFF74CFC8E
:102C3C00801B41F288339842F3D9032005E0D36915
:102C4C0023F08053D361BBE7002002B070BD00BFFE
:102C5C0000100240007000400000424270B582B08B
:102C6C000024A446A2E07E4DAB4210D007D97D4D86
:102C7C00AB420CD005F58035AB4208D013E0A5F57E
:102C8C008015AB4203D005F57025AB4207D18B689C
:102C9C00002B55D0012B4ED04261082403E0A5F542
:102CAC008015AB42F3D0BEF1FF0F4BD806464FEA6E
:102CBC008C0233680F25954023EA050304FA02F2CF
:102CCC00134333604B6813F0805F6DD0664B9A6989
:102CDC0042F001029A619B6903F001030193019B8D
:102CEC004FEA9C02951C614B53F825600CF00305D0
:102CFC00AD000F23AB4026EA03065D4B984228D06B
:102D0C0003F58063984200F08D8003F58063984250
:102D1C0000F08A8003F58063984218D0042319E0F0
:102D2C00CC68C0E7CC680434BDE7CC680834BAE79B
:102D3C00CC680C34B7E702610824B4E70024B2E78E
:102D4C000424B0E7061DACF108029200B1E703239E
:102D5C0000E00023AB4033430232444D45F82230AF
:102D6C004B6813F4801F61D0424A936843EA0E0308
:102D7C0093604B6813F4001F5ED03E4AD36843EA5D
:102D8C000E03D3604B6813F4003F5BD0394A536891
:102D9C0043EA0E0353604B6813F4803F58D0354A16
:102DAC00136843EA0E0313600CF1010C0B6833FA41
:102DBC000CF253D0012202FA0CF203EA020E32EAB0
:102DCC000303F1D14B68122B3FF64DAF122B3FF69C
:102DDC006AAF01A555F823F09B2C00082D2D000897
:102DEC00372D0008492D0008B32C0008B32C00081F
:102DFC00B32C0008B32C0008B32C0008B32C00082B
:102E0C00B32C0008B32C0008B32C0008B32C00081A
:102E1C00B32C0008B32C0008B32C0008312D00088B
:102E2C003D2D0008012395E7022393E7114A93688F
:102E3C0023EA0E0393609CE70E4AD36823EA0E0341
:102E4C00D3609FE70B4A536823EA0E035360A2E753
:102E5C00084A136823EA0E031360A5E702B070BD9D
:102E6C000000221000003110001002400000014050
:102E7C0000080140000401400AB1016170470904D7
:102E8C0001617047002808DB0901C9B200F16040FC
:102E9C0000F5614080F80013704700F00F00090145
:102EAC00C9B2014B1954704714ED00E000B500F0A5
:102EBC000700C0F1070CBCF1040F28BF4FF0040C45
:102ECC00031D062B0FD9C31E4FF0FF3E0EFA0CF05C
:102EDC0021EA000199400EFA03FE22EA0E0241EAB1
:102EEC0002005DF804FB0023EEE70000074AD368FC
:102EFC0023F4E0631B041B0C000200F4E0600343AA
:102F0C0043F0BF6343F40033D360704700ED00E03F
:102F1C0010B50446054BD868C0F30220FFF7C6FF76
:102F2C0001462046FFF7AEFF10BD00BF00ED00E0EC
:102F3C00002807DB00F01F02400901239340024ADE
:102F4C0042F82030704700BF00E100E00138B0F1DA
:102F5C00807F0BD24FF0E0235861054AF02182F8B4
:102F6C0023100020986107221A61704701207047D6
:102F7C0000ED00E0044B0022DA61044A136943F0CF
:102F8C000103136101807047D80C0020002002401F
:102F9C00194BDB6813F0100305D0184AD36943F0C2
:102FAC000203D3611023144AD26812F0040F06D026
:102FBC001249CA6942F00102CA6143F004030E4A85
:102FCC00D26912F0010F09D00C49CA6942F004020F
:102FDC00CA610949CA6922F00102CA6140F20112B0
:102FEC00934202D0044AD3607047034AD36923F05A
:102FFC000103D361704700BF00200240D80C0020B1
:10300C000A4B1B6913F0800F0BD0084B084A5A600F
:10301C0002F188325A601B6913F0800F03D1002033
:10302C007047002070470120704700BF002002400D
:10303C0023016745034A136943F0800313610020A1
:10304C00704700BF0020024038B50446FFF73CFA39
:10305C000546164BDB6813F0010F0AD0B4F1FF3FA5
:10306C00F7D024B1FFF730FA401BA042F1D903206E
:10307C001BE00E4BDB6813F0200F02D00B4B202211
:10308C00DA600A4BDB6813F0100F0BD1074BDB69CE
:10309C0013F0010F06D1054BDB6813F0040F01D1BF
:1030AC00002002E0FFF774FF012038BD0020024031
:1030BC002DE9F8431E46244B1B7E012B41D00446C0
:1030CC000F469046204B01221A764CF25030FFF7F7
:1030DC00BBFF034678BB012C08D0022C03D04FF069
:1030EC0004091C4607E04FF00209FAE74FF001090A
:1030FC00F7E70134E4B24C451DD22101C1F12002A5
:10310C00A1F1200328FA01F106FA02F2114326FA82
:10311C0003F3194389B207EB4400FFF72BFF4CF282
:10312C005030FFF791FF094B1D6925F001051D611A
:10313C0003460028DDD0044A002111761846BDE86C
:10314C00F8830223FAE700BFD80C002000200240CD
:10315C00064B0022DA61064B1A6942F004021A612E
:10316C001A6942F040021A61704700BFD80C002067
:10317C0000200240064B0022DA61064B1A6942F02D
:10318C0002021A6158611A6942F040021A617047D2
:10319C00D80C002000200240264B1B7E012B46D071
:1031AC0070B505460E46234B01221A760368022B96
:1031BC0020D04CF25030FFF747FF90BB4FF0FF335D
:1031CC003360AC680121EA68AB6803EB8223A3424D
:1031DC0028D92046FFF7CEFF4CF25030FFF734FFD2
:1031EC00154A136923F0020313610146B8B904F5BB
:1031FC008064E8E74CF25030FFF726FF08B101215C
:10320C0010E00120FFF7A4FF4CF25030FFF71CFF39
:10321C000146094A136923F00403136102E0346088
:10322C0000E00121034B00221A76084670BD0221F2
:10323C0008467047D80C00200020024010B5044608
:10324C000268136923F44053C1680B43136183680C
:10325C000269134342691A430168CB6823F4B053E3
:10326C0023F00C031343CB600268536923F44073BF
:10327C0081690B4353610268134B9A4220D0FFF7CC
:10328C0041FC024602EB820202EB820263689B0065
:10329C00B2FBF3F20D48A0FB02314909642303FB96
:1032AC0011231B013233A0FB03035B0903F0F00273
:1032BC0002EB011203F00F03216813448B6010BD65
:1032CC00FFF730FC0246DDE7003801401F85EB516B
:1032DC0060B310B5044690F8413013B3242384F83E
:1032EC0041302268D36823F40053D3602046FFF7A3
:1032FC00A5FF2268136923F4904313612268536974
:10330C0023F02A0353612268D36843F40053D3603B
:10331C0000206064202384F8413084F842306063DC
:10332C0010BD80F8403001F0C9F8D7E70120704794
:10333C00704798B108B50346D0F8B40210B100201C
:10334C00C3F8B40209B1C3F8B012012183F89C127E
:10335C001A701846FDF748F9002008BD0220704786
:10336C0019B1C0F8B412002070470220704708B59C
:10337C00FDF766F9002008BD10B50446D0F8B4324C
:10338C005B68017998472046FDF762F9002010BD73
:10339C0008B5D0F8B4322BB11B68984700B908BDFA
:1033AC000220FCE70220FAE708B5D0F8B4325B68DB
:1033BC009847002008BD38B5044600F52A75284604
:1033CC0000F035F90123C4F89432B4F8AE32C4F8E5
:1033DC00983294F8A81201F01F03012B0ED0022B87
:1033EC0011D02BB101F080012046FDF744F903E028
:1033FC002946204600F0D2FA002038BD2946204646
:10340C0000F000FBF8E72946204600F02BFBF3E721
:10341C0038B504460D4691BB1346D0F89422032AC6
:10342C0003D0052A24D0084633E0D0F86011D0F838
:10343C00642191420DD9891AC0F860118A4206D9CB
:10344C008AB21946204600F03FFC284621E092B291
:10345C00F7E7D0F8B4321B691BB190F89C22032A11
:10346C0004D0204600F038FC284612E09847F8E7D4
:10347C000021C0F89412FDF7FEF8284609E0D0F8B8
:10348C00B4329B6933B190F89C22032A04D198473B
:10349C00002038BD0220FCE70220FAE738B50446CC
:1034AC000D46002953D11346D0F89422022A0CD091
:1034BC00042A00D01AB980212046FDF7DCF894F8D4
:1034CC00A032012B3ED0284638BD026A416A8A429E
:1034DC001BD8C269B2FBF1F301FB13232BB9914248
:1034EC0003D8D0F898329A421CD3D4F8B432DB68A3
:1034FC001BB194F89C22032A21D080212046FDF791
:10350C00BAF8204600F0F3FBD9E7521A026292B2E5
:10351C00194600F0C2FB00231A4619462046FDF757
:10352C00E1F8CCE70022114600F0B7FB0021C4F80B
:10353C0098120B460A462046FDF7D4F8BFE7204602
:10354C009847DAE7002384F8A0322846BCE7D0F885
:10355C00B4325B6933B190F89C22032A04D19847AA
:10356C000020B1E70220AFE70220ADE770B50446BA
:10357C00402300221146FDF773F80125C4F8585179
:10358C004026C4F864613346002280212046FDF7B2
:10359C0067F8A561666284F89C520023C4F89432E3
:1035AC006360C4F8A432D4F8B8322BB1D4F8B43276
:1035BC005B68002120469847002070BD01740020F4
:1035CC00704790F89C3280F89D32042380F89C322E
:1035DC000020704790F89C32042B01D000207047DB
:1035EC0090F89D3280F89C32F8E708B590F89C3240
:1035FC00032B01D0002008BDD0F8B432DB69002BBE
:10360C00F8D09847F6E70346002002E00130C0B23C
:10361C0001331A78002AF9D1704708B54B88012B71
:10362C0000D008BDC0F8A43200F056FBF9E70B78C7
:10363C0003704B7843708B78CA7803EB022343807A
:10364C000B794A7903EB022383808B79CA7903EBDC
:10365C000223C380704710B504468021FDF70BF898
:10366C0000212046FDF707F810BD30B583B00546A4
:10367C000C460023ADF8063049880B0A013B062B9B
:10368C0000F2AC80DFE803F004182CAAAA8E9B0091
:10369C00D0F8B0321B680DF10601007C9847BDF8DC
:1036AC0006201AB1E388002B40F09C80E388002BA5
:1036BC0000F0A28003B030BD037C43B9D0F8B43223
:1036CC009B6A0DF10600984702234370E7E7D0F898
:1036DC00B432DB6A0DF10600984702234370DEE733
:1036EC00C9B2052952D8DFE801F003101D2A37446E
:1036FC00D0F8B0325B6823B10DF10601007C98471D
:10370C00CDE72146FFF7A7FFD4E7D0F8B0329B688E
:10371C0023B10DF10601007C9847C0E72146FFF765
:10372C009AFFC7E7D0F8B032DB6823B10DF1060180
:10373C00007C9847B3E72146FFF78DFFBAE7D0F836
:10374C00B0321B6923B10DF10601007C9847A6E746
:10375C002146FFF780FFADE7D0F8B0325B6923B1AB
:10376C000DF10601007C984799E72146FFF773FF9E
:10377C00A0E7D0F8B0329B6923B10DF10601007CB3
:10378C0098478CE72146FFF766FF93E7D0F8B432F1
:10379C009B6B1BB10DF10602984780E72146FFF7A2
:1037AC005AFF87E7037C33B9D0F8B4325B6B0DF169
:1037BC000600984773E72146FFF74DFF7AE7037C35
:1037CC0043B9D0F8B4321B6B0DF1060098470723B0
:1037DC00437064E72146FFF73EFF6BE72146FFF796
:1037EC003AFF67E79A4228BF1A46ADF80620014611
:1037FC00284600F045FA59E7284600F06DFA59E7DB
:10380C0038B504468B88F3B9CB88E3B94B887F2B4A
:10381C0019D803F07F0590F89C32032B0CD080F85C
:10382C009E522946FCF74EFF204600F055FA35B162
:10383C00022384F89C3209E0FFF70DFF06E0012318
:10384C0084F89C3202E02046FFF705FF38BD0000EB
:10385C0038B504460D468978284B197001290ED8C5
:10386C0090F89C32022B0ED0032B21D02946FFF767
:10387C00F2FE224B19782046FFF796FD02E029460E
:10388C00FFF7E9FE38BD81B14160032380F89C321B
:10389C00FFF77EFD022803D0204600F01DFAF1E769
:1038AC0029462046FFF7D7FEECE700F015FAE9E7CA
:1038BC0089B1436899421DD0D9B2FFF775FD0F4B02
:1038CC00197861602046FFF763FD02280DD0204671
:1038DC0000F002FAD6E7022380F89C324160FFF731
:1038EC0063FD204600F0F8F9CCE729462046FFF7A7
:1038FC00B2FEC7E700F0F0F9C4E700BFF80C0020F7
:10390C0008B5CB88012B0AD190F89C32022B09D92F
:10391C00032B09D10122011D00F0B2F901E0FFF7E0
:10392C009AFE08BD5BB213B9FFF795FEF9E70146A5
:10393C00002341F8083F012200F0A2F9F1E708B595
:10394C0090F89C32013B022B12D8CB88022B0CD165
:10395C000123C360D0F8A4320BB10323C36002224D
:10396C0000F10C0100F08CF908BDFFF774FEFBE7C9
:10397C00FFF771FEF8E708B590F89C32013B022B7B
:10398C0009D84B88012B00D008BD0023C0F8A43205
:10399C0000F0A2F9F8E7FFF75EFEF5E708B50B7843
:1039AC0003F06003202B05D0402B03D043B1FFF76D
:1039BC0052FE03E0D0F8B4329B689847002008BD53
:1039CC004B78092B1BD8DFE803F011171A141A08CF
:1039DC00051A0E0BFFF749FEF0E7FFF711FFEDE7B5
:1039EC00FFF736FFEAE7FFF78BFFE7E7FFF7A7FFE5
:1039FC00E4E7FFF712FEE1E7FFF7BDFFDEE7FFF7B5
:103A0C002AFEDBE738B505460C460B7803F060035D
:103A1C00202B06D0402B04D01BB1FFF71CFE00203E
:103A2C0038BD95F89C32013B022B16D82379012B1B
:103A3C000ED8D5F8B4329B68214628469847E388BF
:103A4C00002BECD10028EAD1284600F045F9E6E736
:103A5C0021462846FFF7FFFDE1E721462846FFF700
:103A6C00FAFDDCE770B505468B880C7804F0600431
:103A7C00202C07D0DAB2402C04D05CB1FFF7EBFD60
:103A8C00002405E0D5F8B4329B68284698470024FA
:103A9C00204670BD202C09D04E78012E33D0032E39
:103AAC000AD0002E55D0FFF7D6FDF1E7D0F8B4328E
:103ABC009B6898470446EBE790F89C32022B04D0A5
:103ACC00032B11D0FFF7C7FDE2E70AB1802A03D11F
:103ADC002846FFF7C0FDDBE71146FCF7CCFD802143
:103AEC002846FCF7C8FDD3E74B8823B91AB1802AC6
:103AFC0001D0CB881BB1284600F0EEF8C8E7114680
:103B0C00FCF7B9FDF7E790F89C32022B04D0032B9D
:103B1C0011D0FFF7A0FDBBE70AB1802A03D12846DC
:103B2C00FFF799FDB4E71146FCF7A5FD8021284667
:103B3C00FCF7A1FDACE74B88002BA9D112F07F0F4D
:103B4C0003D1284600F0C8F8A2E71146FCF79BFD0C
:103B5C00F7E790F89C02022806D0032829D02846C3
:103B6C00FFF779FD344693E70AB1802A13D113F09D
:103B7C00800F15D102F07F0202EB8202910001F559
:103B8C00A8712944043100230B600222284600F05E
:103B9C0077F834467CE72846FFF75DFD344677E737
:103BAC0002F07F0202EB82029100103129440431B1
:103BBC00E9E75BB2002B1FDB02F00F0000EB80008B
:103BCC0005EB8000D0F8580120B3002B27DB02F066
:103BDC007F0303EB83039C0004F5A8742C4404348A
:103BEC000AB1802A24D100232360022221462846D0
:103BFC0000F046F834464BE702F00F0000EB800073
:103C0C0005EB800080690028DFD12846FFF723FDF3
:103C1C0034463DE72846FFF71EFD344638E702F0F0
:103C2C007F0303EB83039C0010342C440434D7E74C
:103C3C0011462846FCF72FFD10B101232360D4E771
:103C4C0000232360D1E7D0B170B50D46164604466B
:103C5C00FFF7D9FC431C5B009BB233802B70032312
:103C6C006B70022307E001345A1CD2B2E8540233C1
:103C7C00DBB20021A95420780028F4D170BD704724
:103C8C0008B513460222C0F89422C36103620A46A7
:103C9C000021FCF71FFD002008BD08B513460A469D
:103CAC000021FCF717FD002008BD08B513460322C0
:103CBC00C0F89422C0F85C31C0F860310A4600218B
:103CCC00FCF710FD002008BD08B513460A4600217C
:103CDC00FCF708FD002008BD08B50423C0F8943299
:103CEC0000231A461946FCF7F5FC002008BD08B560
:103CFC000523C0F8943200231A461946FCF7F2FC4F
:103D0C00002008BDBFF34F8F0549CA6802F4E0627A
:103D1C00044B1343CB60BFF34F8F00BFFDE700BFD5
:103D2C0000ED00E00400FA051B23038000487047F7
:103D3C00840000200020704700207047002070474E
:103D4C000020704700207047002070470A23038032
:103D5C000048704778000020D0F8B83293F8182447
:103D6C000A2A11D00A2183F818140E2283F8102481
:103D7C00002283F8112483F8122483F8132483F887
:103D8C00141483F815247047022183F818140022A8
:103D9C0083F8102483F8112483F8122483F8132455
:103DAC0083F8141483F815247047D0F8B83293F8BC
:103DBC0018148A1ED2B2012A05D9052903D0062966
:103DCC0001D0092913D1022183F81814002283F899
:103DDC00102483F8112483F8122483F8132483F815
:103DEC00141483F81524C3F80024C3F80424704772
:103DFC00062909D810B5D0F8BC32044C21461868F5
:103E0C00FFF721FF204610BD00207047FC0C00205E
:103E1C00D0F8B832002283F81924144A127D12F01B
:103E2C00040F0CD0062183F81814002283F81124F7
:103E3C0083F8122483F8132483F81414704710B5F4
:103E4C000446082183F81814002283F8112483F8FF
:103E5C00122483F8132483F81414FFF78DFAD4F882
:103E6C00BC329B689847FFF74DFF00BF84000020D1
:103E7C0010B582B0D0F8B84294F81834042B04D0A2
:103E8C00072B75D0002002B010BDD4F80014002907
:103E9C005CD123781BB9D4F80424012A45D0212BFA
:103EAC001FD0412B34D1D4F80434052B30D1637896
:103EBC00C4F80834A27803EB0223C4F80834E2787F
:103ECC0003EB0243C4F80834227903EB0263C4F811
:103EDC000834D0F8BC22D2681846904728B3022088
:103EEC00D1E7D4F80424052ADBD16378C4F808346C
:103EFC00A27803EB0223C4F80834E27803EB024304
:103F0C00C4F80834227903EB0263C4F808340CE0DB
:103F1C000023C4F80434C4F800348DF800300123B5
:103F2C00ADF806306946FFF796FB0020C4F8040490
:103F3C00C4F80004032384F8183484F8110484F8BA
:103F4C00120484F8130484F814349CE70129ECD986
:103F5C000239D0F8BC321B69D4F80424D4F8080414
:103F6C0000EB8121204698470028DED002208AE70A
:103F7C00FFF74EFF002086E738B5D0F8B842CB8863
:103F8C00002B5FD0054694F81834022B01D0092B76
:103F9C0050D14888C4F80004CA88C4F80424D0B9A5
:103FAC00032A16D9022284F81824002384F8113429
:103FBC0084F8123484F8133484F8142423702123E5
:103FCC0063704123A370032221462846FFF758FE55
:103FDC0044E00922E7E701281CD9092184F81814C8
:103FEC00002384F8113484F8123484F8133484F8E0
:103FFC0014140238D5F8BC325B692146D4F808C4D5
:10400C000CEB802098470146B4F804242846FFF7AF
:10401C0037FE23E00F2284F81824002384F811348F
:10402C0084F8123484F8133484F814242846FFF7E7
:10403C0012FB13E00023C4F80434C4F80034FFF777
:10404C000AFB0BE0022284F81824002384F81134B4
:10405C0084F8123484F8133484F8142438BD000026
:10406C0038B50546D0F8B84294F81834032B08D06C
:10407C00062B3CD0062204F582612846FFF700FE91
:10408C0038BDD4F804342BB3042284F8182400234C
:10409C0084F8113484F8123484F8133484F814241A
:1040AC00D4F8003413B92378412B09D0D5F8BC329D
:1040BC009B6904F582620121D4F808049847D9E77A
:1040CC00D0F8BC329B6904F582620021D4F8080454
:1040DC009847CFE7052284F81824002384F811347C
:1040EC0084F8123484F8133484F81424C2E794F856
:1040FC001934012B13D0002BBCD1104B1B7D13F0AA
:10410C00040FB7D0022284F81824002384F8113449
:10411C0084F8123484F8133484F81424AAE707239F
:10412C0084F81834012284F81124002284F8122413
:10413C0084F8132484F814349CE700BF8400002016
:10414C0008B5D0F8B812012201F58361FFF798FD8C
:10415C0008BD08B5D0F8B832CA88BAB193F818249B
:10416C00022A01D0052A0ED14A88C3F80024CA8835
:10417C00C3F80424032183F8181483F81414194683
:10418C00FFF793FD17E0FFF766FA14E093F8182495
:10419C00052A01D0022A0FD1012283F81924062105
:1041AC0083F81814002283F8112483F8122483F85E
:1041BC00132483F8141408BDFFF74DFAFBE7000035
:1041CC0010B50446D0F8B83293F81804821ED2B257
:1041DC00012A05D9052803D0062801D0092813D1B6
:1041EC00022083F81804002283F8102483F8112489
:1041FC0083F8122483F8132483F8140483F8152409
:10420C00C3F80024C3F80424074B5B7D13F0100F94
:10421C0006D02046FFF7B0F82046FFF7A8F810BDEF
:10422C004888FEF757F9FAE78400002030B583B0D0
:10423C000023ADF80630D0F8B8320C7814F06004D6
:10424C0029D0202C73D14C78062C20D8DFE804F030
:10425C001C04080C10141800FFF77BFF002469E005
:10426C00FFF78AFE002465E0FFF7FAFE002461E008
:10427C00FFF772FD00245DE0FFF762FF002459E0B8
:10428C00FFF793FD002455E0FFF79AFF52E0FFF78C
:10429C00E2F902244EE04D780B2D44D8DFE805F00E
:1042AC0006434343434315434343243290F89C3223
:1042BC00032B03D0FFF7CFF902243BE002220DF1D0
:1042CC000601FFF7DDFC2C4634E04B881B0A212B42
:1042DC0004D000221146FFF7D3FC2BE0CA88092A30
:1042EC0028BF09221549F6E790F89C22032A03D02F
:1042FC00FFF7B1F902241DE0012203F20C41FFF794
:10430C00BFFC17E08C7854B990F89C22032A02D198
:10431C00C3F80C440EE0FFF79EF902240AE0FFF705
:10432C009AF9022406E0FFF796F9022402E0FFF75F
:10433C0092F90224204603B030BD00BF9600002045
:10434C00D0F8B8320022C3F80024C3F804240221A8
:10435C0083F8181483F8102483F81414D0F8B832A6
:10436C0073B110B50446D0F8BC329B689847D4F8AA
:10437C00B802FCF7C3F90023C4F8B832002010BD12
:10438C000020704710B5044640F21C40FCF7B2F90F
:10439C00C4F8B80200B30023C0F80C34104AC0F8BB
:1043AC000824C0F80034C0F8043480F81934022210
:1043BC0080F8182480F8103480F8113480F8123406
:1043CC0080F8133480F8142480F81534D4F8BC32F7
:1043DC005B68984710B910BD0220FCE70220FAE791
:1043EC000060000809B1C0F8BC1200207047000042
:1043FC0070B588B0002404940594069407941F4B60
:10440C009A6942F010029A619A6902F010020092C5
:10441C00009A9A6942F020029A619A6902F020028D
:10442C000192019A9A6942F008029A619A6902F023
:10443C0008020292029A9A6942F004029A619B69FC
:10444C0003F004030393039B0D4D224601212846E0
:10445C00FEF712FD022604960594069404A9094859
:10446C00FEF7FCFB0123049305930694079604A91D
:10447C002846FEF7F3FB08B070BD00BF00100240E9
:10448C00000C01400010014008B50A480A4B0360BB
:10449C004FF4E133436000238360C36003610C225B
:1044AC0042618361C361FEF713FF00B908BDFBF7DE
:1044BC006DFEFBE7FC0D00200038014010B586B006
:1044CC00002302930393049305930268174B9A42BB
:1044DC0001D006B010BD03F558439A6942F48042EE
:1044EC009A619A6902F480420092009A9A6942F0A9
:1044FC0004029A619B6903F004030193019B4FF43E
:10450C00007302930223039303230593084C02A91F
:10451C002046FEF7A3FB4FF4806302930023039322
:10452C00049302A92046FEF799FBD2E7003801401C
:10453C000008014008B54368034A9060026882F3A2
:10454C000888984708BD00BF00ED00E0FEF7F0FEBC
:10455C000B480C490C4A002302E0D458C4500433D5
:10456C00C4188C42F9D3094A094C002301E01360AA
:10457C000432A242FBD300F017F8FBF74BFE704756
:10458C0000000020DC000020F8460008E0000020BD
:10459C00440E0020FEE703460244934200D17047CC
:1045AC0003F8011BF9E7000070B500260C4D0D4C0B
:1045BC00641BA410A64209D100F01AF800260A4D7B
:1045CC000A4C641BA410A64205D170BD55F8043BDF
:1045DC0098470136EEE755F8043B98470136F2E769
:1045EC00F0460008F0460008F0460008F4460008C3
:1045FC00F8B500BFF8BC08BC9E467047F8B500BFC4
:08460C00F8BC08BC9E46704793
:1046140053544D333220446F776E4C6F616420469F
:1046240069726D776172652055706461746500000C
:1046340053544D6963726F656C656374726F6E6910
:104644006373000044465520436F6E66696700003B
:1046540044465520496E74657266616365000000C6
:1046640040496E7465726E616C20466C617368209B
:1046740020202F307830383030303030302F303305
:104684002A3031364B612C30312A3031364B672C8D
:1046940030312A3036344B672C30372A3132384B9C
:1046A400672C30342A3031364B672C30312A30367F
:1046B400344B672C30372A3132384B670000000006
:1046C4000102000002030405060708090A0B0C0D89
:1046D4000E0F10100000000001020304000000008F
:0C46E400000000000102030406070809A2
:0446F0007501000848
:0446F4004D0100086C
:1046F8001A03000000000000000000000000000095
:10470800000000000000000000000000040309048D
:104718001201000200000040830411DF00020102C0
:10472800030100002503000831030008F503000811
:10473800D1030008BD03000811040008350400086F
:1047480064460008FB040008F1040008CF040008D0
:104758009B040008590400087D04000801000000BB
:10476800100000000024F4000A06000200000040C7
:104778000100000009021B00010102C03209040007
:104788000000FE01020609210BFF0000041A0100C7
:10479800914300084D430008394200087D3E000857
:1047A800453D0008413D0008553D0008493D0008C9
:1047B8004D3D0008513D0008353D0008353D0008D5
:0C47C800353D0008593D0008FD3D00088B
:040000050800455951
:00000001FF
