:020000040800F2
:1000000000500020B13500086102000863020008BA
:10001000650200086702000869020008000000008D
:100020000000000000000000000000006B0200085B
:100030006D020008000000006F0200087102000855
:10004000F9350008F9350008F9350008F9350008D8
:10005000F9350008F9350008F9350008F9350008C8
:10006000F9350008F9350008F9350008F9350008B8
:10007000F9350008F9350008F9350008F9350008A8
:10008000F9350008F9350008F9350008F935000898
:1000900079020008F9350008F9350008F93500083B
:1000A000F9350008F9350008F9350008F935000878
:1000B000F9350008F9350008F9350008F935000868
:1000C000F9350008F9350008F9350008F935000858
:1000D000F9350008F9350008F9350008F935000848
:1000E000F9350008F9350008F9350008000000006E
:1000F0000000000000000000000000000000000000
:0C01000000000000000000005FF808F1A3
:10010C000348044B834202D0034B03B1184770479A
:10011C000C0000200C000020000000000548064BDD
:10012C001B1AD90F01EBA301491002D0034B03B1E9
:10013C00184770470C0000200C0000200000000045
:10014C0010B5064C237843B9FFF7DAFF044B13B113
:10015C000448AFF300800123237010BD0C00002075
:10016C00000000005436000808B5054B1BB10549CA
:10017C000548AFF30080BDE80840FFF7CFBF00BFD4
:10018C0000000000100000205436000872B6FEE794
:10019C0000B595B0282200210DEB020003F027FAE0
:1001AC0000230593069307930893099301930293F5
:1001BC000393049301220A924FF480330B930E9213
:1001CC000222119212934FF4E01313930AA801F038
:1001DC0025FFC0B90F230593022106910023079335
:1001EC004FF480620892099305A802F049F960B9AE
:1001FC00102301930023049301A802F01DFA30B9D7
:10020C0015B05DF804FBFFF7C1FFFFF7BFFFFFF769
:10021C00BDFF000008B501F0B3FEFFF7B9FF03F016
:10022C0013F903F05DF9094C00220121204602F07C
:10023C009DFB4FF4FA6001F0C7FE012211462046E7
:10024C0002F094FB024803F0A1F9FEE7000C014018
:10025C0000600008FEE7FEE7FEE7FEE7FEE77047FA
:10026C007047704708B501F09DFE08BD08B50248FF
:10027C0000F01BFE08BD00BF2800002082B00E4B12
:10028C009A6942F001029A619A6902F001020092A5
:10029C00009ADA6942F08052DA61DB6903F080532C
:1002AC000193019B054A536823F0E06343F000730C
:1002BC00536002B0704700BF0010024000000140C4
:1002CC00022805D8DFE800F0050402000120704781
:1002DC000220704708B500F52C71D0F8EC0202F042
:1002EC0043FC08BD08B501EB810300EBC303D3F855
:1002FC007C21D0F8EC0202F064FC08BD08B501EBDF
:10030C00810300EBC303DA6BD0F8EC0202F09FFC24
:10031C0008BD08B5D0F8EC0202F040FD08BD10B5E0
:10032C0004468368022B09D10121D4F8EC0202F0B7
:10033C001EFDD4F8EC0202F0F2FC10BDFFF726FF14
:10034C00F2E7000010B50446D0F8EC0202F012FD02
:10035C00A36923B1024A136943F00603136110BD6C
:10036C0000ED00E008B5D0F8EC0202F00CFD08BD81
:10037C0008B594461A466346D0F8C00200F06DFEEC
:10038C00FFF79EFF08BD08B5D0F8C00200F0E2FEF2
:10039C00FFF796FF08BD08B5D0F8C00200F016FFB5
:1003AC00FFF78EFF08BDD0F8C03211F0800F08D1D6
:1003BC0001F07F0101EB810103EBC10393F86A01AA
:1003CC00704701F07F01013101EB810103EBC103A7
:1003DC009878704708B5D0F8C00200F052FDFFF7CE
:1003EC006FFF08BD08B5D0F8C00200F091FEFFF712
:1003FC0067FF08BD08B5D0F8C00200F06CFEFFF72F
:10040C005FFF08BD38B512F4804F44D00468B4F8CF
:10041C0050309BB291F800C003EBCC03023304EBD9
:10042C004304B4F80044C4F309048B69A34228D3F1
:10043C001B1B8B618B697BB9056835F82C309BB223
:10044C0023F4804323F0700383F4005343F40043FC
:10045C0043F0800325F82C3012F0400F0ED00268C8
:10046C000D7832F825309BB223F4E04323F070036F
:10047C0043F4004343F0C00322F8253024B920464E
:10048C0038BD00238B61D5E723460A89496900688A
:10049C0001F038FDF3E70468B4F850309BB291F8E2
:1004AC0000C003EBCC03063304EB4304B4F8004464
:1004BC00C4F309048B69A3422FD31B1B8B618B697B
:1004CC007BB9056835F82C309BB223F4804323F0BC
:1004DC00700383F4005343F4004343F0800325F886
:1004EC002C3012F0400F0FD1026891F800C032F896
:1004FC002C309BB223F4E04323F0700343F400430D
:10050C0043F0C00322F82C30002CB8D023464A8983
:10051C004969006801F0F6FCB1E700238B61CEE776
:10052C0070B505460C46164612F0400F00F00E81D1
:10053C000268B2F850309BB2097803EBC103023366
:10054C0002EB4302B2F80024C2F30902A3699342FE
:10055C004ED99B1AA361A369002B66D16378002B3B
:10056C0049D12B68B3F8502092B2134403EB01131A
:10057C00B3F80424C2F30902A3F80424B3F8042446
:10058C006FEA42426FEA524292B2A3F804242B68FB
:10059C006278002A3CD1B3F8502092B213442278EE
:1005AC0003EB0213B3F80C24C2F30902A3F80C24D6
:1005BC00B3F80C246FEA42426FEA524292B2A3F8AB
:1005CC000C2421782846FFF799FE16F4804F41D071
:1005DC002A68217832F821309BB223F4E04323F0CF
:1005EC00700343F4404343F0800322F8213031E0A0
:1005FC000023A361AFE7012BC9D12B68B3F85020BE
:10060C0092B2134403EB01130022A3F80424BEE7B7
:10061C00012AD6D1B3F8502092B21344227803EBBE
:10062C0002130022A3F80C24CBE716F4804F0DD054
:10063C00286830F821309BB223F4E04323F0700398
:10064C0043F4404343F0800320F8213094F82430E5
:10065C00012B12D02A68217832F821309BB223F476
:10066C00E04323F0400383F0300343F4004343F0B2
:10067C00800322F82130002070BD6369134463614C
:10068C00E3691344E361216A2369994224D3C91AAB
:10069C0021626278002A44D12A68B2F8501089B2DB
:1006AC000A44217802EB0112B2F80414C1F30901D7
:1006BC00A2F804143E2B1BD9580913F01F0F00D1BC
:1006CC000138B2F8041489B2800280B2014341F4BB
:1006DC000041A2F8041426E021B9002384F8243048
:1006EC001346D6E7002384F8243023620B46D0E768
:1006FC004BB9B2F804146FEA41416FEA514189B227
:10070C00A2F804140FE0590813F0010F00D00131C6
:10071C00B2F8040480B2890289B20143A2F804142D
:10072C0001E0012A06D09BB222896169286800F099
:10073C00EFFF8FE72A68B2F8501089B20A4421788B
:10074C0002EB011299B2A2F80414ECE70268B2F8B9
:10075C0050309BB2097803EBC103063302EB430222
:10076C00B2F80024C2F30902A36993424FD39B1A37
:10077C00A361A369002B67D16378002B4AD12B6846
:10078C00B3F8502092B2134403EB0113B3F80424D2
:10079C00C2F30902A3F80424B3F804246FEA42421A
:1007AC006FEA524292B2A3F804242B686278002AB2
:1007BC003DD1B3F8502092B21344227803EB0213CC
:1007CC00B3F80C24C2F30902A3F80C24B3F80C24DC
:1007DC006FEA42426FEA524292B2A3F80C2421789B
:1007EC002846FFF78BFD16F4804F7FF433AF2A6851
:1007FC00217832F821309BB223F4E04323F07003CC
:10080C0043F4404343F0800322F8213022E70023D5
:10081C00A361AEE7012BC8D12B68B3F8502092B27C
:10082C00134403EB01130022A3F80424BDE7012AAF
:10083C00D5D1B3F8502092B21344227803EB0213B3
:10084C000022A3F80C24CAE716F4804F0DD12868B7
:10085C0030F821309BB223F4E04323F0700343F4CF
:10086C00404343F0800320F8213094F82430012BCE
:10087C007FF4F0AE636913446361E3691344E3618D
:10088C00216A2369994224D3C91A21622A686178A2
:10089C00002943D1B2F8501089B20A44217802EBF6
:1008AC000112B2F80C14C1F30901A2F80C143E2B7E
:1008BC001BD9580913F01F0F00D10138B2F80C14D2
:1008CC0089B2800280B2014341F40041A2F80C14B9
:1008DC0026E021B9002384F824301346D6E7002300
:1008EC00236284F824300B46D0E74BB9B2F80C14D1
:1008FC006FEA41416FEA514189B2A2F80C140FE042
:10090C00590813F0010F00D00131B2F80C0480B279
:10091C00890289B20143A2F80C1401E0012906D026
:10092C009BB262896169286800F0F2FE92E6B2F827
:10093C00501089B20A44217802EB011299B2A2F844
:10094C000C14EDE72DE9F04105462868B0F8443069
:10095C0013F4004F00F09282B0F84440A3B214F0AC
:10096C000F0440F0E28013F0100F6BD003889AB2A2
:10097C0013F4006F40F09D8012F4004FE5D0038813
:10098C0023F070031B051B0D43F0800303802868C4
:10099C00B0F850309BB295F8682103EBC2030633D4
:1009AC0000EB4303B3F80034C3F30903C5F88431F7
:1009BC008BB1D5F87C1171B1B5F86E2101F0A2FAAA
:1009CC00D5F87C31D5F884211344C5F87C3100214D
:1009DC002846FFF787FC2A68138899B213F4006F36
:1009EC00B3D101F44051B1F5405FAED0B2F8503004
:1009FC009BB21A44B2F80C34C3F30903A2F80C34BA
:100A0C00D5F878313E2B77D9590913F01F0F00D147
:100A1C000139B2F80C349BB2890289B20B4343F40E
:100A2C000043A2F80C342A6813889BB223F4804349
:100A3C0023F0700383F4405343F4004343F08003EA
:100A4C00138082E703889BB223F4E14323F0700305
:100A5C006FEA43436FEA53439BB203802A68B2F8B0
:100A6C0050309BB295F8281003EBC103023302EB14
:100A7C004302B2F80034C3F309036B64EA6B1A4403
:100A8C00EA6300212846FFF739FC95F82430002B47
:100A9C003FF45BAF2B6C002B7FF457AF95F82430F1
:100AAC002A6843F08003A2F84C30002385F82430E8
:100ABC004BE7B0F850309BB295F8682103EBC203BA
:100ACC00063300EB4303B3F80034C3F30903C5F852
:100ADC008431B5F86E2105F52C7101F013FA2A68F2
:100AEC00138823F070031B051B0D43F08003138048
:100AFC002846FFF7EFFB28E74BB9B2F80C346FEA46
:100B0C0043436FEA53439BB2A2F80C348BE759086A
:100B1C0013F0010F00D00131B2F80C3498B28B02F3
:100B2C009BB20343A2F80C347DE730F824309EB21C
:100B3C0013F4004F4CD116F0800F3FF406AF621C3B
:100B4C0002EB820105EBC101286830F824309BB21E
:100B5C0023F4E14323F070036FEA43436FEA5343FA
:100B6C009BB220F82430CB78012B00F0F28016F4E5
:100B7C00807F40F07E812868B0F850309BB2621CB8
:100B8C0002EB820215F8326003EBC603023300EB72
:100B9C004303B3F80034C3F3090304EB840205EBFD
:100BAC00C202126C9A4240F24C8104EB840705EBB2
:100BBC00C707D21A3A6404EB840205EBC202126C2A
:100BCC00002A40F0458131462846FFF797FBBCE6EA
:100BDC0030F8243023F070031B051B0D43F0800309
:100BEC0020F8243004EB8401C90001F5B47105EB45
:100BFC00010804EB840305EBC30393F87431002B59
:100C0C0042D12868B0F850309BB204EB840205EB5B
:100C1C00C20292F8682103EBC203063300EB4303D4
:100C2C00B3F80074C7F3090717BB04EB840305EB97
:100C3C00C303D3F884213A44C3F88421D3F87C212C
:100C4C003A44C3F87C21D3F880313BB104EB8403E4
:100C5C0005EBC303D3F878319F4275D204EB8403C0
:100C6C0005EBC30393F868112846FFF73BFB62E7DB
:100C7C0004EB840105EBC1013B46B1F86E21D1F8C0
:100C8C007C1101F03FF9D0E704EB840305EBC303BF
:100C9C0093F86B31022B35D0296804EB840205EBF9
:100CAC00C20292F8680131F820309BB223F4E04381
:100CBC0023F0700343F4004343F0C00321F82030C9
:100CCC00286892F8682130F8223013F4804F20D035
:100CDC00B0F850309BB203EBC203023300EB43037A
:100CEC00B3F80074C7F30907002F9ED004EB8401FE
:100CFC0005EBC1013B46B1F87021D1F87C1101F034
:100D0C0001F992E7324641462846FFF77BFB07463E
:100D1C008BE7B0F850309BB203EBC203063300EB09
:100D2C004303B3F80074C7F30907002F3FF47DAFFA
:100D3C0004EB840105EBC1013B46B1F87221D1F8FB
:100D4C007C1101F0DFF870E74146286800F0F3FCF5
:100D5C00F1E604EB840305EBC30300221A6493F859
:100D6C003430FBB116F0400F37D04B781BBB2B68DF
:100D7C00B3F8502092B21344621C02EB820215F8B5
:100D8C00322003EB0213B3F80424C2F30902A3F8D4
:100D9C000424B3F804246FEA42426FEA524292B23E
:100DAC00A3F80424013404EB840415F83410284609
:100DBC00FFF7A4FAC9E5012BF4D12B68B3F8502046
:100DCC0092B21344621C02EB820215F8322003EB40
:100DDC0002130022A3F80424E4E72A68631C03EB43
:100DEC00830305EBC3035B78D3B9B2F850309BB2E5
:100DFC001344621C02EB820215F8322003EB02133F
:100E0C00B3F80C24C2F30902A3F80C24B3F80C2495
:100E1C006FEA42426FEA524292B2A3F80C24C1E745
:100E2C00012BBFD1B2F850309BB21344621C02EBC1
:100E3C00820215F8322003EB02130022A3F80C24D3
:100E4C00B0E704EB840205EBC20200271764B2E69C
:100E5C0004EB840205EBC202D66B1E44D663526CC3
:100E6C0004EB840405EBC4041344636400F063FCDA
:100E7C006BE532462846FFF753FB66E50020BDE8DC
:100E8C00F08190F8A832012B0DD010B50446012347
:100E9C0080F8A83280F82410006800F02DFC0020A7
:100EAC0084F8A80210BD0220704710B584B0044627
:100EBC00006800F027FC10F4004F20D110F4806F74
:100ECC0021D110F4804F2FD110F4005F37D110F4E2
:100EDC00805F3ED110F4006F40F0878010F4007FEB
:100EEC0040F0AE8010F4807F27D02268B2F84430F6
:100EFC009BB223F480739BB2A2F844301DE02046D1
:100F0C00FFF720FD19E02268B2F844309BB223F4BD
:100F1C0080639BB2A2F844302046FFF700FA002110
:100F2C002046FFF7AEFF08E02268B2F844309BB2CF
:100F3C0023F480439BB2A2F8443004B010BD226865
:100F4C00B2F844309BB223F400539BB2A2F8443065
:100F5C00F3E72268B2F840309BB223F004039BB253
:100F6C00A2F840302268B2F840309BB223F008035C
:100F7C009BB2A2F840302046FFF7F4F92268B2F891
:100F8C0044309BB223F480539BB2A2F84430D4E794
:100F9C00226832F8231004AA02EB430222F8101C38
:100FAC000133DBB2072BF3D92268B2F840309BB285
:100FBC0043F00103A2F840302268B2F840309BB2F3
:100FCC0023F001039BB2A2F840302368B3F844200D
:100FDC0012F4806FF9D0B3F8442092B222F48062FC
:100FEC0092B2A3F8442000230BE00023DAE7226836
:100FFC0004A901EB430131F8101C22F82310013332
:10100C00DBB2072BF3D92268B2F840309BB243F025
:10101C000803A2F840302268B2F844309BB223F4A3
:10102C0000639BB2A2F844302268B2F840309BB205
:10103C0043F00403A2F840302046FFF783F97CE725
:10104C002268B2F844309BB223F400739BB2A2F82E
:10105C0044302046FFF75DF96FE710B504460846AB
:10106C0011F0800F25D101F0070C0CEB8C01C9009D
:10107C0001F5B47E04EB0E010CEB8C0C04EBCC0CE8
:10108C004FF0000E8CF869E100F0070008700A615F
:10109C00CB70022B1AD094F8A832012B19D0012353
:1010AC0084F8A832206800F0CCF8002084F8A8025C
:1010BC0010BD01F0070C0CF1010C0CEB8C0104EBD6
:1010CC00C1014FF0010E81F801E0DDE700230B7147
:1010DC00E1E70220ECE710B501F0070C0CEB8C01FA
:1010EC00C90001F5B4710CEB8C0E00EBCE0ECEF8F2
:1010FC007C21CEF880310024CEF884418EF86941F1
:10110C008EF868C10144006800F015FB204610BD44
:10111C0038B501F0070404F1010C0CEB8C0104EB65
:10112C00840E00EBCE0ECEF83C20CEF840300122DF
:10113C008EF84C20CEF848300025CEF8445000EB09
:10114C00C1035A7000F831401946006800F0F3FAF8
:10115C00284638BD38B501F007054268954231D8AC
:10116C0004460B4611F0800F1ED101EB8101C90022
:10117C0001F5B471014403EB830300EBC3030022BC
:10118C0083F8692101238B700D7094F8A832012B20
:10119C001AD0012384F8A832206800F037FA5DB128
:1011AC00002084F8A80238BD6B1C03EB830100EB14
:1011BC00C10101224A70E5E704F52C71206800F0AA
:1011CC00A5FAEDE70120EEE70220ECE70B4601F073
:1011DC000F014268914230D810B5044613F0800FCD
:1011EC0021D103F0070202EB8201C90001F5B471B1
:1011FC00014402EB820200EBC202002082F869017A
:10120C0000228A7003F007030B7094F8A832012BAC
:10121C0015D0012384F8A832206800F01CFA0020B5
:10122C0084F8A80210BD03F00702013202EB820120
:10123C0000EBC10101204870E2E701207047022059
:10124C00F0E710B5034691F800C030F82C2092B2AC
:10125C0022F4EC4222F0700292B2C878032861D8D2
:10126C00DFE800F0555C0258002048F2800E42EA9C
:10127C000E0223F82C2091F800C033F82C2092B2E7
:10128C0022F4E04222F0700242EA0C0242EA0E0220
:10129C0023F82C200A7B002A40F0DC804A78002AB4
:1012AC0051D0B3F8502092B21A440C7802EB0412CD
:1012BC00B1F806C04FEA5C0C4FEA4C0CA2F800C423
:1012CC000C7833F8242012F0400F0CD033F8242083
:1012DC0092B222F4E04222F0700242F4004242F058
:1012EC00C00223F82420CA78012A1DD0097833F8CB
:1012FC00212092B222F4E04222F0400282F020023D
:10130C0042F4004242F0800223F8212017E142F41B
:10131C000072AAE742F4C0620020A6E742F48062A1
:10132C000020A2E70120A0E7097833F8212092B22F
:10133C0022F4E04222F0400242F4004242F08002E9
:10134C0023F82120FBE0B3F8502092B21A440C7819
:10135C0002EB0412B1F806C04FEA5C0C4FEA4C0CDD
:10136C00A2F808C4B3F8502092B21A440C7802EBDD
:10137C000412B2F80CC4CCF3090CA2F80CC40C691E
:10138C003E2C39D94FEA541E14F01F0F01D10EF127
:10139C00FF3EB2F80CC41FFA8CFC4FEA8E2E1FFADB
:1013AC008EFE4CEA0E0C4CF4004CA2F80CC40C78DB
:1013BC0033F8242012F4804F0CD033F8242092B24E
:1013CC0022F4E04222F0700242F4404242F08002E9
:1013DC0023F82420097869BB33F8212092B222F437
:1013EC00804222F0700282F4405242F4004242F0F9
:1013FC00800223F82120A2E04CB9B2F80C446FEA29
:10140C0044446FEA5444A4B2A2F80C44CFE74FEA28
:10141C00540C14F0010F01D00CF1010CB2F80C4477
:10142C00A4B24FEA8C2C1FFA8CFC44EA0C04A2F8F0
:10143C000C44BCE733F8212092B222F4804222F013
:10144C00700282F4005242F4004242F0800223F80F
:10145C00212074E0CA78022A72D00C7833F8242048
:10146C0092B222F4E24222F0700242F4004242F0C4
:10147C00800223F82420B3F8502092B21A4491F839
:10148C0000C002EB0C12B1F808C04FEA5C0C4FEA3A
:10149C004C0CA2F800C4B3F8502092B21A4491F844
:1014AC0000C002EB0C12B1F80AC04FEA5C0C4FEA18
:1014BC004C0CA2F808C44A78002A50D10C7833F8A6
:1014CC00242012F4804F0CD033F8242092B222F452
:1014DC00E04222F0700242F4404242F0800223F8D3
:1014EC0024200C7833F8242012F0400F0CD033F861
:1014FC00242092B222F4E04222F0700242F4004224
:10150C0042F0C00223F8242091F800C033F82C20BC
:10151C0092B222F4804222F0700282F4405248F2DD
:10152C008004224323F82C20097833F8212092B22E
:10153C0022F4E04222F04002224323F8212010BD85
:10154C000C7833F8242092B222F4E04222F070029C
:10155C0042F4014242F0800223F824208BE70C78FD
:10156C0033F8242012F4804F0CD033F8242092B29C
:10157C0022F4E04222F0700242F4404242F0800237
:10158C0023F824200C7833F8242012F0400F0CD0D0
:10159C0033F8242092B222F4E04222F0700242F49A
:1015AC00004242F0C00223F82420CA78012A1ED03F
:1015BC000C7833F8242092B222F4E04222F040025C
:1015CC0082F0200242F4004242F0800223F82420F0
:1015DC00097833F8212092B222F4804222F0700272
:1015EC0042F4004242F0800223F82120A7E70C7855
:1015FC0033F8242092B222F4E04222F0400242F46A
:10160C00004242F0800223F82420E1E74B788BB1B2
:10161C000A7830F822309BB223F4E04323F04003E5
:10162C0083F0100343F4004343F0800320F822308E
:10163C00002070470A7830F822309BB223F48043A4
:10164C0023F0700383F4805343F4004343F080038E
:10165C0020F82230ECE70B7B002B4BD14B7833B3CB
:10166C000A7830F8223013F0400F0CD030F82230CA
:10167C009BB223F4E04323F0700343F4004343F0A4
:10168C00C00320F82230CB78012B33D00A7830F805
:10169C0022309BB223F4E04323F0400383F0200379
:1016AC0043F4004343F0800320F8223022E00A7810
:1016BC0030F8223013F4804F0CD030F822309BB22B
:1016CC0023F4E04323F0700343F4404343F08003DE
:1016DC0020F822300A7830F822309BB223F4804371
:1016EC0023F0700383F4405343F4004343F080032E
:1016FC0020F822300020704711B98023A0F84C301C
:10170C0000207047B0F8440080B27047002070474A
:10171C0001335B0800EB420000F5806008E00A78BA
:10172C0091F801C042EA0C2220F8042B0231013B53
:10173C00002BF4D1704770B505460C464A78012A47
:10174C003BD00B7B002B40F0A6828B690A6993423D
:10175C0040F284829B1A8B61B5F850309BB22B44BB
:10176C00217803EB0113B3F80C14C1F30901A3F8AE
:10177C000C143E2A40F27682510912F01F0F00D150
:10178C000139B3F80C2492B2890289B20A4342F4AB
:10179C000042A3F80C24227835F822309BB223F4B3
:1017AC00804323F0700383F4405343F4004343F02D
:1017BC00800325F82230002070BD8E6909698E42A5
:1017CC0000D90E46237B73B3E378022B4DD0236AEA
:1017DC009B1B2362217835F8213013F0400F00F069
:1017EC00F581002A40F0E281B5F850309BB22B44D1
:1017FC0003EB0113B3F80C24C2F30902A3F80C2475
:10180C003E2E40F2BA81710916F01F0F00D101393A
:10181C00B3F80C2492B2890289B20A4342F4004212
:10182C00A3F80C24CBE1B6B23346E28861692846B2
:10183C00FFF76EFFB5F850309BB22B44227803EBC8
:10184C000213A3F80464227835F822309BB223F4F7
:10185C00E04323F0400383F0300343F4004343F0B0
:10186C00800325F822300020A6E7236A994280F0F5
:10187C006681227835F822309BB223F4E04323F0C2
:10188C00700343F4014343F0800325F82230236AAC
:10189C009B1B2362227835F8223013F0400F00F0A6
:1018AC00A7806378B3BBB5F850309BB22B4403EBE5
:1018BC000213B3F80C24C2F30902A3F80C243E2E35
:1018CC000FD9710916F01F0F00D10139B3F80C2490
:1018DC0092B2890289B20A4342F40042A3F80C2462
:1018EC001AE04EB9B3F80C246FEA42426FEA524246
:1018FC0092B2A3F80C240FE0720816F0010F00D07E
:10190C000132B3F80C1489B2920292B20A43A3F8D2
:10191C000C2401E0012B30D0B3B2628961692846F6
:10192C00FFF7F6FE636933446361236A22699342CD
:10193C002DD99B1B23626378002B45D1B5F8503011
:10194C009BB22B44227803EB0213B3F80424C2F3AA
:10195C000902A3F804243E2E1DD9710916F01F0F9D
:10196C0000D10139B3F8042492B2890289B20A4336
:10197C0042F40042A3F8042428E0B5F850309BB29E
:10198C002B4403EB0213B2B2A3F80C24C4E70022DD
:10199C0022621E46CFE74EB9B3F804246FEA4242E6
:1019AC006FEA524292B2A3F804240FE0720816F0C8
:1019BC00010F00D00132B3F8041489B2920292B232
:1019CC000A43A3F8042401E0012B06D0B3B2228908
:1019DC0061692846FFF79CFE35E7B5F850309BB29D
:1019EC002B44227803EB0213B2B2A3F80424EDE7E4
:1019FC006378B3BBB5F850309BB22B4403EB0213A6
:101A0C00B3F80424C2F30902A3F804243E2E0FD920
:101A1C00710916F01F0F00D10139B3F8042492B2EA
:101A2C00890289B20A4342F40042A3F804241AE062
:101A3C004EB9B3F804246FEA42426FEA524292B2B2
:101A4C00A3F804240FE0720816F0010F00D0013245
:101A5C00B3F8041489B2920292B20A43A3F8042494
:101A6C0001E0012B30D0B3B2228961692846FFF71F
:101A7C004FFE636933446361236A226993422DD913
:101A8C009B1B23626378002B45D1B5F850309BB279
:101A9C002B44227803EB0213B3F80C24C2F3090293
:101AAC00A3F80C243E2E1DD9710916F01F0F00D17E
:101ABC000139B3F80C2492B2890289B20A4342F478
:101ACC000042A3F80C2428E0B5F850309BB22B440C
:101ADC0003EB0213B2B2A3F80424C4E7002222627F
:101AEC001E46CFE74EB9B3F80C246FEA42426FEAB8
:101AFC00524292B2A3F80C240FE0720816F0010FB8
:101B0C0000D00132B3F80C1489B2920292B20A439B
:101B1C00A3F80C2401E0012B06D0B3B262896169F1
:101B2C002846FFF7F5FD8EE6B5F850309BB22B44F6
:101B3C00227803EB0213B2B2A3F80C24EDE7217860
:101B4C0035F8212092B222F4E24222F0700242F4E3
:101B5C00004242F0800225F82120B5F8502092B2C4
:101B6C002A44217802EB01129BB2A2F80434228998
:101B7C0061692846FFF7CCFD65E64EB9B3F80C2435
:101B8C006FEA42426FEA524292B2A3F80C2416E07A
:101B9C00720816F0010F00D00132B3F80C1489B2A0
:101BAC00920292B20A43A3F80C2408E0B5F8503024
:101BBC009BB22B4403EB0113B2B2A3F80C24B3B2C7
:101BCC00628961692846FFF7A3FD3CE6B2BBB5F814
:101BDC0050309BB22B4403EB0113B3F80424C2F333
:101BEC000902A3F804243E2E0FD9710916F01F0F19
:101BFC0000D10139B3F8042492B2890289B20A43A4
:101C0C0042F40042A3F8042421E04EB9B3F80424B2
:101C1C006FEA42426FEA524292B2A3F8042416E0F1
:101C2C00720816F0010F00D00132B3F8041489B217
:101C3C00920292B20A43A3F8042408E0B5F850309B
:101C4C009BB22B4403EB0113B2B2A3F80424B3B23E
:101C5C00228961692846FFF75BFDF4E500228A6161
:101C6C001A4679E54AB9B3F80C246FEA42426FEA96
:101C7C00524292B2A3F80C248DE5510812F0010FD8
:101C8C0000D00131B3F80C2492B2890289B20A4314
:101C9C00A3F80C247FE5CB78022B4DD0012B40F020
:101CAC002F8189692369994240F2E680C91AA161A2
:101CBC00F2B9B5F8502092B22A44217802EB011205
:101CCC00B2F80414C1F30901A2F804143E2B40F23B
:101CDC00D780580913F01F0F00D10138B2F8041443
:101CEC0089B2800280B2014341F40041A2F804148D
:101CFC006278002A40F0F680B5F8502092B22A445F
:101D0C00217802EB0112B2F80C14C1F30901A2F80C
:101D1C000C143E2B40F2CD80590913F01F0F00D14B
:101D2C000139B2F80C349BB2890289B20B4343F4EB
:101D3C000043A2F80C342EE5F2B9B0F850309BB247
:101D4C0003440A7803EB0213B3F80424C2F3090228
:101D5C00A3F804240A693E2A31D9510912F01F0F45
:101D6C0000D10139B3F8042492B2890289B20A4332
:101D7C0042F40042A3F804246378002B51D1B5F847
:101D8C0050309BB22B44227803EB0213B3F80C2493
:101D9C00C2F30902A3F80C2422693E2A28D951095E
:101DAC0012F01F0F00D10139B3F80C2492B2890242
:101DBC0089B20A4342F40042A3F80C2433E04AB936
:101DCC00B3F804246FEA42426FEA524292B2A3F88B
:101DDC000424D1E7510812F0010F00D00131B3F8FF
:101DEC00042490B28A0292B20243A3F80424C3E7FB
:101DFC004AB9B3F80C246FEA42426FEA524292B2EB
:101E0C00A3F80C240FE0510812F0010F00D001319F
:101E1C00B3F80C2490B28A0292B20243A3F80C24B9
:101E2C0001E0012B1DD0E369002B3FF4B4AC227808
:101E3C0035F8221044F2400303EA01008B4302D030
:101E4C0000287FF4A8AC35F822309BB223F4E04391
:101E5C0023F0700343F4004343F0C00325F8223011
:101E6C0099E4B5F850309BB22B44227803EB021363
:101E7C00228AA3F80C24D6E70023A3610B4617E7AC
:101E8C004BB9B2F804146FEA41416FEA514189B27F
:101E9C00A2F804142CE7590813F0010F00D00131FB
:101EAC00B2F8040480B2890289B20143A2F8041486
:101EBC001EE74BB9B2F80C346FEA43436FEA534355
:101ECC009BB2A2F80C3466E4590813F0010F00D051
:101EDC000131B2F80C3498B28B029BB20343A2F8D6
:101EEC000C3458E4012A7FF456ACB5F8502092B269
:101EFC002A44217802EB01129BB2A2F80C344AE47A
:101F0C00012059E410B45C0800EB420000F580603D
:101F1C0007E030F8042B0A70C2F307224A70023132
:101F2C00013C002CF5D113F0010F01D003880B708C
:101F3C0010BC704710B504460E4B1A784FF47A73E8
:101F4C00B3FBF2F30C4A1068B0FBF3F000F06AFD3F
:101F5C0068B90F2C01D901200AE0002221464FF06C
:101F6C00FF3000F04FFD054B1C60002000E001200D
:101F7C0010BD00BF0000002008000020040000205D
:101F8C0008B5074A136843F010031360032000F0F0
:101F9C0027FD0F20FFF7CEFFFEF770F9002008BDDC
:101FAC0000200240034A1168034B1B780B4413605A
:101FBC00704700BF1803002000000020014B186878
:101FCC00704700BF1803002038B50446FFF7F6FF32
:101FDC000546B4F1FF3F02D0044B1B781C44FFF7BD
:101FEC00EDFF401BA042FAD338BD00BF000000201B
:101FFC0082B0084B1B68084AA2FB03235B0A00FB58
:10200C0003F3019300BF019B5A1E0192002BF9D1DF
:10201C0002B0704708000020D34D6210002800F079
:10202C00F18170B582B00446036813F0010F2CD017
:10203C00994B5B6803F00C03042B1DD0964B5B682B
:10204C0003F00C03082B12D06368B3F5803F41D02A
:10205C00002B55D103F1804303F504331A6822F4A5
:10206C0080321A601A6822F480221A6037E08A4B98
:10207C005B6813F4803FE7D0874B1B6813F4003F79
:10208C0003D06368002B00F0BF81236813F0020FAC
:10209C0075D0814B5B6813F00C0F5FD07E4B5B6887
:1020AC0003F00C03082B54D02369002B00F08A801A
:1020BC007A4B01221A60FFF781FF0546764B1B68AD
:1020CC0013F0020F75D1FFF779FF401B0228F5D9E9
:1020DC0003209EE1704A136843F4803313606368F5
:1020EC0043B3FFF76BFF05466B4B1B6813F4003FC4
:1020FC00CBD1FFF763FF401B6428F5D9032088E19F
:10210C00B3F5A02F09D0644B1A6822F480321A6000
:10211C001A6822F480221A60E1E703F18043A3F5E8
:10212C003C331A6842F480221A601A6842F48032F6
:10213C001A60D4E7FFF742FF0546574B1B6813F4B0
:10214C00003FA2D0FFF73AFF401B6428F5D90320CB
:10215C005FE1514B5B6813F4803FA5D14E4B1B687C
:10216C0013F0020F03D02369012B40F04F814A4A30
:10217C00136823F0F803616943EAC1031360236811
:10218C0013F0080F33D0A369002B5CD0434B012212
:10219C00C3F88024FFF712FF05463F4B5B6A13F030
:1021AC00020F21D1FFF70AFF401B0228F5D90320AB
:1021BC002FE1394A136823F0F803616943EAC1033C
:1021CC001360DCE7354B00221A60FFF7F7FE05467B
:1021DC00314B1B6813F0020FD1D0FFF7EFFE401B01
:1021EC000228F5D9032014E10120FFF701FF236831
:1021FC0013F0040F00F09680274BDB6913F0805F1F
:10220C0034D1254BDA6942F08052DA61DB6903F094
:10221C0080530193019B0125214B1B6813F4807F94
:10222C0026D0E368012B3DD0002B53D103F1804322
:10223C0003F504331A6A22F001021A621A6A22F0B8
:10224C0004021A6233E0154B0022C3F88024FFF716
:10225C00B5FE0546104B5B6A13F0020FC7D0FFF7B3
:10226C00ADFE401B0228F5D90320D2E00025D3E7B0
:10227C000B4A136843F480731360FFF79FFE064606
:10228C00074B1B6813F4807FCBD1FFF797FE801BA5
:10229C006428F5D90320BCE0001002400000424243
:1022AC00007000405F4A136A43F001031362E36855
:1022BC0033B3FFF783FE06465A4B1B6A13F0020F2B
:1022CC002FD1FFF77BFE801B41F288339842F3D964
:1022DC0003209EE0052B09D0524B1A6A22F0010212
:1022EC001A621A6A22F004021A62E0E74D4B1A6A6B
:1022FC0042F004021A621A6A42F001021A62D6E72C
:10230C00FFF75CFE0646474B1B6A13F0020F08D022
:10231C00FFF754FE801B41F288339842F3D9032017
:10232C0077E0E5B9E369002B72D03E4A526802F0BF
:10233C000C02082A56D0022B17D03B4B00221A66EF
:10234C00FFF73CFE0446374B1B6813F0007F47D069
:10235C00FFF734FE001B0228F5D9032059E0314A5F
:10236C00D36923F08053D361DCE72F4B00221A662C
:10237C00FFF724FE05462B4B1B6813F0007F06D09D
:10238C00FFF71CFE401B0228F5D9032041E0236A0D
:10239C00B3F5803F1AD023494B6823F47413226A97
:1023AC00606A024313434B601F4B01221A66FFF70E
:1023BC0005FE04461B4B1B6813F0007F0ED1FFF784
:1023CC00FDFD001B0228F5D9032022E0154A5368B5
:1023DC0023F40033A1680B435360DCE7002018E0C2
:1023EC00002016E0012B16D00E4B5B6803F48031F5
:1023FC00226A914211D103F47013626A93420ED196
:10240C00002006E001207047012002E0012000E0DE
:10241C00002002B070BD0120FBE70120F9E701208C
:10242C00F7E700BF00100240000042420F4B5B6810
:10243C0003F00C02082A01D00D487047C3F3834205
:10244C000C49885C13F4803F0BD0084B5B68C3F3DA
:10245C004043094AD35C064A02FB00F0B0FBF3F0A0
:10246C007047064B03FB00F0704700BF00100240A2
:10247C0000127A00703600086C36000800093D0026
:10248C00002800F0A08070B50D460446524B1B6826
:10249C0003F007038B420BD24F4A136823F0070358
:1024AC000B431360136803F007038B4240F08D80DD
:1024BC00236813F0020F17D013F0040F04D0474A0F
:1024CC00536843F4E0635360236813F0080F04D09F
:1024DC00424A536843F460535360404A536823F0B4
:1024EC00F003A1680B435360236813F0010F31D044
:1024FC006368012B20D0022B25D0384A126812F0C9
:10250C00020F64D035494A6822F0030213434B6032
:10251C00FFF754FD0646314B5B6803F00C03626811
:10252C00B3EB820F16D0FFF749FD801B41F28833C5
:10253C009842F0D9032045E0284A126812F4003F73
:10254C00E0D101203EE0254A126812F0007FD9D17B
:10255C00012037E0204B1B6803F00703AB420AD97C
:10256C001D4A136823F007032B431360136803F011
:10257C000703AB422DD1236813F0040F06D0174A82
:10258C00536823F4E063E1680B435360236813F052
:10259C00080F07D0114A536823F46053216943EAAA
:1025AC00C1035360FFF742FF0C4B5B68C3F303138B
:1025BC000B4AD35CD8400B4B18600B4B1868FFF7D9
:1025CC00B9FC002070BD012070470120FAE7012002
:1025DC00F8E70120F6E700BF00200240001002409F
:1025EC00883600080800002004000020014B186801
:1025FC00704700BF0800002008B5FFF7F7FF044B39
:10260C005B68C3F30223034AD35CD84008BD00BF08
:10261C00001002408036000808B5FFF7E7FF044BB6
:10262C005B68C3F3C223034AD35CD84008BD00BF28
:10263C00001002408036000870B582B00446036872
:10264C0013F0010F36D03F4BDB6913F0805F49D19B
:10265C003C4BDA6942F08052DA61DB6903F080535B
:10266C000193019B0125384B1B6813F4807F3BD0F1
:10267C00344B1B6A13F4407313D0626802F440723B
:10268C009A420ED02F4A136A23F440702F49012628
:10269C00C1F840640026C1F84064106213F0010FC9
:1026AC0036D1284A136A23F4407361680B431362D2
:1026BC00002D3ED1236813F0020F06D0214A536837
:1026CC0023F44043A1680B435360236813F0100FAD
:1026DC0034D01C4A536823F48003E1680B435360E5
:1026EC0000202CE00025BEE7174A136843F48073E2
:1026FC001360FFF763FC0646134B1B6813F4807FD3
:10270C00B6D1FFF75BFC801B6428F5D9032016E0DB
:10271C00FFF754FC06460B4B1B6A13F0020FC0D19B
:10272C00FFF74CFC801B41F288339842F3D903200D
:10273C0005E0D36923F08053D361BBE7002002B0DE
:10274C0070BD00BF0010024000700040000042420B
:10275C0070B582B00024A446A2E07E4DAB4210D0EE
:10276C0007D97D4DAB420CD005F58035AB4208D076
:10277C0013E0A5F58015AB4203D005F57025AB42EF
:10278C0007D18B68002B55D0012B4ED04261082409
:10279C0003E0A5F58015AB42F3D0BEF1FF0F4BD88B
:1027AC0006464FEA8C0233680F25954023EA050351
:1027BC0004FA02F2134333604B6813F0805F6DD060
:1027CC00664B9A6942F001029A619B6903F001031E
:1027DC000193019B4FEA9C02951C614B53F82560B9
:1027EC000CF00305AD000F23AB4026EA03065D4B4E
:1027FC00984228D003F58063984200F08D8003F551
:10280C008063984200F08A8003F58063984218D068
:10281C00042319E0CC68C0E7CC680434BDE7CC686D
:10282C000834BAE7CC680C34B7E702610824B4E783
:10283C000024B2E70424B0E7061DACF108029200B4
:10284C00B1E7032300E00023AB4033430232444D95
:10285C0045F822304B6813F4801F61D0424A9368CC
:10286C0043EA0E0393604B6813F4001F5ED03E4A9C
:10287C00D36843EA0E03D3604B6813F4003F5BD07C
:10288C00394A536843EA0E0353604B6813F4803F94
:10289C0058D0354A136843EA0E0313600CF1010C4F
:1028AC000B6833FA0CF253D0012202FA0CF203EA51
:1028BC00020E32EA0303F1D14B68122B3FF64DAFF7
:1028CC00122B3FF66AAF01A555F823F08F270008AD
:1028DC00212800082B2800083D280008A7270008FD
:1028EC00A7270008A7270008A7270008A727000884
:1028FC00A7270008A7270008A7270008A727000874
:10290C00A7270008A7270008A7270008A727000863
:10291C002528000831280008012395E7022393E7B6
:10292C00114A936823EA0E0393609CE70E4AD3681E
:10293C0023EA0E03D3609FE70B4A536823EA0E0386
:10294C005360A2E7084A136823EA0E031360A5E755
:10295C0002B070BD000022100000311000100240C7
:10296C000000014000080140000401400AB101616F
:10297C007047090401617047002808DB0901C9B2DE
:10298C0000F1604000F5614080F80013704700F0E2
:10299C000F000901C9B2014B1954704714ED00E046
:1029AC0000B500F00700C0F1070CBCF1040F28BF04
:1029BC004FF0040C031D062B0FD9C31E4FF0FF3E26
:1029CC000EFA0CF021EA000199400EFA03FE22EAFD
:1029DC000E0241EA02005DF804FB0023EEE7000062
:1029EC00074AD36823F4E0631B041B0C000200F4B9
:1029FC00E060034343F0BF6343F40033D36070479C
:102A0C0000ED00E010B50446054BD868C0F3022079
:102A1C00FFF7C6FF01462046FFF7AEFF10BD00BF13
:102A2C0000ED00E00138B0F1807F0BD24FF0E023D5
:102A3C005861054AF02182F8231000209861072282
:102A4C001A6170470120704700ED00E010B5044694
:102A5C000268136923F44053C1680B431361836804
:102A6C000269134342691A430168CB6823F4B053DB
:102A7C0023F00C031343CB600268536923F44073B7
:102A8C0081690B4353610268134B9A4220D0FFF7C4
:102A9C00B3FD024602EB820202EB820263689B00EA
:102AAC00B2FBF3F20D48A0FB02314909642303FB8E
:102ABC0011231B013233A0FB03035B0903F0F0026B
:102ACC0002EB011203F00F03216813448B6010BD5D
:102ADC00FFF7A2FD0246DDE7003801401F85EB51F0
:102AEC0060B310B5044690F8413013B3242384F836
:102AFC0041302268D36823F40053D3602046FFF79B
:102B0C00A5FF2268136923F490431361226853696B
:102B1C0023F02A0353612268D36843F40053D36033
:102B2C0000206064202384F8413084F842306063D4
:102B3C0010BD80F8403000F0EDFCD7E70120704765
:102B4C00704708B5D0F8B4322BB11B68984700B960
:102B5C0008BD0220FCE70220FAE708B5D0F8B43231
:102B6C005B689847002008BD38B5044600F52A7507
:102B7C00284600F02BF90123C4F89432B4F8AE3295
:102B8C00C4F8983294F8A81201F01F03012B0ED050
:102B9C00022B11D02BB101F080012046FDF7F3FB85
:102BAC0003E02946204600F0C7FA002038BD29462C
:102BBC00204600F0F5FAF8E72946204600F020FB05
:102BCC00F3E738B504460D4691BB1346D0F8942272
:102BDC00032A03D0052A24D0084633E0D0F860112C
:102BEC00D0F8642191420DD9891AC0F860118A423B
:102BFC0006D98AB21946204600F008FC284621E086
:102C0C0092B2F7E7D0F8B4321B691BB190F89C2252
:102C1C00032A04D0204600F001FC284612E0984715
:102C2C00F8E70021C0F89412FDF7ADFB284609E047
:102C3C00D0F8B4329B6933B190F89C22032A04D1AA
:102C4C009847002038BD0220FCE70220FAE738B58F
:102C5C0004460D46002953D11346D0F89422022A7B
:102C6C000CD0042A00D01AB980212046FDF78BFB2A
:102C7C0094F8A032012B3ED0284638BD026A416A36
:102C8C008A421BD8C269B2FBF1F301FB13232BB9A7
:102C9C00914203D8D0F898329A421CD3D4F8B4326B
:102CAC00DB681BB194F89C22032A21D0802120469A
:102CBC00FDF769FB204600F0BCFBD9E7521A026213
:102CCC0092B2194600F09AFB00231A461946204688
:102CDC00FDF790FBCCE70022114600F08FFB0021A2
:102CEC00C4F898120B460A462046FDF783FBBFE753
:102CFC0020469847DAE7002384F8A0322846BCE740
:102D0C00D0F8B4325B6933B190F89C22032A04D119
:102D1C0098470020B1E70220AFE70220ADE770B57D
:102D2C000446402300221146FDF722FB0125C4F87E
:102D3C0058514026C4F86461334600228021204655
:102D4C00FDF716FBA561666284F89C520023C4F85B
:102D5C0094326360C4F8A432D4F8B8322BB1D4F8EE
:102D6C00B4325B68002120469847002070BD017486
:102D7C000020704790F89C3280F89D32042380F834
:102D8C009C320020704790F89C32042B01D000201C
:102D9C00704790F89D3280F89C32F8E708B590F8AF
:102DAC009C32032B01D0002008BDD0F8B432DB6973
:102DBC00002BF8D09847F6E708B54B88012B00D0CC
:102DCC0008BDC0F8A43200F029FBF9E70B780370BA
:102DDC004B7843708B78CA7803EB022343800B79D2
:102DEC004A7903EB022383808B79CA7903EB0223A4
:102DFC00C380704710B504468021FDF7C4FA00214A
:102E0C002046FDF7C0FA10BD30B583B005460C4620
:102E1C000023ADF8063049880B0A013B062B00F263
:102E2C00AC80DFE803F004182CAAAA8E9B00D0F823
:102E3C00B0321B680DF10601007C9847BDF80620E6
:102E4C001AB1E388002B40F09C80E388002B00F043
:102E5C00A28003B030BD037C43B9D0F8B4329B6A76
:102E6C000DF10600984702234370E7E7D0F8B4321F
:102E7C00DB6A0DF10600984702234370DEE7C9B206
:102E8C00052952D8DFE801F003101D2A3744D0F889
:102E9C00B0325B6823B10DF10601007C9847CDE799
:102EAC002146FFF7A7FFD4E7D0F8B0329B6823B1D7
:102EBC000DF10601007C9847C0E72146FFF79AFF09
:102ECC00C7E7D0F8B032DB6823B10DF10601007C06
:102EDC009847B3E72146FFF78DFFBAE7D0F8B03239
:102EEC001B6923B10DF10601007C9847A6E721462A
:102EFC00FFF780FFADE7D0F8B0325B6923B10DF17D
:102F0C000601007C984799E72146FFF773FFA0E77D
:102F1C00D0F8B0329B6923B10DF10601007C9847C3
:102F2C008CE72146FFF766FF93E7D0F8B4329B6B32
:102F3C001BB10DF10602984780E72146FFF75AFFB7
:102F4C0087E7037C33B9D0F8B4325B6B0DF1060024
:102F5C00984773E72146FFF74DFF7AE7037C43B9A7
:102F6C00D0F8B4321B6B0DF1060098470723437061
:102F7C0064E72146FFF73EFF6BE72146FFF73AFF78
:102F8C0067E79A4228BF1A46ADF806200146284644
:102F9C0000F027FA59E7284600F040FA59E738B50F
:102FAC0004468B88F3B9CB88E3B94B887F2B19D8AF
:102FBC0003F07F0590F89C32032B0CD080F89E52C6
:102FCC002946FDF707FA204600F028FA35B102230E
:102FDC0084F89C3209E0FFF70DFF06E0012384F82A
:102FEC009C3202E02046FFF705FF38BD38B5044699
:102FFC000D468978284B197001290ED890F89C320F
:10300C00022B0ED0032B21D02946FFF7F3FE224BC7
:10301C0019782046FFF7A1FD02E02946FFF7EAFEEA
:10302C0038BD81B14160032380F89C32FFF789FDE4
:10303C00022803D0204600F0F1F9F1E7294620469A
:10304C00FFF7D8FEECE700F0E9F9E9E789B143684E
:10305C0099421DD0D9B2FFF780FD0F4B19786160F2
:10306C002046FFF76EFD02280DD0204600F0D6F961
:10307C00D6E7022380F89C324160FFF76EFD2046B4
:10308C0000F0CCF9CCE729462046FFF7B3FEC7E7A2
:10309C0000F0C4F9C4E700BF1C03002008B5CB88BE
:1030AC00012B0AD190F89C32022B09D9032B09D1A0
:1030BC000122011D00F095F901E0FFF79BFE08BD10
:1030CC005BB213B9FFF796FEF9E70146002341F80E
:1030DC00083F012200F085F9F1E708B590F89C3221
:1030EC00013B022B12D8CB88022B0CD10123C360DD
:1030FC00D0F8A4320BB10323C360022200F10C01FF
:10310C0000F06FF908BDFFF775FEFBE7FFF772FEE5
:10311C00F8E708B590F89C32013B022B09D84B8894
:10312C00012B00D008BD0023C0F8A43200F076F9C2
:10313C00F8E7FFF75FFEF5E708B50B7803F06003DF
:10314C00202B05D0402B03D043B1FFF753FE03E0F7
:10315C00D0F8B4329B689847002008BD4B78092BF7
:10316C001BD8DFE803F011171A141A08051A0E0BF6
:10317C00FFF74AFEF0E7FFF712FFEDE7FFF736FF28
:10318C00EAE7FFF78BFFE7E7FFF7A7FFE4E7FFF7B7
:10319C0013FEE1E7FFF7BDFFDEE7FFF72BFEDBE7F2
:1031AC0038B505460C460B7803F06003202B06D08F
:1031BC00402B04D01BB1FFF71DFE002038BD95F845
:1031CC009C32013B022B16D82379012B0ED8D5F853
:1031DC00B4329B68214628469847E388002BECD1F3
:1031EC000028EAD1284600F019F9E6E721462846DE
:1031FC00FFF700FEE1E721462846FFF7FBFDDCE781
:10320C0070B505468B880C7804F06004202C07D030
:10321C00DAB2402C04D05CB1FFF7ECFD002405E0E1
:10322C00D5F8B4329B68284698470024204670BDD8
:10323C00202C09D04E78012E33D0032E0AD0002E2C
:10324C0055D0FFF7D7FDF1E7D0F8B4329B6898471B
:10325C000446EBE790F89C32022B04D0032B11D0E0
:10326C00FFF7C8FDE2E70AB1802A03D12846FFF731
:10327C00C1FDDBE71146FDF786F880212846FDF7F6
:10328C0082F8D3E74B8823B91AB1802A01D0CB88B6
:10329C001BB1284600F0C2F8C8E71146FDF773F8D9
:1032AC00F7E790F89C32022B04D0032B11D0FFF7D8
:1032BC00A1FDBBE70AB1802A03D12846FFF79AFD8E
:1032CC00B4E71146FDF75FF880212846FDF75BF85F
:1032DC00ACE74B88002BA9D112F07F0F03D1284605
:1032EC0000F09CF8A2E71146FDF755F8F7E790F8C7
:1032FC009C02022806D0032829D02846FFF77AFD25
:10330C00344693E70AB1802A13D113F0800F15D1FC
:10331C0002F07F0202EB8202910001F5A8712944B0
:10332C00043100230B600222284600F05AF8344680
:10333C007CE72846FFF75EFD344677E702F07F0214
:10334C0002EB82029100103129440431E9E75BB2AF
:10335C00002B1FDB02F00F0000EB800005EB800060
:10336C00D0F8580120B3002B27DB02F07F0303EBCE
:10337C0083039C0004F5A8742C4404340AB1802AFD
:10338C0024D10023236002222146284600F029F88C
:10339C0034464BE702F00F0000EB800005EB800099
:1033AC0080690028DFD12846FFF724FD34463DE72D
:1033BC002846FFF71FFD344638E702F07F0303EB86
:1033CC0083039C0010342C440434D7E71146284660
:1033DC00FCF7E9FF10B101232360D4E7002323603D
:1033EC00D1E708B513460222C0F89422C3610362E8
:1033FC000A460021FCF7F6FF002008BD08B513466D
:10340C000A460021FCF7EEFF002008BD08B5134664
:10341C000A460021FCF7EEFF002008BD08B5042386
:10342C00C0F8943200231A461946FCF7DBFF002043
:10343C0008BD08B50523C0F8943200231A46194676
:10344C00FCF7D8FF002008BD70B588B000240494A8
:10345C000594069407941F4B9A6942F010029A61E6
:10346C009A6902F010020092009A9A6942F02002C6
:10347C009A619A6902F020020192019A9A6942F0CB
:10348C0008029A619A6902F008020292029A9A69F9
:10349C0042F004029A619B6903F004030393039BBB
:1034AC000D4D224601212846FFF760FA02260496AC
:1034BC000594069404A90948FFF74AF901230493DB
:1034CC0005930694079604A92846FFF741F908B01E
:1034DC0070BD00BF00100240000C01400010014004
:1034EC0008B50A480A4B03604FF4E13343600023EC
:1034FC008360C36003610C2242618361C361FFF787
:10350C00EFFA00B908BDFCF741FEFBE720030020F1
:10351C000038014010B586B0002302930393049346
:10352C0005930268174B9A4201D006B010BD03F503
:10353C0058439A6942F480429A619A6902F4804233
:10354C000092009A9A6942F004029A619B6903F016
:10355C0004030193019B4FF4007302930223039322
:10356C0003230593084C02A92046FFF7F1F84FF40A
:10357C008063029300230393049302A92046FFF770
:10358C00E7F8D2E7003801400008014008B543686D
:10359C00034A9060026882F30888984708BD00BF10
:1035AC0000ED00E0FFF7CCFA0B480C490C4A002365
:1035BC0002E0D458C4500433C4188C42F9D3094ADD
:1035CC00094C002301E013600432A242FBD300F04B
:1035DC0017F8FCF71FFE7047000000200C000020BD
:1035EC00A03600080C00002068030020FEE703460C
:1035FC000244934200D1704703F8011BF9E7000025
:10360C0070B500260C4D0D4C641BA410A64209D1BC
:10361C0000F01AF800260A4D0A4C641BA410A642AE
:10362C0005D170BD55F8043B98470136EEE755F8C7
:10363C00043B98470136F2E79836000898360008A4
:10364C00983600089C360008F8B500BFF8BC08BCDA
:10365C009E467047F8B500BFF8BC08BC9E46704744
:10366C000102000002030405060708090A0B0C0DF1
:10367C000E0F1010000000000102030400000000F7
:0C368C000000000001020304060708090A
:0436980075010008B0
:04369C004D010008D4
:0C36A00001000000100000000024F400F5
:04000005080035B109
:00000001FF
