:020000040800F2
:1060000000C00020C56D00083D6D00083F6D000810
:10601000416D0008436D0008456D00080000000058
:1060200000000000000000000000000071EA00080D
:10603000476D00080000000011EB000855EB000858
:106040000D6E00080D6E00080D6E00080D6E000844
:106050000D6E00080D6E00080D6E00080D6E000834
:106060000D6E00080D6E00080D6E00080D6E000824
:106070000D6E00080D6E00080D6E00080D6E000814
:106080000D6E00080D6E00080D6E00080D6E000804
:10609000496D00080D6E00080D6E00080D6E0008B9
:1060A0000D6E0008596D00080D6E00080D6E000899
:1060B0000D6E00080D6E00080D6E00080D6E0008D4
:1060C0000D6E00080D6E00080D6E00080D6E0008C4
:1060D0000D6E00080D6E00080D6E00080D6E0008B4
:1060E0000D6E00080D6E00080D6E00080D6E0008A4
:1060F0000D6E00080D6E00080D6E00080D6E000894
:106100000D6E0008696D00080D6E00080D6E000828
:106110000D6E00080D6E00080D6E00080D6E000873
:106120000D6E00080D6E00080D6E00080D6E000863
:10613000000000000000000000000000000000005F
:10614000000000000000000000000000000000004F
:10615000000000000000000000000000000000003F
:10616000000000000000000000000000000000002F
:10617000000000000000000000000000000000001F
:10618000000000000000000000000000000000000F
:1061900000000000000000000000000000000000FF
:1061A00000000000000000000000000000000000EF
:1061B00000000000000000000000000000000000DF
:1061C00000000000000000000000000000000000CF
:1061D00000000000000000000000000000000000BF
:0461E0005FF8E0F193
:1061F000844641EA000313F0030349D1403A23D314
:106200000B6803604B6843608B688360CB68C36036
:106210000B6903614B6943618B698361CB69C3611E
:106220000B6A03624B6A43628B6A8362CB6AC36206
:106230000B6B03634B6B43638B6B8363CB6BC363EE
:1062400040304031403ADBD230320BD30B68036030
:106250004B6843608B688360CB68C360103010313B
:10626000103AF3D20C3205D351F8043B40F8043B0A
:10627000043AF9D2043208D0D2071CBF11F8013B0E
:1062800000F8013B01D30B8803806046704700BFD4
:10629000082A13D38B07B1D010F00303AED0C3F19B
:1062A0000403D21ADB071CBF11F8013B00F8013BC5
:1062B000A4D331F8023B20F8023B9FE7043AD9D33C
:1062C000013A11F8013B00F8013BF9D20B78037059
:1062D0004B7843708B788370604670470348044B5B
:1062E000834202D0034B03B118477047A006002039
:1062F000A0060020000000000548064B1B1AD90F1D
:1063000001EBA301491002D0034B03B118477047BA
:10631000A0060020A00600200000000010B5064CDA
:10632000237843B9FFF7DAFF044B13B10448AFF306
:1063300000800123237010BDA00600200000000093
:106340008C0B010808B5054B1BB105490548AFF397
:106350000080BDE80840FFF7CFBF00BF000000008D
:10636000A40600208C0B010800B587B08DF80F0043
:106370006FF07F43009301230DF117020DF10F0120
:10638000044803F08CFC10B907B05DF804FB012051
:10639000FAE700BFA00F002010B5084C00224FF410
:1063A0008051204600F0A9FF0620FFF7DDFF012203
:1063B0004FF48051204600F0A0FF10BD000C0140BA
:1063C00000B585B06FF07F43009301230DF10E02FD
:1063D0000DF10F01054803F062FC10B1FF238DF8A9
:1063E0000E309DF80E0005B05DF804FBA00F0020F4
:1063F00008B500224FF48051084800F07EFF0520C8
:10640000FFF7B2FFFFF7DCFF10F0010FFAD1012216
:106410004FF48051014800F070FF08BD000C0140AE
:1064200070B504460E46154600224FF480511148BF
:1064300000F063FF0320FFF797FFC4F30740FFF767
:1064400093FFC4F30720FFF78FFFE0B2FFF78CFF45
:1064500004E0FFF7B5FF06F8010B25466B1E9CB262
:10646000002DF6D101224FF48051024800F045FF83
:1064700070BD00BF000C014070B504460E461546C5
:10648000FFF78AFF00224FF48051114800F035FFDA
:106490000220FFF769FFC4F30740FFF765FFC4F36D
:1064A0000720FFF761FFE0B2FFF75EFF002404E082
:1064B000305DFFF759FF0134A4B2AC42F8D301229A
:1064C0004FF48051024800F018FFFFF791FF70BDB4
:1064D000000C0140F8B506460F461546C4B2C4F597
:1064E0008074944203D3144601E04FF48074A2B246
:1064F00039463046FFF7C0FFA54207D0274426445F
:106500002D1BB5F5807FF0D82C46F0E7F8BD0000D4
:1065100008B50A464FF47A730146024803F0E3FADD
:1065200008BD00BF480F002000B583B08DF80700FC
:1065300001220221054800F0E0FE01210DF10700D3
:10654000FFF7E6FF03B05DF804FB00BF000C01405D
:1065500000B583B08DF8070000220221054800F045
:10656000CCFE01210DF10700FFF7D2FF03B05DF86B
:1065700004FB00BF000C0140F8B507460D46164667
:106580001C462A20FFF7E4FF380AFFF7CDFFF8B2D8
:10659000FFF7CAFF300AFFF7C7FFF0B2FFF7C4FFEB
:1065A0002B20FFF7D5FF280AFFF7BEFFE8B2FFF761
:1065B000BBFF200AFFF7B8FFE0B2FFF7B5FF2C20C2
:1065C000FFF7C6FFF8BD000070B582B00024ADF83B
:1065D0000440060A8DF80460C5B28DF80550EF231B
:1065E0001A4621462046FFF7C7FF214607E04B0029
:1065F0000D4A02F811600133D554013189B2B1F569
:10660000107FF4D301220221084800F076FE002416
:1066100006E04FF490610448FFF77AFF0134A4B21A
:10662000632CF6D902B070BDBC060020000C0140FE
:1066300010B56A4C00224FF48071204600F05DFED8
:106640000C2000F009FC01224FF48071204600F07C
:1066500054FE0C2000F000FC1120FFF779FF0C2005
:1066600000F0FAFB3620FFF773FF0020FFF75CFF16
:106670003A20FFF76DFF6520FFF756FFB220FFF7C6
:1066800067FF0C20FFF750FF0C20FFF74DFF0020A5
:10669000FFF74AFF3320FFF747FF3320FFF744FFA0
:1066A000B720FFF755FF7220FFF73EFFBB20FFF733
:1066B0004FFF3D20FFF738FFC020FFF749FF2C2098
:1066C000FFF732FFC220FFF743FF0120FFF72CFF47
:1066D000C320FFF73DFF1920FFF726FFC420FFF777
:1066E00037FF2020FFF720FFC620FFF731FF0F20E4
:1066F000FFF71AFFD020FFF72BFFA420FFF714FFAE
:10670000A120FFF711FFE020FFF722FFD020FFF7C5
:106710000BFF0420FFF708FF0D20FFF705FF1120F6
:10672000FFF702FF1320FFF7FFFE2B20FFF7FCFE11
:106730003F20FFF7F9FE5420FFF7F6FE4C20FFF74D
:10674000F3FE1820FFF7F0FE0D20FFF7EDFE0B2003
:10675000FFF7EAFE1F20FFF7E7FE2320FFF7E4FE26
:10676000E120FFF7F5FED020FFF7DEFE0420FFF763
:10677000DBFE0C20FFF7D8FE1120FFF7D5FE13201B
:10678000FFF7D2FE2C20FFF7CFFE3F20FFF7CCFE15
:106790004420FFF7C9FE5120FFF7C6FE2F20FFF768
:1067A000C3FE1F20FFF7C0FE1F20FFF7BDFE202005
:1067B000FFF7BAFE2320FFF7B7FE2120FFF7C8FE40
:1067C0002920FFF7C5FEEF231A4600210846FFF7F0
:1067D000D3FE4FF6FF70FFF7F7FE10BD0008014033
:1067E00008B509F03BFDFFF723FF4FF47A7008F07E
:1067F00021F8FAE708B5FFF71BFF42F2107008F026
:1068000019F8FAE708B50121034800F07CFD4FF4C0
:106810007A7008F00FF8F6E7000C0140034B0360B4
:10682000034B0B6080231360704700BF400D0020B6
:106830003C0B002010B596B01B4C0DF13C0CA6464D
:10684000BEE80F00ACE80F009EE807008CE80700E8
:1068500000210FA807F0BBFF144B18600DF1200CAE
:1068600004F11C0EBEE80F00ACE80F009EE8070024
:106870008CE80700002108A807F0A9FF0C4B18605E
:106880000DF1040E04F1380CBCE80F00AEE80F0067
:106890009CE807008EE80700002101A807F097FF99
:1068A000044B186016B010BDA40B0108C00E0020E8
:1068B000BC0E0020B80E00202DE9F04188B0002465
:1068C00004940594069407942B4B9A6942F01002A5
:1068D0009A619A6902F010020092009A9A6942F055
:1068E00020029A619A6902F020020192019A9A6943
:1068F00042F004029A619A6902F004020292029A3A
:106900009A6942F008029A619B6903F008030393B5
:10691000039B1A4D224641F21301284600F0EDFC7C
:10692000174E22464FF48071304600F0E6FC41F2EB
:10693000130304934FF00108CDF814800694022746
:10694000079704A9284600F0B5FB4FF48073049321
:10695000CDF814800694079704A9304600F0AAFBEE
:10696000202304930594069404A9284600F0A2FB72
:1069700008B0BDE8F08100BF00100240000C0140EB
:106980000008014008B50268034B9A4200D008BDD8
:1069900000F050FAFBE700BF002C014072B6FEE7A2
:1069A00000B597B0282200210CA809F057FE00235B
:1069B0000793089309930A930B930193029303930C
:1069C00004930593069301220C924FF480330D93A8
:1069D00010920222139214934FF4E01315930CA813
:1069E00001F0E2FCC0B90F230793022108910023B4
:1069F00009934FF480620A920B9307A801F006FFF7
:106A000060B9102301930023069301A801F0E8FF69
:106A100030B917B05DF804FBFFF7C0FFFFF7BEFF0A
:106A2000FFF7BCFF08B500F0F3F9FFF7B9FFFFF778
:106A300043FF00F08BF800F009F800F065F804F06F
:106A4000DFFEFFF7F7FE07F0BDFEFEE7064B074A45
:106A50001A6000225A609A60DA604FF4006119618E
:106A60005A6104229A617047C40E002000800140E0
:106A700030B589B000230493059306930793026809
:106A80001E4B9A4201D009B030BD03F510435A693C
:106A900042F480625A615A6902F480620192019A5A
:106AA0009A6942F010029A619A6902F01002029209
:106AB000029A9A6942F020029A619B6903F02003CE
:106AC0000393039B4FF4F853049302250595032485
:106AD000079404A90A4800F0EDFA042304930595ED
:106AE000079404A9074800F0E5FA002205213120A7
:106AF00000F00CFA312000F019FAC4E700800140E0
:106B0000001001400014014008B50E480E4B036010
:106B10004FF48273436000238360C3600361436169
:106B20004FF4007282610822C26103624362836291
:106B30000A23C36202F07CFF00B908BDFFF72EFFF5
:106B4000FBE700BFA00F00200030014008B50E4851
:106B50000E4B03604FF48273436000238360C36075
:106B600002220261012242614FF400728261C3611C
:106B70000362436283620A23C36202F059FF00B9D1
:106B800008BDFFF70BFFFBE7480F0020003800406F
:106B900010B588B000230493059306930793036808
:106BA000274A934204D0274A934229D008B010BD07
:106BB000254B9A6942F480529A619A6902F4805294
:106BC0000092009A9A6942F004029A619B6903F06C
:106BD00004030193019BA023049302230593032341
:106BE00007931A4C04A9204600F064FA402304934A
:106BF00000230593069304A9204600F05BFAD5E72D
:106C0000114BDA6942F48042DA61DA6902F48042B7
:106C10000292029A9A6942F008029A619B6903F013
:106C200008030393039B4FF420430493022305932B
:106C30000323079304A9064800F03CFAB6E700BF17
:106C400000300140003800400010024000080140C0
:106C5000000C014000B583B0114B9A6942F001026B
:106C60009A619A6902F001020092009ADA6942F090
:106C70008052DA61DB6903F080530193019B0022AB
:106C80000F216FF0010000F041F9064A536823F02C
:106C9000E06343F08063536003B05DF804FB00BF22
:106CA000001002400000014030B589B004461E4B80
:106CB0009A6942F400629A619B6903F4006301934C
:106CC000019B02A903A801F06DFE01F05BFE174ACB
:106CD000A2FB00239B0C013B1548164A026040F2C0
:106CE000E732C2604360002303618360836103F085
:106CF00043FA054610B1284609B030BD0C4803F0F0
:106D0000F1F805460028F6D1192000F00FF90F2CF4
:106D100001D90125EFE700222146192000F0F6F8FD
:106D2000054B1C60E7E700BF0010024083DE1B43F9
:106D3000F80F0020002C014008000020FEE7FEE7CD
:106D4000FEE7FEE7FEE7704708B5024801F0D8F815
:106D500008BD00BF8427002008B5024803F002F9EF
:106D600008BD00BFF80F002008B5024802F004FD7E
:106D700008BD00BFC40E002010B503460C4A0D49E3
:106D80000D48006840B10C4800680344521A934211
:106D900006D8094A136010BD0748084C0460F2E7A2
:106DA00009F0DAFC0C2303604FF0FF30F3E700BF7B
:106DB00000C000200008000040100020782D0020B6
:106DC00070470000FFF7FCFF0B480C490C4A0023FA
:106DD00002E0D458C4500433C4188C42F9D3094A91
:106DE000094C002301E013600432A242FBD309F0F6
:106DF000B9FCFFF717FE704700000020A006002036
:106E00008C0D0108A0060020782D0020FEE7000070
:106E100008B5074A136843F010031360032000F01D
:106E200063F80F20FFF740FFFFF714FF002008BDB5
:106E300000200240034A1168034B1B780B44136087
:106E4000704700BF4410002004000020014B186868
:106E5000704700BF4410002038B50446FFF7F6FF26
:106E60000546B4F1FF3F02D0044B1B781C44FFF7EA
:106E7000EDFF401BA042FAD338BD00BF0400002044
:106E8000002808DB0901C9B200F1604000F561404B
:106E900080F80013704700F00F000901C9B2014BE0
:106EA0001954704714ED00E000B500F00700C0F180
:106EB000070CBCF1040F28BF4FF0040C031D062B78
:106EC0000FD9C31E4FF0FF3E0EFA0CF021EA00016D
:106ED00099400EFA03FE22EA0E0241EA02005DF832
:106EE00004FB0023EEE70000074AD36823F4E063C5
:106EF0001B041B0C000200F4E060034343F0BF637B
:106F000043F40033D360704700ED00E010B5044651
:106F1000054BD868C0F30220FFF7C6FF01462046A4
:106F2000FFF7AEFF10BD00BF00ED00E0002807DB5B
:106F300000F01F02400901239340024A42F820302A
:106F4000704700BF00E100E008B590F82130DBB2E7
:106F5000022B03D004238363012008BD0268136859
:106F600023F00E0313600268136823F0010313601B
:106F700003684C4A93424ED9783A934224D0143253
:106F8000934230D0143293422FD0143293422FD0F8
:106F9000143293422FD0143293422FD014329342A2
:106FA0002FD002F5627293422ED0143293422DD02C
:106FB000143293422CD01432934202D04FF48032D8
:106FC00003E04FF4805200E00122374B5A60012366
:106FD00080F82130002380F82030436B002B5ED0F6
:106FE00098470020B9E71022EFE74FF48072ECE7F2
:106FF0004FF48052E9E74FF48032E6E74FF4801215
:10700000E3E74FF08072E0E70122DEE71022DCE7E1
:107010004FF48072D9E7254A934224D01432934228
:1070200025D01432934224D01432934224D0143207
:10703000934224D01432934224D01432934224D069
:1070400002F56272934223D01432934222D014325A
:10705000934221D01432934202D04FF4803203E0A5
:107060004FF4805200E00122114B5A60AFE710222A
:10707000FAE74FF48072F7E74FF48052F4E74FF4E9
:107080008032F1E74FF48012EEE74FF08072EBE7C9
:107090000122E9E71022E7E74FF48072E4E70020DD
:1070A0005BE700BF8000024000040240080002408D
:1070B0000000024070B582B00024A446ABE0854DCC
:1070C000AB4214D00CD8A5F58015AB420FD005F516
:1070D0007025AB420BD0A5F58015AB4210D106E070
:1070E0007D4DAB4203D005F58035AB4208D18B68AE
:1070F000002B5AD0012B53D04261082400E0CC6809
:10710000BEF1FF0F53D806464FEA8C0233680F25B5
:10711000954023EA050304FA02F2134333604B68F7
:1071200013F0805F75D06D4B9A6942F001029A614D
:107130009B6903F001030193019B4FEA9C02951C9C
:10714000674B53F825600CF00305AD000F23AB40EF
:1071500026EA0306634B984230D003F580639842D9
:1071600000F0968003F58063984200F0938003F569
:107170008063984200F0908003F58063984200F0AD
:107180008D8003F58063984216D0062317E0CC6803
:107190000434B5E7CC680834B2E7CC680C34AFE708
:1071A00002610824ACE70024AAE70424A8E7061D2E
:1071B000ACF108029200A9E7052300E00023AB40F0
:1071C00033430232464D45F822304B6813F4801F9A
:1071D00066D0454A936843EA0E0393604B6813F404
:1071E000001F63D0404AD36843EA0E03D3604B6864
:1071F00013F4003F60D03C4A536843EA0E035360E7
:107200004B6813F4803F5DD0374A136843EA0E039E
:1072100013600CF1010C0B6833FA0CF258D0012208
:1072200002FA0CF203EA020E32EA0303F1D14B68D0
:10723000122B3FF644AF122B3FF662AF01A555F873
:1072400023F000BFEF700008FF7000089571000880
:10725000A7710008017100080171000801710008A0
:107260000171000801710008017100080171000836
:107270000171000801710008017100080171000826
:1072800001710008017100088F7100089B710008EE
:10729000012394E7022392E7032390E704238EE778
:1072A000114A936823EA0E03936097E70E4AD36866
:1072B00023EA0E03D3609AE70B4A536823EA0E03CE
:1072C00053609DE7084A136823EA0E031360A0E7A2
:1072D00002B070BD0000221000003110001002400A
:1072E0000000014000080140000401408368194289
:1072F00001D001207047002070470AB1016170473A
:10730000090401617047C36801EA030221EA03012D
:1073100041EA02410161704738B512F4804F44D010
:107320000468B4F850309BB291F800C003EBCC0372
:10733000023304EB4304B4F80044C4F309048B693A
:10734000A34228D31B1B8B618B697BB9056835F879
:107350002C309BB223F4804323F0700383F400535A
:1073600043F4004343F0800325F82C3012F0400F23
:107370000ED002680D7832F825309BB223F4E0433A
:1073800023F0700343F4004343F0C00322F8253098
:1073900024B9204638BD00238B61D5E723460A89EE
:1073A0004969006804F014FAF3E70468B4F850304F
:1073B0009BB291F800C003EBCC03063304EB43040B
:1073C000B4F80044C4F309048B69A3422FD31B1BF8
:1073D0008B618B697BB9056835F82C309BB223F43F
:1073E000804323F0700383F4005343F4004343F0DD
:1073F000800325F82C3012F0400F0FD1026891F86D
:1074000000C032F82C309BB223F4E04323F0700329
:1074100043F4004343F0C00322F82C30002CB8D0D2
:1074200023464A894969006804F0D2F9B1E700238C
:107430008B61CEE770B586B0002800F081800446ED
:1074400090F8A932EBB1032384F8A932206803F045
:107450004EFA254655F8106BEC460FCDACE80F0000
:107460002B68CCF80030231D0ECB304603F02FFAEA
:10747000054658B1022384F8A9320125284606B0F2
:1074800070BD80F8A83208F0D3FFDCE70021206847
:1074900003F037FA2B4616E05A1C02EB820104EB8C
:1074A000C1010120487002EB820104F8313004EB85
:1074B000C1000021C17003EB830004EBC0008163B5
:1074C000C1630164D3B261688B42E5D316E005EB7A
:1074D000850304EBC303002283F8692183F8685114
:1074E00083F86B21C3F87821C3F87C2105EB850371
:1074F00004EBC303C3F880210135EDB2A942E6D8FD
:10750000254655F8106BEC460FCDACE80F002B6804
:10751000CCF80030231D0ECB304603F0F4F90546BD
:1075200020B1022384F8A9320125A7E7002384F8BB
:107530002430012384F8A932206803F047FD9DE739
:1075400001259BE738B590F8A832012B11D00446ED
:10755000012580F8A852006803F0C0F929462046AA
:1075600009F07BF8206803F02FFD002084F8A802C2
:1075700038BD0220FCE770B505460C46164612F0F1
:10758000400F00F00E810268B2F850309BB20978CB
:1075900003EBC103023302EB4302B2F80024C2F34F
:1075A0000902A36993424ED99B1AA361A369002BD8
:1075B00066D16378002B49D12B68B3F8502092B282
:1075C000134403EB0113B3F80424C2F30902A3F834
:1075D0000424B3F804246FEA42426FEA524292B2A2
:1075E000A3F804242B686278002A3CD1B3F8502019
:1075F00092B21344227803EB0213B3F80C24C2F3C3
:107600000902A3F80C24B3F80C246FEA42426FEA93
:10761000524292B2A3F80C242178284608F03CFF8D
:1076200016F4804F41D02A68217832F821309BB27D
:1076300023F4E04323F0700343F4404343F080031A
:1076400022F8213031E00023A361AFE7012BC9D13B
:107650002B68B3F8502092B2134403EB01130022BD
:10766000A3F80424BEE7012AD6D1B3F8502092B281
:107670001344227803EB02130022A3F80C24CBE777
:1076800016F4804F0DD0286830F821309BB223F4D7
:10769000E04323F0700343F4404343F0800320F8B9
:1076A000213094F82430012B12D02A68217832F846
:1076B00021309BB223F4E04323F0400383F03003F6
:1076C00043F4004343F0800322F82130002070BDD2
:1076D000636913446361E3691344E361216A2369C5
:1076E000994224D3C91A21626278002A44D12A68B7
:1076F000B2F8501089B20A44217802EB0112B2F8B4
:107700000414C1F30901A2F804143E2B1BD9580933
:1077100013F01F0F00D10138B2F8041489B28002AF
:1077200080B2014341F40041A2F8041426E021B9DB
:10773000002384F824301346D6E7002384F824304D
:1077400023620B46D0E74BB9B2F804146FEA41410B
:107750006FEA514189B2A2F804140FE0590813F0FE
:10776000010F00D00131B2F8040480B2890289B25D
:107770000143A2F8041401E0012A06D09BB2228939
:107780006169286803F02AFC8FE72A68B2F8501074
:1077900089B20A44217802EB011299B2A2F80414CA
:1077A000ECE70268B2F850309BB2097803EBC103F2
:1077B000063302EB4302B2F80024C2F30902A369C4
:1077C00093424FD39B1AA361A369002B67D16378BF
:1077D000002B4AD12B68B3F8502092B2134403EB2C
:1077E0000113B3F80424C2F30902A3F80424B3F884
:1077F00004246FEA42426FEA524292B2A3F8042490
:107800002B686278002A3DD1B3F8502092B213441D
:10781000227803EB0213B3F80C24C2F30902A3F895
:107820000C24B3F80C246FEA42426FEA524292B23F
:10783000A3F80C242178284608F02EFE16F4804F79
:107840007FF433AF2A68217832F821309BB223F4D9
:10785000E04323F0700343F4404343F0800322F8F5
:10786000213022E70023A361AEE7012BC8D12B68AA
:10787000B3F8502092B2134403EB01130022A3F893
:107880000424BDE7012AD5D1B3F8502092B21344A5
:10789000227803EB02130022A3F80C24CAE716F4A3
:1078A000804F0DD1286830F821309BB223F4E0439B
:1078B00023F0700343F4404343F0800320F8213069
:1078C00094F82430012B7FF4F0AE636913446361B4
:1078D000E3691344E361216A2369994224D3C91AF5
:1078E00021622A686178002943D1B2F8501089B228
:1078F0000A44217802EB0112B2F80C14C1F3090119
:10790000A2F80C143E2B1BD9580913F01F0F00D1FD
:107910000138B2F80C1489B2800280B2014341F4FC
:107920000041A2F80C1426E021B9002384F8243089
:107930001346D6E70023236284F824300B46D0E7B1
:107940004BB9B2F80C146FEA41416FEA514189B268
:10795000A2F80C140FE0590813F0010F00D0013108
:10796000B2F80C0480B2890289B20143A2F80C1467
:1079700001E0012906D09BB262896169286803F0A1
:107980002DFB92E6B2F8501089B20A44217802EB3E
:10799000011299B2A2F80C14EDE72DE9F041054669
:1079A0002868B0F8443013F4004F00F09282B0F829
:1079B0004440A3B214F00F0440F0E28013F0100F23
:1079C0006BD003889AB213F4006F40F09D8012F4DC
:1079D000004FE5D0038823F070031B051B0D43F017
:1079E000800303802868B0F850309BB295F8682176
:1079F00003EBC203063300EB4303B3F80034C3F3D5
:107A00000903C5F884318BB1D5F87C1171B1B5F893
:107A10006E2103F0DDFED5F87C31D5F884211344C6
:107A2000C5F87C310021284608F02AFD2A68138811
:107A300099B213F4006FB3D101F44051B1F5405F36
:107A4000AED0B2F850309BB21A44B2F80C34C3F343
:107A50000903A2F80C34D5F878313E2B77D95909AF
:107A600013F01F0F00D10139B2F80C349BB2890218
:107A700089B20B4343F40043A2F80C342A681388FC
:107A80009BB223F4804323F0700383F4405343F408
:107A9000004343F08003138082E703889BB223F402
:107AA000E14323F070036FEA43436FEA53439BB211
:107AB00003802A68B2F850309BB295F8281003EB87
:107AC000C103023302EB4302B2F80034C3F30903EB
:107AD0006B64EA6B1A44EA630021284608F0DCFC78
:107AE00095F82430002B3FF45BAF2B6C002B7FF418
:107AF00057AF95F824302A6843F08003A2F84C3041
:107B0000002385F824304BE7B0F850309BB295F84D
:107B1000682103EBC203063300EB4303B3F80034E0
:107B2000C3F30903C5F88431B5F86E2105F52C714E
:107B300003F04EFE2A68138823F070031B051B0D0B
:107B400043F080031380284608F092FC28E74BB9E5
:107B5000B2F80C346FEA43436FEA53439BB2A2F886
:107B60000C348BE7590813F0010F00D00131B2F843
:107B70000C3498B28B029BB20343A2F80C347DE71D
:107B800030F824309EB213F4004F4CD116F0800F21
:107B90003FF406AF621C02EB820105EBC1012868CD
:107BA00030F824309BB223F4E14323F070036FEAF2
:107BB00043436FEA53439BB220F82430CB78012B28
:107BC00000F0F28016F4807F40F07E812868B0F8E3
:107BD00050309BB2621C02EB820215F8326003EB5C
:107BE000C603023300EB4303B3F80034C3F30903C5
:107BF00004EB840205EBC202126C9A4240F24C8103
:107C000004EB840705EBC707D21A3A6404EB84023D
:107C100005EBC202126C002A40F04581314628462D
:107C200008F03AFCBCE630F8243023F070031B0562
:107C30001B0D43F0800320F8243004EB8401C900BD
:107C400001F5B47105EB010804EB840305EBC303F4
:107C500093F87431002B42D12868B0F850309BB2B1
:107C600004EB840205EBC20292F8682103EBC20325
:107C7000063300EB4303B3F80074C7F3090717BBDF
:107C800004EB840305EBC303D3F884213A44C3F81F
:107C90008421D3F87C213A44C3F87C21D3F8803185
:107CA0003BB104EB840305EBC303D3F878319F4267
:107CB00075D204EB840305EBC30393F868112846DF
:107CC00008F0DEFB62E704EB840105EBC1013B46F3
:107CD000B1F86E21D1F87C1103F07AFDD0E704EB06
:107CE000840305EBC30393F86B31022B35D029686D
:107CF00004EB840205EBC20292F8680131F82030EF
:107D00009BB223F4E04323F0700343F4004343F0B9
:107D1000C00321F82030286892F8682130F822301A
:107D200013F4804F20D0B0F850309BB203EBC20365
:107D3000023300EB4303B3F80074C7F30907002FC5
:107D40009ED004EB840105EBC1013B46B1F87021E4
:107D5000D1F87C1103F03CFD92E7324641462846BB
:107D6000FFF7DAFA07468BE7B0F850309BB203EB27
:107D7000C203063300EB4303B3F80074C7F30907EB
:107D8000002F3FF47DAF04EB840105EBC1013B46BE
:107D9000B1F87221D1F87C1103F01AFD70E7414669
:107DA000286803F02EF9F1E604EB840305EBC30326
:107DB00000221A6493F83430FBB116F0400F37D02C
:107DC0004B781BBB2B68B3F8502092B21344621C53
:107DD00002EB820215F8322003EB0213B3F80424FD
:107DE000C2F30902A3F80424B3F804246FEA424260
:107DF0006FEA524292B2A3F80424013404EB8404E3
:107E000015F83410284608F047FBC9E5012BF4D1DA
:107E10002B68B3F8502092B21344621C02EB82022A
:107E200015F8322003EB02130022A3F80424E4E740
:107E30002A68631C03EB830305EBC3035B78D3B9A8
:107E4000B2F850309BB21344621C02EB820215F868
:107E5000322003EB0213B3F80C24C2F30902A3F897
:107E60000C24B3F80C246FEA42426FEA524292B2F9
:107E7000A3F80C24C1E7012BBFD1B2F850309BB25C
:107E80001344621C02EB820215F8322003EB02134A
:107E90000022A3F80C24B0E704EB840205EBC20235
:107EA00000271764B2E604EB840205EBC202D66B2E
:107EB0001E44D663526C04EB840405EBC4041344E3
:107EC000636403F09EF86BE532462846FFF753FBE8
:107ED00066E50020BDE8F08190F8A832012B0DD0B6
:107EE00010B50446012380F8A83280F824100068F9
:107EF00003F064F8002084F8A80210BD0220704747
:107F000010B584B00446006803F062F810F4004F26
:107F100020D110F4806F21D110F4804F2FD110F4B4
:107F2000005F37D110F4805F3ED110F4006F40F055
:107F3000878010F4007F40F0AE8010F4807F27D05F
:107F40002268B2F844309BB223F480739BB2A2F84B
:107F500044301DE02046FFF720FD19E02268B2F80A
:107F600044309BB223F480639BB2A2F84430204695
:107F700008F0A3FA00212046FFF7AEFF08E02268D0
:107F8000B2F844309BB223F480439BB2A2F8443051
:107F900004B010BD2268B2F844309BB223F4005301
:107FA0009BB2A2F84430F3E72268B2F840309BB2AB
:107FB00023F004039BB2A2F840302268B2F84030AC
:107FC0009BB223F008039BB2A2F84030204608F091
:107FD00097FA2268B2F844309BB223F480539BB2E4
:107FE000A2F84430D4E7226832F8231004AA02EB46
:107FF000430222F8101C0133DBB2072BF3D92268AD
:10800000B2F840309BB243F00103A2F8403022683E
:10801000B2F840309BB223F001039BB2A2F840308B
:108020002368B3F8442012F4806FF9D0B3F84420E9
:1080300092B222F4806292B2A3F8442000230BE0B3
:108040000023DAE7226804A901EB430131F8101C90
:1080500022F823100133DBB2072BF3D92268B2F8E0
:1080600040309BB243F00803A2F840302268B2F8D7
:1080700044309BB223F400639BB2A2F844302268E0
:10808000B2F840309BB243F00403A2F840302046DF
:1080900008F026FA7CE72268B2F844309BB223F459
:1080A00000739BB2A2F84430204608F000FA6FE754
:1080B00010B50446084611F0800F25D101F0070CD9
:1080C0000CEB8C01C90001F5B47E04EB0E010CEB46
:1080D0008C0C04EBCC0C4FF0000E8CF869E100F036
:1080E000070008700A61CB70022B1AD094F8A832EE
:1080F000012B19D0012384F8A832206802F018FC63
:10810000002084F8A80210BD01F0070C0CF1010C4E
:108110000CEB8C0104EBC1014FF0010E81F801E082
:10812000DDE700230B71E1E70220ECE710B5044620
:108130000B4611F0800F1FD101F0070202EB820104
:10814000C90001F5B471014402EB820200EBC202E6
:10815000002082F8690103F007030B7094F8A8323D
:10816000012B13D0012384F8A832206802F0C5FD4A
:10817000002084F8A80210BD01F00702013202EBD2
:10818000820100EBC10101204870E4E70220F2E720
:1081900010B501F0070C0CEB8C01C90001F5B471AE
:1081A0000CEB8C0E00EBCE0ECEF87C21CEF880319D
:1081B0000024CEF884418EF869418EF868C10144EC
:1081C000006802F01EFF204610BD01F0070101EB20
:1081D000810100EBC100D0F88401704738B501F08F
:1081E000070404F1010C0CEB8C0104EB840E00EB92
:1081F000CE0ECEF83C20CEF8403001228EF84C2036
:10820000CEF848300025CEF8445000EBC1035A7038
:1082100000F831401946006802F0F3FE284638BDE8
:1082200038B501F007054268954231D804460B463F
:1082300011F0800F1ED101EB8101C90001F5B4716D
:10824000014403EB830300EBC303002283F869219D
:1082500001238B700D7094F8A832012B1AD00123E2
:1082600084F8A832206802F033FE5DB1002084F863
:10827000A80238BD6B1C03EB830100EBC101012296
:108280004A70E5E704F52C71206802F0A5FEEDE7E1
:108290000120EEE70220ECE70B4601F00F014268F7
:1082A000914230D810B5044613F0800F21D103F06D
:1082B000070202EB8201C90001F5B471014402EB2F
:1082C000820200EBC202002082F8690100228A705B
:1082D00003F007030B7094F8A832012B15D001238B
:1082E00084F8A832206802F018FE002084F8A80262
:1082F00010BD03F00702013202EB820100EBC10165
:1083000001204870E2E7012070470220F0E790F872
:10831000A832012B14D010B50446012380F8A832EE
:1083200011F0800F06D1006802F000FB002084F8F5
:10833000A80210BD01F00701006802F0F5FAF5E7A8
:108340000220704711F0800F0BD001F007010131BE
:1083500001EB810100EBC10052B90273C380002020
:10836000704701EB8101C90001F5B4710844F3E7DE
:108370000122027303811B0C4381F0E782B0084B9A
:108380001B68084AA2FB03235B0A00FB03F301936B
:1083900000BF019B5A1E0192002BF9D102B0704719
:1083A00000000020D34D6210002800F0F18170B56C
:1083B00082B00446036813F0010F2CD0994B5B6820
:1083C00003F00C03042B1DD0964B5B6803F00C03E9
:1083D000082B12D06368B3F5803F41D0002B55D1F4
:1083E00003F1804303F504331A6822F480321A60E3
:1083F0001A6822F480221A6037E08A4B5B6813F413
:10840000803FE7D0874B1B6813F4003F03D06368BD
:10841000002B00F0BF81236813F0020F75D0814B51
:108420005B6813F00C0F5FD07E4B5B6803F00C03AE
:10843000082B54D02369002B00F08A807A4B01224C
:108440001A60FEF703FD0546764B1B6813F0020F1A
:1084500075D1FEF7FBFC401B0228F5D903209EE1F5
:10846000704A136843F480331360636843B3FEF7C4
:10847000EDFC05466B4B1B6813F4003FCBD1FEF7B8
:10848000E5FC401B6428F5D9032088E1B3F5A02F53
:1084900009D0644B1A6822F480321A601A6822F4F8
:1084A00080221A60E1E703F18043A3F53C331A68A8
:1084B00042F480221A601A6842F480321A60D4E7CB
:1084C000FEF7C4FC0546574B1B6813F4003FA2D0CF
:1084D000FEF7BCFC401B6428F5D903205FE1514B3B
:1084E0005B6813F4803FA5D14E4B1B6813F0020F5D
:1084F00003D02369012B40F04F814A4A136823F0CF
:10850000F803616943EAC1031360236813F0080F9D
:1085100033D0A369002B5CD0434B0122C3F88024E5
:10852000FEF794FC05463F4B5B6A13F0020F21D126
:10853000FEF78CFC401B0228F5D903202FE1394AB5
:10854000136823F0F803616943EAC1031360DCE7B1
:10855000354B00221A60FEF779FC0546314B1B684B
:1085600013F0020FD1D0FEF771FC401B0228F5D9A1
:10857000032014E10120FFF701FF236813F0040F2B
:1085800000F09680274BDB6913F0805F34D1254BD8
:10859000DA6942F08052DA61DB6903F080530193BB
:1085A000019B0125214B1B6813F4807F26D0E368D3
:1085B000012B3DD0002B53D103F1804303F504334D
:1085C0001A6A22F001021A621A6A22F004021A627E
:1085D00033E0154B0022C3F88024FEF737FC054634
:1085E000104B5B6A13F0020FC7D0FEF72FFC401B45
:1085F0000228F5D90320D2E00025D3E70B4A1368FF
:1086000043F480731360FEF721FC0646074B1B689A
:1086100013F4807FCBD1FEF719FC801B6428F5D9B9
:108620000320BCE000100240000042420070004005
:108630005F4A136A43F001031362E36833B3FEF742
:1086400005FC06465A4B1B6A13F0020F2FD1FEF7AA
:10865000FDFB801B41F288339842F3D903209EE052
:10866000052B09D0524B1A6A22F001021A621A6ACB
:1086700022F004021A62E0E74D4B1A6A42F004024B
:108680001A621A6A42F001021A62D6E7FEF7DEFBAE
:108690000646474B1B6A13F0020F08D0FEF7D6FBC5
:1086A000801B41F288339842F3D9032077E0E5B983
:1086B000E369002B72D03E4A526802F00C02082A8D
:1086C00056D0022B17D03B4B00221A66FEF7BEFB9A
:1086D0000446374B1B6813F0007F47D0FEF7B6FB0C
:1086E000001B0228F5D9032059E0314AD36923F051
:1086F0008053D361DCE72F4B00221A66FEF7A6FBFE
:1087000005462B4B1B6813F0007F06D0FEF79EFB3F
:10871000401B0228F5D9032041E0236AB3F5803FCE
:108720001AD023494B6823F47413226A606A024307
:1087300013434B601F4B01221A66FEF787FB04466A
:108740001B4B1B6813F0007F0ED1FEF77FFB001B55
:108750000228F5D9032022E0154A536823F4003398
:10876000A1680B435360DCE7002018E0002016E00E
:10877000012B16D00E4B5B6803F48031226A9142C4
:1087800011D103F47013626A93420ED1002006E007
:1087900001207047012002E0012000E0002002B02B
:1087A00070BD0120FBE70120F9E70120F7E700BFDA
:1087B00000100240000042420F4B5B6803F00C02C5
:1087C000082A01D00D487047C3F383420C49885CE6
:1087D00013F4803F0BD0084B5B68C3F34043094A56
:1087E000D35C064A02FB00F0B0FBF3F07047064B87
:1087F00003FB00F0704700BF0010024000127A0037
:10880000980C0108940C010800093D00002800F0B4
:10881000A08070B50D460446524B1B6803F0070359
:108820008B420BD24F4A136823F007030B431360AC
:10883000136803F007038B4240F08D80236813F028
:10884000020F17D013F0040F04D0474A536843F4C3
:10885000E0635360236813F0080F04D0424A536862
:1088600043F460535360404A536823F0F003A16817
:108870000B435360236813F0010F31D06368012B61
:1088800020D0022B25D0384A126812F0020F64D093
:1088900035494A6822F0030213434B60FEF7D6FACB
:1088A0000646314B5B6803F00C036268B3EB820F42
:1088B00016D0FEF7CBFA801B41F288339842F0D9EC
:1088C000032045E0284A126812F4003FE0D101205D
:1088D0003EE0254A126812F0007FD9D1012037E02E
:1088E000204B1B6803F00703AB420AD91D4A1368EB
:1088F00023F007032B431360136803F00703AB4215
:108900002DD1236813F0040F06D0174A536823F4BF
:10891000E063E1680B435360236813F0080F07D04E
:10892000114A536823F46053216943EAC103536039
:10893000FFF742FF0C4B5B68C3F303130B4AD35C96
:10894000D8400B4B18600B4B1868FEF7ADF90020B0
:1089500070BD012070470120FAE70120F8E70120EF
:10896000F6E700BF0020024000100240840C01081E
:108970000000002008000020014B1868704700BF6D
:108980000000002008B5FFF7F7FF044B5B68C3F356
:10899000C223034AD35CD84008BD00BF0010024088
:1089A0007C0C01080F2303600B4B5A6802F0030292
:1089B00042605A6802F0F00282605A6802F4E06293
:1089C000C2605B68DB0803F4E0630361034B1B6870
:1089D00003F007030B6070470010024000200240C4
:1089E00070B582B00446036813F0010F36D03F4BD8
:1089F000DB6913F0805F49D13C4BDA6942F0805269
:108A0000DA61DB6903F080530193019B0125384B48
:108A10001B6813F4807F3BD0344B1B6A13F4407304
:108A200013D0626802F440729A420ED02F4A136A41
:108A300023F440702F490126C1F840640026C1F894
:108A40004064106213F0010F36D1284A136A23F4F0
:108A5000407361680B431362002D3ED1236813F00D
:108A6000020F06D0214A536823F44043A1680B4308
:108A70005360236813F0100F34D01C4A536823F45A
:108A8000800361690B43536000202CE00025BEE7A2
:108A9000174A136843F480731360FEF7D7F906464C
:108AA000134B1B6813F4807FB6D1FEF7CFF9801B00
:108AB0006428F5D9032016E0FEF7C8F906460B4BEB
:108AC0001B6A13F0020FC0D1FEF7C0F9801B41F200
:108AD00088339842F3D9032005E0D36923F080530B
:108AE000D361BBE7002002B070BD00BF00100240A0
:108AF000007000400000424270B582B0044600237E
:108B00000193006801F0D3FB054610B1284602B07E
:108B100070BD206801F0C4FE38B90123A364A36CC2
:108B2000012B0BD02E46284614E00023A3642068B6
:108B300001F0BDFB0028F2D00546E7E700212068E0
:108B400001F01CFD0028EDD04FF08055DEE7019BC1
:108B500001330193019A4FF6FE739A4213D896B9E6
:108B60000021206801F00AFDE0B91249206801F0F7
:108B7000E3FD0646C0B90021206801F083FBC30F66
:108B8000E5D01E46E3E7019A4FF6FE739A420ED8EF
:108B900010F0804302D001236364B7E700226264CF
:108BA0001D46B3E70546B1E74FF08055AEE74FF0FD
:108BB0008075ABE7000010C1F8B5846AC66AA6B933
:108BC000F8BD386801F03BFB2070C0F307236370E9
:108BD000C0F30743A370000EE0700434043E013577
:108BE000072DEED9BC62FE62EAE707460025F7E7EB
:108BF000F0B583B0046A466ADEB903B0F0BD2378ED
:108C00000193627843EA02230193A27843EA024384
:108C10000193E27843EA026301930434043E01A91C
:108C2000386801F00FFB0135072DE8D93C627E6200
:108C3000E3E707460025F7E7F0B589B004460F469D
:108C4000FEF704F9064600230093019308212068EB
:108C500001F0EAFB054610B1284609B0F0BD216DD0
:108C60000904206801F08AFC05460028F4D14FF081
:108C7000FF330293082303933023049302230593C5
:108C8000002306930123079302A9206801F0FDFA4F
:108C9000206801F0A3FC054658B1DDE701F0CFFAEA
:108CA0004DF825000135FEF7D1F8831BB3F1FF3FE6
:108CB0003FD02068436B13F02A0F07D1436B13F4A6
:108CC000001FEBD1436B13F4005FECD1436B13F047
:108CD000080F25D1436B13F0020F24D1456B15F01B
:108CE000200523D140F23A538363019A130203F41F
:108CF0007F0343EA0263110A01F47F410B4343EA15
:108D000012633B60009A130203F47F0343EA026399
:108D1000110A01F47F410B4343EA12637B609BE736
:108D20000825856398E70225856395E720258563F7
:108D300092E74FF000458FE710B582B0044600215E
:108D400000910191006801F09DFA10F0007F13D1AD
:108D500069462046FFF770FF80B9019B13F4802F0E
:108D60000ED0216D0904206801F008FC30B9022101
:108D7000206801F01BFC01E04FF4006002B010BD60
:108D80004FF08060FAE710B582B0044600210091F0
:108D90000191006801F076FA10F0007F13D1694666
:108DA0002046FFF749FF80B9019B13F4803F0ED0A6
:108DB000216D0904206801F0E1FB30B90021206831
:108DC00001F0F4FB01E04FF4006002B010BD4FF081
:108DD0008060FAE770B581B104460E46016D090462
:108DE000006801F013FC054608B1284670BD00215B
:108DF000206801F047FA3060F7E74FF00065F4E7CC
:108E00002DE9F04F87B005460C4616469B46DDF827
:108E100040A0FEF71BF8002C36D0814695F8347040
:108E2000FFB2012F40F005810023AB6306EB0B037B
:108E3000EA6D93422ED8032385F834302B68002244
:108E4000DA626B6C012B00D076024FF0FF33009397
:108E50004FEA4B23019390230293022303930023B1
:108E60000493012305936946286801F00EFABBF1CB
:108E7000010F14D902232B633146286801F004FB4B
:108E8000A0B9DDF8048038E0AB6B43F00063AB635E
:108E90000127D3E0AB6B43F00073AB63CEE001235B
:108EA0002B633146286801F0D7FAE9E72B68654A59
:108EB0009A63AB6B0343AB63012385F83430002323
:108EC0002B63BBE0286801F0BAF92070C0F30723D8
:108ED0006370C0F30743A370000EE0700434A8F180
:108EE00004080136072EEDD9FDF7B0FFA0EB09000D
:108EF000504510D2BAF1000F0DD02868466B40F2F1
:108F00002A331E4015D1436B13F4004FECD0B8F157
:108F1000000FE9D0E6E72B684A4A9A63AB6B43F04F
:108F20000043AB63012385F8343000232B63032710
:108F300084E0436B13F4807F05D0BBF1010F02D9AD
:108F40006B6C032B38D12B685A6B12F0080F44D18D
:108F50005A6B12F0020F4CD15A6B12F0200F54D101
:108F60002868436B13F4001F5BD0B8F1000F58D092
:108F700001F065F92070C0F307236370C0F3074365
:108F8000A370000EE0700434A8F10408FDF75EFF42
:108F9000A0EB0900504502D2BAF1000FE0D12B68D6
:108FA000284A9A63AB6B43F00043AB63012385F817
:108FB000343000232B6341E001F0AEFA0346002871
:108FC000C1D02A681F499163AA6B1343AB63012385
:108FD00085F8343000232B6330E01A4A9A63AB6B78
:108FE00043F00803AB63012385F8343000232B637F
:108FF00024E0144A9A63AB6B43F00203AB63012392
:1090000085F8343000232B6318E00E4A9A63AB6B6B
:1090100043F02003AB63012385F8343000232B6336
:109020000CE040F23A538363012385F83430002783
:1090300004E0AB6B43F00053AB630127384607B045
:10904000BDE8F08FFF0540002DE9F04F8BB00546DD
:109050000C4616469B46DDF850A0FDF7F7FE002CA7
:1090600037D0804695F83470FFB2012F40F0E2808F
:109070000023AB6306EB0B03EA6D93422FD8032367
:1090800085F834302B680022DA626B6C012B00D03B
:1090900076024FF0FF3304934FEA4B23059390235E
:1090A00006930023079308930123099304A92868D2
:1090B00001F0EBF8BBF1010F16D920232B633146E9
:1090C000286801F011FA0190019BABB9DDF814900A
:1090D00040E0AB6B43F00063AB630127AFE0AB6BE9
:1090E00043F00073AB63AAE010232B63314628687A
:1090F00001F0E2F90190E7E72B68534A9A63AB6B02
:10910000019A1343AB63012385F8343000232B63AA
:1091100095E023780393627843EA02230393A278CD
:1091200043EA02430393E27843EA0263039304347D
:10913000A9F1040903A9286801F084F80136072E73
:10914000E7D9FDF783FEA0EB0800504510D2BAF135
:10915000000F0DD02868466B40F21A331E4015D11F
:10916000436B13F4804FECD0B9F1000FE9D0E6E780
:109170002B68354A9A63AB6B019A1343AB630123A7
:1091800085F8343000232B63032758E0436B13F436
:10919000807F05D0BBF1010F02D96B6C032B18D176
:1091A0002B685A6B12F0080F24D15A6B12F0020F81
:1091B0002CD15A6B12F0100F34D0234A9A63AB6B48
:1091C00043F01003AB63012385F8343000232B6395
:1091D00035E001F0A1F903460028E1D02A681A49D8
:1091E0009163AA6B1343AB63012385F834300023EA
:1091F0002B6324E0144A9A63AB6B43F00803AB6320
:10920000012385F8343000232B6318E00E4A9A635B
:10921000AB6B43F00203AB63012385F834300023CA
:109220002B630CE040F23A529A63012385F8343004
:10923000002704E0AB6B43F00053AB6301273846D3
:109240000BB0BDE8F08F00BFFF0540007047000085
:109250000346426E920F0A70426EC2F383624A70F6
:1092600090F8672002F003028A7090F86620CA70B6
:1092700090F865200A7190F864204A71826E120D90
:10928000CA80B0F86A2002F00F020A72826EC2F33E
:10929000C0324A72826EC2F380328A72826EC2F328
:1092A0004032CA72826EC2F300320A7300224A73DD
:1092B000426C002A40F08680806E40F6FC7202EA22
:1092C0008002D86E42EA90720A61DA6EC2F3C2621C
:1092D0000A7593F86F2002F007024A75DA6EC2F33E
:1092E00042528A75DA6EC2F38242CA75DA6EC2F3EE
:1092F000C2320A760A6901325A65087E00F0070018
:10930000023082405A6591F808C00CF00F0C012021
:1093100000FA0CF09865400A00FB02F2DA654FF49F
:1093200000721A66DA6EC2F380324A76DA6EC2F3DF
:10933000C6128A76DA6E02F07F02CA761A6FD20FF0
:109340000A771A6FC2F341724A771A6FC2F38262C8
:109350008A771A6FC2F38352CA771A6FC2F34052E8
:1093600081F82020002081F82100B3F8722002F05B
:10937000010281F822201A6FC2F3C03281F8232043
:109380001A6FC2F3803281F824201A6FC2F3403280
:1093900081F825201A6FC2F3003281F826201A6F57
:1093A000C2F3812281F827201A6FC2F3012281F8CB
:1093B00028201B6FC3F3460381F82930012381F86D
:1093C0002A307047012A11D1826E120402F47C12F5
:1093D000B0F86E0002430A610A69013292025A65CE
:1093E000DA654FF400729A651A669BE702680549D0
:1093F0009163826B42F080528263012083F83400D3
:10940000704700BFFF05400070B590B004460123CF
:10941000ADF81230006800F01EFF00286CD0636CBD
:10942000032B45D1636C032B5DD1636C032B1DD0E3
:10943000BDF8121021650904206801F042F90546C3
:1094400000285BD10021206800F01CFF6066042129
:10945000206800F017FFA0660821206800F012FFC6
:10946000E0660C21206800F00DFF206704212068D1
:1094700000F008FF000DE06405A92046FFF7E8FEB4
:1094800000283ED1226D12040023206801F05EF80E
:10949000054698BB234653F8106B93E807008DE808
:1094A0000700043494E80E00304600F0AFFE25E0DB
:1094B000206801F0F1F8054600BB0021206800F0AB
:1094C000E1FE60670421206800F0DCFEA06708214F
:1094D000206800F0D7FEE0670C21206800F0D2FE83
:1094E000C4F880009EE70DF11201206801F08EF9AA
:1094F0000546002899D001E04FF08065284610B05D
:1095000070BD4FF08055F9E770B58AB0044600236E
:1095100004930593069307930893762309930AAB64
:1095200013E907008DE8070004AB0ECB206800F0BC
:109530006DFE18B1012528460AB070BD05461A4EC9
:109540000023C6F8A030206800F081FE0123C6F891
:10955000A0300220FDF780FC2046FFF7CDFA30B1A5
:10956000012584F83450A36B0343A363E3E720464B
:10957000FFF74AFF30B1012584F83450A36B034351
:10958000A363D8E74FF40071206800F04DFF002876
:10959000D1D0236805499963A36B0343A3630125D5
:1095A00084F83450C7E700BF00003042FF05400098
:1095B000A8B110B5044690F8343063B1032384F8A1
:1095C00034302046FFF7A0FF58B9A0632063012381
:1095D00084F8343010BD0377FDF74AFAEEE7012036
:1095E00070470120F6E7436C0B60836C4B60C36CE3
:1095F0008B60036DCB60436D0B61836D4B61C36DFD
:109600008B61036ECB6100207047000030B58BB0DA
:1096100004460D46032380F83430436C032B1CD0E2
:10962000B1F5805F08D0B1F5006F0AD079B1836BD6
:1096300043F00063836314E0836B43F080538363E0
:109640000FE0FFF779FBA36B0343A36309E0FFF788
:109650009AFBA36B0343A36303E0836B43F0805344
:109660008363A36BC3B12368174A9A63012584F807
:1096700034504FF40071206800F0D6FE30B12368FA
:1096800011499963A36B0343A3630125012384F864
:10969000343028460BB030BD63680493A36805934B
:1096A000E3680693079563690893A36909930AAB76
:1096B00013E907008DE8070004AB0ECB206800F02B
:1096C000A5FD0025D5E700BFFF05400010B582B01D
:1096D00004460023019301A9FFF77CFB10B1A36BA3
:1096E0000343A3630198C0F3432002B010BD10B53B
:1096F000446A236840F23A529A632046FFF7E6FF35
:10970000012384F83430002323630538012805D968
:10971000A36B53B9204602F0E2F810BD206800F0B8
:10972000FBFEA36B0343A363F2E72046FFF78EFD26
:10973000F3E710B5446A236840F23A529A63204630
:10974000FFF7C4FF012384F8343000232363053876
:10975000012805D9A36B53B9204602F0C0F810BD0B
:10976000206800F0D9FEA36B0343A363F2E7204611
:10977000FFF76CFDF3E7000038B50446056B03689E
:109780005A6B12F4004F02D015F0080F28D15A6B13
:1097900012F4807F5AD04FF480729A632268D36BA0
:1097A00023F4414323F03A03D3632268D36A23F0BE
:1097B0000103D36215F0080F26D015F0220F12D145
:1097C000236840F23A529A63012384F8343000232C
:1097D000236315F0030F13D0204602F08AF801E04E
:1097E000FFF7EAF938BD206800F096FE034600282E
:1097F000E6D0A26B1343A3632046FFF727FDDFE704
:10980000204602F071F8EDE715F0800FEAD015F070
:10981000200F0ED115F0030FE4D12268D36A23F094
:109820000803D362012384F83430204602F05CF848
:10983000D8E7206800F070FE03460028EAD0A26B4B
:109840001343A3632046FFF701FDE3E75A6B12F4CD
:10985000804F02D015F0080F4CD15A6B12F03A0F1E
:10986000C0D05A6B12F0020F03D0A26B42F002027A
:10987000A2635A6B12F0080F03D0A26B42F00802E9
:10988000A2635A6B12F0200F03D0A26B42F02002A9
:10989000A2635A6B12F0100F03D0A26B42F01002B9
:1098A000A26340F23A729A632268D36B23F44E7338
:1098B00023F00203D363206800F02EFEA36B034362
:1098C000A36315F0080F19D115F0800F8AD015F099
:1098D000300F1CD115F0030F26D0236C174A5A63A2
:1098E000206CFDF731FB00283FF47CAF206CFFF7C4
:1098F00020FF77E72046FFF77BF973E7012384F821
:109900003430002323632046FFF7A0FC6AE7E36BB3
:109910000B4A5A63E06BFDF717FB00283FF462AF78
:10992000E06BFFF7E4FE5DE70023A363012284F808
:1099300034202363204601F0D2FF53E73397000819
:10994000EF9600082DE9F04782B005468846174695
:109950001E46FDF77BFA0A9B1B1A03EB0609FDF76F
:1099600075FA8246284B1B68C3F3CB3309FB03F31C
:1099700001932B689C6838EA04040CBF0123002380
:10998000BB423DD0B6F1FF3FF3D0FDF75FFAA0EB4D
:109990000A00484507D2019A02B14A46019B013BA1
:1099A00001939146E5E72A68536823F0E00353608A
:1099B0006B68B3F5827F0BD0AB6AB3F5005F14D050
:1099C000012385F85130002385F85030032018E03A
:1099D000AB68B3F5004F02D0B3F5806FECD12A68C5
:1099E000136823F040031360E6E72A68136823F442
:1099F000005313602A68136843F400531360DFE7D1
:109A0000002002B0BDE8F0870000002010B582B051
:109A100004460B46009200228021FFF793FF08B90D
:109A200002B010BD636D43F0200363650320F7E7C8
:109A3000002856D010B50446436A33B94368B3F5DD
:109A4000827F05D00023C36102E0002303614361EC
:109A50000023A36294F85130002B3CD0022384F8F9
:109A600051302268136823F040031360636803F4E5
:109A70008273A26802F404421343E26802F40062B3
:109A80001343226902F002021343626902F00102E9
:109A90001343A26902F400721343E26902F0380230
:109AA0001343226A02F080021343A26A02F40052B6
:109AB000216813430B60638B226803F00403536037
:109AC0002268D36923F40063D36100206065012319
:109AD00084F8513010BD84F850302046FDF758F816
:109AE000BCE7012070472DE9F04383B01D4690F894
:109AF0005030012B00F0D180044688469146012366
:109B000080F85030FDF7A2F9074694F85160F6B29C
:109B1000012E40F0BA80B8F1000F00F0B780B9F123
:109B2000000F00F0B380032384F8513000236365F5
:109B3000C4F83080A4F83490A4F83690A363A387C7
:109B4000E38763642364A368B3F5004F1ED02368E2
:109B50001A6812F0400F03D11A6842F040021A60EE
:109B6000E368B3F5006F1CD0636813B1B9F1010F5E
:109B700055D1226B236812781A73236B0133236348
:109B8000E38E9BB2013B9BB2E38648E022681368F8
:109B900023F0400313602268136843F4804313608A
:109BA000D5E7636813B1B9F1010F15D1226B2368B2
:109BB0001288DA60236B02332363E38E9BB2013B8E
:109BC0009BB2E38608E0FDF741F9C01BA84202D32F
:109BD000B5F1FF3F15D1A5B1E38E9BB2002B3CD070
:109BE00023689A6812F0020FEDD0226B1288DA60B7
:109BF000236B02332363E38E9BB2013B9BB2E3866C
:109C0000EAE7012384F8513003263FE0FDF71EF90F
:109C1000C01BA84202D3B5F1FF3F19D1C5B1E38EF5
:109C20009BB2D3B123689A6812F0020FEED0226B78
:109C300012781A73236B01332363B4F836C01FFA0A
:109C40008CFC0CF1FF3C1FFA8CFCA4F836C0E6E754
:109C5000012384F85130032618E03A46294620466D
:109C6000FFF7D4FE08B120236365A36833B90193DD
:109C70002368DA6801929B680193019B636D2BB99D
:109C8000012384F85130002600E00226002384F8E6
:109C90005030304603B0BDE8F0830226F9E72DE9E5
:109CA000F04383B01F460A9D90F85030012B00F01E
:109CB0001681044688469146012380F85030FDF70E
:109CC000C5F8064694F85130DBB26268012B0AD021
:109CD000B2F5827F40F0F080A268002A40F0F38065
:109CE000042B40F0F280B8F1000F00F0F080B9F1E1
:109CF000000F00F0EE80002F00F0ED8094F851305E
:109D0000DBB2042B02D0052384F8513000236365B5
:109D1000C4F83890E787A787C4F83080E786A7861D
:109D20002364636423681A6812F0400F03D11A6831
:109D300042F040021A60E368B3F5006F11D0636827
:109D40000BB1012F0BD1226B236812781A73236B8E
:109D500001332363E38E9BB2013B9BB2E386012771
:109D60006EE063680BB1012F0BD1226B2368128860
:109D7000DA60236B02332363E38E9BB2013B9BB219
:109D8000E38601271BE023689A6812F0010F0ED0CA
:109D9000E28F92B25AB1DA68A36B1A80A36B0233D6
:109DA000A363E38F9BB2013B9BB2E3870127FDF7DF
:109DB0004DF8801BA84202D3B5F1FF3F1ED1E38EC0
:109DC0009BB21BB9E38F9BB2002B5CD023689A68CF
:109DD00012F0020FD7D0E28E92B2002AD3D0002F19
:109DE000D1D0226B1288DA60236B02332363E38EB7
:109DF0009BB2013B9BB2E3860027C4E7012384F8B2
:109E00005130032059E023689A6812F0010F0ED0F8
:109E1000E28F92B25AB1DA68A36B1A70A36B013366
:109E2000A363E38F9BB2013B9BB2E3870127FDF75E
:109E30000DF8831BAB4202D3B5F1FF3F1ED1EDB14C
:109E4000E38E9BB213B9E38F9BB2E3B123689A68A8
:109E500012F0020FD7D0E28E92B2002AD3D0002F98
:109E6000D1D0226B12781A73236B01332363E38EF4
:109E70009BB2013B9BB2E3860027C4E7012384F831
:109E80005130032019E0324629462046FFF7BEFD37
:109E900070B9A36833B901932368DA6801929B68AB
:109EA0000193019B636DC3B9012384F8513004E031
:109EB00020236365012000E00220002384F8503055
:109EC00003B0BDE8F0830220F7E70220F5E70120A8
:109ED000F3E70120F1E70120EFE70120EDE70220A1
:109EE000EEE7704790F83D30DBB2012B2FD1022313
:109EF00080F83D300268D36843F00103D360036803
:109F0000154A934218D002F50062934214D0B3F17F
:109F1000804F11D0A2F5983293420DD002F58062A5
:109F2000934209D002F58062934205D01A6842F04C
:109F300001021A60002070479A6802F00702062AA0
:109F400007D01A6842F001021A6000207047012011
:109F500070470020704700BF002C014070477047D9
:109F60007047704710B5044603681A6912F0020F73
:109F700011D0DA6812F0020F0DD06FF002021A61F0
:109F80000123037703689B6913F0030F70D0FFF779
:109F9000E6FF0023237723681A6912F0040F12D01A
:109FA000DA6812F0040F0ED06FF004021A61022377
:109FB000237723689B6913F4407F5FD02046FFF727
:109FC000CEFF0023237723681A6912F0080F12D0FE
:109FD000DA6812F0080F0ED06FF008021A6104233D
:109FE00023772368DB6913F0030F4ED02046FFF779
:109FF000B6FF0023237723681A6912F0100F12D0DE
:10A00000DA6812F0100F0ED06FF010021A610823F8
:10A0100023772368DB6913F4407F3DD02046FFF7A8
:10A020009EFF0023237723681A6912F0010F03D0E3
:10A03000DA6812F0010F36D123681A6912F0800F26
:10A0400003D0DA6812F0800F34D123681A6912F055
:10A05000400F03D0DA6812F0400F32D123681A693A
:10A0600012F0200F03D0DA6812F0200F30D110BDAB
:10A07000FFF774FF2046FFF773FF8AE72046FFF7DC
:10A080006DFF2046FFF76CFF9BE72046FFF766FF5A
:10A090002046FFF765FFACE72046FFF75FFF20464D
:10A0A000FFF75EFFBDE76FF001021A612046FCF783
:10A0B00069FCC1E76FF080021A61204600F089F860
:10A0C000C3E76FF040021A612046FFF74AFFC5E779
:10A0D0006FF020021A61204600F07AF8C7E700000E
:10A0E0000368244A904212D002F5006290420ED0DA
:10A0F000B0F1804F0BD0A2F59832904207D002F514
:10A100008062904203D002F58062904203D123F036
:10A1100070034A681343174A904212D002F5006256
:10A1200090420ED0B0F1804F0BD0A2F59832904201
:10A1300007D002F58062904203D002F5806290421F
:10A1400003D123F44073CA68134323F080034A69A0
:10A15000134303608B68C3620B688362054B9842AC
:10A1600003D003F50063984201D10B690363012317
:10A1700043617047002C014040B310B5044690F88D
:10A180003D30F3B1022384F83D30214651F8040BF1
:10A19000FFF7A6FF012384F8463084F83E3084F8A8
:10A1A0003F3084F8403084F8413084F8423084F8FD
:10A1B000433084F8443084F8453084F83D30002042
:10A1C00010BD80F83C30FFF78CFEDBE701207047C4
:10A1D000704770470B4B1B680B4AA2FB03235B0ABB
:10A1E00041F2883202FB03F31A46013B3AB1426B5B
:10A1F00012F0800FF8D0C5238363002070474FF022
:10A200000040704700000020D34D621084B00DF173
:10A21000040C8CE80E000B461343039A1343049A74
:10A220001343059A1343069A1343426822F4FD42EE
:10A2300022F07F0213434360002004B07047D0F83F
:10A24000800070470B68C0F88030002070470323FF
:10A25000036000207047006800F0030070470B683F
:10A2600083604B688A681343CA6813430A691343BF
:10A27000C2686FF30B021343C3600020704700698C
:10A28000C0B270471430405870470B6843624B6847
:10A2900083628B68CA6813430A6913434A6913438C
:10A2A000C26A22F0F7021343C3620020704710B560
:10A2B00086B00446002301930293039304934FF462
:10A2C0008063059301A9FFF7CAFF2046FFF782FFCD
:10A2D00006B010BD38B504460D46504B1B685049BA
:10A2E000A1FB03135B0A03FB02F21346013A002BA6
:10A2F0005DD0636B13F0450FF7D013F4006FF4D10A
:10A30000636B13F0040F06D1636B13F0010F05D0DC
:10A310000120A0634DE00420A0634AE0C523A363AD
:10A320002046FFF7ACFFA84201D0012041E0002108
:10A330002046FFF7A7FF03463A481840C8B3002B52
:10A3400038DB13F0804F38D113F0005F37D113F0B2
:10A35000805F36D113F0006F36D113F0806F36D1A5
:10A3600013F0807F36D113F4000F36D113F4800F31
:10A3700036D113F4001F36D113F4801F36D113F4F5
:10A38000802F36D113F4003F36D113F4803F36D1FD
:10A3900013F4004F36D113F4804F36D113F4005F1D
:10A3A00036D113F0080F36D04FF4000001E04FF023
:10A3B000004038BD4FF00070FBE74020F9E78020F7
:10A3C000F7E74FF48070F4E74FF40070F1E74FF4D3
:10A3D0008060EEE74FF40060EBE74FF48050E8E771
:10A3E0004FF40050E5E74FF48040E2E74FF40040BF
:10A3F000DFE74FF40030DCE74FF48020D9E74FF47B
:10A400000020D6E74FF48010D3E74FF40010D0E7D8
:10A410004FF48000CDE74FF48030CAE70000002001
:10A42000D34D621008E0FFFD30B587B004460191BE
:10A430001025029540230393002304934FF4806377
:10A44000059301A9FFF70BFF41F288322946204608
:10A45000FFF740FF07B030BD30B587B0044601912B
:10A460001125029540230393002304934FF4806346
:10A47000059301A9FFF7F3FE41F2883229462046F1
:10A48000FFF728FF07B030BD30B587B00446019113
:10A490001225029540230393002304934FF4806315
:10A4A000059301A9FFF7DBFE41F2883229462046D9
:10A4B000FFF710FF07B030BD30B587B004460191FB
:10A4C0001825029540230393002304934FF48063DF
:10A4D000059301A9FFF7C3FE41F2883229462046C1
:10A4E000FFF7F8FE07B030BD30B587B004460191E4
:10A4F0001925029540230393002304934FF48063AE
:10A50000059301A9FFF7ABFE41F2883229462046A8
:10A51000FFF7E0FE07B030BD30B587B0044600233A
:10A5200001930C2502954022039204934FF480631B
:10A53000059301A9FFF793FE034A29462046FFF73A
:10A54000C9FE07B030BD00BF00E1F50530B587B0EA
:10A5500004460192072502954023039300230493A8
:10A560004FF48063059301A9FFF779FE41F2883229
:10A5700029462046FFF7AEFE07B030BD30B587B0A4
:10A580000446019137250295402303930023049349
:10A590004FF48063059301A9FFF761FE41F2883211
:10A5A00029462046FFF796FE07B030BD30B587B08C
:10A5B000044601910625029540230393002304934A
:10A5C0004FF48063059301A9FFF749FE41F28832F9
:10A5D00029462046FFF77EFE07B030BD30B587B074
:10A5E00004460023019333250295402203920493ED
:10A5F0004FF48063059301A9FFF731FE41F28832E1
:10A6000029462046FFF766FE07B030BD30B587B05B
:10A61000044601910D2502954023039300230493E2
:10A620004FF48063059301A9FFF719FE41F28832C8
:10A6300029462046FFF74EFE07B030BD0146144BB9
:10A640001B68144AA2FB03235B0A41F2883202FB17
:10A6500003F31A46013BBAB14A6B12F0450FF8D02A
:10A6600012F4006FF5D14B6B13F0040F06D1486B59
:10A6700010F0010005D1C5238B6370470420886367
:10A6800070470120886370474FF00040704700BF5B
:10A6900000000020D34D621010B586B004460023A0
:10A6A000019302220292C022039204934FF480632A
:10A6B000059301A9FFF7D3FD2046FFF7BFFF06B0C2
:10A6C00010BD10B586B00446019109230293C02342
:10A6D0000393002304934FF48063059301A9FFF7CC
:10A6E000BEFD2046FFF7AAFF06B010BD0146104B85
:10A6F0001B68104AA2FB03235B0A41F2883202FB6B
:10A7000003F31A46013B82B14A6B12F0450FF8D0B1
:10A7100012F4006FF5D1486B10F0040002D1C5238C
:10A720008B6370470420886370474FF00040704788
:10A7300000000020D34D621010B586B0044641F0F1
:10A74000004141F480110191292302934023039396
:10A75000002304934FF48063059301A9FFF77FFD65
:10A760002046FFF7C3FF06B010BD0000F8B5054650
:10A770000E461746234B1B68234AA2FB03235B0AA2
:10A7800041F2883202FB03F31A46013B8AB36C6B39
:10A7900014F0450FF8D014F4006FF5D16B6B13F083
:10A7A000040F06D16B6B13F0010F05D00120A863D5
:10A7B00021E00420A8631EE02846FFF760FDB042B8
:10A7C00001D0012017E0C523AB6300212846FFF725
:10A7D00059FD034610F4604008D013F4804F0BD1AC
:10A7E00013F4004F0BD04FF4805004E01B0C3B805F
:10A7F00001E04FF00040F8BD4FF40050FBE74FF48C
:10A800008030F8E700000020D34D621070B586B0AC
:10A8100004460D460023019303260296402203922C
:10A8200004934FF48063059301A9FFF718FD2A46AE
:10A8300031462046FFF79AFF06B070BD0146164B21
:10A840001B68164AA2FB03235B0A41F2883202FB13
:10A8500003F31A46013BE2B14A6B12F0450FF8D000
:10A8600012F4006FF5D14B6B13F0040F0BD14B6B4F
:10A8700013F001030AD1486B10F040000BD04022C6
:10A880008A631846704704208863704701208863F4
:10A8900070474FF00040704700000020D34D621019
:10A8A00010B586B004464FF4D57301930823029384
:10A8B00040230393002304934FF48063059301A97D
:10A8C000FFF7CDFC2046FFF7B9FF06B010BD84B0FE
:10A8D00001A880E80E00002004B070470346002065
:10A8E000A3F844004FF43F42A3F840207047B0F86B
:10A8F000403023F47C535B045B0CA0F84030002014
:10A9000070470020704784B0844601A880E80E009C
:10A910000123ACF840300020ACF84000ACF8440013
:10A92000ACF8500004B0704700207047002070471A
:10A9300010B5034691F800C030F82C2092B222F4F2
:10A94000EC4222F0700292B2C878032861D8DFE8A6
:10A9500000F0555C0258002048F2800E42EA0E02D8
:10A9600023F82C2091F800C033F82C2092B222F466
:10A97000E04222F0700242EA0C0242EA0E0223F8A0
:10A980002C200A7B002A40F0DC804A78002A51D033
:10A99000B3F8502092B21A440C7802EB0412B1F8CA
:10A9A00006C04FEA5C0C4FEA4C0CA2F800C40C78CD
:10A9B00033F8242012F0400F0CD033F8242092B248
:10A9C00022F4E04222F0700242F4004242F0C0025F
:10A9D00023F82420CA78012A1DD0097833F82120D1
:10A9E00092B222F4E04222F0400282F0200242F4CD
:10A9F000004242F0800223F8212017E142F4007265
:10AA0000AAE742F4C0620020A6E742F48062002078
:10AA1000A2E70120A0E7097833F8212092B222F4BE
:10AA2000E04222F0400242F4004242F0800223F869
:10AA30002120FBE0B3F8502092B21A440C7802EBCC
:10AA40000412B1F806C04FEA5C0C4FEA4C0CA2F8B5
:10AA500008C4B3F8502092B21A440C7802EB0412E6
:10AA6000B2F80CC4CCF3090CA2F80CC40C693E2C4F
:10AA700039D94FEA541E14F01F0F01D10EF1FF3ED9
:10AA8000B2F80CC41FFA8CFC4FEA8E2E1FFA8EFE11
:10AA90004CEA0E0C4CF4004CA2F80CC40C7833F8C1
:10AAA000242012F4804F0CD033F8242092B222F4E8
:10AAB000E04222F0700242F4404242F0800223F869
:10AAC0002420097869BB33F8212092B222F4804215
:10AAD00022F0700282F4405242F4004242F08002BE
:10AAE00023F82120A2E04CB9B2F80C446FEA4444A8
:10AAF0006FEA5444A4B2A2F80C44CFE74FEA540CD6
:10AB000014F0010F01D00CF1010CB2F80C44A4B206
:10AB10004FEA8C2C1FFA8CFC44EA0C04A2F80C447B
:10AB2000BCE733F8212092B222F4804222F0700276
:10AB300082F4005242F4004242F0800223F82120C5
:10AB400074E0CA78022A72D00C7833F8242092B2CA
:10AB500022F4E24222F0700242F4004242F080020B
:10AB600023F82420B3F8502092B21A4491F800C080
:10AB700002EB0C12B1F808C04FEA5C0C4FEA4C0C27
:10AB8000A2F800C4B3F8502092B21A4491F800C061
:10AB900002EB0C12B1F80AC04FEA5C0C4FEA4C0C05
:10ABA000A2F808C44A78002A50D10C7833F824203F
:10ABB00012F4804F0CD033F8242092B222F4E042F9
:10ABC00022F0700242F4404242F0800223F8242036
:10ABD0000C7833F8242012F0400F0CD033F82420E6
:10ABE00092B222F4E04222F0700242F4004242F0BB
:10ABF000C00223F8242091F800C033F82C2092B230
:10AC000022F4804222F0700282F4405248F2800422
:10AC1000224323F82C20097833F8212092B222F421
:10AC2000E04222F04002224323F8212010BD0C789C
:10AC300033F8242092B222F4E04222F0700242F46F
:10AC4000014242F0800223F824208BE70C7833F88D
:10AC5000242012F4804F0CD033F8242092B222F436
:10AC6000E04222F0700242F4404242F0800223F8B7
:10AC700024200C7833F8242012F0400F0CD033F845
:10AC8000242092B222F4E04222F0700242F4004208
:10AC900042F0C00223F82420CA78012A1ED00C7882
:10ACA00033F8242092B222F4E04222F0400282F0F3
:10ACB000200242F4004242F0800223F82420097866
:10ACC00033F8212092B222F4804222F0700242F442
:10ACD000004242F0800223F82120A7E70C7833F8E5
:10ACE000242092B222F4E04222F0400242F40042D8
:10ACF00042F0800223F82420E1E70B7B002B46D1B1
:10AD00004B7813B30A7830F8223013F0400F0CD090
:10AD100030F822309BB223F4E04323F0700343F475
:10AD2000004343F0C00320F822300A7830F8223084
:10AD30009BB223F4E04323F0400343F4004343F089
:10AD4000800320F82230002070470A7830F8223043
:10AD500013F4804F0CD030F822309BB223F4E04340
:10AD600023F0700343F4404343F0800320F8223083
:10AD70000A7830F822309BB223F4804323F070032A
:10AD800043F4004343F0800320F82230DBE74B78A4
:10AD9000002B4ED10A7830F8223013F4804F0CD0BB
:10ADA00030F822309BB223F4E04323F0700343F4E5
:10ADB000404343F0800320F822300A7830F82230F4
:10ADC00013F0400F0CD030F822309BB223F4E04354
:10ADD00023F0700343F4004343F0C00320F8223013
:10ADE0000A7830F822309BB223F4E04323F070035A
:10ADF00043F4004343F0C00320F822300A7830F8CF
:10AE000022309BB223F4804323F0700348F2800C7D
:10AE100043EA0C0320F822300A7830F822309BB243
:10AE200023F4E04323F0400343EA0C0320F82230EC
:10AE300089E70A7830F8223013F4804F0CD030F8CC
:10AE400022309BB223F4E04323F0700343F44043E9
:10AE500043F0800320F822300A7830F8223013F0D3
:10AE6000400F0CD030F822309BB223F4E04323F0A3
:10AE7000700343F4004343F0C00320F822300A7803
:10AE800030F822309BB223F4E04323F0700343F404
:10AE9000404343F0800320F822300A7830F8223013
:10AEA0009BB223F4E04323F0400348F2800C43EAD2
:10AEB0000C0320F822300A7830F822309BB223F4B9
:10AEC000804323F0700343EA0C0320F822303AE772
:10AED0004B788BB10A7830F822309BB223F4E043F0
:10AEE00023F0400383F0100343F4004343F0800356
:10AEF00020F82230002070470A7830F822309BB2C8
:10AF000023F4804323F0700383F4805343F400431D
:10AF100043F0800320F82230ECE70B7B002B4BD171
:10AF20004B7833B30A7830F8223013F0400F0CD04E
:10AF300030F822309BB223F4E04323F0700343F453
:10AF4000004343F0C00320F82230CB78012B33D0EC
:10AF50000A7830F822309BB223F4E04323F0400318
:10AF600083F0200343F4004343F0800320F82230B1
:10AF700022E00A7830F8223013F4804F0CD030F8F9
:10AF800022309BB223F4E04323F0700343F44043A8
:10AF900043F0800320F822300A7830F822309BB248
:10AFA00023F4804323F0700383F4405343F40043BD
:10AFB00043F0800320F822300020704711B980232D
:10AFC000A0F84C30002070470020704700207047E8
:10AFD000B0F8440080B270470020704701335B082E
:10AFE00000EB420000F5806008E00A7891F801C0AB
:10AFF00042EA0C2220F8042B0231013B002BF4D151
:10B00000704770B505460C464A78012A3BD00B7B49
:10B01000002B40F0A6828B690A69934240F2848239
:10B020009B1A8B61B5F850309BB22B44217803EB0F
:10B030000113B3F80C14C1F30901A3F80C143E2A50
:10B0400040F27682510912F01F0F00D10139B3F896
:10B050000C2492B2890289B20A4342F40042A3F856
:10B060000C24227835F822309BB223F4804323F05D
:10B07000700383F4405343F4004343F0800325F806
:10B080002230002070BD8E6909698E4200D90E46BB
:10B09000237B73B3E378022B4DD0236A9B1B23627F
:10B0A000217835F8213013F0400F00F0F581002AA7
:10B0B00040F0E281B5F850309BB22B4403EB011312
:10B0C000B3F80C24C2F30902A3F80C243E2E40F27C
:10B0D000BA81710916F01F0F00D10139B3F80C24A1
:10B0E00092B2890289B20A4342F40042A3F80C24C6
:10B0F000CBE1B6B23346E28861692846FFF76EFFBE
:10B10000B5F850309BB22B44227803EB0213A3F81E
:10B110000464227835F822309BB223F4E04323F014
:10B12000400383F0300343F4004343F0800325F8E9
:10B1300022300020A6E7236A994280F066812278B7
:10B1400035F822309BB223F4E04323F0700343F43C
:10B15000014343F0800325F82230236A9B1B2362BE
:10B16000227835F8223013F0400F00F0A780637882
:10B17000B3BBB5F850309BB22B4403EB0213B3F8CA
:10B180000C24C2F30902A3F80C243E2E0FD9710936
:10B1900016F01F0F00D10139B3F80C2492B28902C6
:10B1A00089B20A4342F40042A3F80C241AE04EB9D3
:10B1B000B3F80C246FEA42426FEA524292B2A3F80B
:10B1C0000C240FE0720816F0010F00D00132B3F822
:10B1D0000C1489B2920292B20A43A3F80C2401E043
:10B1E000012B30D0B3B2628961692846FFF7F6FEC1
:10B1F000636933446361236A226993422DD99B1B9F
:10B2000023626378002B45D1B5F850309BB22B44B4
:10B21000227803EB0213B3F80424C2F30902A3F863
:10B2200004243E2E1DD9710916F01F0F00D10139DB
:10B23000B3F8042492B2890289B20A4342F400426C
:10B24000A3F8042428E0B5F850309BB22B4403EB5C
:10B250000213B2B2A3F80C24C4E7002222621E46F5
:10B26000CFE74EB9B3F804246FEA42426FEA524284
:10B2700092B2A3F804240FE0720816F0010F00D078
:10B280000132B3F8041489B2920292B20A43A3F8CD
:10B29000042401E0012B06D0B3B22289616928465B
:10B2A000FFF79CFE35E7B5F850309BB22B4422786F
:10B2B00003EB0213B2B2A3F80424EDE76378B3BB47
:10B2C000B5F850309BB22B4403EB0213B3F80424BF
:10B2D000C2F30902A3F804243E2E0FD9710916F017
:10B2E0001F0F00D10139B3F8042492B2890289B248
:10B2F0000A4342F40042A3F804241AE04EB9B3F81A
:10B3000004246FEA42426FEA524292B2A3F8042444
:10B310000FE0720816F0010F00D00132B3F80414E8
:10B3200089B2920292B20A43A3F8042401E0012BED
:10B3300030D0B3B2228961692846FFF74FFE6369B6
:10B3400033446361236A226993422DD99B1B236294
:10B350006378002B45D1B5F850309BB22B4422784E
:10B3600003EB0213B3F80C24C2F30902A3F80C2474
:10B370003E2E1DD9710916F01F0F00D10139B3F807
:10B380000C2492B2890289B20A4342F40042A3F823
:10B390000C2428E0B5F850309BB22B4403EB021389
:10B3A000B2B2A3F80424C4E7002222621E46CFE70B
:10B3B0004EB9B3F80C246FEA42426FEA524292B29D
:10B3C000A3F80C240FE0720816F0010F00D0013230
:10B3D000B3F80C1489B2920292B20A43A3F80C2477
:10B3E00001E0012B06D0B3B2628961692846FFF7FC
:10B3F000F5FD8EE6B5F850309BB22B44227803EB76
:10B400000213B2B2A3F80C24EDE7217835F821201D
:10B4100092B222F4E24222F0700242F4004242F080
:10B42000800225F82120B5F8502092B22A442178D4
:10B4300002EB01129BB2A2F804342289616928460A
:10B44000FFF7CCFD65E64EB9B3F80C246FEA424233
:10B450006FEA524292B2A3F80C2416E0720816F07A
:10B46000010F00D00132B3F80C1489B2920292B2EB
:10B470000A43A3F80C2408E0B5F850309BB22B44E3
:10B4800003EB0113B2B2A3F80C24B3B26289616971
:10B490002846FFF7A3FD3CE6B2BBB5F850309BB29F
:10B4A0002B4403EB0113B3F80424C2F30902A3F8FD
:10B4B00004243E2E0FD9710916F01F0F00D1013957
:10B4C000B3F8042492B2890289B20A4342F40042DA
:10B4D000A3F8042421E04EB9B3F804246FEA4242F1
:10B4E0006FEA524292B2A3F8042416E0720816F0F2
:10B4F000010F00D00132B3F8041489B2920292B263
:10B500000A43A3F8042408E0B5F850309BB22B445A
:10B5100003EB0113B2B2A3F80424B3B22289616928
:10B520002846FFF75BFDF4E500228A611A4679E5BB
:10B530004AB9B3F80C246FEA42426FEA524292B21F
:10B54000A3F80C248DE5510812F0010F00D0013151
:10B55000B3F80C2492B2890289B20A43A3F80C24EE
:10B560007FE5CB78022B4DD0012B40F02F818969EC
:10B570002369994240F2E680C91AA161F2B9B5F88F
:10B58000502092B22A44217802EB0112B2F804143E
:10B59000C1F30901A2F804143E2B40F2D7805809E8
:10B5A00013F01F0F00D10138B2F8041489B28002E1
:10B5B00080B2014341F40041A2F804146278002AE9
:10B5C00040F0F680B5F8502092B22A44217802EB80
:10B5D0000112B2F80C14C1F30901A2F80C143E2BAD
:10B5E00040F2CD80590913F01F0F00D10139B2F894
:10B5F0000C349BB2890289B20B4343F40043A2F896
:10B600000C342EE5F2B9B0F850309BB203440A78FE
:10B6100003EB0213B3F80424C2F30902A3F80424D1
:10B620000A693E2A31D9510912F01F0F00D10139A0
:10B63000B3F8042492B2890289B20A4342F4004268
:10B64000A3F804246378002B51D1B5F850309BB295
:10B650002B44227803EB0213B3F80C24C2F3090243
:10B66000A3F80C2422693E2A28D9510912F01F0F91
:10B6700000D10139B3F80C2492B2890289B20A438D
:10B6800042F40042A3F80C2433E04AB9B3F804248E
:10B690006FEA42426FEA524292B2A3F80424D1E721
:10B6A000510812F0010F00D00131B3F8042490B218
:10B6B0008A0292B20243A3F80424C3E74AB9B3F85A
:10B6C0000C246FEA42426FEA524292B2A3F80C2471
:10B6D0000FE0510812F0010F00D00131B3F80C2433
:10B6E00090B28A0292B20243A3F80C2401E0012B2B
:10B6F0001DD0E369002B3FF4B4AC227835F822105A
:10B7000044F2400303EA01008B4302D000287FF497
:10B71000A8AC35F822309BB223F4E04323F0700349
:10B7200043F4004343F0C00325F8223099E4B5F810
:10B7300050309BB22B44227803EB0213228AA3F8E9
:10B740000C24D6E70023A3610B4617E74BB9B2F8E8
:10B7500004146FEA41416FEA514189B2A2F804141E
:10B760002CE7590813F0010F00D00131B2F804049E
:10B7700080B2890289B20143A2F804141EE74BB9D2
:10B78000B2F80C346FEA43436FEA53439BB2A2F81A
:10B790000C3466E4590813F0010F00D00131B2F8FF
:10B7A0000C3498B28B029BB20343A2F80C3458E4D9
:10B7B000012A7FF456ACB5F8502092B22A44217881
:10B7C00002EB01129BB2A2F80C344AE4012059E4C6
:10B7D00010B45C0800EB420000F5806007E030F830
:10B7E000042B0A70C2F307224A700231013C002C7C
:10B7F000F5D113F0010F01D003880B7010BC704716
:10B8000010B5ADF50C7D114C2146114802F0A6FF94
:10B81000104B18701049114802F0A0FF104B18701F
:10B82000002221460F4802F069FC0A220E4901A8B5
:10B8300002F0AAFC0D4B21220D4901A802F099FD4E
:10B8400001A802F043FF0DF50C7D10BD8812002009
:10B85000C00C01088C1200204C1000203000002089
:10B860005010002054100020140C01084810002033
:10B870000C0000200020704700B583B000931346F1
:10B880000A4601460348FDF7BBFA00B1012003B0A8
:10B890005DF804FBC40E002000B583B0009313468E
:10B8A0000A4601460348FDF7CFFB00B1012003B073
:10B8B0005DF804FBC40E002008B50348FDF706FF41
:10B8C000043818BF012008BDC40E002008B5014689
:10B8D0000148FDF788FE08BDC40E0020704708B57A
:10B8E000FFF7FCFF08BD704708B5FFF7FCFF08BD78
:10B8F000704708B5FFF7FCFF08BD00B583B0012312
:10B900008DF8073000F024F810B900238DF80730C7
:10B910009DF8070003B05DF804FB000038B5FFF7A1
:10B92000ECFF012802D00125284638BD044607480F
:10B93000FDF73EFE05460028F6D14FF400610348AE
:10B94000FDF764FE0028EFD02546EDE7C40E002089
:10B9500008B520210348FBF7C9FC08B9012008BD40
:10B960000020FCE7000C0140024B01221A701878FD
:10B97000704700BF44000020024B01221A70187863
:10B98000704700BF4400002000207047002070472F
:10B990000120704720230380004870479400002056
:10B9A0002023038000487047740000202023038078
:10B9B00000487047540000200A2303800048704765
:10B9C0004800002038B50446037CE3B94FF4007307
:10B9D0000222012104F0DCFD0125C4F86C514FF472
:10B9E000007302228121204604F0D2FDE5624FF46B
:10B9F0001B7004F02DFEC4F8B802A0B1204600F080
:10BA000042F9002038BD40230222012104F0C0FD8C
:10BA10000125C4F86C51402302228121204604F004
:10BA2000B7FDE562E3E70220ECE738B50446012103
:10BA300004F0B9FD0025C4F86C518121204604F0C2
:10BA4000B2FDE562204600F04AF9D4F8B80218B118
:10BA500004F002FEC4F8B852002038BD2DE9F041D0
:10BA600082B006460C46D0F8B8720023ADF8063016
:10BA70000B7813F0600536D0202D40F0B4804A7862
:10BA8000FE2A05D0FF2A1DD000F0B1FE0225ADE050
:10BA90004A8812B9CA88012A05D02146304600F0EA
:10BAA000A6FE0225A2E013F0800FF6D0D0F8BC323B
:10BAB0009B699847386001223946304601F0A4F965
:10BAC000002593E04A8842B9CA8832B913F0800F42
:10BAD00003D100F0F7F8002588E02146304600F059
